:020000040800F2
:1000000030100020C9010008D1010008D301000808
:10001000D5010008D7010008D90100080000000040
:10002000000000000000000000000000DB010008EC
:10003000DD01000800000000DF010008E101000808
:10004000E3010008E3010008E3010008E301000800
:10005000E3010008E3010008E3010008E3010008F0
:10006000E3010008E3010008E3010008E3010008E0
:10007000E3010008E3010008E3010008E3010008D0
:10008000E3010008E3010008E3010008E3010008C0
:10009000E3010008E3010008E3010008E3010008B0
:1000A000E3010008E3010008E3010008E3010008A0
:1000B0003906000801070008E3010008E301000811
:1000C000E3010008E3010008E3010008E301000880
:1000D000E3010008E3010008E3010008E301000870
:1000E000E3010008E3010008E301000800F002F862
:1000F00000F05AF80AA090E8000C82448344AAF168
:100100000107DA4501D100F04FF8AFF2090EBAE865
:100110000F0013F0010F18BFFB1A43F0010318473B
:10012000C01F0000E01F00000A444FF0000C10F850
:10013000013B13F0070408BF10F8014B1D1108BF65
:1001400010F8015B641E05D010F8016B641E01F805
:10015000016BF9D113F0080F1EBF10F8014BAD1C55
:100160000C1B09D16D1E58BF01F801CBFAD505E073
:1001700014F8016B01F8016B6D1EF9D59142D6D3CD
:10018000704700000023002400250026103A28BFF5
:1001900078C1FBD8520728BF30C148BF0B607047F9
:1001A0001FB51FBD10B510BD00F044F81146FFF794
:1001B000F7FF00F014FC00F062F803B4FFF7F2FF61
:1001C00003BC00F065F80000094880470948004773
:1001D000FEE7FEE7FEE7FEE7FEE7FEE7FEE7FEE7F7
:1001E000FEE7FEE704480549054A064B7047000054
:1001F000D9050008ED000008300A0020301000206A
:10020000300C0020300C002070477047704710B54C
:1002100000F008F8006810BD10B5044600F002F8C0
:10022000046010BD00487047CC09002000487047AA
:10023000CC0900207546FFF7F9FFAE460500694678
:10024000534620F00700854618B020B5FFF7CAFFD7
:10025000BDE820404FF000064FF000074FF00008C7
:100260004FF0000B21F00701AC46ACE8C009ACE848
:10027000C009ACE8C009ACE8C0098D46704710B5AC
:100280000446AFF300802046BDE81040FFF795BF5D
:1002900001491820ABBEFEE7260002007047F0B50A
:1002A00004460F46002511E07E1E0CE054F82500A0
:1002B00054F82610884205DD04EB860104EB850026
:1002C00000F036F9761EAE42F0DC6D1C781EA842B6
:1002D000EADCF0BD0B48806940F004000949886100
:1002E00009484068094908430749486008480068C8
:1002F00008490843064908604FF4704004490C312E
:100300000860704700100240000001400002300009
:10031000040801404484488810B54FF40041044863
:1003200000F028F80446034900F006F810BD00006C
:1003300000080140C00900200870C0B90A78824254
:1003400012D14A68642A0AD84A68521C4A604A682C
:100350000A2A0ED101220A7200224A7209E0002202
:100360000A7201224A7204E000224A6001E000227F
:100370004A6070470246002093680B400BB1012091
:1003800000E000207047F0B504460F46002511E05C
:100390006E1C0CE054F8250054F82610884205DA4B
:1003A00004EB860104EB850000F0C2F8761CBE4227
:1003B000F0DB6D1C781EA842EADCF0BD0D488069B8
:1003C00040F00D000B4988610B48006840F0333065
:1003D0000949086009480068094908430749086055
:1003E000FF2005490C3108604FF6FF7003490831C2
:1003F000086070470010024000080140040C0140F2
:10040000444433332DE9F04105468846002415E085
:100410002646671C07E055F8270055F82610884245
:1004200000DA3E467F1C4745F5DBA64205D005EBCA
:10043000840105EB860000F07BF8641CA8F1010044
:10044000A042E5DCBDE8F08110B500F001F810BD78
:100450000CB50020019000903348006840F48030D3
:100460003149086000BF3048006800F40030009057
:100470000198401C0190009818B90198B0F5A06F40
:10048000F1D12948006800F4003010B1012000903B
:1004900001E0002000900098012843D12348006823
:1004A00040F01000214908600846006820F0030071
:1004B00008600846006840F0020008601A4840687A
:1004C000194948600846406848600846406840F45A
:1004D000806048600846406820F47C104860084608
:1004E000406840F4E81048600846006840F08070BA
:1004F000086000BF0C48006800F000700028F9D0C8
:100500000948406820F003000749486008464068F1
:1005100040F00200486000BF0348406800F00C0053
:100520000828F9D10CBD0000001002400020024054
:1005300002680B6803600A60704700B5FFF73EFF72
:10054000FFF7C8FE00F022F900F040F900F068F96A
:1005500000BD000010B51C48006800282FD0FFF730
:10056000DBFE1A48007A38B319480068401C184965
:1005700008600846006818B100F0D2F81549086014
:1005800013480068022803D100F0EEF81149086012
:100590000F480068032803D100F0D4F80D49086023
:1005A0000B480068042804D1002009490860094963
:1005B00008600020054908720020034908600548CA
:1005C000006800F049F810BD94090020C00900201F
:1005D000900900208C09002010B51348006840F0F5
:1005E00001001149086008464068104908400E495A
:1005F0004860084600680E4908400B4908600846F4
:10060000006820F4802008600846406820F4FE005E
:1006100048604FF41F008860FFF716FF4FF000603E
:100620000449086010BD0000001002400000FFF8FF
:10063000FFFFF6FE08ED00E04FF08040008A00F07A
:10064000010010B101200349086000204FF08041F3
:1006500008827047940900202DE9F04104462248A1
:10066000006800283ED021480068401C1F490860EF
:100670000846006805282FDA08460068401E4FF437
:10068000004101411A48016018490968481E01F0FB
:1006900002F907463A460B460020164900F0A6F933
:1006A000054601F0C9F894FBF0F00A2190FBF1F245
:1006B00001FB1200104951F8200010490860012088
:1006C00000F07EF909480068401E4FF400410141E6
:1006D0000748001F016002E0002004490860002074
:1006E00001490860BDE8F0819809002088090020D0
:1006F000140C014000002440000000200C080140C0
:100700000548008800F0010010B10120034908608D
:10071000002001490880704710040040980900201B
:1007200010B5002400F036F9C8210448FFF7B7FDE2
:100730000348048800F03CF9204610BD68060020FC
:10074000242C014010B5002400F024F9C8210448ED
:10075000FFF719FE0348048800F02AF9204610BD6F
:1007600028000020242C014010B5002400F012F9CC
:10077000C8210448FFF746FE0348048800F018F932
:10078000204610BD48030020242C01400D488069FC
:1007900040F400600B4988610B48008840F001007C
:1007A000094908804FF6FF7007492C31088047201F
:1007B000091F088004481030008803491031088060
:1007C0007047000000100240002C01401248C06930
:1007D00040F001001049C86140F2E7308904888583
:1007E000472008850846008A08820846808940F02C
:1007F000010088810948006840F080504FF0E021F6
:10080000C1F800014FF08040008840F001004FF037
:1008100080410880704700000010024000E100E0C5
:100820001448C06940F002001249C86140F2E73044
:10083000114908804720091F08800F481C3800888C
:100840000D491C390880081F008840F00100091F6D
:1008500008800A48006840F000504FF0E021C1F8DD
:10086000000105482C38008840F0010002492C396D
:1008700008807047001002402C04004000E100E0B6
:10088000490050EAC12018BF04204A0D18BF40F0AB
:10089000010040F2FF72B2EB515F08BF40F002006E
:1008A000012808BF052070472DE9F0414F1E00EBDD
:1008B000C7010446D1E9000115461E4637F006027D
:1008C0000DD02A46334601F039F87F1E04EBC703EA
:1008D000D3E9002300F09CFD37F00602F1D1022F8E
:1008E00025D0042F13D0062F18BFBDE8F0812A466B
:1008F000334601F023F8D4E90A2300F089FD2A46A3
:10090000334601F01BF8D4E9082300F081FD2A46A4
:10091000334601F013F8D4E9062300F079FD2A46A6
:10092000334601F00BF8D4E9042300F071FD2A46A8
:10093000334601F003F8D4E9022300F069FD2A46AA
:10094000334600F0FBFFD4E90023BDE8F04100F09E
:100950005FBD0000002213461046014900F014BE9E
:100960000000F03F00F054BD00221346104611462F
:1009700000F00ABE40F2013200204FF0E04101F0E9
:100980001FBB0000024A0020110701F019BB000044
:1009900001FDFFFF0548008840F001000349088081
:1009A000002002492431088070470000002C0140DB
:1009B000024800880149088070470000002C01406F
:1009C000002109E0002201E0531C9AB242F6FF2305
:1009D0009A42F9DB4B1C99B28142F3DB7047FFF777
:1009E000ACFD01E0FFF7B6FDFCE700002DE9F04D9E
:1009F0001D460C4698B0174621F0004123F00043F5
:100A0000002814BF4FF0010C4FF0000C0CEB440C0D
:100A1000FE4A0CEB02064FEA620C66452BD33E0001
:100A200018BF012606EB45061644F94A964222D322
:100A3000F84A53EA070C02D0944205D148B918B0DD
:100A400000201146BDE8F08D002808BF4FF0000CD3
:100A500001D04FF0010C0CEB440212F5001F0AD834
:100A6000002F14BF4FF0010C4FF0000C0CEB4502AF
:100A700012F5001F07D918B03A462B462146BDE8AB
:100A8000F04DFFF76FBF0022DFF88CA3002CB8BF3A
:100A9000534526DADFF884C36345A8BF022220DA73
:100AA000DFF870C39C451CDCDFF874C30CEB235CDF
:100AB000BCF1140F08DDCCF1340627FA06FC0CFA61
:100AC00006F6BE420DD108E05FB9CCF1140623FA58
:100AD00006FC0CFA06F69E4203D10CF00102C2F1AC
:100AE000020251EA000C19D1002D17DA002C18BFB0
:100AF000022A01D0012A07D00220FFF78DFB18B08F
:100B0000BDE8F04DFFF726BF0220FFF785FBFFF79A
:100B100021FF18B081F00041BDE8F08DB7F1000C65
:100B20006CD1534525D104F1804212F5801201BFEA
:100B300000280020B74918B008BFBDE8F08DB548BF
:100B4000884207DC002DA1BF6046294618B0BDE8E9
:100B5000F08D07E0281E05DA80F0004118B06046ED
:100B6000BDE8F08DAF497944D1E9000118B0BDE886
:100B7000F08DDFF8A0C2634525D1002D1FDA19B131
:100B8000514512D1D8B909E0002840F0EC82A24AC0
:100B9000214618B062F31E01BDE8F08D0020214609
:100BA00018B060F31E01BDE8F08D08DA18B02346D6
:100BB000BDE8F04D02460020614600F0E5BC18B0EB
:100BC0002146BDE8F08D514518DAB5F1804F0DD0C2
:100BD000A5F1005CBCF1FF5C10D1B4F1000C0DDBA1
:100BE00018B06146BDE8F04D00F0ECBB234618B0EC
:100BF0000246BDE8F04D194600F0A0BE060024F004
:100C0000004C3BD1D9B1514533D1002C06DD002D2C
:100C1000A1BF0020514618B0BDE8F08D002C01DDC9
:100C2000002D1BDB002C13DA002D11DB012A4FF005
:100C3000000014BF78497C4918B0BDE8F08D022A45
:100C400018BF002C0AD0012A08D1002C06DA0AE0CD
:100C5000002CB8BF002D11DA012A04D0002018B0F2
:100C60000146BDE8F08D18B000204FF00041BDE80E
:100C7000F08DA1F14050B0F17F601AD0012000EB5F
:100C8000E47050EA020421D0624C521E4FF0000B77
:100C9000104304BF4FF0000B644C654883427CDD79
:100CA000644A654893421FDD884217DB002D25DB2F
:100CB00037E0002C00DA4AB1022A0CBF01204FF0C5
:100CC000FF3018B0BDE8F04D00F0E5BD0120FFF7A2
:100CD000A3FA18B0BDE8F04DFFF746BE4D4A8A4270
:100CE00002DC002D0ADC1CE0814202DA002D18DA59
:100CF00004E0484B994220DD002D12DD0220FFF771
:100D00008BFAFFF737FE05460E460022534658463B
:100D1000214600F013FE18B066F31E012846BDE818
:100D2000F08D0220FFF778FAFFF72CFE0A462146E5
:100D300018B062F31E01BDE8F08D00223046614616
:100D400001F022F880460E466FF0010201F038F9FA
:100D50004FF05532394B00F025FF4246334600F044
:100D6000EDFD0022364B00F01DFF82464246334621
:100D700004911046194600F0E1FD5246049B00F034
:100D8000DDFD8A4600904FF0C0422E4B4046314672
:100D900000F0D4FD2C4A2B4B00E027E0CDE9060102
:100DA0005146009800F0CAFD82460191274A284B1F
:100DB0004046314600F0C2FD5246019B00F0E4FF80
:100DC00082460B4602460591DDE9060100F020FB54
:100DD000DDE9062300268846304600F0D5FF52465E
:100DE000059B00F0DFFE024600F07EB90020B1F561
:100DF000801F07DA35223046614601F0E1F80646E9
:100E00006FF0340000EB215024E00000FFFF1F00D2
:100E1000FFFF0F000000F03F0000F07F00004043A4
:100E200001FCFFFF6E1500000000F0FF0000F0BFA6
:100E30000000E0410000F043FFFFEF3F5555D53F74
:100E40000000E03F4715F73FFE822B6544DF5DF869
:100E50000BAE543EA0F2FF300190C1F3130040F0FE
:100E60007F6141F040510291FE498842D8BF002085
:100E700004DDFD498142C8BF012001DD0D9008E07D
:100E800000200D900198401C01900298A0F5801060
:100E900002900299F54878440B910D9900EBC1003E
:100EA000D0E900230F9330460A920B9900F06CFFB3
:100EB000CDE90601DDE90A2130460F9B00F0A8FAD2
:100EC00002460B460020EA4900F05EFB059102460F
:100ED0000B460090DDE9060100F030FD1490E54876
:100EE0008A464FF0000878440299006812904FF04B
:100EF000005040EA61010D980F9B01EB804000F526
:100F0000002109910A9A129800F03EFF32460B9B8D
:100F100000F048FE4246534600F010FD064602919E
:100F200040465146099B129A00F008FDDDE9062370
:100F300000F038FE3246029B00F026FF059B009A27
:100F400000F0FCFC0091149A049053461046194698
:100F500000F0F4FC06460246C7480B460291062103
:100F60007844FFF7A1FCCDE90510029B32461046FC
:100F7000194600F0E3FCDDE9053200F0DFFC0591E5
:100F80000646534640461946149A00F041FA009B23
:100F9000049A00F0D3FC3246059B00F039FACDE903
:100FA0000510424653461046194600F0C7FC002281
:100FB000B24B02910A9000F02BFADDE9053200F005
:100FC00027FA0E464246AD4B404600F0DDFE029B3E
:100FD0000A9A00F0D9FEDDE9053200F0E3FD424651
:100FE00002910A9033461046514600F0A7FCCDE925
:100FF00006015346149A02990A9800F09FFC8A460B
:101000000290334642460099049800F097FC5346FC
:10101000029A00F0FDF982460B4602460591DDE991
:10102000060100F0F5F9DDE90623002088460646B2
:1010300000F0AAFE5246059B00F0B4FD82460991DD
:101040004FF060428E4B3046414600F077FC0490F2
:1010500006918C4A8A4B5046099900F06FFC8246F3
:101060000291894A894B3046414600F067FC52465E
:10107000029B00F0CDF9864B7B440D9A03EBC20333
:10108000D3E9002300F0C4F90E900791019800F015
:1010900002FC0591DDE9061382460E9A049800F0E1
:1010A000B7F97C4A7A440D9B02EBC303D3E90023D2
:1010B0000093029200F0ACF95246059B00F0A8F9AB
:1010C0000026884652463046059B00F05DFE009B98
:1010D000029A00F059FE069B049A00F055FE079B09
:1010E0000E9A00F05FFD024600200B460290384643
:1010F000294600F023FC824601912B4638461946CA
:10110000029A00F041FE3246434600F017FC524678
:10111000019B00F07DF907468A4632464346294640
:10112000029800F00BFC05460E463A46534600F086
:101130006FF9594A8846914221DBA8EB020353EA32
:10114000000210D12A46334600F01EFECDE904010C
:10115000524A534B3846514600F05AF9DDE9042310
:1011600000F0EAFC21D20220FFF756F8FFF702FC5C
:101170000A46214618B062F31E01BDE8F08D494BC6
:1011800028F000429A4210D3474A08EB020353EA80
:1011900000027FF4C6AD2A46334600F0F5FD3A461C
:1011A000534600F0C9FC7FF6BCAD0022019228F046
:1011B00000403E493E4A01EB2051824223DA481C5E
:1011C0004FF4801121FA00F040443A4AC0F30A512A
:1011D0007A44394BA1F2FF31CB4020EA0303C0F33C
:1011E000130040F48010C1F11401C840126801904E
:1011F000B8F1000FBCBF404201902846314600F0D4
:10120000C3FD05460E462A4633463846514600F091
:10121000FFF84FF000084246284B4046059100F089
:101220008DFBCDE90601264A264B4046059900F084
:1012300085FB009102902A4633464046059900F00E
:10124000A3FD3A46534600F0ADFC1F4A1F4B00F089
:1012500075FB009B029A00F0DBF8074688460246C1
:101260000B4635E08E9803007AB60B00B6110000ED
:101270000000F03FEE1100001C11000000000840CB
:1012800009C7EE3FFD033ADCF5015B14E02F3EBEDB
:10129000F40F0000B80F000000009040FE822B65A4
:1012A0004715973C00CC904000346F3F01FCFFFF96
:1012B0000000E03F040F0000FFFF0F00432EE63F59
:1012C000396CA80C615C20BEEF39FAFE422EE63F75
:1012D000DDE9060100F09CF8DDE9062305460E462F
:1012E00000F052FD3A46434600F05CFC0F462A46A9
:1012F000334600901046194600F020FB8246024615
:101300002E4888460B4605217844FFF7CDFA524611
:10131000434600F013FB2A46334600F043FC804668
:101320008A463B4628463146009A00F007FB3B467A
:10133000009A00F06DF80691009000224FF0804373
:101340004046514600F020FD0F460C904246534661
:101350002846314600F0F2FA3B460C9A00F014F9A8
:10136000069B009A00F010FD2A46334600F00CFD63
:101370000022134B00F016FC054601980E4601EBC7
:1013800000510815002810DC28463146019A00F06B
:1013900017FEFFF775FA042808BFFFF7F3FA28468F
:1013A0003146019A00F00CFE05460B4618B02A465D
:1013B00058462146BDE8F04D00F0C0BAA40D00002B
:1013C0000000F03F2DE9F04106460F4600F0F6FB25
:1013D000041E0D4618BF0120284320F00040C0F134
:1013E0007F6000F1E040C00F0ED0301C18BF01201C
:1013F000384320F00040C0F17F6000F1E040C00FB2
:1014000004BF0120FEF708FF20462946BDE8F08111
:1014100010B591EA030F48BF83F0004300F1BC848C
:10142000841A71EB030C05D2121943EB0C03001B59
:1014300061EB0C01DFF824E14FEA1154A4EB135CDB
:101440001EEA430F18BF9EEA445F73D023EA0E03DF
:10145000DCF1200E21EA045143F4801332D322FA46
:101460000CFE10EB0E0023FA0CFE41EB0E01CCF14A
:10147000200E03FA0EFE10EB0E0051F10001B1F543
:10148000801FCCF1200E32D201EB045112FA0EF281
:10149000BDE8104058BF7047401C38BF5FEA4202A9
:1014A00018BF7047002814BF20F0010041F100016F
:1014B0004FEA410313F5001F38BF7047A1F1C04147
:1014C00000F034BB012A43EB0302ACF1200CDCF149
:1014D0001F0E32BF4FF0000E23FA0CF310EB030087
:1014E00041EB0451B4EB115FD0D0A1EB045101F5F5
:1014F000801149085FEA300001EB04510ED350F12E
:10150000000038BF12FA0EFE08D1BDE81040C9E74E
:10151000401C38BF5FEA4202CAD1C3E7BDE81040B1
:101520004FEA410313F5001F38BF7047A1F1C041D6
:1015300000F0FCBA9EEA445F08D011EA5E0FBDE8F5
:10154000104004BF01F0004100207047BDE810408A
:1015500070B500F09DFA00BF64FBBE3E0000E0FFE6
:1015600002494FF0000000F0F9BC00BF0000F87F16
:10157000491058BFC1F140415B1058BFC3F140430F
:101580008B42EFF3008070472DE9C04130B4DFF8A3
:10159000A0C23CEA111418BF3CEA131400F0EC801E
:1015A00081EA03051CEA111444EAD57418BF1CEA49
:1015B000131500F0C780A4EB05044FF0004545EA81
:1015C000C12145EAC32341EA505143EA525304F191
:1015D0007F74994204F500344FEAC0204FEAC222DA
:1015E00008BF904200F09C804FEA13650FF240164E
:1015F000765D4FEA134506FB05F7C7F1807706FBDA
:1016000007F74FEAD737A7FB03687642C8F580385B
:10161000A7FB06CE38BFA8F1010807FB08E64FF08C
:10162000000EA6FB028CE6FB03CEDCF1000CCEF133
:10163000004E38BFAEF1010EA6FB0C584FF000076C
:101640004FF00005E6FB0E87A1FB08C6A0FB07CE06
:1016500016EB0E0645F10005E1FB076515F1E04EBE
:101660007EBFA4F580345FEA46066D4116F180071F
:1016700045F100054FEA17274FEA066647EA056776
:10168000A6F1DE46B6F1805F4FEA15251FD9384630
:1016900024F0010C05EBC471BCF1FE6F01EB0C11E1
:1016A00002D8F0BCBDE8008124425CBF01F5801E79
:1016B0009EEAC47F02D4F0BCBDE80081244238D445
:1016C000F0BCA1F1C041BDE8004100F02FBA4FEAE3
:1016D000D22242EA43524FEAD323A7FB02864FEAC3
:1016E000D02040EA415007FB03661EEA0E0F4FEA86
:1016F000D12105FB026658BFA6EB0056B6EB00569B
:101700004FEA520E4EEAC37E18EB0E0E56EB530E06
:10171000BDD518EB02085E417F1C55F10005B6E708
:101720004FF480154FF000074FF000064FF000080F
:10173000ADE7F0BC4FF0000001F1C04101F0004105
:10174000BDE8008111EA0C1F0CEA131500D00CE073
:1017500013EA0C1F00F025804FF00000F0BC81EA76
:10176000030101F00041BDE80081F0BCBDE800418B
:1017700081EA030100F0DAB9F0BCBDE8004170B5C0
:1017800000F086F9097EFC3E00F007B881EA03010B
:101790004FF0000001F00041704781EA030100F0C2
:1017A000C5B9F0BCBDE800414FF0000021497047C9
:1017B000FFFDFBF9F7F5F4F2F0EEEDEBE9E8E6E416
:1017C000E3E1E0DEDDDBDAD8D7D5D4D3D1D0CFCD9D
:1017D000CCCBCAC8C7C6C5C4C2C1C0BFBEBDBCBBD6
:1017E000BAB9B8B7B6B5B4B3B2B1B0AFAEADACABD1
:1017F000AAA9A8A8A7A6A5A4A3A3A2A1A09F9F9EAB
:101800009D9C9C9B9A99999897979695959493935C
:10181000929191908F8F8E8E8D8C8C8B8B8A8989F3
:101820008888878786858584848383828281818076
:101830000000FF070000F87F4FEA41034FEA5353CF
:10184000A3F58063D3F11E03C8BFD3F1210C0CDDD7
:101850004FF0004242EAC12242EA505232FA03FCFF
:101860008CEAE17CACEBE1707047102BC4BF002028
:10187000704703F5787CBCF1FF3F04D06FF0004265
:1018800082EA2100704770B500F002F94992248085
:1018900000207047F2E710F0004248BF4042B0FA23
:1018A00080F310FA03F10AD0C3F11D0303F580633E
:1018B0004FEA415002EB035202EBD12170474FF047
:1018C0000000704751EA030C17D41CF5801F58BF65
:1018D000BCF5801F00F10680994218BF704708BF11
:1018E0009042704707D711F5801F58BF13F5801F2E
:1018F00019D499427047894270471CF5801F08D55A
:10190000BCF5801FF7D58B4218BF704708BF8242D5
:1019100070474FF4001C1CEB410F38BF1CEB430F0A
:1019200001D28B42704770B500F0B2F892244900A2
:101930004FF000514FF08053FFF71ABEDFF848C157
:1019400070B51CEA111E1EBF1CEA13159EEA0C0F8F
:1019500095EA0C0F00F06F8081EA030423EA4C1330
:101960004EEAD47E21EA4C1141F4801143F48013F5
:10197000AE44A1FB024CA0FB0365AEF17F7E36199D
:1019800055EB0C05A1FB034C4CF10003A0FB021C22
:1019900016EB0C06654153F10003094218BF46F0EF
:1019A000010613F4007F0BD14FEA03314FEA0530F3
:1019B000340341EA155140EA16506FF003020AE081
:1019C0004FEAC3214FEAC520F40241EA555140EAEB
:1019D00056506FF0020202EB2E4201EB025585EAEF
:1019E000CE710AD05FEA440C18BF24F0004450F1D5
:1019F000000041F1000120EAD47040F2FE7C624513
:101A000000D270BDA84214BF4FF080444FF0404454
:101A1000002E08BF0024BEF1806FA8BFA1F1C04115
:101A2000BDE8704080F282804FF0000001F1C041BB
:101A300001F0004170479EEA0C0F0CEA131518BF25
:101A400095EA0C0F06D04FF0000081EA030E0EF06D
:101A5000004170BD00F01CF88900013E00F007B89D
:101A600000F009B84FEA430C5FEA5C5C08D081EAF9
:101A7000030100F05BB84FEA410C5FEA5C5CF6D111
:101A80004FF00000014970470000FF070000F87F99
:101A90000EF1020E2EF0030E5EF8046B364205D4F2
:101AA000012A43EB030515F5001F12D8012841EB6D
:101AB000010C1CF5001F0CD80ED14FEAD17C15F596
:101AC000001F0CEB4C0C0CF1020C08BF4CEBD37C50
:101AD00004E04FF0080C01E04FEAD37C0CEB4C051E
:101AE00026FA05F606F00706B6F1040C06D20EEB50
:101AF000860CBDE870404CF0010C6047DFE80CF04C
:101B0000090B02024FF000414FF00000A1F5002147
:101B100070BD19461046012851EB010418BFD4F5D9
:101B2000001484BF002001F0004170BD0808A0F53A
:101B300000114FEA3101704753EA010C17D41CF52C
:101B4000801F58BFBCF5801F00F106808B4218BF74
:101B5000704708BF8242704707D713F5801F58BFF0
:101B600011F5801F19D48B4270479B4270471CF5BA
:101B7000801F08D5BCF5801FF7D5994218BF704764
:101B800008BF904270474FF4001C1CEB430F38BF56
:101B90001CEB410F01D2994270470FB40CBC03BC3F
:101BA000FFF7C1BE91EA030F10B581F000413FF588
:101BB00037AC83F0004300F0EFB800002DE9F041AE
:101BC00001F5801CBCF5001FC0F2C3804FEA115C18
:101BD00021EA0C510CF1FD0C41F480115FEA5C0C20
:101BE0000CF5C07C01D3400049413DA4890241EA83
:101BF000905187028E0E0A0CA45D04FB04F602FBD2
:101C000006F6C6F14046A4FB0662F60D46EA4226F9
:101C100006FB06F4A4FB01235242C3F1404338BF44
:101C20005B1EA6FB02420024E6FB0324D20B42EA21
:101C30004446A6FB0623A1FB02E2A3FB07E4A4188B
:101C40004FF0000252F10002E3FB01426442C2F194
:101C5000404E38BFAEF1010EA6FB04234FF0000248
:101C6000E6FB0E32A2FB03464FF00004B61954F116
:101C70000004E2FB0264A1FB06E6A4FB07E816EB06
:101C800008064FF0000858F10008E4FB01687642AE
:101C9000C8F1405838BFA8F10108A2FB06E4A3FB35
:101CA00008E52D194FF0000454F10004E2FB08543C
:101CB000A1FB05E6A7FB04E818EB06084FF00006B9
:101CC00056F10006E1FB048618F1200556F10006E6
:101CD000A809A8F11B08B10908F03F08B8F10A0FDC
:101CE00040EA86601CD901EB0C51BDE8F08100BFD1
:101CF000FCF5EEE8E2DDD8D3CFCBC7C3C0BDB9B6A3
:101D0000B4B1AEACA9A7A5A3A19F9D9B9A989695A7
:101D10009392908F8D8C8B8988878685848382812E
:101D2000A0FB006800FB01F208EB4208B8EB872833
:101D300007D5341858EB0104D5D5401C51F10001EA
:101D4000D1E7341A78EB0104CDD4401E71F10001C3
:101D5000C9E75FEA4C0C5FEA9C5C0DD105D34FF0FC
:101D6000000001F00041BDE8F081BDE8F04170B530
:101D7000FFF78EFE6DDBFFBEBDE8F0414FF00000C7
:101D8000004970470000F87F10B591EA030F48BF83
:101D900083F000433FF544AB841A71EB030C07D288
:101DA00012198CF0004C43EB0C03001B61EB0C018F
:101DB000DFF8A4E14FEA1154A4EB135C1EEA430FD1
:101DC00018BF9EEA445F00F0B08023EA6E035242DF
:101DD00021EA0451C3EB6E0338BF5B1EDCF1200E19
:101DE00025D322FA0CFE10EB0E0043FA0CFE41EB59
:101DF0000E01CCF1200E03FA0EFE10EB0E0051F195
:101E00000001CCF1200E29D412FA0EF201EB04519C
:101E1000BDE8104058BF7047401C1CBFB2F1004FD6
:101E2000704700280CBF491C20F00100704712EBDE
:101E3000020E43EB030218BF4FF0010E4EEA4202BE
:101E4000ACF1200CDCF11E0E54D943FA0CFE10EB61
:101E50000E0051F1FF31CCF11E0ED5D50EF1010E61
:101E600012FA0EFE404141EB010101EB445C5FEAD6
:101E70005C5C10D910EBDE7001EB045138BFBEF191
:101E8000004FBDE8104018BF704700280CBF491C28
:101E900020F00100704730D24FEAD42C11F5001128
:101EA00024F400641BD0B1FA81F20B3AA41AA41EE8
:101EB000D2F12003914030FA03F31943904001EB33
:101EC000CC71002C01EB0451BDE81040A8BF704755
:101ED00001F1C0414FF0000001F000417047B0FA3D
:101EE00080F310FA03F100D110BDE41A173C480545
:101EF000C90AE4E701EB045110BD491001EB04519C
:101F0000BDE810404FEA300002E04FF0000170479A
:101F10004A0008BF0042F8D0B2F5001F28BF704742
:101F200001F000414FF0000070479EEA445F07D087
:101F300011EA5E0FBDE8104004BF00210020704789
:101F4000BDE8104070B5FFF7A3FD00BF40DFF63ECF
:101F500083F00041104670470000E0FF0CF00F03D3
:101F6000092B08BF082000F059800A2B0BD0082B42
:101F700018BF704708BF1CF0400F0AD04FF0000098
:101F80004FF0000170471CF0400F18BF4FF00040A9
:101F900070471CF0100F08D020F0704300F07F4213
:101FA00042EAD3014FEA4370704700F0604021F0ED
:101FB0007F4242EA000201F07F4040EA72707047BF
:101FC0004FF0FF0C4CF4E06C1CEA11531CBF9CEA70
:101FD000030C9445C2BFDA4201EB02517047002B5B
:101FE0000DD0BCF1000F0FD0002A01F00041A4BFBA
:101FF00041F0E04141F07F614FF00000704701F097
:1020000000414FF00000704750EA01334FF09B0C45
:1020100018BF4CF0806C7FF4A3AA70471CF4801F9B
:1020200011D01CF4E02F03D06FEACC314900704787
:102030004FF04050EFF3008222F0704242EA00027B
:1020400082F3008870474FF00000704700000000E6
:10205000000000000000F03F000000000000F83F1A
:1020600000000000000000000000004003B8E23F54
:10207000000000000000000006D0CF43EBFD4C3E06
:10208000033333333333E33FFFAB6FDBB66DDB3FFB
:102090004D268F515555D53F01411DA96074D13F43
:1020A00065DBC9934A86CD3FEF4E454A287ECA3F3D
:1020B0003E5555555555C53F93BDBE166CC166BFBF
:1020C0002CDE25AF6A56113FF16BD2C541BDBBBEB8
:1020D000D0A4BE726937663E000000000000000018
:1020E00000210008000000209C09000028010008D1
:1020F000C42500089C090020940600008401000803
:1021000032C032F932A432B032993292328232F88D
:10211000328032903201320A3207321B32023215DB
:1021200032083229320F3206320B322E32673269D0
:1021300032033222327932B53204327C325E32439B
:102140003210323032333264327E32343212326EF6
:1021500032363205322632973294325332143213E9
:10216000320932AA327632BE29D0322432115AA72D
:10217000CC3255320C321D3252329A3298323C32C5
:1021800035320D3219321A323B32B1329C325D3265
:1021900047320E32C832C232663245322832773286
:1021A0005132543256325732B932AD32483291320E
:1021B0006132163221328E324932A032B432C73205
:1021C000423244327A322A32BA324F3217322C3209
:1021D0001832A43287326C32BB321C321F323E328C
:1021E00070329D324B321E3220326F3285325B327A
:1021F00023322732BD32B8322F3225326032AB3231
:102200006A32AC32C632C432683231322B323D329D
:1022100083329F329E326B32933295327132633207
:102220002D32C53272323F327F323732B032BC3259
:102230008C32A1325932B332403250325A329B3250
:1022400065324D327B32BF323932A9323232893275
:102250004A32743262329932AE3258323832963261
:10226000B632C332413280325C327D32A8328D3296
:10227000A53275323A32A332883284327332463212
:10228000C132A632A232AF32B232B7324E326D32E2
:1022900078328132823286325F328A328B324C32ED
:1022A0008F32903201320A3207321B32023215323B
:1022B000083229320F3206320B322E32673269323F
:1022C000033222327932B53204327C325E3243320A
:1022D00010323032333264327E32343212326E3265
:1022E0003632053226329732943253321432133258
:1022F0000932AA327632BE32C03224321132A732CB
:10230000923255320C321D3252329A3298323C326D
:1023100035320D3219321A323B32B1329C325D32D3
:1023200047320E32C832C2326632453228327732F4
:102330005132543256325732B932AD32483291327C
:102340006132163221328E324932A032B432C73273
:10235000423244327A322A32BA324F3217322C3277
:102360001832A43287326C32BB321C321F323E32FA
:1023700070329D324B321E3220326F3285325B32E8
:1023800023322732BD32B8322F3225326032AB329F
:102390006A32AC32C632C432683231322B323D320C
:1023A00083329F329E326B32933295327132633276
:1023B0002D32C53272323F327F323732B032BC32C8
:1023C0008C32A1325932B332403250325A329B32BF
:1023D00065324D327B32BF323932A93232328932E4
:1023E0004A32743262329932AE32583238329632D0
:1023F000B632C332413280325C327D32A8328D3205
:10240000A53275323A32A332883284327332463280
:10241000C132A632A232AF32B232B7324E326D3250
:1024200078328132823286325F328A328B324C325B
:102430008F32903201320A3207321B3202321532A9
:10244000083229320F3206320B322E3267326932AD
:10245000033222327932B53204327C325E32433278
:1024600010323032333264327E32343212326E32D3
:1024700036320532263297329432533214321332C6
:102480000932AA327632BE32C03224321132A73239
:10249000923255320C321D3252329A3298323C32DC
:1024A00035320D3219321A323B32B1329C325D3242
:1024B00047320E32C832C232663245322832773263
:1024C0005132543256325732B932AD3248329132EB
:1024D0006132163221328E324932A032B432C732E2
:1024E000423244327A322A32BA324F3217322C32E6
:1024F0001832A43287326C32BB321C321F323E3269
:1025000070329D324B321E3220326F3285325B3256
:1025100023322732BD32B8322F3225326032AB320D
:102520006A32AC32C632C432683231322B323D327A
:1025300083329F329E326B329332953271326332E4
:102540002D32C53272323F327F323732B032BC3236
:102550008C32A1325932B332403250325A329B322D
:1025600065324D327B32BF323932A9323232893252
:102570004A32743262329932AE325832383296323E
:10258000B632C332413280325C327D32A8328D3273
:10259000A53275323A32A3328832843273324632EF
:1025A000C132A632A232AF32B232B7324E326D32BF
:1025B00078328132823286325F328A328B324C32CA
:0425C0008F021790DF
:04000005080000ED02
:00000001FF
