:020000040800F2
:10000000A007002089010008E1030008D9030008C7
:10001000DD03000843020008670C00080000000030
:10002000000000000000000000000000ED050008D6
:100030007702000800000000A9050008D9060008A2
:10004000A3010008A3010008A3010008A301000800
:10005000A3010008A3010008A3010008A3010008F0
:10006000A3010008A3010008A3010008A3010008E0
:10007000A3010008A3010008A3010008A3010008D0
:10008000A3010008A3010008A3010008A3010008C0
:10009000A3010008A3010008A3010008A3010008B0
:1000A000A3010008A3010008A3010008A3010008A0
:1000B000A3010008A3010008A3010008A301000890
:1000C000A3010008A3010008A3010008A301000880
:1000D000A3010008850A0008E90A0008590B000876
:1000E000A3010008A3010008A301000800F002F822
:1000F00000F03AF80AA090E8000C82448344AAF188
:100100000107DA4501D100F02FF8AFF2090EBAE885
:100110000F0013F0010F18BFFB1A43F0010318473B
:100120008C0E0000AC0E0000103A24BF78C878C1D5
:10013000FAD8520724BF30C830C144BF04680C60ED
:10014000704700000023002400250026103A28BF35
:1001500078C1FBD8520728BF30C148BF0B60704739
:100160001FB51FBD10B510BD00F031F81146FFF7E7
:10017000F7FF00F07BFD00F04FF803B4FFF7F2FF4C
:1001800003BC00F057F800000948804709480047C1
:10019000FEE7FEE7FEE7FEE7FEE7FEE7FEE7FEE737
:1001A000FEE7FEE704480549054A064B7047000094
:1001B000DD060008ED000008A0010020A0070020D7
:1001C000A0030020A00300207047704770477546C9
:1001D00000F02CF8AE4605006946534620F00700B3
:1001E000854618B020B5FFF7DDFFBDE820404FF091
:1001F00000064FF000074FF000084FF0000B21F011
:100200000701AC46ACE8C009ACE8C009ACE8C009DD
:10021000ACE8C0098D46704710B50446AFF30080C6
:100220002046BDE81040FFF7A8BF00000048704717
:100230003C01002001491820ABBEFEE72600020069
:10024000704700BFFEE70EB50121084600F0AEF989
:100250000020ADF802004FF6FF70ADF80400022058
:10026000ADF8000000208DF8080069464FF080408E
:1002700000F0B0FB0EBD704710B5FFF7E4FF0121A1
:10028000880700F05BFA00214FF0804000F0A0FBEF
:1002900000BF4FF0804000F06CFA48F6A041884261
:1002A000F7DB00214FF0804000F048FA10BD10B598
:1002B000044601E0FFF7E0FF201EA4F10104F9D19C
:1002C00010BD2DE9F0410246002500260020002344
:1002D0000024002791F803C00CF00F0591F803C02B
:1002E0000CF0100CBCF1000F03D091F802C04CEAE6
:1002F000050591F800C0BCF1000F31D01468002052
:100300002BE04FF0010C0CFA00F3B1F800C00CEA3E
:1003100003069E4220D183004FF00F0C0CFA03F726
:10032000BC4305FA03FC4CEA040491F803C0BCF199
:10033000280F06D14FF0010C0CFA00FCC2F814C0D3
:100340000AE091F803C0BCF1480F05D14FF0010C51
:100350000CFA00FCC2F810C0401C0828D1D314606D
:10036000B1F800C0BCF1FF0F34DD546800202EE06E
:1003700000F1080C4FF0010808FA0CF3B1F800C0C6
:100380000CEA03069E4221D183004FF00F0C0CFAB9
:1003900003F7BC4305FA03FC4CEA040491F803C0DC
:1003A000BCF1280F05D100F1080C08FA0CF8C2F8CE
:1003B000148091F803C0BCF1480F07D100F1080C7C
:1003C0004FF0010808FA0CF8C2F81080401C082809
:1003D000CED35460BDE8F08100BFFEE700BFFEE76A
:1003E00070470000FEB504460F4615461E462048DD
:1003F000844203D10121C01400F0E8F8B4F1804F29
:1004000003D10121084600F0D1F81A48844203D1F3
:100410000121022000F0CAF81748844203D10121CB
:10042000042000F0C3F83946204600F04BF8681E5F
:1004300080B2ADF80400701E80B2ADF8000000205C
:10044000ADF80200ADF806008DF8080069462046B8
:1004500000F0C0FA3946204600F010F8012120468D
:1004600000F078F90121204600F068F9FEBD000097
:10047000002C014000040040000800407FB5054604
:100480000C466020ADF800000020ADF80800012007
:10049000ADF802001CB96946284600F06DF9012C40
:1004A00003D16946284600F0B3F9022C03D169460E
:1004B000284600F0FFF9032C03D16946284600F0D6
:1004C00049FA7FBD70B505460C463448854216D1C1
:1004D0001CB91821082000F0E3FB012C03D11821DE
:1004E000092000F0DDFB022C03D118210A2000F0C6
:1004F000D7FB032C03D118210B2000F0D1FBB5F161
:10050000804F16D11CB91821002000F0C9FB012C26
:1005100003D11821012000F0C3FB022C03D11821C4
:10052000022000F0BDFB032C03D11821032000F0B2
:10053000B7FB1B48854216D11CB91821062000F0D4
:10054000AFFB012C03D11821072000F0A9FB022CDE
:1005500003D11821102000F0A3FB032C03D1182194
:10056000112000F09DFB0F48854216D11CB91821BF
:10057000162000F095FB012C03D11821172000F064
:100580008FFB022C03D11821084600F089FB032CB5
:1005900003D11821192000F083FB70BD002C01400D
:1005A00000040040000800407047000029B1064ADE
:1005B000D2690243044BDA6104E0034AD269824300
:1005C000014BDA61704700000010024029B1064A71
:1005D00092690243044B9A6104E0034A92698243A0
:1005E000014B9A617047000000100240704710B53F
:1005F00000F002F810BD00000CB500200190009042
:100600003348006840F480303149086000BF30480A
:10061000006800F4003000900198401C01900098A0
:1006200018B90198B0F5A06FF1D12948006800F41D
:10063000003010B10120009001E0002000900098EF
:10064000012843D12348006840F010002149086088
:100650000846006820F0030008600846006840F083
:10066000020008601A484068194948600846406816
:1006700048600846406840F480604860084640682A
:1006800020F47C1048600846406840F4E810486058
:100690000846006840F08070086000BF0C480068A1
:1006A00000F000700028F9D00948406820F00300ED
:1006B000074948600846406840F00200486000BFB3
:1006C0000348406800F00C000828F9D10CBD000078
:1006D00000100240002002407047000010B513488F
:1006E000006840F001001149086008464068104960
:1006F00008400E494860084600680E4908400B490A
:1007000008600846006820F48020086008464068B9
:1007100020F4FE0048604FF41F008860FFF767FF79
:100720004FF000600449086010BD00000010024056
:100730000000FFF8FFFFF6FE08ED00E021B102889F
:1007400042F00102028004E002884FF6FE731A4074
:100750000280704731B1B0F8442042F40042A0F862
:10076000442005E0B0F84420C2F30E02A0F8442073
:1007700070470146888C704770B500240022002322
:10078000058C4FF6FE7635400584028C8388048BF9
:100790004FF68F752C40B51E2C400D882C43751ECE
:1007A0002A400D892A434D882A43144DA8420BD074
:1007B000134DA84208D0134DA84205D0124DA842AF
:1007C00002D0124DA84213D14FF6F7752A404D8939
:1007D0002A434FF6FB752A408D882A434FF6FF6562
:1007E0002B404FF6FF552B408D892B43CD892B4352
:1007F00083800483CD888586028470BD002C0140EF
:1008000000340140004001400044014000480140E4
:1008100070B5002400220023058C4FF6EF7635409A
:100820000584028C8388048B48F6FF752C404FF6B4
:10083000FF452C400D884FF6FF7606EA05252C4330
:100840004FF6DF752A400D8906EA05152A434D88C3
:1008500006EA05152A43154DA84202D0144DA842B8
:100860001DD14FF67F752A404D894FF6FF7606EA77
:1008700005152A434FF6BF752A408D8806EA0515EF
:100880002A434FF6FF352B404FF2FF752B408D89E1
:1008900006EA85052B43CD8906EA85052B4383802F
:1008A0000483CD880587028470BD0000002C0140C0
:1008B0000034014070B5002400220023058C4FF65F
:1008C000FF6635400584028C8388848B4FF68F75D4
:1008D0002C404FF6FC752C400D882C434FF6FF55ED
:1008E0002A400D894FF6FF7606EA05252A434D88F2
:1008F00006EA05252A43154DA84202D0144DA84208
:100900001DD14FF2FF752A404D894FF6FF7606EA5A
:1009100005252A434FF6FF352A408D8806EA05252E
:100920002A434EF6FF752B404DF6FF752B408D89FF
:1009300006EA05152B43CD8906EA05152B4383806E
:100940008483CD888587028470BD0000002C01401F
:100950000034014070B5002200230024058C4EF6BF
:10096000FF7635400584038C8488828B48F6FF75BA
:100970002A404FF6FF452A400D884FF6FF7606EADB
:1009800005252A434DF6FF752B400D8906EA0535EE
:100990002B434D8806EA05352B430B4DA84202D068
:1009A0000A4DA84208D14BF6FF752C408D894FF6B1
:1009B000FF7606EA85152C4384808283CD88A0F8D3
:1009C0004050038470BD0000002C01400034014001
:1009D00081847047002202881D4B98420ED01D4B27
:1009E00098420BD0B0F1804F08D01B4B984205D0F5
:1009F0001A4B984202D01A4B984204D14FF68F738B
:100A00001A404B881A43174B984207D0164B98420E
:100A100004D04FF6FF431A40CB881A4302808B88DC
:100A200083850B8803850A4B98420BD0094B98426B
:100A300008D00E4B984205D00D4B984202D00D4B7A
:100A4000984201D10B7A038601238382704700000C
:100A5000002C014000340140000400400008004028
:100A6000000C004000100040001400400040014015
:100A7000004401400048014010B50446204600F003
:100A8000DAF810BD10B540F22551124800F0A9F86F
:100A9000F0B11048FFF7F0FF0F49087008460078E2
:100AA00023280AD101200D49086000200C490D4A75
:100AB000126888540B4908600AE007480078084922
:100AC000084A1268885407480068401C05490860B5
:100AD00010BD000000380140040000200800002084
:100AE000100000200C00002010B540F225511548E0
:100AF00000F077F828B31348FFF7BEFF12490870DB
:100B0000084600780D280AD101201049086000200D
:100B10000F49104A126888540E49086011E00A48CB
:100B200000780B490B4A126888540846094A126833
:100B3000815C044800F088F806480068401C0549BC
:100B4000086010BD004400400400002008000020A0
:100B5000100000200C00002010B540F2255115486F
:100B600000F03FF828B31348FFF786FF12490870DA
:100B7000084600780D280AD101201049086000209D
:100B80000F49104A126888540E49086011E00A485B
:100B900000780B490B4A126888540846094A1268C3
:100BA000815C044800F050F806480068401C054984
:100BB000086010BD0048004004000020080000202C
:100BC000100000200C00002002460020B1F5007F3C
:100BD00000D100BF13880B400BB1012000E00020C2
:100BE000704770B50246002400230025002040F61F
:100BF0006A16B14200D100BFC1F3421501F01F03D4
:100C0000012606FA03F3012D02D19689334006E04E
:100C1000022D02D1168A334001E0968A33400C122D
:100C2000012606FA04F41688344013B10CB10120F1
:100C300000E0002070BD01468888C0F308007047BE
:100C4000C1F308028280704770B504460D462946FC
:100C50002046FFF7F5FF00BF80212046FFF7B4FFD5
:100C60000028F9D070BD00BFFEE70000482344F61D
:100C7000206203215006FFF7B5FB0EE0072007496D
:100C800008804FF47A70FFF712FB02204107A1F8A9
:100C900040004FF47A70FFF70AFBEFE74000004096
:100CA00038B505460C4605EB45012F4A02EB81019C
:100CB00088680121FFF78AFC05EB45002A4901EB12
:100CC00080008088ADF80000042C06D104208DF847
:100CD000030003208DF802003CE0482C06D1482098
:100CE0008DF8030003208DF8020033E0282C06D194
:100CF00028208DF8030003208DF802002AE0102C34
:100D000006D110208DF8030003208DF8020021E0A9
:100D1000142C06D114208DF8030003208DF8020056
:100D200018E01C2C06D11C208DF8030003208DF840
:100D300002000FE0182C06D118208DF803000320C4
:100D40008DF8020006E02CB900208DF80300032086
:100D50008DF8020005EB4501034A52F8210069466F
:100D6000FFF7AFFA38BD00006C0D00080008014025
:100D70000100000004000000000801400200000023
:100D8000040000000008014004000000040000000E
:100D900000080140080000000400000000080140B5
:100DA00010000000040000000008014020000000C6
:100DB00004000000000801404000000004000000A2
:100DC000000801408000000004000000000801400D
:100DD00000010000040000000008014000020000C3
:100DE00004000000000801400004000004000000AE
:100DF0000008014000080000040000000008014055
:100E00000010000004000000000801400020000065
:100E10000400000000080140004000000400000041
:100E2000000801400080000004000000000C0140A8
:100E30000100000008000000000C0140020000005A
:100E400008000000000C0140040000000800000041
:100E5000000C01400800000008000000000C0140E8
:100E60001000000008000000000C014020000000FD
:100E700008000000000C01404000000008000000D5
:100E8000000C01408000000008000000000C014040
:100E90000001000008000000000C014000020000FA
:100EA00008000000000C01400004000008000000E1
:100EB000000C01400008000008000000000C014088
:100EC0000010000008000000000C0140002000009D
:100ED00008000000000C0140004000000800000075
:100EE000000C0140008000000800000000100140DC
:100EF000010000001000000000100140020000008E
:100F0000100000000010014004000000100000006C
:100F10000010014008000000100000000010014017
:100F20001000000010000000001001402000000030
:100F30001000000000100140400000001000000000
:100F4000001001408000000010000000001001406F
:100F5000000100001000000000100140000200002D
:100F6000100000000010014000040000100000000C
:100F700000100140000800001000000000100140B7
:100F800000100000100000000010014000200000D0
:100F900010000000001001400040000010000000A0
:100FA000001001400080000010000000CC0F00087D
:100FB000000000201000000028010008DC0F0008DD
:100FC000100000209007000044010008000000000D
:0C0FD00000000000000000000000000015
:04000005080000ED02
:00000001FF
