:020000040800F2
:10000000C807002091010008290B0008210B0008F7
:10001000250B00084F040008C7120008000000006C
:10002000000000000000000000000000590C000863
:100030004D09000800000000410B0008450D0008B4
:10004000AB010008AB010008AB010008AB010008E0
:10005000AB010008AB010008AB010008AB010008D0
:10006000AB010008AB010008AB010008AB010008C0
:10007000AB010008AB010008AB010008AB010008B0
:10008000AB010008AB010008AB010008AB010008A0
:10009000AB010008AB010008AB010008AB01000890
:1000A000AB010008AB010008AB010008AB01000880
:1000B000AB010008AB010008AB010008AB01000870
:1000C000AB010008AB010008AB010008AB01000860
:1000D000AB0100087D0E0008E10E0008510F00087A
:1000E000AB010008AB010008AB01000800F002F80A
:1000F00000F03FF80AA090E8000C82448344AAF183
:100100000107DA4501D100F034F8AFF2090EBAE880
:100110000F0013F0010F18BFFB1A43F0010318473B
:10012000EC1400000C150000103A24BF78C878C108
:10013000FAD8520724BF30C830C144BF04680C60ED
:10014000704700000023002400250026103A28BF35
:1001500078C1FBD8520728BF30C148BF0B60704739
:10016000642900F07580002070471FB51FBD10B5D1
:1001700010BD00F033F91146FFF7F7FF01F0B2F8B8
:1001800000F051F903B4FFF7F2FF03BC00F058F997
:100190000948804709480047FEE7FEE7FEE7FEE71B
:1001A000FEE7FEE7FEE7FEE7FEE7FEE70448054957
:1001B000054A064B70470000490D0008ED00000895
:1001C000C8010020C8070020C8030020C803002081
:1001D0000FB4044910B503AA029800F0E9F810BC66
:1001E0005DF814FB280000202DE9F0410E4604467E
:1001F000002020622046E168884730B3252805D0DA
:10020000D4E901219047206A401CF2E7E1682046CA
:1002100000278847050018D0A5F14100192802D809
:1002200020354FF400673246294620462760FFF705
:1002300097FF40B1012804D0F61D26F007060836C6
:10024000D8E7361DD6E72846DAE7206ABDE8F08110
:100250002DE9F0410646002410687529314616A59F
:1002600010D0AFF30080002802DA404213A507E067
:1002700031688A0701D512A502E0490704D511A506
:10028000012401E0AFF3008000210A2206F12407D7
:1002900009E0B0FBF2FCB0FBF2F302FB1C003030D3
:1002A00078541846491C0028F3D123462A46304684
:1002B000BDE8F04100F00BB8000000002D00000088
:1002C0002B000000200000007047704770472DE9A8
:1002D000F0470D4699469246044600F1240801680D
:1002E000880604D5E06921F01001216000E00120BA
:1002F000A84201DD471B00E00027A1697A1902EB43
:100300000900081AA0612078C00602D42046AFF385
:100310000080002608E0D4E901211AF80600904781
:10032000206A401C761C20624E45F4DB2078C00613
:100330000AD52046AFF3008006E0D4E90121302041
:100340009047206A401C2062381EA7F10107F4DCA8
:1003500007E0D4E9012118F805009047206A401C05
:100360002062281EA5F10105F3DC2046AFF30080D2
:100370002078000602D50220BDE8F0870120FBE7C7
:1003800001694A1C02610878704700B58FB0CDE959
:1003900001310021059105497944CDE90310114649
:1003A0006846FFF721FF0FB000BD0000E5FFFFFF2B
:1003B000074B70B50D467B44FFF7E7FF0446284620
:1003C00000F008F810B14FF0FF3070BD204670BD4E
:1003D000130F0000007B00F080007047754600F0AE
:1003E0002BF8AE4605006946534620F007008546C7
:1003F00018B020B5FFF7DAFEBDE820404FF0000648
:100400004FF000074FF000084FF0000B21F00701FC
:10041000AC46ACE8C009ACE8C009ACE8C009ACE83F
:10042000C0098D46704710B50446AFF300802046E2
:10043000BDE81040FFF7A6BE0048704768010020E5
:1004400001491820ABBEFEE726000200704700BF3E
:10045000FEE70EB50121084600F074FB0020ADF860
:1004600002004FF6FF70ADF804000220ADF8000066
:1004700000208DF8080069464FF0804000F0A6FC8F
:100480000EBD00000EB50121042000F05BFB002032
:10049000ADF80200ADF806008DF808004720ADF871
:1004A00000004FF6FF70ADF8040069460C4800F0FC
:1004B0008DFC01210A4800F077FC0121042000F0A6
:1004C00051FB14200749C870102008800320887051
:1004D000054800F08DFA1021034800F01FFB0EBD07
:1004E0000008004038000020000801402DE9FC41D0
:1004F00006461021F84800F00FFB142000F042FAE5
:100500001021F54800F00AFB0021F44800F05BFCE4
:1005100005E01021F04800F0F6FA00B104E0EF48E1
:1005200000F04EFC0A28F4DB00BFEC4800F048FC69
:1005300004460A2C02DB0020BDE8FC810021E748CC
:1005400000F041FC05E01021E34800F0DCFA00B9BE
:1005500004E0E24800F034FC2D28F4DB00BFDF4863
:1005600000F02EFC04462D2C01DA052C01DC0020C5
:10057000E2E70021D94800F026FC05E01021D6482A
:1005800000F0C1FA00B104E0D44800F019FC5A2888
:10059000F4DB00BFD14800F013FC04465A2C01DA0A
:1005A000462C01DC0020C7E70021CC4800F00BFC02
:1005B00005E01021C84800F0A6FA00B904E0C748D9
:1005C00000F0FEFB5F28F4DB00BFC44800F0F8FB3E
:1005D00004465F2C01DA4B2C01DC0020ACE700253F
:1005E0004CE00021BD4800F0EEFB05E01021BA48C8
:1005F00000F089FA00B104E0B84800F0E1FB4128BE
:10060000F4DB00BFB54800F0DBFB0446412C01DA07
:100610002D2C01DC00208FE70021B04800F0D3FB37
:1006200005E01021AC4800F06EFA00B904E0AB48D8
:1006300000F0C6FB5028F4DB00BFA84800F0C0FB68
:100640000446502C01DA0A2C01DC002074E79DF8E6
:1006500000004006000E8DF800002D2C06DD9DF8F0
:10066000000040F001008DF8000005E09DF800005A
:1006700020F001008DF80000681CC5B2082DB0DB29
:1006800000254CE00021954800F09DFB05E010217D
:10069000914800F038FA00B104E0904800F090FB77
:1006A0004128F4DB00BF8D4800F08AFB0446412C52
:1006B00001DA2D2C01DC00203EE70021874800F004
:1006C00082FB05E01021844800F01DFA00B904E027
:1006D000824800F075FB5028F4DB00BF7F4800F033
:1006E0006FFB0446502C01DA0A2C01DC002023E7C2
:1006F0009DF801004006000E8DF801002D2C06DD4E
:100700009DF8010040F001008DF8010005E09DF822
:10071000010020F001008DF80100681CC5B2082D11
:10072000B0DB00254CE000216C4800F04CFB05E0FC
:100730001021694800F0E7F900B104E0674800F0D3
:100740003FFB4128F4DB00BF644800F039FB04465E
:10075000412C01DA2D2C01DC0020EDE600215F4860
:1007600000F031FB05E010215B4800F0CCF900B946
:1007700004E05A4800F024FB5028F4DB00BF57483F
:1007800000F01EFB0446502C01DA0A2C01DC00208C
:10079000D2E69DF802004006000E8DF802002D2CD6
:1007A00006DD9DF8020040F001008DF8020005E032
:1007B0009DF8020020F001008DF80200681CC5B20F
:1007C000082DB0DB00254CE00021444800F0FBFA86
:1007D00005E01021404800F096F900B104E03F48E0
:1007E00000F0EEFA4128F4DB00BF3C4800F0E8FAE4
:1007F0000446412C01DA2D2C01DC00209CE600216E
:10080000364800F0E0FA05E01021334800F07BF9AB
:1008100000B904E0314800F0D3FA5028F4DB00BFFF
:100820002E4800F0CDFA0446502C01DA0A2C01DCE7
:10083000002081E69DF803004006000E8DF80300BD
:100840002D2C06DD9DF8030040F001008DF803001B
:1008500005E09DF8030020F001008DF80300681CFE
:10086000C5B2082DB0DB002551E000211B4800F087
:10087000AAFA05E01021184800F045F900B104E09B
:10088000164800F09DFA4128F4DB00BF134800F041
:1008900097FA0446412C01DA2D2C01DC00204BE6AE
:1008A00000210E4800F08FFA05E010210A4800F000
:1008B0002AF900B904E0094800F082FA5028F4DB74
:1008C00000BF064800F07CFA0446502C01DA0A2CDE
:1008D00006DC002030E6000000080140000800406F
:1008E0009DF804004006000E8DF804002D2C06DD56
:1008F0009DF8040040F001008DF8040005E09DF82B
:10090000040020F001008DF80400681CC5B2082D19
:10091000ABDB9DF800009DF8011008449DF8021023
:1009200008449DF803100844C7B29DF80400B8427B
:1009300001D0002000E6002504E01DF805007055F8
:10094000681CC5B2042DF8DB0120F5E5704710B531
:10095000FFF77FFD0121880700F026FA00214FF004
:10096000804000F030FA00BF4FF0804000F028FADD
:1009700048F6A0418842F7DB00214FF0804000F0AC
:1009800013FA10BD10B5044601E0FFF7E0FF201E8A
:10099000A4F10104F9D110BD10B50948FFF7A6FD77
:1009A00068B10748017807A0FFF712FC0448817876
:1009B00007A0FFF70DFC4FF4FA70FFF7E3FF10BD3F
:1009C0002400002048756D693A2025640A00000063
:1009D00054656D703A2025640A2D2D2D2D2D2D2D59
:1009E0002D2D2D2D2D2D2D2D2D2D2D0A000000000E
:1009F0002DE9F041024600250026002000230024B6
:100A0000002791F803C00CF00F0591F803C00CF01B
:100A1000100CBCF1000F03D091F802C04CEA0505A0
:100A200091F800C0BCF1000F31D0146800202BE019
:100A30004FF0010C0CFA00F3B1F800C00CEA030609
:100A40009E4220D183004FF00F0C0CFA03F7BC43F9
:100A500005FA03FC4CEA040491F803C0BCF1280F2A
:100A600006D14FF0010C0CFA00FCC2F814C00AE0E9
:100A700091F803C0BCF1480F05D14FF0010C0CFAFE
:100A800000FCC2F810C0401C0828D1D31460B1F893
:100A900000C0BCF1FF0F34DD546800202EE000F1EF
:100AA000080C4FF0010808FA0CF3B1F800C00CEA8A
:100AB00003069E4221D183004FF00F0C0CFA03F77E
:100AC000BC4305FA03FC4CEA040491F803C0BCF1F2
:100AD000280F05D100F1080C08FA0CF8C2F81480B0
:100AE00091F803C0BCF1480F07D100F1080C4FF09A
:100AF000010808FA0CF8C2F81080401C0828CED370
:100B00005460BDE8F0810246002093680B400BB1B1
:100B1000012000E00020704741617047016170478B
:100B200000BFFEE700BFFEE7704700F01F02012193
:100B300091404209920002F1E022C2F80011704790
:100B40007047000029B1064AD2690243044BDA61BA
:100B500004E0034AD2698243014BDA617047000026
:100B60000010024029B1064A92690243044B9A617F
:100B700004E0034A92698243014B9A617047000086
:100B80000010024030B500210022002400232D4D2A
:100B90006D6805F00C0121B1042905D0082923D185
:100BA00005E0294D056022E0274D05601FE0254D39
:100BB0006D6805F47012234D6D6805F480340225CC
:100BC00005EB92421CB9214D554305600BE01D4DCC
:100BD0006D6805F400351DB11C4D5543056002E0FC
:100BE000194D5543056002E0174D056000BF00BF79
:100BF000144D6D6805F0F0010909154D6B5C056831
:100C0000DD4045600F4D6D6805F4E061090A104D47
:100C10006B5C4568DD4085600A4D6D6805F4605188
:100C2000C90A0B4D6B5C4568DD40C560054D6D68BC
:100C300005F44041890B074D6B5CC568B5FBF3F5C6
:100C4000056130BD0010024000127A0000093D002D
:100C50000000002010000020704710B500F002F8DE
:100C600010BD00000CB500200190009033480068D2
:100C700040F480303149086000BF3048006800F41B
:100C8000003000900198401C0190009818B901981C
:100C9000B0F5A06FF1D12948006800F4003010B120
:100CA0000120009001E0002000900098012843D12D
:100CB0002348006840F01000214908600846006899
:100CC00020F0030008600846006840F00200086059
:100CD0001A48406819494860084640684860084614
:100CE000406840F4806048600846406820F47C100A
:100CF00048600846406840F4E810486008460068CC
:100D000040F08070086000BF0C48006800F0007080
:100D10000028F9D00948406820F0030007494860DE
:100D20000846406840F00200486000BF0348406841
:100D300000F00C000828F9D10CBD000000100240A2
:100D4000002002407047000010B51348006840F0D2
:100D500001001149086008464068104908400E49E2
:100D60004860084600680E4908400B49086008467C
:100D7000006820F4802008600846406820F4FE00E7
:100D800048604FF41F008860FFF767FF4FF0006076
:100D90000449086010BD0000001002400000FFF888
:100DA000FFFFF6FE08ED00E021B1028842F00102EB
:100DB000028004E002884FF6FE731A4002807047FA
:100DC0000146888C704781847047000000220288A9
:100DD0001D4B98420ED01D4B98420BD0B0F1804F66
:100DE00008D01B4B984205D01A4B984202D01A4BA0
:100DF000984204D14FF68F731A404B881A43174B11
:100E0000984207D0164B984204D04FF6FF431A4041
:100E1000CB881A4302808B8883850B8803850A4B15
:100E200098420BD0094B984208D00E4B984205D0FF
:100E30000D4B984202D00D4B984201D10B7A03869C
:100E40000123838270470000002C014000340140E0
:100E50000004004000080040000C0040001000406A
:100E6000001400400040014000440140004801409F
:100E700010B50446204600F077F910BD10B540F2D9
:100E80002551124800F0B5F8F0B11048FFF7F0FF17
:100E90000F4908700846007823280AD101200D491F
:100EA000086000200C490D4A126888540B490860FC
:100EB0000AE0074800780849084A12688854074839
:100EC0000068401C0549086010BD00000038014062
:100ED0002C000020300000203C00002034000020C6
:100EE00010B540F22551154800F083F828B3134897
:100EF000FFF7BEFF12490870084600780D280AD196
:100F000001201049086000200F49104A12688854D7
:100F10000E49086011E00A4800780B490B4A126834
:100F200088540846094A1268815C044800F0BCF9FC
:100F300006480068401C0549086010BD0044004098
:100F40002C000020300000203C0000203400002055
:100F500010B540F22551154800F04BF828B313485E
:100F6000FFF786FF12490870084600780D280AD15D
:100F700001201049086000200F49104A1268885467
:100F80000E49086011E00A4800780B490B4A1268C4
:100F900088540846094A1268815C044800F084F9C4
:100FA00006480068401C0549086010BD0048004024
:100FB0002C000020300000203C00002034000020E5
:100FC00021B1828942F40052828104E082894DF687
:100FD000FF731A408281704702460020B1F5007FFE
:100FE00000D100BF13880B400BB1012000E00020AE
:100FF000704770B50246002400230025002040F60B
:101000006A16B14200D100BFC1F3421501F01F03BF
:10101000012606FA03F3012D02D19689334006E03A
:10102000022D02D1168A334001E0968A33400C1219
:10103000012606FA04F41688344013B10CB10120DD
:1010400000E0002070BDF0B5034600240026002516
:10105000002040F66A17B94200D100BF1846C1F31C
:10106000421401F01F06012707FA06F5012C01D1F1
:101070000C3004E0022C01D1103000E014301AB121
:1010800007682F43076002E00768AF430760F0BDC1
:101090002DE9F04786B005460E460024A24600BF63
:1010A000A1460027B08900B100BF2F462C8A4CF61C
:1010B000FF700440F08804432C82AC894EF6F31094
:1010C0000440B08831890843718908430443AC81E6
:1010D000AC8A4FF6FF400440B0890443AC8201A8BB
:1010E000FFF750FD1F48874202D1DDF810A001E054
:1010F000DDF80CA0A88900F4004040B10AEBCA005A
:1011000000EB0A1031684900B0FBF1F807E00AEB88
:10111000CA0000EB0A1031688900B0FBF1F86420C6
:10112000B8FBF0F004012009642101FB1089A889B3
:1011300000F4004040B1322000EBC900B0FBF1F0F8
:1011400000F00700044308E0322000EB091064219E
:10115000B0FBF1F000F00F0004432C8106B0BDE8B5
:10116000F08700000038014001468888C0F308007D
:101170007047C1F308028280704700007FB50546C2
:101180000C46464885422BD101218803FFF7EAFC33
:101190001821092000F0B4F804210A2000F0B0F86A
:1011A00000940020ADF80C000C20ADF80A000020DF
:1011B000ADF80800ADF80600ADF804006946284611
:1011C000FFF766FF012240F225512846FFF73BFF5B
:1011D0002520FFF7AAFC01212846FFF7F1FE5CE07D
:1011E0002F4885422BD101214804FFF7ABFC182181
:1011F000022000F085F80421032000F081F800941B
:101200000020ADF80C000C20ADF80A000020ADF86D
:101210000800ADF80600ADF8040069462846FFF75F
:1012200037FF012240F225512846FFF70CFF262008
:10123000FFF77BFC01212846FFF7C2FE2DE019488D
:1012400085422AD101218804FFF77CFC182119204E
:1012500000F056F804211A2000F052F80094002003
:10126000ADF80C000C20ADF80A000020ADF8080025
:10127000ADF80600ADF8040069462846FFF708FF00
:10128000012240F225512846FFF7DDFE2720FFF717
:101290004CFC01212846FFF793FE7FBD003801403A
:1012A000004400400048004070B504460D46294601
:1012B0002046FFF75EFF00BF80212046FFF78CFE2F
:1012C0000028F9D070BD00BFFEE7000070B50446ED
:1012D0000D46E1B20248FFF7E7FF204670BD00006F
:1012E00000380140FFF7CEF84FF416510348FFF7DE
:1012F00045FF01E0FFF750FBFCE70000003801402C
:1013000038B505460C4605EB45012F4A02EB810135
:1013100088680121FFF726FC05EB45002A4901EB0F
:1013200080008088ADF80000042C06D104208DF8E0
:10133000030003208DF802003CE0482C06D1482031
:101340008DF8030003208DF8020033E0282C06D12D
:1013500028208DF8030003208DF802002AE0102CCD
:1013600006D110208DF8030003208DF8020021E043
:10137000142C06D114208DF8030003208DF80200F0
:1013800018E01C2C06D11C208DF8030003208DF8DA
:1013900002000FE0182C06D118208DF8030003205E
:1013A0008DF8020006E02CB900208DF80300032020
:1013B0008DF8020005EB4501034A52F82100694609
:1013C000FFF716FB38BD0000CC13000800080140F1
:1013D00001000000040000000008014002000000BD
:1013E00004000000000801400400000004000000A8
:1013F000000801400800000004000000000801404F
:10140000100000000400000000080140200000005F
:10141000040000000008014040000000040000003B
:1014200000080140800000000400000000080140A6
:10143000000100000400000000080140000200005C
:101440000400000000080140000400000400000047
:1014500000080140000800000400000000080140EE
:1014600000100000040000000008014000200000FF
:1014700004000000000801400040000004000000DB
:10148000000801400080000004000000000C014042
:101490000100000008000000000C014002000000F4
:1014A00008000000000C01400400000008000000DB
:1014B000000C01400800000008000000000C014082
:1014C0001000000008000000000C01402000000097
:1014D00008000000000C014040000000080000006F
:1014E000000C01408000000008000000000C0140DA
:1014F0000001000008000000000C01400002000094
:1015000008000000000C014000040000080000007A
:10151000000C01400008000008000000000C014021
:101520000010000008000000000C01400020000036
:1015300008000000000C014000400000080000000E
:10154000000C014000800000080000000010014075
:101550000100000010000000001001400200000027
:101560001000000000100140040000001000000006
:1015700000100140080000001000000000100140B1
:1015800010000000100000000010014020000000CA
:10159000100000000010014040000000100000009A
:1015A0000010014080000000100000000010014009
:1015B00000010000100000000010014000020000C7
:1015C00010000000001001400004000010000000A6
:1015D0000010014000080000100000000010014051
:1015E000001000001000000000100140002000006A
:1015F000100000000010014000400000100000003A
:101600000010014000800000100000002C160008AF
:10161000000000203C0000002801000868160008B7
:101620003C0000208C07000044010008000000007E
:101630000102030401020304060708090204060864
:1016400007050700000000000000191A040B130032
:10165000000000000000000000000000000000008A
:08166000000000000000000082
:04000005080000ED02
:00000001FF
