:020000040800F2
:10000000880600208901000891010008930100087A
:100010009501000897010008990100080000000000
:100020000000000000000000000000009B0100082C
:100030009D010008000000009F010008A1010008C8
:10004000A3010008A3010008A3010008A301000800
:10005000A3010008A3010008A3010008A3010008F0
:10006000A3010008A3010008A3010008A3010008E0
:10007000A3010008A3010008A3010008A3010008D0
:10008000A3010008A3010008A3010008A3010008C0
:10009000A3010008A3010008A3010008A3010008B0
:1000A000A3010008A3010008A3010008A3010008A0
:1000B000A3010008A3010008A3010008A301000890
:1000C000A3010008A3010008A3010008A301000880
:1000D000A3010008A3010008A3010008A301000870
:1000E000A3010008A3010008A301000800F002F822
:1000F00000F03AF80AA090E8000C82448344AAF188
:100100000107DA4501D100F02FF8AFF2090EBAE885
:100110000F0013F0010F18BFFB1A43F0010318473B
:10012000A80B0000C80B0000103A24BF78C878C1A3
:10013000FAD8520724BF30C830C144BF04680C60ED
:10014000704700000023002400250026103A28BF35
:1001500078C1FBD8520728BF30C148BF0B60704739
:100160001FB51FBD10B510BD00F031F81146FFF7E7
:10017000F7FF00F079FD00F04FF803B4FFF7F2FF4E
:1001800003BC00F057F800000948804709480047C1
:10019000FEE7FEE7FEE7FEE7FEE7FEE7FEE7FEE737
:1001A000FEE7FEE704480549054A064B7047000094
:1001B000410B0008ED0000088800002088060020A0
:1001C00088020020880200207047704770477546FB
:1001D00000F02CF8AE4605006946534620F00700B3
:1001E000854618B020B5FFF7DDFFBDE820404FF091
:1001F00000064FF000074FF000084FF0000B21F011
:100200000701AC46ACE8C009ACE8C009ACE8C009DD
:10021000ACE8C0098D46704710B50446AFF30080C6
:100220002046BDE81040FFF7A8BF00000048704717
:100230002400002001491820ABBEFEE72600020082
:1002400070470EB50121084600F06CFB0020ADF8A8
:1002500002004FF6FF70ADF804000120ADF8000079
:1002600000208DF8080069464FF0804000F0AAFC9D
:100270000EBD10B5FFF7E5FF0121880700F090FCE7
:1002800000214FF0804000F09AFC00BF4FF080400A
:1002900000F092FC48F6A0418842F7DB00214FF0C5
:1002A000804000F07DFC10BD10B5FFF7CAFF0121B2
:1002B000880700F075FC00214FF0804000F07FFCC3
:1002C00000BF4FF0804000F077FC2428F9DB0021CC
:1002D0004FF0804000F064FC10BD10B5044601E012
:1002E000FFF7C7FF201EA4F10104F9D110BD10B51E
:1002F000044601E0FFF7D8FF201EA4F10104F9D164
:1003000010BD2DE9F0410246002500260020002303
:100310000024002791F803C00CF00F0591F803C0EA
:100320000CF0100CBCF1000F03D091F802C04CEAA5
:10033000050591F800C0BCF1000F31D01468002011
:100340002BE04FF0010C0CFA00F3B1F800C00CEAFE
:1003500003069E4220D183004FF00F0C0CFA03F7E6
:10036000BC4305FA03FC4CEA040491F803C0BCF159
:10037000280F06D14FF0010C0CFA00FCC2F814C093
:100380000AE091F803C0BCF1480F05D14FF0010C11
:100390000CFA00FCC2F810C0401C0828D1D314602D
:1003A000B1F800C0BCF1FF0F34DD546800202EE02E
:1003B00000F1080C4FF0010808FA0CF3B1F800C086
:1003C0000CEA03069E4221D183004FF00F0C0CFA79
:1003D00003F7BC4305FA03FC4CEA040491F803C09C
:1003E000BCF1280F05D100F1080C08FA0CF8C2F88E
:1003F000148091F803C0BCF1480F07D100F1080C3C
:100400004FF0010808FA0CF8C2F81080401C0828C8
:10041000CED35460BDE8F081F0B50A460023002435
:100420000021002500F00046B6F1004F02D11D4E1C
:10043000F16901E01B4E7168C0F3034583B200F41B
:100440004016B6F5401F08D121F07061154E766850
:1004500026F07066134F7E6012E000F48016B6F549
:10046000801F06D1032606FA05F4A14341F070610E
:1004700006E0460D360103FA06F6B14341F070611D
:1004800022B1460D360103FA06F6314300F000466C
:10049000B6F1004F02D1034EF16101E0014E7160EF
:1004A000F0BD00000000014070B5024600240025A8
:1004B00000230020958A138B1B0445EA030626F0CF
:1004C0007F4404EA01068E4201D1012000E00020B1
:1004D00070BD21B1028842F00102028004E002886E
:1004E0004FF6FE731A400280704721B1028842F431
:1004F0008072028004E002884FF6FF631A40028097
:10050000704721B1028842F40072028004E0028840
:100510004FF6FF531A400280704700002DE9F04368
:1005200085B004460D460026B1460427DFF8CC808E
:10053000A6884FF6C0700640684600F023FADDF842
:1005400008802F48B8FBF0F01FFA80F946EA090648
:10055000A68020884FF6FE71084020800026294999
:10056000286888420CD828684000B8FBF0F087B2B1
:10057000042F00DA04273E4309F10100208427E01C
:10058000E8884BF6FF71884206D1286800EB4000EE
:10059000B8FBF0F087B209E0286800EBC00101EB7E
:1005A0000010B8FBF0F087B247F48047C7F30B00A8
:1005B00008B947F0010747F4004006434FF496702E
:1005C00009FB00F04FF47A7190FBF1F0401C20849D
:1005D000A683208840F00100208026884FF6F53061
:1005E0000640A8886989084306432680A889298986
:1005F0000843208105B0BDE8F083000000127A00B6
:1006000040420F00A086010012B141F0010102E05A
:100610004FF6FE7319400182704701827047000057
:100620007FB504460E4615460121084600F09AF9AA
:10063000284884421FD10121480500F073F9304653
:1006400000F04CF80121480500F07CF900214FF43E
:10065000001000F077F900952014ADF80C00002090
:10066000ADF80400ADF80800ADF80A004BF6FF70D5
:10067000ADF8060021E0184884421ED1012188050A
:1006800000F050F9304600F029F80121880500F00B
:1006900059F900214FF4800000F054F9009520141E
:1006A000ADF80C000020ADF80400ADF80800ADF87E
:1006B0000A004BF6FF70ADF8060000212046FFF758
:1006C00008FF69462046FFF729FF01212046FFF772
:1006D00000FF7FBD005400400058004010B50446A4
:1006E0000121082000F03EF9012C03D1C0200E4961
:1006F00008800FE0022C08D14FF440700A490880AE
:1007000001210220FFF788FE04E0032C02D1A002A1
:10071000054908801C200449C870032088700348DC
:10072000FFF7EFFD10BD000000000020000C0140AD
:1007300070B505460E46144601212846FFF7D5FE42
:1007400000BF11492846FFF7AFFE0028F9D000226C
:1007500031462846FFF758FF00BF0C492846FFF7EF
:10076000A3FE0028F9D021462846FFF756FF00BF18
:100770000649891C2846FFF797FE0028F8D001217A
:100780002846FFF7BEFE70BD01000300820007008F
:1007900010B50446E007000F0449087008460278C7
:1007A0004E210348FFF7C4FF10BD00000D000020DC
:1007B0000054004070B505460C46012D06D0022DB0
:1007C0000DD0032D14D0042D24D11AE004F18001A2
:1007D000C8B200F059F83220FFF789FD1AE004F1A1
:1007E000C001C8B200F050F83220FFF780FD11E0E0
:1007F00004F19401C8B200F047F83220FFF777FD0A
:1008000008E004F1D401C8B200F03EF83220FFF74E
:100810006EFD00BF00BF70BD10B5332000F034F88E
:100820000A20FFF75AFD322000F02EF83220FFF7A1
:100830005EFD282000F028F83220FFF758FD012047
:1008400000F022F80220FFF748FD062000F01CF817
:100850003220FFF74CFD0C2000F016F83220FFF795
:1008600046FD022000F010F83220FFF740FD10BDD9
:1008700010B5044603E014F8010B00F02BF82078C3
:100880000028F8D110BD0000F8B50446002504F09A
:10089000F006F02000EA041746F004008DF800008E
:1008A0008DF8016047F004008DF8020047F0080061
:1008B0008DF8030000BF07E01DF805204E21044815
:1008C000FFF736FF681CC5B2042DF5DBF8BD00004C
:1008D00000540040F8B50446002504F0F006F0206E
:1008E00000EA041746F00D008DF8000046F00900FC
:1008F0008DF8010047F00D008DF8020047F0090067
:100900008DF8030000BF07E01DF805204E210448C4
:10091000FFF70EFF681CC5B2042DF5DBF8BD000023
:100920000054004029B1064AD2690243044BDA61FF
:1009300004E0034AD2698243014BDA617047000048
:100940000010024029B1064A12690243044B1A61A1
:1009500004E0034A12698243014B1A6170470000A8
:100960000010024029B1064A92690243044B9A6181
:1009700004E0034A92698243014B9A617047000088
:100980000010024030B500210022002400232D4D2C
:100990006D6805F00C0121B1042905D0082923D187
:1009A00005E0294D056022E0274D05601FE0254D3B
:1009B0006D6805F47012234D6D6805F480340225CE
:1009C00005EB92421CB9214D554305600BE01D4DCE
:1009D0006D6805F400351DB11C4D5543056002E0FE
:1009E000194D5543056002E0174D056000BF00BF7B
:1009F000144D6D6805F0F0010909154D6B5C056833
:100A0000DD4045600F4D6D6805F4E061090A104D49
:100A10006B5C4568DD4085600A4D6D6805F460518A
:100A2000C90A0B4D6B5C4568DD40C560054D6D68BE
:100A300005F44041890B074D6B5CC568B5FBF3F5C8
:100A4000056130BD0010024000127A0000093D002F
:100A50000E0000201E00002010B500F001F810BDAF
:100A60000CB50020019000903348006840F48030BD
:100A70003149086000BF3048006800F40030009041
:100A80000198401C0190009818B90198B0F5A06F2A
:100A9000F1D12948006800F4003010B10120009025
:100AA00001E0002000900098012843D1234800680D
:100AB00040F01000214908600846006820F003005B
:100AC00008600846006840F0020008601A48406864
:100AD000194948600846406848600846406840F444
:100AE000806048600846406820F47C1048600846F2
:100AF000406840F4E81048600846006840F08070A4
:100B0000086000BF0C48006800F000700028F9D0B1
:100B10000948406820F003000749486008464068DB
:100B200040F00200486000BF0348406800F00C003D
:100B30000828F9D10CBD000000100240002002403E
:100B400010B51348006840F00100114908600846DC
:100B50004068104908400E494860084600680E4940
:100B600008400B4908600846006820F480200860AF
:100B70000846406820F4FE0048604FF41F0088607B
:100B8000FFF76AFF4FF000600449086010BD0000E5
:100B9000001002400000FFF8FFFFF6FE08ED00E045
:100BA00021B1028842F00102028004E002884FF67F
:100BB000FE731A40028070470146888C704781841A
:100BC00070470000002202881D4B98420ED01D4B3A
:100BD00098420BD0B0F1804F08D01B4B984205D003
:100BE0001A4B984202D01A4B984204D14FF68F7399
:100BF0001A404B881A43174B984207D0164B98421D
:100C000004D04FF6FF431A40CB881A4302808B88EA
:100C100083850B8803850A4B98420BD0094B984279
:100C200008D00E4B984205D00D4B984202D00D4B88
:100C3000984201D10B7A038601238382704700001A
:100C4000002C014000340140000400400008004036
:100C5000000C004000100040001400400040014023
:100C600000440140004801400E4A01210E48FFF7B0
:100C7000D7FCFFF7D1FD0020FFF78AFD4FF4FA60A3
:100C8000FFF72BFB0120FFF783FD08A0FFF7F0FD26
:100C900000210220FFF78EFD08A0FFF7E9FD00BF4D
:100CA000FEE70000A0860100005400405675205465
:100CB000686920546875204861000000446F205620
:100CC000616E205468616900E80C00080000002093
:100CD00024000000280100080C0D0008240000205A
:100CE000640600004401000800000000000000004D
:100CF00000000000000100000000010203040102E6
:0C0D0000030406070809020406080000AE
:04000005080000ED02
:00000001FF
