:020000040800F2
:100000005016002091010008DD050008D505000804
:10001000D905000829040008E70B000800000000CB
:100020000000000000000000000000000D070008B4
:100030002D04000800000000F5050008F90700087D
:10004000AB010008AB010008AB010008AB010008E0
:10005000AB010008AB010008AB010008AB010008D0
:10006000AB010008AB010008AB010008AB010008C0
:10007000AB010008AB010008AB010008AB010008B0
:10008000AB010008AB010008AB010008AB010008A0
:10009000AB010008AB010008AB010008AB01000890
:1000A000AB010008AB010008AB010008AB01000880
:1000B000AB010008AB010008AB010008AB01000870
:1000C000AB010008AB010008AB010008AB01000860
:1000D000AB010008AB010008AB010008690800088B
:1000E000AB010008AB010008AB01000800F002F80A
:1000F00000F03FF80AA090E8000C82448344AAF183
:100100000107DA4501D100F034F8AFF2090EBAE880
:100110000F0013F0010F18BFFB1A43F0010318473B
:100120006C0E00008C0E0000103A24BF78C878C115
:10013000FAD8520724BF30C830C144BF04680C60ED
:10014000704700000023002400250026103A28BF35
:1001500078C1FBD8520728BF30C148BF0B60704739
:10016000732900F0F480002070471FB51FBD10B543
:1001700010BD00F024F91146FFF7F7FF00F042FD33
:1001800000F042F903B4FFF7F2FF03BC00F046F9B8
:100190000948804709480047FEE7FEE7FEE7FEE71B
:1001A000FEE7FEE7FEE7FEE7FEE7FEE70448054957
:1001B000054A064B70470000FD070008ED000008E7
:1001C0005010002050160020501200205012002025
:1001D0000FB4044910B503AA029800F0BDF810BC92
:1001E0005DF814FB300000202DE9F0410E46044676
:1001F000002020622046E168884730B3252805D0DA
:10020000D4E901219047206A401CF2E7E1682046CA
:1002100000278847050018D0A5F14100192802D809
:1002200020354FF400673246294620462760FFF705
:1002300097FF40B1012804D0F61D26F007060836C6
:10024000D8E7361DD6E72846DAE7206ABDE8F08110
:1002500070B50C460546012A05D02878800600D5E1
:10026000EA69002302E0012305E05B1C934202D20D
:10027000E05C0028F9D1A869E618C01AA861286ACC
:10028000184428622846AFF3008004E0D5E9012134
:1002900014F8010B9047B442F8D32846AFF300801E
:1002A00070BD00004FF0013C50F8042B51F8043BA6
:1002B0009A4221D1A2EB0C03934313EACC1317D13A
:1002C00050F8042B51F8043B9A4215D1A2EB0C03D1
:1002D000934313EACC130BD150F8042B51F8043B91
:1002E0009A4209D1A2EB0C03934313EACC13DBD05F
:1002F0004FF00000704700BFD01A01BAB1FA81F187
:1003000001F0180122FA01F0CB40C1F12001DBB26B
:10031000C0B2C01A2CFA01F3D11A914311EAC311E9
:10032000E6D1704770477047704710B5436913B105
:10033000AFF3008001E0FFF78BFF012010BD1278C2
:1003400000F124010A7000224A700122EDE71168D1
:100350004FF0FF32E9E70000074B70B50D467B44D4
:1003600000F015F80446284600F024F810B14FF0CC
:10037000FF3070BD204670BD8B08000000487047FC
:10038000F00F002001694A1C02610878704700B52F
:100390008FB0CDE901310021059105497944CDE9BE
:1003A000031011466846FFF71FFF0FB000BD0000A5
:1003B000E5FFFFFF007B00F0800070477047754647
:1003C000FFF7DCFFAE4605006946534620F0070004
:1003D000854618B020B5FFF7E9FEBDE820404FF094
:1003E00000064FF000074FF000084FF0000B21F01F
:1003F0000701AC46ACE8C009ACE8C009ACE8C009EC
:10040000ACE8C0098D46704710B50446AFF30080D4
:100410002046BDE81040FFF7B5BE00000149182096
:10042000ABBEFEE72600020000BFFEE770472DE9E5
:10043000F04102460025002600200023002400276A
:1004400091F803C00CF00F0591F803C00CF0100CEC
:10045000BCF1000F03D091F802C04CEA050591F8F9
:1004600000C0BCF1000F31D0146800202BE04FF029
:10047000010C0CFA00F3B1F800C00CEA03069E422E
:1004800020D183004FF00F0C0CFA03F7BC4305FAA0
:1004900003FC4CEA040491F803C0BCF1280F06D118
:1004A0004FF0010C0CFA00FCC2F814C00AE091F8FD
:1004B00003C0BCF1480F05D14FF0010C0CFA00FC51
:1004C000C2F810C0401C0828D1D31460B1F800C095
:1004D000BCF1FF0F34DD546800202EE000F1080C61
:1004E0004FF0010808FA0CF3B1F800C00CEA03065B
:1004F0009E4221D183004FF00F0C0CFA03F7BC434E
:1005000005FA03FC4CEA040491F803C0BCF1280F7F
:1005100005D100F1080C08FA0CF8C2F8148091F823
:1005200003C0BCF1480F07D100F1080C4FF00108DF
:1005300008FA0CF8C2F81080401C0828CED354608A
:10054000BDE8F081F0B50A46002300240021002513
:1005500000F00046B6F1004F02D11D4EF16901E0F6
:100560001B4E7168C0F3034583B200F44016B6F524
:10057000401F08D121F07061154E766826F0706634
:10058000134F7E6012E000F48016B6F5801F06D18E
:10059000032606FA05F4A14341F0706106E0460D1A
:1005A000360103FA06F6B14341F0706122B1460DFF
:1005B000360103FA06F6314300F00046B6F1004F6B
:1005C00002D1034EF16101E0014E7160F0BD000007
:1005D0000000014000BFFEE700BFFEE7704700F0EB
:1005E0001F02012191404209920002F1E022C2F86B
:1005F000001170477047000029B1064AD2690243D2
:10060000044BDA6104E0034AD2698243014BDA61A8
:10061000704700000010024029B1064A9269024367
:10062000044B9A6104E0034A92698243014B9A6148
:10063000704700000010024030B500210022002465
:1006400000232D4D6D6805F00C0121B1042905D062
:10065000082923D105E0294D056022E0274D0560DA
:100660001FE0254D6D6805F47012234D6D6805F48B
:100670008034022505EB92421CB9214D554305609B
:100680000BE01D4D6D6805F400351DB11C4D554343
:10069000056002E0194D5543056002E0174D056005
:1006A00000BF00BF144D6D6805F0F0010909154D3C
:1006B0006B5C0568DD4045600F4D6D6805F4E061D9
:1006C000090A104D6B5C4568DD4085600A4D6D6818
:1006D00005F46051C90A0B4D6B5C4568DD40C5608F
:1006E000054D6D6805F44041890B074D6B5CC5688D
:1006F000B5FBF3F5056130BD0010024000127A0031
:1007000000093D000000002010000020704710B5D7
:1007100000F002F810BD00000CB500200190009020
:100720003348006840F480303149086000BF3048E9
:10073000006800F4003000900198401C019000987F
:1007400018B90198B0F5A06FF1D12948006800F4FC
:10075000003010B10120009001E0002000900098CE
:10076000012843D12348006840F010002149086067
:100770000846006820F0030008600846006840F062
:10078000020008601A4840681949486008464068F5
:1007900048600846406840F4806048600846406809
:1007A00020F47C1048600846406840F4E810486037
:1007B0000846006840F08070086000BF0C48006880
:1007C00000F000700028F9D00948406820F00300CC
:1007D000074948600846406840F00200486000BF92
:1007E0000348406800F00C000828F9D10CBD000057
:1007F00000100240002002407047000010B513486E
:10080000006840F00100114908600846406810493E
:1008100008400E494860084600680E4908400B49E8
:1008200008600846006820F4802008600846406898
:1008300020F4FE0048604FF41F008860FFF767FF58
:100840004FF000600449086010BD00000010024035
:100850000000FFF8FFFFF6FE08ED00E010B50446CB
:10086000204600F011F910BD10B540F2255117488F
:1008700000F04FF840B31548FFF7F0FF1449087037
:100880000846007821280DD101201249086012483D
:10089000124A1268815C0D4800F096F900200F4959
:1008A000086011E00A4800780B490C4A1268885425
:1008B00008460A4A1268815C044800F085F9074836
:1008C0000068401C0549086010BD00000048004059
:1008D00034000020180000203C00002038000020D8
:1008E00021B1828942F40052828104E082894DF66E
:1008F000FF731A408281704702460020B1F5007FE5
:1009000000D100BF13880B400BB1012000E0002094
:10091000704770B50246002400230025002040F6F1
:100920006A16B14200D100BFC1F3421501F01F03A6
:10093000012606FA03F3012D02D19689334006E021
:10094000022D02D1168A334001E0968A33400C1200
:10095000012606FA04F41688344013B10CB10120C4
:1009600000E0002070BDF0B50346002400260025FD
:10097000002040F66A17B94200D100BF1846C1F303
:10098000421401F01F06012707FA06F5012C01D1D8
:100990000C3004E0022C01D1103000E014301AB108
:1009A00007682F43076002E00768AF430760F0BDA8
:1009B0002DE9F04786B005460E460024A24600BF4A
:1009C000A1460027B08900B100BF2F462C8A4CF603
:1009D000FF700440F08804432C82AC894EF6F3107B
:1009E0000440B08831890843718908430443AC81CD
:1009F000AC8A4FF6FF400440B0890443AC8201A8A2
:100A0000FFF71AFE1F48874202D1DDF810A001E06F
:100A1000DDF80CA0A88900F4004040B10AEBCA0040
:100A200000EB0A1031684900B0FBF1F807E00AEB6F
:100A3000CA0000EB0A1031688900B0FBF1F86420AD
:100A4000B8FBF0F004012009642101FB1089A8899A
:100A500000F4004040B1322000EBC900B0FBF1F0DF
:100A600000F00700044308E0322000EB0910642185
:100A7000B0FBF1F000F00F0004432C8106B0BDE89C
:100A8000F08700000038014001468888C0F3080064
:100A90007047C1F308028280704700007FB50546A9
:100AA0000C46464885422BD101218803FFF7B4FD4F
:100AB0001821092000F0DAF804210A2000F0D6F805
:100AC00000940020ADF80C000C20ADF80A000020C6
:100AD000ADF80800ADF80600ADF8040069462846F8
:100AE000FFF766FF012240F225512846FFF73BFF42
:100AF0002520FFF774FD01212846FFF7F1FE5CE099
:100B00002F4885422BD101214804FFF775FD18219C
:100B1000022000F0ABF80421032000F0A7F80094B5
:100B20000020ADF80C000C20ADF80A000020ADF854
:100B30000800ADF80600ADF8040069462846FFF746
:100B400037FF012240F225512846FFF70CFF2620EF
:100B5000FFF745FD01212846FFF7C2FE2DE01948A9
:100B600085422AD101218804FFF746FD18211A2069
:100B700000F07CF804211B2000F078F8009400209D
:100B8000ADF80C000C20ADF80A000020ADF808000C
:100B9000ADF80600ADF8040069462846FFF708FFE7
:100BA000012240F225512846FFF7DDFE2720FFF7FE
:100BB00016FD01212846FFF793FE7FBD0038014056
:100BC000004400400048004070B504460D462946E8
:100BD0002046FFF75EFF00BF80212046FFF78CFE16
:100BE0000028F9D070BD00BFFEE7000070B50446D4
:100BF0000D46E1B20248FFF7E7FF204670BD000056
:100C0000003801404FF416511048FFF747FF4FF4EA
:100C100016510F48FFF742FF17E00E480068A0B1D9
:100C200000200C4908600C490CA0FFF7D1FA0CA178
:100C30000948FFF737FB20B959210548FFF729FF7D
:100C400003E04E210248FFF724FFE6E7004800409A
:100C500000380140180000203C00002025730A00E5
:100C6000446F2056616E20546861690038B50546AE
:100C70000C4605EB4501334A02EB810188680121EE
:100C8000FFF7CAFC01213048FFF75CFC0121084650
:100C9000FFF7C2FC05EB45002A4901EB8000808884
:100CA000ADF80000042C06D104208DF803000320C9
:100CB0008DF802003CE0482C06D148208DF8030056
:100CC00003208DF8020033E0282C06D128208DF86F
:100CD000030003208DF802002AE0102C06D110201A
:100CE0008DF8030003208DF8020021E0142C06D1BA
:100CF00014208DF8030003208DF8020018E01C2C4E
:100D000006D11C208DF8030003208DF802000FE0AF
:100D1000182C06D118208DF8030003208DF802004E
:100D200006E02CB900208DF8030003208DF80200A6
:100D300005EB4501034A52F821006946FFF777FBAE
:100D400038BD00004C0D00080002300000080140D2
:100D50000100000004000000000801400200000043
:100D6000040000000008014004000000040000002E
:100D700000080140080000000400000000080140D5
:100D800010000000040000000008014020000000E6
:100D900004000000000801404000000004000000C2
:100DA000000801408000000004000000000801402D
:100DB00000010000040000000008014000020000E3
:100DC00004000000000801400004000004000000CE
:100DD0000008014000080000040000000008014075
:100DE0000010000004000000000801400020000086
:100DF0000400000000080140004000000400000062
:100E0000000801400080000004000000000C0140C8
:100E10000100000008000000000C0140020000007A
:100E200008000000000C0140040000000800000061
:100E3000000C01400800000008000000000C014008
:100E40001000000008000000000C0140200000001D
:100E500008000000000C01404000000008000000F5
:100E6000000C01408000000008000000000C014060
:100E70000001000008000000000C0140000200001A
:100E800008000000000C0140000400000800000001
:100E9000000C01400008000008000000000C0140A8
:100EA0000010000008000000000C014000200000BD
:100EB00008000000000C0140004000000800000095
:100EC000000C0140008000000800000000100140FC
:100ED00001000000100000000010014002000000AE
:100EE000100000000010014004000000100000008D
:100EF0000010014008000000100000000010014038
:100F00001000000010000000001001402000000050
:100F10001000000000100140400000001000000020
:100F2000001001408000000010000000001001408F
:100F3000000100001000000000100140000200004D
:100F4000100000000010014000040000100000002C
:100F500000100140000800001000000000100140D7
:100F600000100000100000000010014000200000F0
:100F700010000000001001400040000010000000C0
:100F8000001001400080000010000000AC0F0008BD
:100F9000000000203C00000028010008E80F0008C5
:100FA0003C0000201416000044010008000000006E
:100FB00001020304010203040607080902040608EB
:100FC0000000000000000000000000000000000021
:100FD0000000000000000000000000000000000011
:080FE000000000000000000009
:04000005080000ED02
:00000001FF
