:020000040800F2
:100000002816002091010008D1050008C905000844
:10001000CD050008A3030008870C000800000000BD
:1000200000000000000000000000000001070008C0
:10003000D703000800000000E9050008ED070008EC
:10004000AB010008AB010008AB010008AB010008E0
:10005000AB010008AB010008AB010008AB010008D0
:10006000AB010008AB010008AB010008AB010008C0
:10007000AB010008AB010008AB010008AB010008B0
:10008000AB010008AB010008AB010008AB010008A0
:10009000AB010008AB010008AB010008AB01000890
:1000A000AB010008AB010008AB010008AB01000880
:1000B000AB010008AB010008AB010008AB01000870
:1000C000AB010008AB010008AB010008AB01000860
:1000D000AB010008AB010008AB01000825090008CE
:1000E000AB010008AB010008AB01000800F002F80A
:1000F00000F03FF80AA090E8000C82448344AAF183
:100100000107DA4501D100F034F8AFF2090EBAE880
:100110000F0013F0010F18BFFB1A43F0010318473B
:10012000EC0E00000C0F0000103A24BF78C878C114
:10013000FAD8520724BF30C830C144BF04680C60ED
:10014000704700000023002400250026103A28BF35
:1001500078C1FBD8520728BF30C148BF0B60704739
:10016000732900F0B380002070471FB51FBD10B584
:1001700010BD00F0DDF81146FFF7F7FF00F092FD2B
:1001800000F0FBF803B4FFF7F2FF03BC00F002F944
:100190000948804709480047FEE7FEE7FEE7FEE71B
:1001A000FEE7FEE7FEE7FEE7FEE7FEE70448054957
:1001B000054A064B70470000F1070008ED000008F3
:1001C00028100020281600202812002028120020C5
:1001D0000FB4044910B503AA029800F07BF810BCD4
:1001E0005DF814FB1C0000202DE9F0410E4604468A
:1001F000002020622046E168884730B3252805D0DA
:10020000D4E901219047206A401CF2E7E1682046CA
:1002100000278847050018D0A5F14100192802D809
:1002200020354FF400673246294620462760FFF705
:1002300097FF40B1012804D0F61D26F007060836C6
:10024000D8E7361DD6E72846DAE7206ABDE8F08110
:1002500070B50C460546012A05D02878800600D5E1
:10026000EA69002302E0012305E05B1C934202D20D
:10027000E05C0028F9D1A869E618C01AA861286ACC
:10028000184428622846AFF3008004E0D5E9012134
:1002900014F8010B9047B442F8D32846AFF300801E
:1002A00070BD70477047704710B5436913B1AFF325
:1002B000008001E0FFF7CCFF012010BD127800F1B3
:1002C00024010A7000224A700122EDE711684FF004
:1002D000FF32E9E7074B70B50D467B4400F011F89B
:1002E0000446284600F020F810B14FF0FF3070BDF2
:1002F000204670BDAF09000001694A1C0261087800
:10030000704700B58FB0CDE9013100210591054955
:100310007944CDE9031011466846FFF765FF0FB039
:1003200000BD0000E5FFFFFF007B00F0800070478C
:10033000754600F02BF8AE4605006946534620F09E
:100340000700854618B020B5FFF730FFBDE8204014
:100350004FF000064FF000074FF000084FF0000B81
:1003600021F00701AC46ACE8C009ACE8C009ACE834
:10037000C009ACE8C0098D46704710B50446AFF31C
:1003800000802046BDE81040FFF7FCBE00487047E3
:10039000C80F002001491820ABBEFEE7260002006E
:1003A000704700BFFEE70EB50121084600F01EF9B8
:1003B0000020ADF802004FF6FF70ADF804000220F7
:1003C000ADF8000000208DF8080069464FF080402D
:1003D00000F050FA0EBD704710B5FFF7E4FF0121A1
:1003E000880700F035FA00214FF0804000F03FFA16
:1003F00000BF4FF0804000F037FA48F6A041884235
:10040000F7DB00214FF0804000F022FA10BD10B55C
:10041000044601E0FFF7E0FF201EA4F10104F9D13A
:1004200010BD2DE9F04102460025002600200023E2
:100430000024002791F803C00CF00F0591F803C0C9
:100440000CF0100CBCF1000F03D091F802C04CEA84
:10045000050591F800C0BCF1000F31D014680020F0
:100460002BE04FF0010C0CFA00F3B1F800C00CEADD
:1004700003069E4220D183004FF00F0C0CFA03F7C5
:10048000BC4305FA03FC4CEA040491F803C0BCF138
:10049000280F06D14FF0010C0CFA00FCC2F814C072
:1004A0000AE091F803C0BCF1480F05D14FF0010CF0
:1004B0000CFA00FCC2F810C0401C0828D1D314600C
:1004C000B1F800C0BCF1FF0F34DD546800202EE00D
:1004D00000F1080C4FF0010808FA0CF3B1F800C065
:1004E0000CEA03069E4221D183004FF00F0C0CFA58
:1004F00003F7BC4305FA03FC4CEA040491F803C07B
:10050000BCF1280F05D100F1080C08FA0CF8C2F86C
:10051000148091F803C0BCF1480F07D100F1080C1A
:100520004FF0010808FA0CF8C2F81080401C0828A7
:10053000CED35460BDE8F081F0B50A460023002414
:100540000021002500F00046B6F1004F02D11D4EFB
:10055000F16901E01B4E7168C0F3034583B200F4FA
:100560004016B6F5401F08D121F07061154E76682F
:1005700026F07066134F7E6012E000F48016B6F528
:10058000801F06D1032606FA05F4A14341F07061ED
:1005900006E0460D360103FA06F6B14341F07061FC
:1005A00022B1460D360103FA06F6314300F000464B
:1005B000B6F1004F02D1034EF16101E0014E7160CE
:1005C000F0BD00000000014000BFFEE700BFFEE7F5
:1005D000704700F01F02012191404209920002F190
:1005E000E022C2F8001170477047000029B1064AA6
:1005F000D2690243044BDA6104E0034AD2698243C0
:10060000014BDA61704700000010024029B1064A30
:1006100092690243044B9A6104E0034A926982435F
:10062000014B9A61704700000010024030B5002174
:100630000022002400232D4D6D6805F00C0121B12E
:10064000042905D0082923D105E0294D056022E0C1
:10065000274D05601FE0254D6D6805F47012234D90
:100660006D6805F48034022505EB92421CB9214DDA
:10067000554305600BE01D4D6D6805F400351DB157
:100680001C4D5543056002E0194D5543056002E0DD
:10069000174D056000BF00BF144D6D6805F0F001F7
:1006A0000909154D6B5C0568DD4045600F4D6D68AF
:1006B00005F4E061090A104D6B5C4568DD4085601A
:1006C0000A4D6D6805F46051C90A0B4D6B5C4568B5
:1006D000DD40C560054D6D6805F44041890B074D4F
:1006E0006B5CC568B5FBF3F5056130BD00100240D9
:1006F00000127A0000093D000000002010000020D8
:10070000704710B500F002F810BD00000CB50020D5
:10071000019000903348006840F48030314908600F
:1007200000BF3048006800F4003000900198401C81
:100730000190009818B90198B0F5A06FF1D129483F
:10074000006800F4003010B10120009001E00020AA
:1007500000900098012843D12348006840F0100021
:10076000214908600846006820F003000860084638
:10077000006840F0020008601A4840681949486063
:100780000846406848600846406840F48060486019
:100790000846406820F47C1048600846406840F4F1
:1007A000E81048600846006840F08070086000BFAC
:1007B0000C48006800F000700028F9D00948406833
:1007C00020F00300074948600846406840F00200F6
:1007D000486000BF0348406800F00C000828F9D1C9
:1007E0000CBD0000001002400020024070470000D5
:1007F00010B51348006840F0010011490860084630
:100800004068104908400E494860084600680E4993
:1008100008400B4908600846006820F48020086002
:100820000846406820F4FE0048604FF41F008860CE
:10083000FFF767FF4FF000600449086010BD00003B
:10084000001002400000FFF8FFFFF6FE08ED00E098
:1008500021B1028842F00102028004E002884FF6D2
:10086000FE731A40028070470146888C704781846D
:1008700070470000002202881D4B98420ED01D4B8D
:1008800098420BD0B0F1804F08D01B4B984205D056
:100890001A4B984202D01A4B984204D14FF68F73EC
:1008A0001A404B881A43174B984207D0164B984270
:1008B00004D04FF6FF431A40CB881A4302808B883E
:1008C00083850B8803850A4B98420BD0094B9842CD
:1008D00008D00E4B984205D00D4B984202D00D4BDC
:1008E000984201D10B7A038601238382704700006E
:1008F000002C01400034014000040040000800408A
:10090000000C004000100040001400400040014076
:10091000004401400048014010B50446204600F064
:1009200003F910BD10B540F22551104800F041F810
:10093000D0B10E48FFF7F0FF0D4908700D48006870
:10094000092806DD01200C490860002009490860DB
:100950000AE0074800780949064A126888540548A1
:100960000068401C0349086010BD000000480040BA
:100970002000002024000020180000202800002073
:1009800021B1828942F40052828104E082894DF6CD
:10099000FF731A408281704702460020B1F5007F44
:1009A00000D100BF13880B400BB1012000E00020F4
:1009B000704770B50246002400230025002040F651
:1009C0006A16B14200D100BFC1F3421501F01F0306
:1009D000012606FA03F3012D02D19689334006E081
:1009E000022D02D1168A334001E0968A33400C1260
:1009F000012606FA04F41688344013B10CB1012024
:100A000000E0002070BDF0B503460024002600255C
:100A1000002040F66A17B94200D100BF1846C1F362
:100A2000421401F01F06012707FA06F5012C01D137
:100A30000C3004E0022C01D1103000E014301AB167
:100A400007682F43076002E00768AF430760F0BD07
:100A50002DE9F04786B005460E460024A24600BFA9
:100A6000A1460027B08900B100BF2F462C8A4CF662
:100A7000FF700440F08804432C82AC894EF6F310DA
:100A80000440B08831890843718908430443AC812C
:100A9000AC8A4FF6FF400440B0890443AC8201A801
:100AA000FFF7C4FD1F48874202D1DDF810A001E026
:100AB000DDF80CA0A88900F4004040B10AEBCA00A0
:100AC00000EB0A1031684900B0FBF1F807E00AEBCF
:100AD000CA0000EB0A1031688900B0FBF1F864200D
:100AE000B8FBF0F004012009642101FB1089A889FA
:100AF00000F4004040B1322000EBC900B0FBF1F03F
:100B000000F00700044308E0322000EB09106421E4
:100B1000B0FBF1F000F00F0004432C8106B0BDE8FB
:100B2000F08700000038014001468888C0F30800C3
:100B30007047C1F308028280704700007FB5054608
:100B40000C46464885422BD101218803FFF75EFD04
:100B50001821092000F0CAF804210A2000F0C6F884
:100B600000940020ADF80C000C20ADF80A00002025
:100B7000ADF80800ADF80600ADF804006946284657
:100B8000FFF766FF012240F225512846FFF73BFFA1
:100B90002520FFF71EFD01212846FFF7F1FE5CE04E
:100BA0002F4885422BD101214804FFF71FFD182152
:100BB000022000F09BF80421032000F097F8009435
:100BC0000020ADF80C000C20ADF80A000020ADF8B4
:100BD0000800ADF80600ADF8040069462846FFF7A6
:100BE00037FF012240F225512846FFF70CFF26204F
:100BF000FFF7EFFC01212846FFF7C2FE2DE0194860
:100C000085422AD101218804FFF7F0FC18211A201F
:100C100000F06CF804211B2000F068F8009400201C
:100C2000ADF80C000C20ADF80A000020ADF808006B
:100C3000ADF80600ADF8040069462846FFF708FF46
:100C4000012240F225512846FFF7DDFE2720FFF75D
:100C5000C0FC01212846FFF793FE7FBD003801400C
:100C6000004400400048004070B504460D46294647
:100C70002046FFF75EFF00BF80212046FFF78CFE75
:100C80000028F9D070BD00BFFEE7000070B5044633
:100C90000D46E1B20248FFF7E7FF204670BD0000B5
:100CA000003801404FF416510B48FFF747FF4FF44F
:100CB00016510A48FFF742FF0CE00948006848B1A6
:100CC000002007490860074907A0FFF781FA0120C3
:100CD000FFF79DFBF1E700000048004000380140AD
:100CE00018000020280000202573000038B50546B4
:100CF0000C4605EB4501334A02EB8101886801216E
:100D0000FFF784FC01213048FFF716FC012108465B
:100D1000FFF77CFC05EB45002A4901EB8000808849
:100D2000ADF80000042C06D104208DF80300032048
:100D30008DF802003CE0482C06D148208DF80300D5
:100D400003208DF8020033E0282C06D128208DF8EE
:100D5000030003208DF802002AE0102C06D1102099
:100D60008DF8030003208DF8020021E0142C06D139
:100D700014208DF8030003208DF8020018E01C2CCD
:100D800006D11C208DF8030003208DF802000FE02F
:100D9000182C06D118208DF8030003208DF80200CE
:100DA00006E02CB900208DF8030003208DF8020026
:100DB00005EB4501034A52F821006946FFF731FB74
:100DC00038BD0000CC0D00080002300000080140D2
:100DD00001000000040000000008014002000000C3
:100DE00004000000000801400400000004000000AE
:100DF0000008014008000000040000000008014055
:100E00001000000004000000000801402000000065
:100E10000400000000080140400000000400000041
:100E200000080140800000000400000000080140AC
:100E30000001000004000000000801400002000062
:100E4000040000000008014000040000040000004D
:100E500000080140000800000400000000080140F4
:100E60000010000004000000000801400020000005
:100E700004000000000801400040000004000000E1
:100E8000000801400080000004000000000C014048
:100E90000100000008000000000C014002000000FA
:100EA00008000000000C01400400000008000000E1
:100EB000000C01400800000008000000000C014088
:100EC0001000000008000000000C0140200000009D
:100ED00008000000000C0140400000000800000075
:100EE000000C01408000000008000000000C0140E0
:100EF0000001000008000000000C0140000200009A
:100F000008000000000C0140000400000800000080
:100F1000000C01400008000008000000000C014027
:100F20000010000008000000000C0140002000003C
:100F300008000000000C0140004000000800000014
:100F4000000C01400080000008000000001001407B
:100F5000010000001000000000100140020000002D
:100F6000100000000010014004000000100000000C
:100F700000100140080000001000000000100140B7
:100F800010000000100000000010014020000000D0
:100F900010000000001001404000000010000000A0
:100FA000001001408000000010000000001001400F
:100FB00000010000100000000010014000020000CD
:100FC00010000000001001400004000010000000AC
:100FD0000010014000080000100000000010014057
:100FE0000010000010000000001001400020000070
:100FF0001000000000100140004000001000000040
:101000000010014000800000100000002C100008BB
:1010100000000020280000002801000854100008EB
:101020002800002000160000440100080000000015
:10103000010203040102030406070809020406086A
:1010400000000000000000000000000000000000A0
:04105000000000009C
:04000005080000ED02
:00000001FF
