:020000040800F2
:10000000B807002089010008350E0008B507000870
:10001000310E00087F020008F713000800000000FE
:100020000000000000000000000000008B0F00082E
:1000300083020008000000009F010008A1010008E1
:10004000A3010008A3010008A3010008A301000800
:10005000A3010008A3010008A3010008A3010008F0
:10006000A3010008A3010008A3010008A3010008E0
:10007000A3010008A3010008A3010008A3010008D0
:10008000A3010008A3010008A3010008A3010008C0
:10009000A3010008A3010008A3010008A3010008B0
:1000A000A3010008A3010008A3010008A3010008A0
:1000B000A3010008A3010008A3010008A301000890
:1000C000A3010008A3010008A3010008A301000880
:1000D000A30100081512000879120008E9120008AF
:1000E000A3010008A3010008A301000800F002F822
:1000F00000F03AF80AA090E8000C82448344AAF188
:100100000107DA4501D100F02FF8AFF2090EBAE885
:100110000F0013F0010F18BFFB1A43F0010318473B
:10012000142A0000342A0000103A24BF78C878C18D
:10013000FAD8520724BF30C830C144BF04680C60ED
:10014000704700000023002400250026103A28BF35
:1001500078C1FBD8520728BF30C148BF0B60704739
:100160001FB51FBD10B510BD00F054F81146FFF7C4
:10017000F7FF01F07FF900F072F803B4FFF7F2FF28
:1001800003BC00F075F800000948804709480047A3
:10019000FEE7FEE7FEE7FEE7FEE7FEE7FEE7FEE737
:1001A000FEE7FEE704480549054A064B7047000094
:1001B000A9110008ED000008B8010020B8070020D0
:1001C000B8030020B803002010B5431C02E010F86B
:1001D000011B71B18107FAD14FF0013202C88C1AAC
:1001E0008C4314EAC211F9D0C01A0A0603D0C01E0B
:1001F00010BDC01A10BD0A0401D0801E10BD090236
:10020000FCD0401E10BD70477047704700487047D3
:10021000580100207546FFF7F9FFAE460500694614
:10022000534620F00700854618B020B5FFF7BAFF07
:10023000BDE820404FF000064FF000074FF00008E7
:100240004FF0000B21F00701AC46ACE8C009ACE868
:10025000C009ACE8C009ACE8C0098D46704710B5CC
:100260000446AFF300802046BDE81040FFF785BF8D
:1002700001491820ABBEFEE726000200704700BF10
:10028000FEE770473EB504464FF6FF7000F0A2FA55
:100290001F2000901F48028814230021084600F008
:1002A000D7FA1F2000901B484388028840881438E2
:1002B00081B2002000F0CCFA4FF6FF70164908809A
:1002C000012010211F234FF6FF72CDE9004102905B
:1002D0000221002000F04EFA012010210FA2CDE9EA
:1002E000002102900B484088123881B21F234FF63C
:1002F000FF72002000F03EFA4FF6FF7000900548B4
:100300004088143883B2034802881421002000F08A
:100310009FFA3EBD1C0000200000002050544954AC
:10032000204C41422041492D50484F544F4E4943A3
:10033000530000002DE9F041024600250026002070
:1003400000230024002791F803C00CF00F0591F85A
:1003500003C00CF0100CBCF1000F03D091F802C0E8
:100360004CEA050591F800C0BCF1000F31D01468CB
:1003700000202BE04FF0010C0CFA00F3B1F800C0A4
:100380000CEA03069E4220D183004FF00F0C0CFABA
:1003900003F7BC4305FA03FC4CEA040491F803C0DC
:1003A000BCF1280F06D14FF0010C0CFA00FCC2F88A
:1003B00014C00AE091F803C0BCF1480F05D14FF01A
:1003C000010C0CFA00FCC2F810C0401C0828D1D364
:1003D0001460B1F800C0BCF1FF0F34DD5468002098
:1003E0002EE000F1080C4FF0010808FA0CF3B1F808
:1003F00000C00CEA03069E4221D183004FF00F0C8F
:100400000CFA03F7BC4305FA03FC4CEA040491F828
:1004100003C0BCF1280F05D100F1080C08FA0CF854
:10042000C2F8148091F803C0BCF1480F07D100F165
:10043000080C4FF0010808FA0CF8C2F81080401CB4
:100440000828CED35460BDE8F08100002DE9FC5FA0
:100450000546884691469A46DDF830B000953E2024
:10046000019000245FE004EB0410374911F81000FC
:100470009BF80010884253D104EB0410324901EB81
:10048000400040789BF80110884249D108F10F00E4
:1004900083B205F10F0082B24146284600F06CFBA2
:1004A00000263BE0002734E00D9890B904EB0410DF
:1004B000254901EB4000801C805D802139410840C6
:1004C00018B1484600F098FC21E0504600F094FC3A
:1004D0001DE01E48A0F8009004EB04101A4901EB3F
:1004E0004000801C805D80213941084018B14146A0
:1004F000284600F09FF9681C85B20098281A102839
:1005000005D1009D08F101001FFA80F803E0781C76
:10051000C7B2082FC8DB00BF701CC6B2202EC1DBDB
:1005200000BF601C84B2019884429CDB084840886C
:10053000401E83B206480088401E82B20021084651
:1005400000F01AFBBDE8FC9FEA1E00080000002036
:100550001C0000202DE9FC5F0546884691469A461E
:10056000DDF830B0009507200190002467E004EB2F
:10057000840000EB44103A4911F810009BF8001079
:10058000884259D104EB840000EB4410344901EB5C
:10059000400040789BF8011088424DD108F11700C7
:1005A00083B205F1170082B24146284600F0E4FA12
:1005B00000263FE0002738E00D98A0B904EB840046
:1005C00000EB4410264901EB4000801C805D802137
:1005D0003941084018B1484600F00EFC23E050466F
:1005E00000F00AFC1FE01F48A0F8009004EB840014
:1005F00000EB44101A4901EB4000801C805D802113
:100600003941084018B14146284600F013F9681CEA
:1006100085B20098281A182805D1009D08F101001C
:100620001FFA80F803E0781CC7B2082FC4DB00BFB4
:10063000701CC6B2482EBDDB00BF601C84B201989E
:10064000844294DB08484088401E83B206480088F4
:10065000401E82B20021084600F08EFABDE8FC9FE1
:1006600026270008000000201C0000202DE9FC5F68
:100670000546884691469A46DDF830B0009504203C
:10068000019000245FE004EB8410374911F810005A
:100690009BF80010884253D104EB8410324901EBDF
:1006A000400040789BF80110884249D108F11F00B2
:1006B00083B205F11F0082B24146284600F05CFA81
:1006C00000263BE0002734E00D9890B904EB84103D
:1006D000254901EB4000801C805D802139410840A4
:1006E00018B1484600F088FB21E0504600F084FB3A
:1006F0001DE01E48A0F8009004EB84101A4901EB9D
:100700004000801C805D80213941084018B141467D
:10071000284600F08FF8681C85B20098281A202817
:1007200005D1009D08F101001FFA80F803E0781C54
:10073000C7B2082FC8DB00BF701CC6B2802EC1DB59
:1007400000BF601C84B2019884429CDB084840884A
:10075000401E83B206480088401E82B2002108462F
:1007600000F00AFABDE8FC9F2C29000800000020D8
:100770001C0000202DE9FE4F0E4617469846DDE985
:100780000D9A0C9C2046FFF71FFD85B20849098889
:10079000A1EBC50000EBD071C1F34F0B43463A46C5
:1007A000314658468DE8100600F064FCBDE8FE8F27
:1007B0001C00002000BFFEE710B5012000F0DAFAAF
:1007C00001A0FFF75FFD10BD444F2056414E20545D
:1007D0004841490070B5064614484088401E83B21F
:1007E00012480088401E82B20021084600F0C4F979
:1007F0004FF400700E4908604010091F0860002483
:100800000AE0002503E0304600F0F6FA6D1C0748C8
:100810000088A842F7D8641C04484088A042F0D859
:100820004FF400700249091F086070BD1C000020D1
:10083000140C014070B504460D462946204600F0D0
:1008400091F90248008800F0D7FA70BD000000203E
:100850002DE9F84F04460D4616461F46DDF828A040
:10086000301B401C1FFA80FB781B401C80B200909C
:100870003B4632462946204600F07EF94FF00008FC
:1008800010E04FF0000907E01FFA8AF000F0B4FA18
:1008900009F101001FFA80F9D945F5DB08F10100E3
:1008A0001FFA80F800988045EBDB07484088401E1F
:1008B00083B205480088401E82B20021084600F03D
:1008C0005BF9BDE8F88F00001C00002008B501218D
:1008D000082000F0C1FA4FF4B850ADF80000032032
:1008E0008DF8020010208DF8030069460148FFF7DB
:1008F00021FD08BD000C014010B500F0BDFAFFF766
:10090000E5FF00F01BF9CF2000F00CFA002000F00A
:10091000F1F9D92000F0EEF9302000F0EBF9ED20EC
:1009200000F000FA642000F0E5F9032000F0E2F99D
:10093000122000F0DFF9812000F0DCF9E82000F05F
:10094000F1F9852000F0D6F9102000F0D3F97A20D3
:1009500000F0D0F9CB2000F0E5F9392000F0CAF919
:100960002C2000F0C7F9002000F0C4F9342000F07A
:10097000C1F9022000F0BEF9F72000F0D3F92020E1
:1009800000F0B8F9EA2000F0CDF9002000F0B2F94B
:10099000002000F0AFF9C02000F0C4F91B2000F0E7
:1009A000A9F9C12000F0BEF9122000F0A3F9C5207A
:1009B00000F0B8F9262000F09DF9262000F09AF901
:1009C000C72000F0AFF9B02000F094F9362000F015
:1009D000A9F9082000F08EF93A2000F0A3F955207B
:1009E00000F088F9B12000F09DF9002000F082F9B4
:1009F0001A2000F07FF9B62000F094F90A2000F0E8
:100A000079F9A22000F076F9F22000F08BF90020AD
:100A100000F070F9262000F085F9012000F06AF955
:100A2000E02000F07FF91F2000F064F9242000F09E
:100A300061F9242000F05EF90D2000F05BF912202E
:100A400000F058F9092000F055F9522000F052F951
:100A5000B72000F04FF93F2000F04CF90C2000F0D7
:100A600049F9152000F046F9062000F043F90E2060
:100A700000F040F9082000F03DF9002000F03AF9BC
:100A8000E12000F04FF9002000F034F91B2000F0C5
:100A900031F91B2000F02EF9022000F02BF90E2076
:100AA00000F028F9062000F025F92E2000F022F9A8
:100AB000482000F01FF93F2000F01CF9032000F04F
:100AC00019F90A2000F016F9092000F013F9312075
:100AD00000F010F9372000F00DF91F2000F00AF99E
:100AE0002B2000F01FF9002000F004F9002000F096
:100AF00001F9012000F0FEF83F2000F0FBF82A2069
:100B000000F010F9002000F0F5F8002000F0F2F8F5
:100B1000002000F0EFF8EF2000F0ECF8112000F0DA
:100B200001F9782000F088FC292000F0FBF8012072
:100B300000F020F9FFF740FE10BD000010B54FF4A3
:100B4000805007490860642000F076FC4FF4805024
:100B50000349091F0860322000F06EFC10BD000040
:100B6000140C014070B504460D462B46224629461A
:100B7000204600F001F870BD2DE9F04104460D4615
:100B800016461F461149887A00F0CCF8201200F072
:100B9000B1F8E0B200F0AEF8301200F0ABF8F0B20D
:100BA00000F0A8F80949087B00F0BCF8281200F012
:100BB000A1F8E8B200F09EF8381200F09BF8F8B205
:100BC00000F098F800F0C4F8BDE8F0811C000020A7
:100BD0002DE9FF4F83B081468A469346DDE91064D4
:100BE000404800880290A6F12000C6B204EBD47001
:100BF00009EB6000401E82B20AEB0400401E83B283
:100C0000514648460194FFF7B7FF129850BB0025A4
:100C100025E00C2C07D106EB4600334901EB8000A0
:100C200010F8058004E0314800EB061010F805804C
:100C300000270DE008F0010018B1584600F0DCF87C
:100C400002E0069800F0D8F84FEA6808781CC7B2AE
:100C500004EBD471B7EB610FECDB681CC5B2A542A5
:100C6000D7DB2DE0002529E00C2C07D106EB460050
:100C70001D4901EB800010F8058004E01B4800EBE3
:100C8000061010F80580002711E01648A0F800B003
:100C900008F0010038B10AEB050291B209EB070236
:100CA00090B2FFF7C7FD4FEA6808781CC7B204EBA3
:100CB000D471B7EB610FE8DB681CC5B2A542D3DB8A
:100CC0000849029808800A484088401E83B20848B4
:100CD0000088401E82B200210846FFF74DFF07B092
:100CE000BDE8F08F0000002086140008FA18000804
:100CF0001C00002010B504464FF40070074908603E
:100D00004010091F08602146054800F02DF94FF4F6
:100D100000700249091F086010BD0000140C01405A
:100D20000038004010B504464FF4007006490860D2
:100D3000401008602146054800F016F94FF4007095
:100D40000149091F086010BD140C01400038004023
:100D500010B50249087AFFF7E5FF10BD1C0000201E
:100D600070B505460C462846FFF7DCFFE0B2FFF7FA
:100D7000C1FF70BD10B504462A201E4948812B20B2
:100D800088812C20088134B1012C0FD0022C18D07E
:100D9000032C2CD120E0F020164908804FF4A070DD
:100DA000488008213620FFF7DBFF21E04FF4A070D8
:100DB00010490880F020488068213620FFF7D0FFD6
:100DC00016E0F0200B4908804FF4A0704880C8213D
:100DD0003620FFF7C5FF0BE04FF4A07005490880EF
:100DE000F0204880A8213620FFF7BAFF00E000BFBE
:100DF00000BF10BD1C00002010B504464FF4007069
:100E0000094908604010091F08602112074800F0D6
:100E1000ABF8E1B2054800F0A7F84FF400700249C2
:100E2000091F086010BD0000140C0140003800408C
:100E300000BFFEE77047000029B1064AD2690243AD
:100E4000044BDA6104E0034AD2698243014BDA6160
:100E5000704700000010024029B1064A926902431F
:100E6000044B9A6104E0034A92698243014B9A6100
:100E7000704700000010024000B587B00121092032
:100E8000FFF7EAFF4FF42040ADF8040003208DF88F
:100E9000060018208DF8070001A91C48FFF74AFA40
:100EA0004FF48040ADF8040048208DF8070003207F
:100EB0008DF8060001A91548FFF73CFA01218803C7
:100EC000FFF7BAFF0020ADF808004FF48270ADF8CC
:100ED0000A000020ADF80C00ADF80E00ADF81000CF
:100EE0004FF40070ADF812000020ADF81400ADF81A
:100EF00016000720ADF8180002A9054800F016F802
:100F00000121034800F006F807B000BD000C0140C5
:100F10000038004021B1028842F04002028004E023
:100F200002884FF6BF731A400280704710B5002246
:100F3000028802F441520B884C8823438C88234357
:100F4000CC8823430C8923434C8923438C89234336
:100F5000CC8923431A430280838B4FF2FF742340D2
:100F600083830B8A038210BD024600BF108900F004
:100F700002000028FAD0918100BF108900F0010022
:100F80000028FAD09089C0B27047704710B500F0C1
:100F900001F810BD0CB500200190009033480068A6
:100FA00040F480303149086000BF3048006800F4E8
:100FB000003000900198401C0190009818B90198E9
:100FC000B0F5A06FF1D12948006800F4003010B1ED
:100FD0000120009001E0002000900098012843D1FA
:100FE0002348006840F01000214908600846006866
:100FF00020F0030008600846006840F00200086026
:101000001A484068194948600846406848600846E0
:10101000406840F4806048600846406820F47C10D6
:1010200048600846406840F4E81048600846006898
:1010300040F08070086000BF0C48006800F000704D
:101040000028F9D00948406820F0030007494860AB
:101050000846406840F00200486000BF034840680E
:1010600000F00C000828F9D10CBD0000001002406F
:10107000002002402DE9FF4F83B006468846914686
:10108000DDE91147109DB2464FF0000B71E0BBF156
:10109000000F40D104EBD471384A1288A2EB6101F1
:1010A000B14204DB35494988091B414502DA07B0E2
:1010B000BDE8F08F2878802802DD4FF0010B58E062
:1010C00028780D2806D108EB04001FFA80F8564650
:1010D0006D1C1EE0102C0DDD102128788DE883009A
:1010E0004A4641463046069BFFF772FD06F108006E
:1010F00086B20EE028788DE891004A464146304697
:10110000069BFFF765FD204604EBD07106EB6101FD
:101110008EB26D1C2DE019480088001BB04204DB24
:1011200016484088001B404500DAC0E74FF0000B2E
:10113000202C08D1CDE900574A4641463046069B4F
:10114000FFF794FA12E0182C08D1CDE900574A466F
:1011500041463046069BFFF7FDF907E0CDE9005711
:101160004A4641463046069BFFF770F9AD1C3019E0
:1011700086B2287800288AD100BF98E71C0000209A
:10118000042808D14FF0E021096941F004014FF033
:10119000E022116107E04FF0E021096921F004012C
:1011A0004FF0E0221161704710B51348006840F01D
:1011B00001001149086008464068104908400E497E
:1011C0004860084600680E4908400B490860084618
:1011D000006820F4802008600846406820F4FE0083
:1011E00048604FF41F008860FFF7D0FE4FF00060AA
:1011F0000449086010BD0000001002400000FFF824
:10120000FFFFF6FE08ED00E010B50446204600F0B2
:10121000DAF810BD10B540F22551124800F0A9F8D7
:10122000F0B11048FFF7F0FF0F490870084600784A
:1012300023280AD101200D49086000200C490D4ADD
:10124000126888540B4908600AE00748007808498A
:10125000084A1268885407480068401C054908601D
:1012600010BD0000003801401000002014000020D4
:101270002A0000201800002010B540F22551154822
:1012800000F077F828B31348FFF7BEFF1249087043
:10129000084600780D280AD1012010490860002076
:1012A0000F49104A126888540E49086011E00A4834
:1012B00000780B490B4A126888540846094A12689C
:1012C000815C044800F088F806480068401C054925
:1012D000086010BD004400401000002014000020F1
:1012E0002A0000201800002010B540F225511548B2
:1012F00000F03FF828B31348FFF786FF1249087043
:10130000084600780D280AD1012010490860002005
:101310000F49104A126888540E49086011E00A48C3
:1013200000780B490B4A126888540846094A12682B
:10133000815C044800F050F806480068401C0549EC
:10134000086010BD0048004010000020140000207C
:101350002A0000201800002002460020B1F5007F7E
:1013600000D100BF13880B400BB1012000E000202A
:10137000704770B50246002400230025002040F687
:101380006A16B14200D100BFC1F3421501F01F033C
:10139000012606FA03F3012D02D19689334006E0B7
:1013A000022D02D1168A334001E0968A33400C1296
:1013B000012606FA04F41688344013B10CB101205A
:1013C00000E0002070BD01468888C0F30800704727
:1013D000C1F308028280704770B504460D46294665
:1013E0002046FFF7F5FF00BF80212046FFF7B4FF3E
:1013F0000028F9D070BD00BFFEE7000010B504461C
:101400006FF00400FFF7BCFEE11704EB5171C1F36C
:10141000C701074A11701046007800EB4001C1EB8C
:10142000C0104FF6FF7101EAC0000249088010BDEC
:10143000060000200800002001460D4A12884A4399
:101440004FF0E0235A6100229A6101221A6100BF25
:101450004FF0E022106900F001021AB100F480326E
:10146000002AF5D000224FF0E0231A619A617047FC
:1014700008000020FFF798FE4820FFF7BFFFFFF7A6
:101480003BFA00BFFEE70000000000000000000083
:10149000000000000404040404040004000000141C
:1014A0000A0A0000000000000000000014143F14AD
:1014B0000A3F0A0A000000041E1505060C14150F49
:1014C0000400000012150D0A142C2A12000000005E
:1014D000040A0A1E15150936000000020201000068
:1014E000000000000000002010080808080808108C
:1014F0002000000204080808080808040200000090
:101500000004150E0E150400000000000404041F62
:1015100004040400000000000000000000000002BD
:10152000020100000000001F000000000000000099
:10153000000000000000000200000010080808047D
:1015400004020202010000000E1111111111110E0E
:1015500000000000040604040404040E000000005F
:101560000E1111080402011F000000000E11100CE2
:101570001010110E00000000080C0A0A091E0818BD
:10158000000000001F01010F1010110E00000000EC
:101590000E09010F1111110E000000001F090804AF
:1015A00004040404000000000E11110E1111110EAC
:1015B000000000000E1111111E10120E000000009C
:1015C000000004000000000400000000000000040F
:1015D0000000000404000020100804020408102089
:1015E0000000000000001F00001F000000000002BB
:1015F0000408102010080402000000000E11110859
:1016000004040004000000000E111915151D011E30
:101610000000000004040C0A0A1E1233000000003F
:101620000F12120E1212120F000000001E11010103
:101630000101110E000000000F1212121212120FFF
:10164000000000001F120A0E0A02121F0000000014
:101650001F120A0E0A020207000000001C120101FC
:101660003911120C000000003312121E1212123334
:10167000000000001F0404040404041F0000000014
:101680003E080808080808090700000037120A0683
:101690000A0A123700000000070202020202223F7B
:1016A000000000001B1B1B1B15151515000000007A
:1016B0003B1216161A1A1217000000000E11111113
:1016C0001111110E000000000F12120E020202078B
:1016D000000000000E1111111117190E1800000062
:1016E0000F12120E0A121237000000001E1101061E
:1016F0000810110F000000001F1504040404040E5C
:1017000000000000331212121212120C000000002E
:101710003312120A0A0C0404000000001515150EFD
:101720000A0A0A0A000000001B0A0A04040A0A1B2B
:10173000000000001B0A0A040404040E000000005C
:101740001F0908040402121F0000001C0404040402
:10175000040404041C000002020204040808081027
:101760000000000E08080808080808080E00000419
:101770000A0000000000000000000000000000005F
:1017800000000000003F0004000000000000000016
:10179000000000000000000C121C123C00000000C1
:1017A0000302020E1212120E000000000000001CC4
:1017B0001202021C000000001810101C1212123C31
:1017C000000000000000000C121E021C00000000BF
:1017D0003804041E0404041E000000000000003C45
:1017E000120C021E221C00000302020E12121237FB
:1017F00000000000040000060404040E00000000C5
:101800000800000C08080808080700000302023A54
:101810000A0E123700000000070404040404041F29
:10182000000000000000000F151515150000000055
:101830000000000F12121237000000000000000C20
:101840001212120C000000000000000F1212120E03
:10185000020700000000001C1212121C10380000C9
:101860000000001B06020207000000000000001E2E
:10187000020C101E000000000004040E04040418F2
:10188000000000000000001B1212123C00000000CB
:1018900000000037120A0C040000000000000015D0
:1018A000150E0A0A000000000000001B0A040A1BB3
:1018B0000000000000000037120A0C0404030000BE
:1018C0000000001E0804041E000000180808080498
:1018D0000808080818000808080808080808080880
:1018E0000808000604040408040404040600022591
:1018F00018000000000000000000000000000000D0
:1019000000000000000000000000000000080808BF
:101910000808080800001818000000486C2412008D
:10192000000000000000000000000000002424244B
:101930007F1212127F12121200000000081C2A2AC5
:101940000A0C1828282A2A1C08080000002225153D
:1019500015152A585454542200000000000C12128D
:10196000120A76252911916E000000060604030074
:1019700000000000000000000000004020101008DF
:101980000808080808101020400000020408081089
:1019900010101010100808040200000000000808D1
:1019A0006B1C1C6B08080000000000000000080809
:1019B00008087F0808080800000000000000000078
:1019C0000000000000000606040300000000000004
:1019D0000000FE0000000000000000000000000009
:1019E00000000000000006060000000080404020CB
:1019F000201010080804040202000000001824420D
:101A000042424242424224180000000000080E08F0
:101A1000080808080808083E00000000003C424290
:101A2000422020100804427E00000000003C424298
:101A3000201820404042221C0000000000203028D6
:101A4000242422227E20207800000000007E020252
:101A5000021A26404042221C0000000000382402E6
:101A6000021A26424242241800000000007E222270
:101A7000101008080808080800000000003C424256
:101A8000422418244242423C000000000018244234
:101A9000424264584040241C000000000000000046
:101AA00018180000000018180000000000000000D6
:101AB000000800000000000808040000004020109A
:101AC000080402040810204000000000000000008C
:101AD0007F0000007F0000000000000000020408FA
:101AE000102040201008040200000000003C424288
:101AF000464020101000181800000000001C225A58
:101B0000555555552D42221C0000000000080818AC
:101B10001414243C224242E700000000001F22224D
:101B2000221E22424242221F00000000007C42424C
:101B3000010101010142221C00000000001F22429D
:101B4000424242424242221F00000000003F421235
:101B5000121E12120242423F00000000003F4212D9
:101B6000121E12120202020700000000003C222294
:101B7000010101712122221C0000000000E7424205
:101B800042427E42424242E700000000003E080816
:101B9000080808080808083E00000000007C101033
:101BA0001010101010101010110F000000772212EA
:101BB0000A0E0A1212222277000000000007020219
:101BC000020202020202427F000000000077363665
:101BD00036362A2A2A2A2A6B0000000000E34646ED
:101BE0004A4A52525262624700000000001C2241E1
:101BF000414141414141221C00000000003F42425E
:101C000042423E020202020700000000001C224184
:101C1000414141414D53321C60000000003F4242AF
:101C2000423E1212222242C700000000007C4242C3
:101C3000020418204042423E00000000007F490894
:101C4000080808080808081C0000000000E74242D5
:101C5000424242424242423C0000000000E742420F
:101C6000222424141418080800000000006B4949BD
:101C700049495555362222220000000000E742243F
:101C800024181818242442E70000000000772222BC
:101C9000141408080808081C00000000007E212019
:101CA000101008040442423F0000007808080808A9
:101CB0000808080808080808780000000202040460
:101CC00008080810102020204040001E101010109E
:101CD00010101010101010101E00003844000000EA
:101CE00000000000000000000000000000000000F4
:101CF000000000000000000000FF000608000000D7
:101D000000000000000000000000000000000000D3
:101D1000003C4278444242FC000000000003020202
:101D2000021A26424242261A00000000000000006B
:101D300000384402020244380000000000604040C5
:101D400040784442424264D8000000000000000095
:101D5000003C427E0202423C0000000000F0880885
:101D6000087E08080808083E000000000000000087
:101D7000007C22221C023C42423C00000003020282
:101D8000023A4642424242E700000000000C0C00CA
:101D9000000E08080808083E00000000003030006F
:101DA0000038202020202020221E000000030202F4
:101DB0000272120A1612227700000000000E0808B4
:101DC000080808080808083E00000000000000009D
:101DD000007F9292929292B70000000000000000F3
:101DE000003B4642424242E7000000000000000083
:101DF000003C42424242423C000000000000000021
:101E0000001B26424242221E020700000000000082
:101E1000007844424242447840E000000000000064
:101E200000774C040404041F0000000000000000C0
:101E3000007C42023C40423E0000000000000008DE
:101E4000083E0808080808300000000000000000F4
:101E500000634242424262DC0000000000000000D9
:101E600000E74224241408080000000000000000DD
:101E700000EB4949555522220000000000000000F7
:101E8000007624181818246E0000000000000000DE
:101E900000E742242414180808070000000000008E
:101EA000007E22100808447E000000C02020202070
:101EB0002010202020202020C00010101010101012
:101EC000101010101010101010100006080808084C
:101ED000081008080808080806000C32C2000000B4
:101EE00000000000000000000000C9EE000027FC18
:101EF000140414A4811042084040104017FC2040F4
:101F0000E0E0215022482C4620400040DBDA11045A
:101F10001124112411241124FD241124112411242D
:101F2000112411241D24E124422402040404CAD0F3
:101F30000200010000007FFC0100010001003FF8E9
:101F40002108210821082108212821100100010071
:101F5000C8AB000000000180024004301808600691
:101F60001FF90100010001003FF80100010001001C
:101F70007FFEB6AF0000000000203E20007C002263
:101F800000227F22102210221222122222422342F9
:101F90003D82009CB5E70000010001001FF0610CCC
:101FA000410441047FFC4104410441047FFC0100E1
:101FB0000102010201FCD7D3000000003FF800102D
:101FC00000600080010000807FFE00400040002093
:101FD0000020002018400780BCBC102010201020DA
:101FE00013FEFC201020102015FC18843088D048E7
:101FF00010501020105051882606CAF5010001200B
:10200000011001107FFC03800540054009201110DC
:10201000210841048102010001000100D3D0020027
:102020000200FFFE040004000FF0081018102FF04B
:10203000481088100FF00810081008500820CFDE54
:1020400000007BF84A08520853F8620852084BF81F
:102050004A444A486A3052204210428843064200AD
:10206000B9AB008004800480084008401020201094
:102070004208820604000440082010203FF010109F
:102080000000CBBE00003FF8000800087FE8000811
:1020900000081F8810881088108810881F881088F2
:1020A00000280010BBB600800080FC8004FC050402
:1020B00049082A401440104028A024A0451081104F
:1020C000020804040802D3AD00002080133C12244F
:1020D00002240224F2241224122412B413281220FF
:1020E0001020282047FE0000C4FA0900090011FC56
:1020F000320454489950114812441444114010803D
:1021000002005104511290120FF0B4BF00000020E1
:10211000102013FE202026244A247A24122422246C
:1021200023FC7C20002204227822003CC9AB000062
:10213000000004000FF0102020207FFC2084208469
:10214000208420843FF82000200220021FFECCEED5
:1021500000000000204023FE204079FC220423FCE4
:10216000220423FC220423FC3A0465FA01980204A9
:10217000B3E40000010001007FFE02200410040807
:1021800008043FFC04420440044004420842104258
:10219000607EBED800000000207E3E8048804880DF
:1021A00048FE48827F8208820C8214FA12842280C0
:1021B000218040FED0CE000000007F842208223023
:1021C00022C0220222047FC8223022C2220222041C
:1021D000220822304040BBAD000000007FFE00001E
:1021E0000FF011101110111051125FF25112511213
:1021F00051124FF240027FFCD4B2000000007FFE7B
:1022000047E24812481247E24FF250125012511260
:10221000511242924472580A3FFCCDBC00000000AB
:102220003FFE440247F24C225362408243625E1AF0
:1022300041824062430240C240223FFCC6AC0000E3
:1022400000402040204020403FFE20002000200091
:102250003FE0201020102010201040104010CFD45C
:10226000000000003FFC200420043FFC2004200468
:102270001FF824441448144814480C5004407FFEAE
:10228000CABE000000003FFC0000000000007FFE0E
:102290000080089008881088108420842082408262
:1022A0000780B2CB0000002008207FFE00200078CD
:1022B0003F881108089009207FFE018003400D30FF
:1022C000310C4002B5A500000010081004203FF8B2
:1022D000210421043FFC210421043FF801007FFE7A
:1022E000010001000100D6D0000001000100010042
:1022F0003FFC2104210421042104210421043FFC8A
:102300000100010001000100D3A20000000008202C
:102310007FFE0820092001003FF82108210821083C
:102320001FF4014002200C10700ECEC4000001000A
:10233000010000803F7C08100810041004200220D7
:1023400002400180018002601C18E006D7DB00001B
:102350000000102011FE2202220249FC5800300029
:1023600013FE2528792401240D24722202A2BACF5B
:1023700000000000018002400430180860061FF8C9
:1023800000001FF8200420042004200420041FF86B
:10239000C1C10000010001007FFE00003FF82008DD
:1023A0003FF83FF8400647C2482408200822102280
:1023B000603EB6C80000000000803FFE44105FFC95
:1023C0004410441043F040005FF84408423041C0DC
:1023D0004360BC1EB2E20000000067C21452055206
:1023E0000552C552255205520552155217522282E6
:1023F00022424442483ECAD4000000002014101477
:1024000017FE00120010601013F010901090109042
:10241000149214EA1F0A0006B3CC0000000019FE53
:102420007202120212027DFC18001BFE34205020A2
:1024300053FE10201020102013FED0F200000000E8
:1024400000803FFE400047FC4208413040C05FFE34
:10245000404240424044404840404440B5F70000BC
:10246000000023FE122202FA0222E22212FE12725F
:10247000128A128A128A16BA1A421202040EB9E29B
:1024800000000100010411080908091009207FFE5D
:102490000440044004400440084208421042607C6A
:1024A000B0E60000000048FE4900490049007EFEF9
:1024B00041824144794445284528451045284644F1
:1024C0000382C8A800001000100013FC7D04110452
:1024D0001904188434885048505010201050108827
:1024E00013041402CBF9000000003F7C2040204080
:1024F0003E40227E2244224422443E842084208482
:10250000408441044204C6C100003FF8200820086E
:102510003FF8241022202FF8222022203FFC2220E6
:102520004220442084200820C4BB04407FFC044097
:102530001FF010101FF010101FF00400FFFE11100C
:102540003FF8D116115011200100D0FD20801080DD
:1025500010FE0100FE0021FC20243C2424A024A025
:1025600024BC24A024A04560553E8A00D7AA202080
:1025700020202020FDFC4020504093FEFC40108095
:1025800011FC1C04F0885050102010101010BFAA2D
:1025900000007FFC08200820082008200820FFFEFB
:1025A000082008200820082010201020202040208B
:1025B000D4B4000027FE1420144085FC450445FCDB
:1025C000150415FC2524E42024A829242A2230A05F
:1025D0000040D2BA0080204017FE11208120423CEA
:1025E0004244166412942348E248223022202250AA
:1025F00022880306BEA70FE0082008200FE008206D
:1026000008200FE000007EFC428442847EFC42846D
:1026100042847EFC4284CDF800007FFC40044004EC
:10262000421452944A54442444244A544A545294DE
:102630006104400440144008D5BE10200820082042
:102640007E20003E04204420442025FC2904290447
:102650000F04F104410401FC0104B0B41040102047
:10266000102013FEFA02144410401BFE3088D0885C
:10267000110810D01020105050882304BCFC2010EA
:1026800020103B7C211441FE7A14A27C2710F97C97
:10269000251025FE22102A10350028FE0000D0A3A8
:1026A00010401020102011FEFC00108831043A0266
:1026B00054885088905010501020105010881306E5
:1026C000D7BC01404120212023FE022016201BFC04
:1026D0001220222023FCE2202220222023FE22009E
:1026E0000200B4A520202020782049FC91247D24DC
:1026F000552455247DFC552454207C28542457FE11
:1027000045028C00C3FE1110111017FC1110FC00C3
:1027100013F8120817F81A0833F8D04017FC10A065
:10272000111052082406C9EE00000000000010003D
:10273000000800080C7FFC04401001C8A0021860CB
:1027400042301832231812C30014030004030C048F
:102750007FF0080F80080B4078136018332018634F
:102760001818831C19030818030000030000000058
:10277000DBDA00000000000004100C04180C041048
:102780008C04108C04108C04108C04D08C3F108CA2
:1027900004108C04108C04108C04108C04108C0415
:1027A000108C05F08C0E208C78208C20408C0080C2
:1027B0008C01000C02000C000000CAD000000000D8
:1027C000000000300000180000180800001C1FFF67
:1027D000E000180000182007FFF00418200418205B
:1027E00004182004182004182004182004182004B9
:1027F00018200418200418E00418400018000018DD
:1028000000000000D6D00000000000000000000022
:1028100000000018000018000018000018003FFF1A
:10282000FE30180630180630180630180630180624
:102830003FFFFE30180600180000180000180000C6
:102840001800001800000000000000000000CEC4C6
:10285000000000000000000000003800001C000024
:102860000600FFFFFF060030060030030060030093
:10287000600180C000C18000E300003600001C0041
:1028800000770003C1E01E003C600007000000006C
:102890000000000000000000B2E2000000000000A4
:1028A00000000000000040000321FF333983331192
:1028B0008333019B33C19B33719B33199B33019B42
:1028C00033019B33119B3319B333303033306C03F6
:1028D00030C6036383032E01BE0000000000000029
:1028E0000000CAD40000000000000000000000004A
:1028F0004000D83000CE1800C21C00C001FFFF000D
:1029000000C0F800C01800C019FFC01818401818FF
:10291000601918601B18611E18311C1FB139F0199D
:1029200010000F000000000000000000D7D60000DB
:10293000000000060000000300000000C0000001CD
:10294000C0C0000107C00001FF00021FFE0007F029
:102950001C0007C070000F00E0000E03F0001C0F09
:10296000F0003C0F70003C00E0001800C0000000C8
:10297000C0000000C0000000600000002000000057
:1029800037000001FF00007FF80007F830001F80CB
:1029900030000080300000C030000060600000188F
:1029A000E000000FC0000006000000000000CCE5C1
:1029B0000000000000000000000000C0000000E077
:1029C000002001B800703FF80061FFC000C30300A1
:1029D00001C60600038C060003080C0006080C0064
:1029E0000E18183F1E101BF31F903F0700803C1C61
:1029F0000190707C019060FE01A0C3F801A00FD887
:102A000003A00818036000180340001803C0001852
:102A100003800018030000180000001800000010D8
:102A20000000003000000030000000000000000046
:102A3000B2E2000000000000000000000000000002
:102A40000000020C1008071FF80403BFF00201BCCD
:102A5000300303EC3003015C600300D8600300D84E
:102A600060038098620361B8430771B14306313255
:102A700043063376C3063A64C7063EECC0063E788A
:102A8000C0063C3040067C70000678E060067BFFA4
:102A9000F006F7C00006E400000640000006000053
:102AA00000060000007C00008FF000007C000000A9
:102AB0000000CAD400000000000000000000000078
:102AC00000003F0000007F8000000180000000C087
:102AD000000000C0000000CE038000CFFFC000DD7A
:102AE00041800FFE0007FFFC000C00F000180FC033
:102AF0003E19FF40F311BC6083307FE003B1FE203C
:102B0000033380200370003003600010036000185E
:102B100007C0000C07C0000407800002010000038A
:102B200000000001000000000000000000000000A4
:102B300000000000542B0008000000201C000000D2
:102B400028010008702B00081C0000209C070000D2
:102B5000440100080000FFFF00000000000000002A
:102B60000000000000000000000000000000000065
:04000005080000ED02
:00000001FF
