:020000040800F2
:10000000F0360020890100086D120008C9030008BD
:1000100069120008430200080516000800000000ED
:100020000000000000000000000000009314000821
:1000300047020008000000009F010008A10100081D
:10004000A3010008A3010008A3010008A301000800
:10005000A3010008A3010008A3010008A3010008F0
:10006000A3010008A3010008A3010008A3010008E0
:10007000A3010008A3010008A3010008A3010008D0
:10008000A3010008A3010008A3010008A3010008C0
:10009000A3010008A3010008A3010008A3010008B0
:1000A000A3010008A3010008A3010008A3010008A0
:1000B000A3010008A3010008A3010008A301000890
:1000C000A3010008A3010008A3010008A301000880
:1000D000A3010008A3010008A3010008A301000870
:1000E000A3010008A3010008A301000800F002F822
:1000F00000F03AF80AA090E8000C82448344AAF188
:100100000107DA4501D100F02FF8AFF2090EBAE885
:100110000F0013F0010F18BFFB1A43F0010318473B
:100120006034000080340000103A24BF78C878C1E1
:10013000FAD8520724BF30C830C144BF04680C60ED
:10014000704700000023002400250026103A28BF35
:1001500078C1FBD8520728BF30C148BF0B60704739
:100160001FB51FBD10B510BD00F031F81146FFF7E7
:10017000F7FF02F014FD00F04FF803B4FFF7F2FFB1
:1001800003BC00F057F800000948804709480047C1
:10019000FEE7FEE7FEE7FEE7FEE7FEE7FEE7FEE737
:1001A000FEE7FEE704480549054A064B7047000094
:1001B000A5150008ED000008F0300020F036002002
:1001C000F0320020F03200207047704770477546CB
:1001D00000F02CF8AE4605006946534620F00700B3
:1001E000854618B020B5FFF7DDFFBDE820404FF091
:1001F00000064FF000074FF000084FF0000B21F011
:100200000701AC46ACE8C009ACE8C009ACE8C009DD
:10021000ACE8C0098D46704710B50446AFF30080C6
:100220002046BDE81040FFF7A8BF00000048704717
:100230009030002001491820ABBEFEE726000200E6
:10024000704700BFFEE770472DE9F04102460025E8
:100250000026002000230024002791F803C00CF0A2
:100260000F0591F803C00CF0100CBCF1000F03D087
:1002700091F802C04CEA050591F800C0BCF1000FEE
:1002800031D0146800202BE04FF0010C0CFA00F381
:10029000B1F800C00CEA03069E4220D183004FF063
:1002A0000F0C0CFA03F7BC4305FA03FC4CEA0404F8
:1002B00091F803C0BCF1280F06D14FF0010C0CFAE5
:1002C00000FCC2F814C00AE091F803C0BCF1480F6A
:1002D00005D14FF0010C0CFA00FCC2F810C0401C14
:1002E0000828D1D31460B1F800C0BCF1FF0F34DD91
:1002F000546800202EE000F1080C4FF0010808FAC5
:100300000CF3B1F800C00CEA03069E4221D1830031
:100310004FF00F0C0CFA03F7BC4305FA03FC4CEA50
:10032000040491F803C0BCF1280F05D100F1080CBA
:1003300008FA0CF8C2F8148091F803C0BCF1480F19
:1003400007D100F1080C4FF0010808FA0CF8C2F8C8
:100350001080401C0828CED35460BDE8F081000016
:100360002DE9F05F0746884615461E46DDF82890C1
:1003700008EB0600401E83B27819401E82B2414647
:10038000384600F0A5F900240AE019F814B009EB8A
:10039000440090F801A04BEA0A2000F047FA641CE0
:1003A00005FB06F0A042F0DC06484088401E83B200
:1003B00004480088401E82B20021084600F088F9F7
:1003C000BDE8F09F8000002000BFFEE770B5064644
:1003D00014484088401E83B212480088401E82B2F2
:1003E0000021084600F074F94FF400700E490860CF
:1003F0004010091F086000240AE0002503E0304691
:1004000000F014FA6D1C07480088A842F7D8641C55
:1004100004484088A042F0D84FF400700249091FF8
:10042000086070BD80000020140C014008B5012157
:10043000082000F02DFF4FF49850ADF80000032085
:100440008DF8020010208DF8030069460148FFF77F
:10045000FBFE08BD000C014010B500F091FFFFF756
:10046000E5FF00F021F9CF2000F076F9002000F040
:100470005BF9D92000F058F9302000F055F9ED2053
:1004800000F06AF9642000F04FF9032000F04CF905
:10049000122000F049F9812000F046F9E82000F030
:1004A0005BF9852000F040F9102000F03DF97A203A
:1004B00000F03AF9CB2000F04FF9392000F034F980
:1004C0002C2000F031F9002000F02EF9342000F04B
:1004D0002BF9022000F028F9F72000F03DF9202048
:1004E00000F022F9EA2000F037F9002000F01CF9B2
:1004F000002000F019F9C02000F02EF91B2000F0B8
:1005000013F9C12000F028F9122000F00DF9C520E0
:1005100000F022F9262000F007F9262000F004F967
:10052000C72000F019F9B02000F0FEF8362000F0E6
:1005300013F9082000F0F8F83A2000F00DF95520E2
:1005400000F0F2F8B12000F007F9002000F0ECF81C
:100550001A2000F0E9F8B62000F0FEF80A2000F0BA
:10056000E3F8A22000F0E0F8F22000F0F5F8002017
:1005700000F0DAF8262000F0EFF8012000F0D4F8BF
:10058000E02000F0E9F81F2000F0CEF8242000F071
:10059000CBF8242000F0C8F80D2000F0C5F8122098
:1005A00000F0C2F8092000F0BFF8522000F0BCF8BB
:1005B000B72000F0B9F83F2000F0B6F80C2000F0AA
:1005C000B3F8152000F0B0F8062000F0ADF80E20CA
:1005D00000F0AAF8082000F0A7F8002000F0A4F826
:1005E000E12000F0B9F8002000F09EF81B2000F098
:1005F0009BF81B2000F098F8022000F095F80E20E0
:1006000000F092F8062000F08FF82E2000F08CF811
:10061000482000F089F83F2000F086F8032000F021
:1006200083F80A2000F080F8092000F07DF83120DE
:1006300000F07AF8372000F077F81F2000F074F807
:100640002B2000F089F8002000F06EF8002000F068
:100650006BF8012000F068F83F2000F065F82A20D0
:1006600000F07AF8002000F05FF8002000F05CF85D
:10067000002000F059F8EF2000F056F8112000F0AB
:100680006BF8782001F0CEFB292000F065F80020FF
:1006900000F08AF80120034908604FF6FF70FFF769
:1006A00095FE10BD9481214210B54FF4805007494A
:1006B0000860642001F0B6FB4FF480500349091F25
:1006C0000860322001F0AEFB10BD0000140C0140A8
:1006D0002DE9F04104460D4616461F461149887A19
:1006E00000F03AF8201200F01FF8E0B200F01CF819
:1006F000301200F019F8F0B200F016F80949087B42
:1007000000F02AF8281200F00FF8E8B200F00CF818
:10071000381200F009F8F8B200F006F800F032F8EC
:10072000BDE8F0818000002010B504464FF4007051
:10073000074908604010091F08602146054800F07D
:1007400097FE4FF400700249091F086010BD0000B9
:10075000140C01400038004010B504464FF40070FE
:1007600006490860401008602146054800F080FEF8
:100770004FF400700149091F086010BD140C0140BE
:100780000038004010B50249087AFFF7E5FF10BDB8
:100790008000002070B505460C462846FFF7DCFFB8
:1007A000E0B2FFF7C1FF70BD10B504462A201E4914
:1007B00048812B2088812C20088134B1012C0FD056
:1007C000022C18D0032C2CD120E0F02016490880F0
:1007D0004FF4A070488008213620FFF7DBFF21E0AE
:1007E0004FF4A07010490880F0204880682136201E
:1007F000FFF7D0FF16E0F0200B4908804FF4A070FF
:100800004880C8213620FFF7C5FF0BE04FF4A070E9
:1008100005490880F0204880A8213620FFF7BAFF5C
:1008200000E000BF00BF10BD8000002010B50446EE
:100830004FF40070094908604010091F0860211238
:10084000074800F015FEE1B2054800F011FE4FF434
:1008500000700249091F086010BD0000140C01401F
:100860000038004030B589B00446FF22002109203D
:1008700000F06EFCC5B215B1284609B030BD0122AA
:10088000102105A800F024FC08B10120F5E7FF22A3
:1008900000210A2000F05CFCC5B20DB12846ECE74F
:1008A0000122102101A800F013FC08B10220E4E7A6
:1008B0009DF81400800920709DF81400C0F3830097
:1008C00060709DF8140000F00300A0709DF8150002
:1008D000E0709DF8160020719DF8170060719DF87A
:1008E00018000001E080E0889DF8191040EA11101E
:1008F000E0809DF8190000F00F0020729DF81A00AA
:10090000C00960729DF81A00C0F38010A0729DF8B3
:100910001A00C0F34010E0729DF81A00C0F30010F6
:100920002073002060739DF81A008007000D20617D
:1009300020699DF81B1040EA8100206120699DF824
:100940001C1040EA911020619DF81C00C0F3C20009
:1009500020759DF81C0000F0070060759DF81D00D3
:100960004009A0759DF81D00C0F38200E0759DF858
:100970001D008007400F2076207E9DF81E1040EA63
:10098000D11020769DF81E00C0F3840060769DF89B
:100990001E008007C00EA076A07E9DF81F1040EAC2
:1009A0005110A0769DF81F0000F01F00E0769DF822
:1009B0002000C00920779DF82000C0F34110607727
:1009C0009DF82000C0F38200A0779DF820008007EA
:1009D000000FE077E07F9DF8211040EA9110E0776A
:1009E0009DF82100C0F3401084F82000002084F816
:1009F00021009DF8210000F0010084F822009DF8FC
:100A00002200C00984F823009DF82200C0F3801062
:100A100084F824009DF82200C0F3401084F82500DB
:100A20009DF82200C0F3001084F826009DF82200F3
:100A3000C0F3810084F827009DF8220000F0030035
:100A400084F828009DF82300400884F8290001203C
:100A500084F82A0094F84E00042808D19DF81C0060
:100A60000002206120699DF81D1008442061206962
:100A7000C00460644FF40070A0649DF8040084F822
:100A80002C009DF805000102E185E08D9DF806101F
:100A90000843E0859DF8070001062163206B9DF85F
:100AA000081040EA01412163206B9DF8091040EADB
:100AB00001212163206B9DF80A10084320639DF8F3
:100AC0000B10342001559DF80C10352001559DF870
:100AD0000D000106A163A06B9DF80E1040EA0141D4
:100AE000A163A06B9DF80F1040EA0121A163A06BE8
:100AF0009DF810100843A0633C20005D9DF8111084
:100B000040EA11113C2001559DF811000007010D2C
:100B1000E187E08F9DF812100843E0879DF81300ED
:100B20004108402001550121412001550020A4E643
:100B30007CB5002000900190002401E0601C84B28C
:100B4000FF2CFBDD002404E0FF2000F077FB601C9D
:100B500084B20A2CF8DB00240BE095220021084621
:100B600000F0F6FAC5B2012D01D1002405E0601CA9
:100B700084B240F6FF708442EFDB00BF40F6FF70A6
:100B8000844201D101207CBD87224FF4D571082019
:100B900000F01CFBC5B2052D5CD10120704981F825
:100BA0004E0080206F490860FF2000F047FB0024C2
:100BB00014E000221146372000F0CAFAC5B2012D18
:100BC00001D02846DFE700221146292000F0C0FAB4
:100BD000C5B20DB9002405E0601C84B240F6FF7078
:100BE0008442E6DB00BF40F6FF7084421BD1002444
:100BF0000AE000221146012000F0AAFAC5B20DB9A0
:100C0000002405E0601C84B240F6FF708442F0DBF3
:100C100000BF40F6FF70844201D10220B3E70020FC
:100C20004F4981F84E00012000F000F90122002117
:100C30003B2000F08DFAC5B20DB12846A3E7FF2294
:100C40004FF40071102000F083FAC5B2002D7DD062
:100C5000284698E7012D79D1FF2000F0EFFAC0B2C5
:100C60008DF80000FF2000F0E9FAC0B28DF8010015
:100C7000FF2000F0E3FAC0B28DF80200FF2000F080
:100C8000DDFAC0B28DF80300802036490860FF20ED
:100C900000F0D4FA9DF8020001285FD19DF803000E
:100CA000AA285BD1002415E000221146372000F06D
:100CB0004FFAC5B2012D01D0284664E700224FF05B
:100CC0008041292000F044FAC5B20DB9002405E0A6
:100CD000601C84B240F6FF708442E5DB00BF40F642
:100CE000FF70844201D103204DE7002211463A20D3
:100CF00000F06CFAC5B20DB1284644E7FF2000F0C1
:100D00009DFAC0B28DF80000FF2000F097FAC0B243
:100D10008DF80100FF2000F091FAC0B28DF80200BA
:100D2000FF2000F08BFAC0B28DF8030080200D493F
:100D30000860FF2000F082FA9DF8000000F04000FB
:100D400028B10420064981F84E0004E006E00220A4
:100D5000034981F84E00012000F068F8002012E7F6
:100D600090000020100C01402DE9F04105460E4690
:100D700017461B4890F84E00042800D06D02002250
:100D80002946122000F0E4F900F0FF08B8F1000F46
:100D900002D00120BDE8F081002412E006EB4420DF
:100DA00000224FF4007100F093F948B1002211467F
:100DB0000C2000F0CDF980200A4908600220E9E704
:100DC000641CBC42EAD3002211460C2000F0C0F99A
:100DD000802004490860FF2000F030FA0020D9E7A5
:100DE00090000020100C014070B504460E460E48DD
:100DF00090F84E00042800D0640200222146112001
:100E000000F0A6F9C5B20DB1012070BD012251025A
:100E1000304600F05DF9C5B2002211460C2000F00A
:100E200097F92846F1E700009000002010B586B041
:100E300004460020ADF804004FF48270ADF80600BF
:100E40000020ADF808000220ADF80A000120ADF83E
:100E50000C004002ADF80E000020ADF81200072093
:100E6000ADF814001CB93820ADF8100002E01020D5
:100E7000ADF8100001A9024800F0DCFA06B010BD80
:100E80000030014008B50121080300F001FA0121FA
:100E90000D2000F0FDF9E020ADF8000003208DF8F2
:100EA000020018208DF8030069460E48FFF7CCF9C0
:100EB0008020ADF8000003208DF8020010208DF88E
:100EC000030069460848FFF7BFF980200649103142
:100ED00008600120FFF7AAFF0121044800F09EFAF4
:100EE00008BD000000080140000C01400030014036
:100EF0002DE9F04705460E461746414890F84E004A
:100F0000042800D06D023E4890F84E0020B1002227
:100F10003946172000F01CF900222946192000F05C
:100F200017F9C4B214B10120BDE8F087802035491B
:100F30000860FF2000F082F94FF000083AE0FC2042
:100F400000F07CF94FF0000907E016F8010B00F003
:100F500075F909F101001FFA80F9B9F5007FF4DB9A
:100F6000FF2000F06BF9FF2000F068F9FF2000F08F
:100F700065F9C4B204F01F00052805D0802021497E
:100F8000091F08600220CFE74FF0000A0BE050462F
:100F90000AF1010AB0F5802F05D180201949091FF7
:100FA00008600320C0E7FF2000F048F9FF28EED1D9
:100FB00008F10108B845C2D3FD2000F03FF9C4B2E2
:100FC0000CB90420B0E74FF0000A0BE050460AF1DC
:100FD000010AB0F5802F05D180200A49091F086059
:100FE0000520A1E7FF2000F029F9FF28EED180209D
:100FF0000449091F0860FF2000F020F9002093E752
:1010000090000020140C01402DE9F04104460D46EB
:101010002D4890F84E00042800D06402002221469A
:10102000182000F095F8C6B216B10120BDE8F08195
:10103000802026490860FF2000F000F9FF2000F022
:10104000FDF8FF2000F0FAF8FE2000F0F7F8002786
:1010500005E015F8010B00F0F1F8781C87B2B7F540
:10106000007FF6DBFF2000F0E9F8FF2000F0E6F853
:10107000FF2000F0E3F8C6B206F01F00052805D0F7
:1010800080201249091F08600220CFE74FF00008B6
:101090000BE0404608F10108B0F5802F05D1802013
:1010A0000A49091F08600320C0E7FF2000F0C6F8C6
:1010B0000028EED080200549091F0860FF2000F0BD
:1010C000BDF80020B2E7000090000020140C0140A1
:1010D0002DE9F04105460E46174680201B49086061
:1010E00000240BE0FF2000F0A9F800F0FF08B8F1A1
:1010F000FE0F01D1002404E0601C84B2B4F5FA6F45
:10110000F0DB00BFB4F5FA6F06D180200F49091F4C
:1011100008600120BDE8F081002405E0FF2000F018
:101120008DF82855601C84B2B442F7DBFF2000F034
:1011300085F8FF2000F082F837B180200349091FAD
:101140000860FF2000F07AF80020E3E7140C01406B
:101150002DE9F04106460C461746FF2000F06EF8D8
:1011600080201949086046F0400000F067F8200E22
:1011700000F064F8C4F3074000F060F8C4F30720FF
:1011800000F05CF8E0B200F059F8384600F056F88C
:101190004FF000080AE0FF2000F050F8C5B2FF2D24
:1011A00000D006E008F1010000F0FF08B8F1C80F18
:1011B000F1DB00BF80200449091F0860FF2000F018
:1011C0003DF82846BDE8F081140C01402DE9F041BE
:1011D00006460C461746FF2000F030F880201649DE
:1011E000086046F0400000F029F8200E00F026F8D4
:1011F000C4F3074000F022F8C4F3072000F01EF803
:10120000E0B200F01BF8384600F018F84FF0000884
:101210000AE0FF2000F012F8C5B2FF2D00D006E072
:1012200008F1010000F0FF08B8F1C80FF1DB00BFC2
:101230002846BDE8F0810000140C0140014600BFC3
:101240000848008900F002000028F9D00548818193
:1012500000BF0448008900F001000028F9D00148CF
:10126000808970470030014000BFFEE770470000F2
:1012700029B1064AD2690243044BDA6104E0034A09
:10128000D2698243014BDA617047000000100240CE
:1012900029B1064A92690243044B9A6104E0034A69
:1012A00092698243014B9A6170470000001002402E
:1012B00038B505462C49002001F0C4F82B490870C8
:1012C000012229462A4801F0D3F828490870084627
:1012D0000078002844D1274B46222749244801F0B2
:1012E00081F9224908700846007848B9002403E0D3
:1012F000002021490855641C42F210708442F7D343
:1013000000201E49086027E01A4B4FF496521A49F4
:10131000174801F067F91549087008460078B0B918
:10132000154800901548008800EB80004004010C2F
:101330000A23F0220020FFF713F8002403E0002026
:101340000D490855641C42F210708442F7D30B48D3
:101350000068401C09490860084800682028D3DB61
:10136000034801F064F838BDE80200200C000020BA
:101370001805002010000020600900207C000020DB
:1013800000B587B001210920FFF782FF4FF420400C
:10139000ADF8040003208DF8060018208DF8070032
:1013A00001A91C48FEF750FF4FF48040ADF804003F
:1013B00048208DF8070003208DF8060001A9154884
:1013C000FEF742FF01218803FFF752FF0020ADF82E
:1013D00008004FF48270ADF80A000020ADF80C0050
:1013E000ADF80E00ADF810004FF40070ADF812002B
:1013F0000020ADF81400ADF816000720ADF8180075
:1014000002A9054800F016F80121034800F006F88B
:1014100007B000BD000C01400038004021B1028837
:1014200042F04002028004E002884FF6BF731A4087
:101430000280704710B50022028802F441520B88E6
:101440004C8823438C882343CC8823430C89234333
:101450004C8923438C892343CC8923431A4302803C
:10146000838B4FF2FF74234083830B8A038210BD6A
:10147000024600BF108900F002000028FAD09181D6
:1014800000BF108900F001000028FAD09089C0B296
:101490007047704710B500F001F810BD0CB5002082
:1014A000019000903348006840F480303149086072
:1014B00000BF3048006800F4003000900198401CE4
:1014C0000190009818B90198B0F5A06FF1D12948A2
:1014D000006800F4003010B10120009001E000200D
:1014E00000900098012843D12348006840F0100084
:1014F000214908600846006820F00300086008469B
:10150000006840F0020008601A48406819494860C5
:101510000846406848600846406840F4806048607B
:101520000846406820F47C1048600846406840F453
:10153000E81048600846006840F08070086000BF0E
:101540000C48006800F000700028F9D00948406895
:1015500020F00300074948600846406840F0020058
:10156000486000BF0348406800F00C000828F9D12B
:101570000CBD00000010024000200240042808D1E9
:101580004FF0E021096941F004014FF0E0221161C0
:1015900007E04FF0E021096921F004014FF0E0225B
:1015A0001161704710B51348006840F001001149FF
:1015B000086008464068104908400E4948600846DF
:1015C00000680E4908400B4908600846006820F48E
:1015D000802008600846406820F4FE0048604FF410
:1015E0001F008860FFF756FF4FF000600449086055
:1015F00010BD0000001002400000FFF8FFFFF6FEE3
:1016000008ED00E000BFFEE770B504460D466078C7
:1016100001232A4604F1300100F0A0FE08B10320A6
:1016200070BD94F82E1294F82F0241EA00204AF679
:101630005521884201D00220F2E794F869000106A2
:1016400094F8680041EA004194F8670041EA0020FC
:1016500094F86610084320F07F400E49884201D17B
:101660000020DDE794F88500010694F8840041EA43
:10167000004194F8830041EA002094F88210084366
:1016800020F07F400349884201D10020C8E70120B3
:10169000C6E7000046415400024600E0521C1078A4
:1016A00010B110788842F9D1107870472DE9F74FC2
:1016B00088B0089800680190019800783038079049
:1016C000079809280AD8019840783A2806D1019845
:1016D000801C019008990198086001E000200790A3
:1016E000079818B10B200BB0BDE8F08FD0490798D0
:1016F00051F82040099804600CB90C20F3E72078D9
:1017000078B1607800F057FE804608F0010040B9DB
:101710000A9820B108F0040008B10A20E3E700208D
:10172000E1E70020207007986070607800F0A7FD66
:10173000804608F0010008B10320D4E70A9820B1E0
:1017400008F0040008B10A20CDE74FF0000B59461D
:101750002046FFF759FF054600BF012D21D14FF06C
:10176000000ABAF1000F03D0AAF1010000F0FF0A4D
:101770004FF4DF7000EB0A1104F130000F183879D4
:1017800078B1F87A0106B87A41EA0041787A41EAFC
:101790000020397A40EA010B59462046FFF734FF12
:1017A0000546032D01D101209DE70DB10D209AE7DB
:1017B0003B20015D94F83C0041EA0020B0F5007F39
:1017C00001D00D208FE74620015D94F8470041EAE3
:1017D0000029B9F1000F0ED194F85700010694F8D2
:1017E000560041EA004194F8550041EA002094F87F
:1017F000541040EA0109C4F81C904020065DE670D0
:10180000012E03D0022E01D00D206CE709FB06F952
:101810003D20005D0646A07016B1701E304008B134
:101820000D2060E74120015D94F8420041EA00206C
:101830002081207A00F00F0008B10D2053E74320EB
:10184000015D94F8440041EA00200690069870B9C2
:1018500094F85300010694F8520041EA004194F8CC
:10186000510041EA002094F85010084306903E20B1
:10187000015D94F83F0041EA00200290029808B907
:101880000D2030E702984844218900EB11100590A3
:10189000DDE90501814201D20D2024E7DDE90510D3
:1018A000401AA178B0FBF1F00490049808B90D201B
:1018B00019E7012540F6F6710498884200D3022505
:1018C0004FF6F6710498884200D303250498801CD3
:1018D000A06105985844A062029858442062032DE4
:1018E00016D1208908B10D20FDE694F85F000106AD
:1018F00094F85E0041EA004194F85D0041EA00205E
:1019000094F85C1008436062A0698000039014E0C2
:10191000208908B90D20E6E6206A48446062022D5D
:1019200002D1A069400007E0207E00F00100A1691B
:1019300001EB410100EB51000390E169039800F2D3
:10194000FF10B1EB502F01D20D20CCE64FF0FF304D
:1019500020610020E060032D5CD1607194F860107C
:1019600094F8610041EA00205844606160780123E6
:1019700004F13001626900F0F1FCE8BB94F82E122A
:1019800094F82F0241EA00204AF65521884241D1BD
:101990003320005D01063220005D41EA0041312024
:1019A000005D41EA002094F8301008432149884244
:1019B00030D194F81702010694F8160241EA00416A
:1019C00094F8150241EA002094F8141208431A49C9
:1019D00088421FD194F81F02010694F81E0241EAC2
:1019E000004194F81D0241EA002094F81C120843BB
:1019F000E06094F81B0200E00CE0010694F81A0283
:101A000041EA004194F8190241EA002094F81812C2
:101A100008432061257009480088401C80B20749AE
:101A20000880E0800020E062207100BF5BE60000DB
:101A3000040000205252614172724161080000208E
:101A40000246891E9069801E884201D80020704796
:101A50009378906A01FB0300F9E700002DE9F04755
:101A600005460C46207820F04000401E00EB800127
:101A700001EBC00600274FF0010800BF1A48C05D07
:101A8000205C1949C95D2144497840EA0129B8F12F
:101A9000000F10D0484600F00FFF8046FF2E07D2FF
:101AA0003146761C35F8110000F006FF404508D09D
:101AB0000020BDE8F0874FF6FF70814501D000207F
:101AC000F7E7781C07460D28D8D3207800F04000AF
:101AD00038B1B8F1000F04D035F8160008B1002075
:101AE000E7E70120E5E70000F23400082DE9F047C0
:101AF00004468946B9F1000F06D1E76817B1A0691D
:101B0000B84211D801270FE04946204600F0D3FF24
:101B10000646022E02D20120BDE8F087A069B0423D
:101B200001D93046F8E74F463D4600BF6D1CA0691D
:101B3000A84204D80225BD4201D90020ECE729467D
:101B4000204600F0B8FF064606B909E0701C08B14F
:101B5000012E01D13046DFE7BD42E7D10020DBE7AF
:101B600000BF6FF070422946204601F081F88046A0
:101B7000B8F1000F08D1B9F1000F05D02A46494647
:101B8000204601F075F88046B8F1000F09D1E560F4
:101B90002069401C68B12069401E206101206071ED
:101BA00007E0B8F1010F02D14FF0FF3000E0012053
:101BB00005462846B0E700002DE9F34F83B0824682
:101BC0000498D0F800B001E00BF1010B9BF8000085
:101BD0002F28F9D09BF800005C28F5D0DAF81C908B
:101BE00000252E4600BF3046761C1BF80040202CF6
:101BF00003DB2F2C01D05C2C00D11CE0FF2D03D384
:101C0000062005B0BDE8F08FE4B20121204600F0C7
:101C10002DFE04460CB90620F3E7802C06DA214697
:101C20006BA0FFF739FD08B10620EAE728466D1CD6
:101C300029F81040D7E700BF0BEB060104980160BC
:101C4000202C01DA042000E00020074608E0681E8E
:101C500039F81040202C02D02E2C00D002E06D1E4E
:101C6000002DF4D100BF0DB90620CAE7002029F8E5
:101C700015000B222021DAF8180000F0B6FF00262C
:101C800000E0761C39F816002028FAD039F8160042
:101C90002E28F6D00EB147F0030700E06D1E25B1E7
:101CA000681E39F810002E28F8D14FF00008CDF842
:101CB00008800820019000BF3046761C39F810409B
:101CC00004B955E0202C03D02E2C04D1AE4202D012
:101CD00047F00307F0E7DDE90110884201D2AE4288
:101CE00016D101980B2802D147F0030740E0AE421D
:101CF00001D047F00307AE4200D939E02E46082054
:101D000002900B2001904FEA88604FEA1068D3E7F9
:101D1000802C0BDB0021204600F0A8FD04461CB1FE
:101D2000A4F180002D490C5C47F0020700BF24B1EC
:101D300021462BA0FFF7B0FC18B15F2447F0030742
:101D40000FE0412C04DB5A2C02DC48F0020808E0CA
:101D5000612C06DB7A2C04DC48F00108A4F1200099
:101D600084B2DAF818300298411C02911C54A3E79F
:101D700000BFDAF818000078E52803D10520DAF86A
:101D8000181008700198082803D14FEA88604FEABC
:101D9000106808F00C000C2803D008F0030003289A
:101DA00001D147F0020707F0020058B908F003001C
:101DB000012801D147F0100708F00C00042801D1D8
:101DC00047F00807DAF81800C772002019E700008A
:101DD000222A3A3C3E3F7C7F00000000FF3400088E
:101DE0002B2C3B3D5B5D000010B504466FF00400FA
:101DF000FFF7C4FBE11704EB5171C1F3C701074AB8
:101E000011701046007800EB4001C1EBC0104FF696
:101E1000FF7101EAC0000249088010BD00000020E7
:101E20000200002001460D4A12884A434FF0E02389
:101E30005A6100229A6101221A6100BF4FF0E0222C
:101E4000106900F001021AB100F48032002AF5D0C6
:101E500000224FF0E0231A619A61704702000020CF
:101E60002DE9F04704460021204600F0BAF9074664
:101E700017B13846BDE8F0874FF0FF09CA4600BFEA
:101E80002169206800F0BBFE074607B154E0656990
:101E90002E780EB904274FE0E87A00F03F08E52ECF
:101EA00005D008F0080028B1B8F10F0F02D04FF0AC
:101EB000FF093AE0B8F10F0F1CD1E069A0B306F0BA
:101EC000400030B195F80DA026F04006B146E088FC
:101ED00020844E450AD1687B504507D12946E069E8
:101EE000FFF7BCFD10B1A9F1010000E0FF2000F0F8
:101EF000FF091AE0B9F1000F05D1284600F087FF6D
:101F0000504500D118E04FF0FF094FF6FF702084D4
:101F1000A069C07A00F0010030B90B222846A169FF
:101F200000F043FE00B907E0FFE70021204600F083
:101F300006F80746002FA3D000BF38469AE72DE9E0
:101F4000F0410446884600BFE088401C86B20EB1CE
:101F5000206910B90420BDE8F08106F00F000028C8
:101F60006FD12069401C2061E06828B92068008991
:101F7000B04266DC0420EEE720688078401E00EA6C
:101F8000161000285DD1E168206800F094FD054638
:101F9000012D01D80220DEE7681C08B90120DAE72C
:101FA00020688069A84246D8B8F1000F01D104200A
:101FB000D1E7E1682068FFF799FD05460DB90720D4
:101FC000C9E7012D01D10220C5E7681C08B901202D
:101FD000C1E70021206800F012FE08B10120BAE735
:101FE000216801F130004FF40072002100F0FDFD86
:101FF00029462068FFF724FD2168C862002710E009
:102000000120216808710021206800F0F8FD08B166
:102010000120A0E72068C06A401C2168C862781CC3
:10202000C7B220688078B842EADC2068C06AC01B6A
:102030002168C86200BFE56029462068FFF700FDFF
:102040002061E6802068303006F00F0100EB41107F
:10205000606100207FE72DE9F04F85B00446D4F899
:102060001880D4F81CB00C22414601A800F0B0FD45
:1020700000BF9DF80F0000F0010030B3002088F889
:102080000B00E06101270DE03B465A4601A940469E
:1020900000F0BDFC2046FFF7E3FE054605B103E076
:1020A000781C87B2642FEFDB00BF642F03D10720B9
:1020B00005B0BDE8F08F042D01D02846F8E79DF863
:1020C0000F0088F80B00C4F81CB09DF80F0000F05A
:1020D000020070B1002601E0701C86B23BF81600C9
:1020E0000028F9D106F119000D2190FBF1F086B21C
:1020F00000E001260021204600F073F805460DB1EE
:102100002846D5E700200746049000BF21692068D3
:1021100000F075FD054605B119E0606990F8009082
:10212000B9F1E50F02D0B9F1000F08D10FB9E0887D
:102130000490781C80B20746B04201D107E0002726
:1021400001212046FFF7FBFE0546002DDED000BF33
:102150004DBB012E27DD2046049900F042F80546CC
:102160000DBBA06900F053FE0090701E86B200BF48
:102170002169206800F043FD054605B112E0F2B286
:102180006169E069009B00F0B3FB012021680871E0
:1021900000212046FFF7D3FE05461DB9701E80B210
:1021A000061EE5D100BFD5B92169206800F027FDE2
:1021B0000546A5B9D4F814A020220021504600F00D
:1021C00014FD0B225046A16900F002FDA069C07AFF
:1021D00000F018008AF80C000120216808712846D8
:1021E00066E72DE9F04104460E46E680A568012D1C
:1021F00003D020688069A84202D80220BDE8F0819F
:102200002DB920680078032801D12068456A65B996
:10221000E56020680089B04201DC0220EEE720681A
:10222000406A00EB1610206120E0206880780701EA
:1022300012E02946206800F03EFC0546681C08B9FB
:102240000120DBE7022D03D320688069A84201D872
:102250000220D3E7F01B86B2BE42EADAE5602946E7
:102260002068FFF7EDFB00EB16102061206830308E
:1022700006F00F0100EB411060610020BEE770B571
:10228000054635B1012D0CD0022D0CD0032D0ED1F9
:102290000BE0FEF74DFC04460CB9002070BD012098
:1022A000FCE70020FAE70020F8E70020F6E701202D
:1022B000F4E7000070B505460C46164645BB2648B7
:1022C000FEF7D0FA0F2C22D2DFE804F0080A21131F
:1022D00021191A1B21211C1D1E1F2000002070BD6A
:1022E0001D48406C1C49896CB0FBF1F03060002047
:1022F000F5E71948B0F8480030800020EFE706E025
:1023000005E004E003E002E001E000E000BF20E0BF
:10231000012D1CD10F2C19D2DFE804F0080A0C0E95
:102320001810111218181314151617000020D6E7EC
:102330000020D4E70020D2E70020D0E706E005E047
:1023400004E003E002E001E000E000BF01E004205F
:10235000C5E70420C3E70000900000202DE9F0410C
:102360000646884617461C4614B90420BDE8F0818D
:1023700016B1012E1DD116E0012C09D14146384677
:10238000FEF732FD05460DB90020EFE70120EDE72D
:10239000224641463846FEF7E7FC05460DB90020C7
:1023A000E4E70120E2E7012C01D10020DEE7002074
:1023B000DCE70120DAE7014621B1012904D0022936
:1023C00006D103E0002070470020FCE70020FAE778
:1023D0000120F8E72DE9F0410646884617461C46DD
:1023E00014B90420BDE8F08116B1012E1DD116E00C
:1023F000012C09D141463846FEF706FE05460DB9C7
:102400000020EFE70120EDE7224641463846FEF77F
:102410006FFD05460DB90020E4E70120E2E7012C3D
:1024200001D10020DEE70020DCE70120DAE770B50B
:102430000446204600F0BDF905460DB90020206095
:10244000284670BD0246012A01DB0B207047074871
:1024500050F822300BB10020187009B1002008702C
:10246000024840F822100020F0E70000040000209D
:102470002DE9F7438CB0054616460020286006F08B
:102480001F0626F0010203A90DA8FFF70FF9074662
:10249000CDF824D052480A9027B903A80D9900F02E
:1024A00067FA0746089C0FB904B9062706F01C0016
:1024B000002858D04FB1042F03D103A8FFF7CBFD5C
:1024C000074646F00806089C09E0E07A00F0110093
:1024D00008B1072703E006F0040000B10827002F29
:1024E00040D106F0080000283CD000F056FB8046A2
:1024F00084F80E804FEA1821E1734FEA18412174E5
:102500004FEA186161740020E07220770021617742
:10251000A177E177A17EE07E41EA0021227D607D06
:1025200042EA002041EA00490020A0760021E1763D
:1025300020756175012003990871B9F1000F11D060
:102540000398D0F82C804946039800F02CFC0746ED
:1025500047B9A9F101000399C8604146039800F00A
:102560004EFB07460EE06FB9E07A00F0100008B1AC
:10257000042707E006F0020020B1E07A00F0010035
:1025800000B1072747B906F0080008B146F0200659
:102590000398C06AE8612C62F7B9AE71A17EE07E53
:1025A00041EA0021227D607D42EA002041EA0040AC
:1025B0002861E07F0106A07F41EA0041607F41EA97
:1025C0000020217F0843E8600020A860A8610398EC
:1025D00028600398C088A88038460FB0BDE8F08313
:1025E000E80000202DE9FF4F83B0044615469A46C7
:1025F000DDF810B00020CAF80000A188206800F0C3
:1026000003FD0290029818B1029807B0BDE8F08F60
:10261000A07900F0800008B10220F6E7A07900F070
:10262000010008B90720F0E7D4E90210401A009031
:102630000098854200D9009DB6E02089C0F30800CB
:1026400000287DD120688078401EA16800EA5120D2
:1026500000F0FF09B9F1000F1DD1A06810B9206981
:10266000019004E06169206800F025FA019001986A
:10267000022805D2A07940F08000A0710220C4E7B2
:102680000198401C28B9A07940F08000A071012079
:10269000BBE70198606161692068FFF7D1F90646E0
:1026A0002EB9A07940F08000A0710220ADE74E4421
:1026B0004FEA5528B8F1000F2DD009EB080021682A
:1026C0008978884203D920688078A0EB090808F04F
:1026D000FF032168487832465946FFF73FFE28B18C
:1026E000A07940F08000A07101208EE7A07900F071
:1026F000400068B1A069801B404509D2A169891BCF
:102700000BEB41204FF4007204F1240100F060FA59
:102710004FEA48273EE0A069B04227D0A07900F0F8
:102720004000A0B121684878012304F12401A26986
:10273000FFF750FE38B1A07940F08000A07100E0B2
:1027400015E0012061E7A07920F04000A071216828
:1027500048780123324604F12401FFF7FFFD28B138
:10276000A07940F08000A07101204EE7A661208989
:10277000C0F30800C0F50077AF4200D92F4620898A
:10278000C0F3080204F1240011183A46584600F03C
:102790001FFA00BFBB44A0683844A060DAF800000C
:1027A0003844CAF80000ED1B002D7FF446AF00202E
:1027B0002BE72DE9F0410446A188206800F024FCB5
:1027C0000746002F4FD1A07900F0200000284AD002
:1027D000A07900F0400078B121684878012304F125
:1027E0002401A269FFF7F6FD10B10120BDE8F081D8
:1027F000A07920F04000A071E169206800F0FFF9A5
:102800000746002F2FD1256AE87A40F02000E872B1
:10281000207B2877A089010A6977E068010CA977F5
:10282000E068010EE977207CA876208A010AE97623
:102830002069000C28752069010E697500F0ADF95A
:102840000646AE75310AE975310C2976310E697686
:10285000A07920F02000A071012021680871206873
:1028600000F0E5FA07463846C0E7000010B502461A
:10287000802A01DA10461BE051B1FF2A01DD002356
:1028800004E0A2F180030B4C34F8133018460FE03B
:10289000002007E0074B33F81030934200D103E0EB
:1028A000431C98B28028F5DB00BF00F18003D8B24A
:1028B00010BD0000323000080246002100E0491C33
:1028C000094830F8110020B1074830F81100904253
:1028D000F5D1054830F8110018B1044830F811005E
:1028E00070471046FCE70000323100081233000840
:1028F000F0B504461D464D730F27CF7200270F73A6
:102900008F76BC4681F81BC0571E07EB870C0CEB7B
:10291000C706002738463B4600BF4FF6FF77B84250
:1029200003D03746761C34F81700DFF840C01CF897
:1029300003C001F80C000712DFF830C01CF803C018
:102940008C448CF8017008B94FF6FF705F1C3B4651
:102950000D2FE2D34FF6FF77B84202D034F816704D
:102960000FB942F040020A70F0BD0000F2340008D6
:102970002DE9F3410446019800782F2803D00198EF
:1029800000785C2802D10198401C01900020A060D2
:1029900001980078202807D200212046FFF721FC6B
:1029A0000646002060612FE000BF01A92046FFF726
:1029B00003F9064606B126E02046FFF751FA06461F
:1029C000A069C77A46B1042E00D01CE000BF07F012
:1029D000040000B9052616E007F0040000B112E07B
:1029E0006569E87A00F0100008B905260BE0A97EB9
:1029F000E87E41EA00212A7D687D42EA002041EA22
:102A00000040A060D1E700BF3046BDE8FC812DE961
:102A1000FC4780468A4617461C460B2251464046D4
:102A200000F0D6F8052C0ADD00BF601000EBC431C1
:102A300037F8022B881884B238880028F5D107258A
:102A400000BF2046E11704EB11710911A4EB01113D
:102A5000303101F0FF09B9F1390F03DD09F1070049
:102A600000F0FF0928466D1E0DF800902046E11782
:102A700004EB1171C1F30F14002CE2D17E200DF88C
:102A80000500002600E0761CAE4203D218F80600CE
:102A90002028F8D100BF082D04D228466D1C1DF84F
:102AA000000000E020203146761C08F80100082EC6
:102AB000F1D3BDE8FC872DE9F04105460C46022C18
:102AC00002D3A869A04202D80120BDE8F08128788D
:102AD000012804D002282CD003285AD13DE02746F3
:102AE00007EB5707286A00EB5721284600F087F8C4
:102AF00000B14EE0C7F3080105F1300010F8018085
:102B00007F1C286A00EB5721284600F078F800B1B6
:102B10003FE0C7F3080105F13000405C48EA0028B7
:102B200004F0010010B14FEA1810CEE7C8F30B0013
:102B3000CBE7286A00EB1421284600F060F800B1CA
:102B400027E040F2FF1000EA440105F130000E18C2
:102B50003078717840EA0120B7E7286A00EBD41199
:102B6000284600F04CF800B113E040F2FF1000EAF4
:102B7000840105F130000E18F0780006B17840EAC3
:102B80000140717840EA01203178084320F070401C
:102B90009BE700BF4FF0FF3097E70020704700F041
:102BA000ABF901E000F0B4F9FCE7F0B503461C46D0
:102BB0000D46002000BF161EA2F1010207D014F836
:102BC000017B15F801CBA7EB0C06301EF3D0F0BD4E
:102BD00070B503460C4603E014F8015B03F8015B93
:102BE000151EA2F10102F7D170BD30B5034601E018
:102BF00003F8011B141EA2F10102F9D130BD2DE929
:102C0000F04104460D46E66AAE422FD0207908B363
:102C100060780123324604F13001FFF7DBFB10B18D
:102C20000120BDE8F08100202071D4E9071008449C
:102C3000B0420FD9E7780AE0E069064460780123E2
:102C4000324604F13001FFF7C5FB781EC7B2012FF1
:102C5000F2DC00BF55B1607801232A4604F130014F
:102C6000FFF77CFB08B10120DBE7E5620020D8E735
:102C70002DE9F04705460E461746022E02D3A869F5
:102C8000B04202D84FF002088AE02878012804D028
:102C9000022841D003287DD154E0B14609EB5909FF
:102CA000286A00EB59212846FFF7A9FF8046B8F1B2
:102CB000000F00D071E0C9F3080105F130000C18D5
:102CC00006F0010020B1F9B2207861F31F1000E096
:102CD0003846207009F1010901202871286A00EBAB
:102CE00059212846FFF78BFF8046B8F1000F00D02E
:102CF00053E0C9F3080105F130000C1806F001009B
:102D000010B1C7F3071005E0207800F0F000C7F31A
:102D100003210843207040E0286A00EB1621284672
:102D2000FFF76DFF8046B8F1000F00D035E040F2AC
:102D3000FF1000EA460105F130000C182770380A30
:102D400060702AE0286A00EBD6112846FFF757FF8B
:102D50008046B8F1000F00D01FE040F2FF1000EAFB
:102D6000860105F130000C18E0780006A17840EAF1
:102D70000140617840EA01202178084300F070406A
:102D800007432770380A6070380CA070380EE07066
:102D900003E0FFE74FF0020800BF00BF01202871E9
:102DA0004046BDE8F0872DE9F04104460E46022E6C
:102DB00002D3A069B04201D8022725E000271FE016
:102DC00031462046FFF777FE054605B91BE0012D89
:102DD00001D1022717E0681C08B9012713E000227F
:102DE00031462046FFF744FF074607B10BE0206954
:102DF000401C20B12069401C2061012060712E46DA
:102E0000A069B042DCD800BF3846BDE8F08130B5DB
:102E1000014600200B2200BF431003EBC01411F841
:102E2000015B6319D8B2531E1A1EF5D130BD70B5BF
:102E3000044600212046FFF7E2FE0546002D59D149
:102E4000207803284FD1607900284CD00020E06220
:102E50004FF40072002104F13000FFF7C6FE552147
:102E600084F82E12AA2184F82F12522084F8300000
:102E70005221312001556121322001554121332059
:102E80000155722184F8141284F81512412184F836
:102E90001612612184F81712217C84F81812208AF6
:102EA000010A84F819122069010C84F81A122069A9
:102EB000010E84F81B12217B84F81C12A089010AE0
:102EC00084F81D12E068010C84F81E12E068010EFF
:102ED00084F81F126078012304F130016269FFF762
:102EE00079FA00206071607800221146FFF7E2F95C
:102EF00000B10125284670BD10B5FEF753FB4820F0
:102F0000FEF772FFFDF7A8FAFDF7BCFF10BD000049
:102F100010B523A0FEF7CCF941F27070FEF782FFE6
:102F20001FA0FEF7C5F941F27070FEF77BFF1FA0EE
:102F3000FEF7BEF941F27070FEF774FF1BA0FEF7BA
:102F4000B7F941F27070FEF76DFF1BA0FEF7B0F904
:102F500041F27070FEF766FF17A0FEF7A9F941F283
:102F60007070FEF75FFF1CA0FEF7A2F941F27070CF
:102F7000FEF758FF18A0FEF79BF941F27070FEF7BC
:102F800051FF1DA0FEF794F941F27070FEF74AFF61
:102F900019A0FEF78DF941F27070FEF743FF10BDE6
:102FA000485042442E626D70000000004850424478
:102FB000312E626D700000004D696E685068756F4B
:102FC0006E67315F323430783332305F3136626968
:102FD000742E626D700000004D696E685068756FE8
:102FE0006E67325F323430783332305F3136626947
:102FF000742E626D700000004D696E685068756FC8
:103000006E672E626D70000070B504460D4624B1E7
:10301000207810B1E088A84201D0092070BD607806
:10302000FFF7C9F900F0010008B10320F6E700201E
:10303000F4E7C700FC00E900E200E400E000E5007E
:10304000E700EA00EB00E800EF00EE00EC00C4004F
:10305000C500C900E600C600F400F600F200FB005F
:10306000F900FF00D600DC00A200A300A500A72005
:103070009201E100ED00F300FA00F100D100AA0096
:10308000BA00BF001023AC00BD00BC00A100AB0023
:10309000BB009125922593250225242561256225D3
:1030A000562555256325512557255D255C255B252E
:1030B0001025142534252C251C2500253C255E25AE
:1030C0005F255A25542569256625602550256C25E0
:1030D00067256825642565255925582552255325DA
:1030E0006B256A2518250C25882584258C25902597
:1030F0008025B103DF009303C003A303C303B5001E
:10310000C403A6039803A903B4031E22C603B50390
:1031100029226122B1006522642220232123F700A5
:103120004822B0001922B7001A227F20B200A02541
:10313000A000610062006300640065006600670033
:10314000680069006A006B006C006D006E006F0023
:1031500070007100720073007400750076007700D3
:10316000780079007A00A100A200A300A500AC00BD
:10317000AF00E000E100E200E300E400E500E6006B
:10318000E700E800E900EA00EB00EC00ED00EE00EB
:10319000EF00F000F100F200F300F400F500F6009B
:1031A000F800F900FA00FB00FC00FD00FE00FF0043
:1031B000010103010501070109010B010D010F01C7
:1031C000110113011501170119011B011D011F0137
:1031D000210123012501270129012B012D012F01A7
:1031E00031013301350137013A013C013E01400113
:1031F00042014401460148014B014D014F0151017B
:1032000053015501570159015B015D015F016101E6
:1032100063016501670169016B016D016F01710156
:103220007301750177017A017C017E019201B1037E
:10323000B203B303B403B503B603B703B803B903CA
:10324000BA03BB03BC03BD03BE03BF03C003C1037A
:10325000C303C403C503C603C703C803C903CA0322
:1032600030043104320433043404350436043704A2
:10327000380439043A043B043C043D043E043F0452
:103280004004410442044304440445044604470402
:10329000480449044A044B044C044D044E044F04B2
:1032A000510452045304540455045604570458045A
:1032B00059045A045B045C045E045F0470217121AC
:1032C000722173217421752176217721782179214A
:1032D0007A217B217C217D217E217F2141FF42FFBC
:1032E00043FF44FF45FF46FF47FF48FF49FF4AFFB2
:1032F0004BFF4CFF4DFF4EFF4FFF50FF51FF52FF62
:1033000053FF54FF55FF56FF57FF58FF59FF5AFF11
:1033100000004100420043004400450046004700D1
:10332000480049004A004B004C004D004E004F0041
:1033300050005100520053005400550056005700F1
:10334000580059005A002100E0FFE1FFE5FFE2FFCD
:10335000E3FFC000C100C200C300C400C500C60036
:10336000C700C800C900CA00CB00CC00CD00CE0009
:10337000CF00D000D100D200D300D400D500D600B9
:10338000D800D900DA00DB00DC00DD00DE007801C7
:10339000000102010401060108010A010C010E01ED
:1033A000100112011401160118011A011C011E015D
:1033B000200122012401260128012A012C012E01CD
:1033C000300132013401360139013B013D013F0139
:1033D00041014301450147014A014C014E015001A1
:1033E00052015401560158015A015C015E0160010D
:1033F00062016401660168016A016C016E0170017D
:1034000072017401760179017B017D0191019103C3
:1034100092039303940395039603970398039903E8
:103420009A039B039C039D039E039F03A003A10398
:10343000A303A403A503A603A703A803A903AA0340
:1034400010041104120413041404150416041704C0
:10345000180419041A041B041C041D041E041F0470
:103460002004210422042304240425042604270420
:10347000280429042A042B042C042D042E042F04D0
:1034800001040204030404040504060407040804F8
:1034900009040A040B040C040E040F0460216121CA
:1034A00062216321642165216621672168216921E8
:1034B0006A216B216C216D216E216F2121FF22FF7A
:1034C00023FF24FF25FF26FF27FF28FF29FF2AFFD0
:1034D0002BFF2CFF2DFF2EFF2FFF30FF31FF32FF80
:1034E00033FF34FF35FF36FF37FF38FF39FF3AFF30
:1034F000000001030507090E10121416181C1E8087
:103500009A90418E418F804545454949498E8F901B
:1035100092924F994F555559999A9B9C9D9E9F41C8
:10352000494F55A5A5A6A7A8A9AAABAC21AEAFB097
:10353000B1B2B3B4B5B6B7B8B9BABBBCBDBEBFC003
:10354000C1C2C3C4C5C6C7C8C9CACBCCCDCECFD0F3
:10355000D1D2D3D4D5D6D7D8D9DADBDCDDDEDFE0E3
:10356000E1E2E3E4E5E6E7E8E9EAEBECEDEEEFF0D3
:10357000F1F2F3F4F5F6F7F8F9FAFBFCFDFEFF00C3
:10358000A03500080000002080000000280100088D
:10359000203600088000002070360000440100083A
:1035A000000000000000000000000000000000001B
:1035B0000000000000000000303A000000000000A1
:1035C00000000000000000000000000000000000FB
:1035D00000000000000000000000000000000000EB
:1035E00000000000000000000000000000000000DB
:1035F00000000000000000000000000000000000CB
:1036000000000000000000000000000000000000BA
:1036100000000000000000000000000000000000AA
:04000005080000ED02
:00000001FF
