:020000040800F2
:10000000E0060020A9010008B1010008B3010008C2
:10001000B5010008B7010008B901000800000000A0
:10002000000000000000000000000000BB0100080C
:10003000BD01000800000000BF0100088124000885
:10004000C3010008C3010008C30100085D1F0008C8
:10005000C3010008C3010008C3010008C301000870
:10006000C3010008C3010008C3010008D516000839
:10007000F516000815170008351700085517000871
:100080007517000895170008C3010008C301000890
:10009000C3010008C3010008C3010008C301000830
:1000A000C3010008C3010008C3010008C301000820
:1000B0004D250008C301000879250008C301000888
:1000C000C3010008C3010008C3010008C301000800
:1000D000C3010008C3010008C3010008C3010008F0
:1000E000C3010008C3010008C301000800F002F8C2
:1000F00000F04AF80AA090E8000C82448344AAF178
:100100000107DA4501D100F03FF8AFF2090EBAE875
:100110000F0013F0010F18BFFB1A43F0010318473B
:1001200090320000B0320000103A24BF78C878C185
:10013000FAD8520724BF30C830C144BF04680C60ED
:10014000704700000023002400250026103A28BF35
:1001500078C1FBD8520728BF30C148BF0B60704739
:10016000662902F0B387642900F07A800020704786
:100170001FB500F05DFD04000020002102F028FD05
:10018000E0601FBD10B510BD00F04EFE1146FFF738
:10019000EFFF02F0A7FC00F06CFE03B4FFF7F2FFE4
:1001A00003BC00F0AFFE0000094880470948004743
:1001B000FEE7FEE7FEE7FEE7FEE7FEE7FEE7FEE717
:1001C000FEE7FEE704480549054A064B7047000074
:1001D000ED240008ED000008E0000020E00600200B
:1001E000E0020020E00200200FB41CB5074B06AA75
:1001F0007B4469460090059800F0A5FC0020694604
:1002000000F0B4FC1CBC5DF814FB00007909000090
:1002100070B5044685690068C10601D5302600E046
:100220002026C00707D070BDD4E901213046904791
:10023000206A401C20626D1EF6D570BD70B5044664
:1002400085690078C00707D170BDD4E9012120205D
:100250009047206A401C20626D1EF6D570BD0000DC
:100260002DE9F0410646002410687529314616A58F
:1002700010D0AFF30080002802DA404213A507E057
:1002800031688A0701D512A502E0490704D511A5F6
:10029000012401E0AFF3008000210A2206F12407C7
:1002A00009E0B0FBF2FCB0FBF2F302FB1C003030C3
:1002B00078541846491C0028F3D123462A46304674
:1002C000BDE8F04100F0D3B9000000002D000000AF
:1002D0002B000000200000002DE9F0474FF0000A3D
:1002E00089460446C0F820A02046E16888470028D7
:1002F00076D0252806D0D4E901219047206A401CF9
:100300002062F1E7E168204600258847C4F81CA078
:1003100006460027C4F818A02A2E09D0304602F05D
:100320007FFB38B304EB8708303EC8F8186019E04B
:1003300059F8041B204604EB87029161E168884765
:10034000012F064618D1E069002820DA25F02005A3
:100350001DE0D8F8180000EB800006EB40003038B4
:10036000C8F818002046E1688847064602F058FBA6
:100370000028EED1012F0AD02E2E08D12046E168A8
:1003800088477F1C0646022F45F02005C4DBA06984
:10039000002803DA404245F00105A061E80701D0DA
:1003A00025F01005B6B1A6F14100192802D8203673
:1003B00045F400654A463146204625604D46FFF724
:1003C000CFFE58B1012806D0ED1D25F0070000F141
:1003D000080989E704E005F1040985E730468AE762
:1003E000206ABDE8F087421E12F8013F002BFBD1C6
:1003F00011F8013B002B02F8013BF9D1704710B511
:10040000203AC0F00B80B1E81850203AA0E818500C
:10041000B1E81850A0E81850BFF4F5AF5FEA027CCD
:1004200024BFB1E81850A0E8185044BF18C918C03C
:10043000BDE810405FEA827C24BF51F8043B40F8DD
:10044000043B08BF7047D20728BF31F8023B48BFC2
:1004500011F8012B28BF20F8023B48BF00F8012B00
:1004600070474FF0000200B5134694469646203977
:1004700022BFA0E80C50A0E80C50B1F12001BFF45D
:10048000F7AF090728BFA0E80C5048BF0CC05DF8C3
:1004900004EB890028BF40F8042B08BF704748BF11
:1004A00020F8022B11F0804F18BF00F8012B704785
:1004B000014900F061BB00005000002010B5036846
:1004C0001C1404EB21449BB289B2194494FBF2F34F
:1004D00002FB134394FBF2F401EB034393FBF2F1B1
:1004E00002FB113193FBF2F301E05B1E1144002982
:1004F000FBDB016003EB044010BDF0B504464FF098
:10050000FF3585B00068049060680290A068039091
:10051000E068019020690090666906F18040B0F1C2
:10052000004F7CD83C22002104A8FFF7C7FF3C22E3
:10053000014602A8FFF7C2FF1822014603A8FFF7F1
:10054000BDFF411E40F2B55201A8FFF7B7FF0C22D4
:10055000074668460021FFF7B1FF414B00EB8700DB
:10056000304400267B4411E0511A01910099491C46
:100570000229009102D00C2908D105E0810705D09D
:100580000199491C019101E0401C00960099019AD3
:10059000595C9142E8DD0099012906D11C2A04D159
:1005A000810702D00221CDE90016A0F146018B2976
:1005B0003CD2DDE90061002202E09F5C521C39441C
:1005C000B242FADB012E02DD820700D0491E40F262
:1005D000B55340F26D16C21700EB927292105A4357
:1005E00000F0030303FB062283070A4400D1521ED6
:1005F000039E02EB4203049F06EBC303029EC3EB80
:10060000031306EB8303174E33441E149BB2C6EB51
:100610000616C3EB0313B60007EB830300E005E007
:1006200006EB134666F31F43360C02D0284605B08E
:10063000F0BD80C4029E40C4039E40C4019E761C4F
:1006400044F80C6B009E44E902600720521C92FBA8
:10065000F0F600FB162084E823001846E7E70000C8
:10066000A82D0000A039CEFD7047704770472DE9D6
:10067000F0470D4699469246044600F12408016869
:10068000880604D5E06921F01001216000E0012016
:10069000A84201DD471B00E00027A1697A1902EB9F
:1006A0000900081AA0612078C00602D42046FFF78E
:1006B000AFFD002608E0D4E901211AF806009047B2
:1006C000206A401C761C20624E45F4DB2078C00670
:1006D0000AD52046FFF79CFD06E0D4E90121302031
:1006E0009047206A401C2062381EA7F10107F4DC05
:1006F00007E0D4E9012118F805009047206A401C62
:100700002062281EA5F10105F3DC2046FFF796FDC7
:100710002078000602D50220BDE8F0870120FBE723
:1007200070472DE9FF4F0C461E464FF0FF378BB048
:10073000D2E90001DDF860800A908A46C1F30A55CB
:1007400005B93D46002108464FF00000BAF1000F00
:1007500000F4400005DA00EB80004FF4400101EAAC
:1007600050004FEA9059B9F1010F00DDB9460A98DF
:1007700050EA4A000ED044F61050A5F2FF3545432A
:100780002F14B8F1000F1ED07542291E1EDDC9F1CD
:1007900000021CE0B8F1010F4FF0000001D0302141
:1007A00003E0F24305E02154401CB042FBDB30463D
:1007B0000022002121540B99C1F80880C1E90020D2
:1007C0000FB0BDE8F08FBD1B6D1CDEE74A4600DAB6
:1007D000694206A800F0B6FA06AB93E8070003AB3F
:1007E00083E8070050460A9900F093FB8DE8070064
:1007F000A0F500501F3800900398002D09DD42F24B
:100800001F014A46084403A90390684600F0F2FD20
:1008100008E0A0F500504A461F3803A90390684637
:1008200000F0FCFD8DE807000004000C03D04FF041
:10083000FF30410800E01046B8F1000F03D000225D
:10084000009215461EE0751E05D400F0F5F9303211
:1008500062556D1EF9D5B3460122084302D000222D
:100860007F1C04E02078302801D100227F1E002A5E
:10087000099786D01DE0112D07DA00F0DDF930323E
:1008800062556D1C50EA0102F5D1084302D0009870
:10089000C8B10EE00021681E05E0235C625C635471
:1008A0002254401E491C8142F7DBAB46A81B401E68
:1008B0000990002004F80B000B98099AC0F80880F2
:1008C000C0E9002B7CE711264FF0000859E72DE91D
:1008D000F04F88460446D21D22F0070191B0D1E9BD
:1008E0000001CDE90A0102F087F802460B98C00F1B
:1008F00001D02D2007E02068810701D52B2002E0E0
:10090000202101EAC000032A099001D0072A05DB53
:1009100003464146204600F0D5F90BE120788006D9
:1009200001D5E06900E00620B8F1650F814606D0E8
:10093000B8F1660F18D0B8F1670F70D131E0002020
:10094000B9F1110F009001DB112301E009F101035E
:100950000AAA01A90CA8FFF7E4FEDDE90C70002645
:1009600009F10105834647E001204B4600904FF016
:1009700000470AAA01A90CA8FFF7D3FEDDE90DB0D4
:100980000C995D46002610B909F101000D18B9EB6C
:10099000050003D4C0F1FF3609F10105A5EB0900FC
:1009A0002BE0B9F1010F01DA4FF001090020B9F194
:1009B000110F0090484601DD112300E003460AAA0A
:1009C00001A90CA8FFF7ADFEDDE90C704D4600262D
:1009D0008346207800070AD4AB4500DA5D4601A8BB
:1009E000012D04DD411911F8011C302907D04F45B4
:1009F00002DA17F1040F04DA012082460FE06D1EBF
:100A0000EEE7002F02DCED1B3E4403E0781CA84219
:100A100000DD7D1CB81B00F1010A4FF00047207873
:100A2000000703D4AA4501DB4FF0FF3A0021B7F1DC
:100A3000004F0DF143088DF8431024D002202B23E2
:100A4000002F01DA7F422D230A21021EA0F10100AE
:100A500000DC5FB197FBF1FC97FBF1F201FB1C7C22
:100A600017460CF1300C08F801CDEEE7A8F10100B3
:100A700003702188090501D5452100E06521A0F119
:100A8000010800F8011C09980FA9A1EB0807FF1D38
:100A900000B10120411901EBEA70A1693844081A3C
:100AA000401EA0612078C00602D42046FFF7B0FBAC
:100AB000099828B1D4E901219047206A401C20629E
:100AC0002078C00622D52046FFF7A2FB1EE0002EAC
:100AD00004DBB34502DD01A8805D00E03020D4E9ED
:100AE00001219047206A401C2062761CAAF1010077
:100AF0005FEA000A0AD100F09BF8C0680168405C18
:100B0000D4E901219047206A401C2062281EA5F1EB
:100B10000105DCDC07E0D4E9012118F8010B90475E
:100B2000206A401C2062381EA7F10107F3DC204632
:100B3000FFF784FB032011B043E6000001694A1C63
:100B400002610878704700B58FB0CDE9013100210E
:100B5000059105497944CDE9031011466846FFF730
:100B6000BBFB0FB000BD0000E5FFFFFF0A6802F805
:100B7000010B0A607047000070B50C460168002048
:100B80004A1C3ED03C22B1FBF2F302FB1313B1FB33
:100B9000F2F12360B1FBF2F302FB1313B1FBF2F1AC
:100BA00018226360B1FBF2F302FB1313B1FBF2F105
:100BB00046F2E0320A440721A360B2FBF1F301FBE5
:100BC000132140F2B553B2FBF3F5A161B2FBF3F18F
:100BD00003FB15228900B2F5B77F08D39B10521E84
:100BE000B2FBF3F52944B2FBF3F503FB15220F4BDF
:100BF000E261616189077B440CD03B2A0AD3521C15
:100C000008E02C212046FFF72CFC0120E0600AE0E0
:100C1000521A401C195C9142FAD9521CC4E90320B3
:100C20004FF0FF302062204670BD00001627000004
:100C3000004870479C00002030B5B0F10A024FEA2E
:100C4000900E71F100034EEA817EB0EB0E0061EB75
:100C500091014FEA101E4EEA017E10EB0E0041EBAF
:100C600011114FEA102E4EEA016E10EB0E0041EB0F
:100C700011214FEA104E4EEA014E10EB0E0041EBEF
:100C80001141401841F100014FEAD00040EA4170A3
:100C90004FEAD10110EB80054FEA810444EA9074D9
:100CA00044EB01046D1944EB0404521BA3414FF0C3
:100CB000000348BF0A3200D530BD401C41F100019D
:100CC00030BD00002DE9F0411F46044603260168AF
:100CD000072A01F4006004DB08B116A505E016A59B
:100CE00003E008B115A500E015A521F01000206073
:100CF000A069C01EA0610FB1401EA0612046FFF791
:100D000087FA4FB1D4E9012138469047206A401C48
:100D10002062C01C206206E0206AFAE7D4E90121C3
:100D200015F8010B9047761EF8D22046FFF786FA99
:100D3000BDE8F0814E414E006E616E00494E4600A6
:100D4000696E66002DE9F047814616468AB0334841
:100D500078440DC88DE80D0030487844801C03AC01
:100D60000DC884E80D0041F69B300844372190FB04
:100D7000F1F290FBF1F5A5F1800501FB12041B3C9B
:100D800002D56442012000E00020DFF890A08046F8
:100D90000027FA44AAF1BE0A0DE0E00709D0324666
:100DA000684607EB47010AEB810100F037FB8DE84D
:100DB000070064107F1C002CEFD1184F7F44AC3F1C
:100DC00018E0E80714D007EB04100DF1180A90E8BA
:100DD0000E008AE80E00C068F04201D19819089010
:100DE000324606A903A800F019FB03AB83E807000D
:100DF0006D10641C002DE4D132466946B8F1000F35
:100E000003A802D000F0F6FA01E000F007FBC9E900
:100E10000001C9F808200AB0BDE8F08744260000A8
:100E2000004870477C0000207546FFF7F9FFAE468A
:100E300005006946534620F00700854618B020B5E6
:100E4000FFF7C0F9BDE820404FF000064FF0000763
:100E50004FF000084FF0000B21F00701AC46ACE862
:100E6000C009ACE8C009ACE8C009ACE8C0098D46CF
:100E7000704710B50446AFF300802046BDE810402F
:100E8000FFF78BB94FF0013C50F8042B51F8043BAD
:100E90009A4221D1A2EB0C03934313EACC1317D14E
:100EA00050F8042B51F8043B9A4215D1A2EB0C03E5
:100EB000934313EACC130BD150F8042B51F8043BA5
:100EC0009A4209D1A2EB0C03934313EACC13DBD073
:100ED0004FF00000704700BFD01A01BAB1FA81F19B
:100EE00001F0180122FA01F0CB40C1F12001DBB280
:100EF000C0B2C01A2CFA01F3D11A914311EAC311FE
:100F0000E6D1704701491820ABBEFEE7260002007B
:100F100070475FEA400C08BF91F0000F4FEA8C2346
:100F20004FEAC12243EA51514FEA1C5018BF00F565
:100F3000F0404FEA300018BF41F000415FEA6C5CBE
:100F400000F02980BCF1FF3F08BF40F080407047AF
:100F5000130C06BF12044FF0100C4FF0000C130ED0
:100F600004BF12020CF1080C130F04BF12010CF1A4
:100F7000040C930F04BF92000CF1020CD30F04BFBA
:100F800052000CF1010C11464FF00002A0F11F00BD
:100F9000A0EB0C00704711F0004F08BF704731F014
:100FA00000413FF4D5AF0B0C06BF09044FF0100C05
:100FB0004FF0000C0B0E04BF09020CF1080C0B0FD4
:100FC00004BF09010CF1040C8B0F04BF89000CF164
:100FD000020CCB0F04BF49000CF1010CCCF1200333
:100FE000A0EB0C0022FA03F302FA0CF241EA03012F
:100FF00000F10100704720F07F4C80EA030023F0ED
:101000007F47ACEB070303F57C5300F0004003F18E
:10101000FF032DE980494FEA154B09B44FEA144309
:1010200025EA0B4E24EA03480FF2042606EB1327A9
:1010300049083E785FEA320203FB0667C7F50007FE
:1010400007FB06F64FEA54374FEAD64606F102068A
:1010500007FB066CCCF1005C4FEA1C472CEA074CFE
:1010600007FB06F40CFB06F504EB15464FEA961653
:1010700034BF00204FF000404FEAD13706FB07FC99
:101080004FEA1C4C0CFB0BF7D21B03FB0CF761EB7C
:1010900007010CFB0EF7B0EB074072EB17420CFB9D
:1010A00008F734BFA2EB0742B2EB074261EB1741EE
:1010B0004FEA0C444FEA910706FB07FC4FEA1C4C31
:1010C0000CFB0BF7B0EBC74072EB573203FB0CF78E
:1010D00034BFA2EBC742B2EBC74261EB57310CFB06
:1010E0000EF7B0EBC70072EB57720CFB08F734BF7A
:1010F000A2EBC702B2EBC70261EB5771039F4FEA45
:10110000816141EA921104EBCC044FEAD1374FEAF6
:10111000826206FB07FC42EA90124FEA80604FEAC7
:101120001C4C0CFB0BF7D21B03FB0CF761EB07010C
:101130000CFB0EF7B0EB074072EB17420CFB08F705
:1011400034BFA2EB0742B2EB074261EB17414FEA13
:101150008C554FEA910704EB9C2406FB07FC4FEAF1
:101160001C4C0CFB0BF7B0EBC74072EB573203FB88
:101170000CF734BFA2EBC742B2EBC74261EB573169
:101180000CFB0EF7B0EBC70072EB57720CFB08F7C5
:1011900034BFA2EBC702B2EBC70261EB577115EB8C
:1011A0004C254FEA816141EA92114FEA82624FEA8F
:1011B000D13742EA901206FB07FC44F100044FEAE3
:1011C00080604FEA1C4C0CFB0BF7D21B03FB0CF7A7
:1011D00061EB07010CFB0EF7B0EB074072EB174217
:1011E0000CFB08F734BFA2EB0742B2EB074261EBFE
:1011F000174115EB1C154FEA813141EA92414FEA44
:10120000823242EA90424FEA80304FEA0C7644F153
:10121000000448EA03434EEA0B484FF0000EB2EBDD
:10122000080C71EB030724BF624639464EEB0E0EE5
:101230004FF0000B0018524149414BEB0B0BB2EB46
:10124000080C71EB03077BF1000B24BF62463946A3
:101250004EEB0E0E4FF0000B0018524149414BEB84
:101260000B0BB2EB080C71EB03077BF1000B24BFF7
:10127000624639464EEB0E0E51EA020718BF46F0A1
:10128000010616EB0E7655F1000254F1000103D56C
:10129000BDE88901BDE80088BDE88901BDE80048D6
:1012A000B619524141EB0101A3F10103704780805F
:1012B0007F7E7D7C7B7A79787776767574737271B0
:1012C00071706F6E6E6D6C6C6B6A6A696868676668
:1012D00066656464636362616160605F5F5E5E5DFA
:1012E0005D5C5C5B5B5A5A5959585857575656556E
:1012F00055555454535352525251515050504F4FD0
:101300004F4E4E4D4D4D4C4C4C4B4B4B4A4A4A491F
:101310004949484848474747474646464545454462
:101320004444444343434342424242414141002BEF
:1013300026D4770021D01CB54FEA370703B44FF00D
:1013400010004FF010014FF000000FBCBDE810403E
:101350000BF1010BBBF1010F08BF5FEA170722BFBA
:1013600012F1010211F101014FF0004143F10003BC
:1013700000F0004043EA00007047F9D35708DAE76D
:1013800046EA064613F1400F4FEA16461FDD13F1F9
:10139000200FDFBF16430A46002120335B42C8D02E
:1013A000C3F1200746EA064602FA07F74FEA164657
:1013B00046EA0706C3F1200722FA03F201FA07F70B
:1013C00021FA03F14FF0000342EA0702B1E746EACF
:1013D000020646EA06464FEA164646EA0106BCBF42
:1013E00046EA0646360C4FF000034FF000024FF07D
:1013F00000019EE72DE9C048934630B491E83800DB
:1014000007C831EA400C48BF34EA430C03D5FFF764
:10141000F2FDFFF78CFFF0BCBDE800882DE9C04865
:10142000934630B491E8380007C810F0804F08BFE9
:1014300013F0804F03D100F005F8FFF778FFF0BC00
:10144000BDE8008820F07F4780EA030023F07F4C4E
:1014500007EB0C03A3F57C5300F00040A3F1FE035F
:1014600092F0000F00F0B38095F0000F00F077804D
:101470002DE901494FEA11404FEA144621EA00489C
:1014800000FB06FC24EA064708FB06F607FB08F803
:1014900000FB07F718EB06484CEB164C4FEA124BD3
:1014A00018EB07484FEA15464CEB174022EA0B4E63
:1014B0000BFB06FC25EA06470EFB06F607FB0EFEB5
:1014C0000BFB07F71EEB064E4CEB164C4FF00006DD
:1014D0001EEB074E4CEB174B18EB0B0840F10000CE
:1014E00018EB0E0B58EB000840F100008F1A4FF07C
:1014F00000013CBFC943661B14BFB5EB040C0021BF
:101500003CBFC943F61B4FEA17444EEA8E0E27EA4A
:1015100004454FEA1C4704FB07622CEA074C05FB15
:1015200007F70CFB05F604FB0CFC16EB074642EB39
:10153000174216EB0C4642EB1C421BEB060658EB1F
:101540000202414146EA9E0601D5BDE80189B6196D
:10155000524141EB0101A3F10103BDE801894FEACA
:1015600014454FEA114724EA054621EA074C05FBDA
:1015700007F406FB07F70CFB06F105FB0CFC11EB6F
:10158000074144EB17444FEA124711EB0C4144EB7F
:101590001C4422EA074C05FB07F206FB07F70CFB8D
:1015A00006F605FB0CFC16EB074642EB174216EB62
:1015B0000C4642EB1C456A1854F1000148BF7047C5
:1015C000B619524141EB0101A3F10103704795F0B7
:1015D000000F37D04FEA11424FEA144721EA024682
:1015E00024EA074C02FB07F106FB07F70CFB06F4A5
:1015F00002FB0CFC14EB074441EB17414FEA154783
:1016000014EB0C4441EB1C4125EA074C02FB07F5A7
:1016100006FB07F70CFB06F602FB0CFC16EB074675
:1016200045EB174516EB0C4645EB1C42121951F1E0
:10163000000148BF7047B619524141EB0101A3F1C7
:10164000010370474FEA14454FEA114724EA054663
:1016500021EA074C05FB07F106FB07F70CFB06F236
:101660004FF0000605FB0CFC12EB074241EB174163
:1016700012EB0C4251EB1C4148BF7047921841EBF2
:101680000101A3F10103704710B5012000F03EFBFA
:10169000002000F03BFB10BD08B501460020009083
:1016A000034800900098084400900098008808BD06
:1016B000006C004008B500220092044A0092009A93
:1016C00002440092009A116008BD0000006C0040C6
:1016D0007047000010B50548006800F00F0403488B
:1016E00044602046FFF7F4FF10BD000000000240F8
:1016F0007047000010B505480068C0F303142001CE
:10170000024948602046FFF7F3FF10BD0000024089
:101710007047000010B505480068C0F3032420029C
:10172000024948602046FFF7F3FF10BD0000024069
:101730007047000010B505480068C0F3033420036B
:10174000024948602046FFF7F3FF10BD0000024049
:101750007047000010B505480068C0F3034420043A
:10176000024948602046FFF7F3FF10BD0000024029
:101770007047000010B505480068C0F30354200509
:10178000024948602046FFF7F3FF10BD0000024009
:101790007047000010B505480068C0F303642006D8
:1017A000024948602046FFF7F3FF10BD00000240E9
:1017B00070B51448006818B301F054F91249086074
:1017C0000846006801F0F8FB044622460B460FA1CC
:1017D0001248FEF709FD0121002000F00DF90F4825
:1017E00000F05EF90E49002000F0DDF801210E2026
:1017F00000F002F9002000F041F9432000F03EF92A
:1018000070BD000014000020100000204E686965C3
:101810007420446F3A2025322E3166003A000020B1
:101820000800002010B50748006850B100F060FBC8
:10183000054B9A785978187800F072FC002001491D
:10184000086010BD00000020300000202DE9F041AC
:10185000024600250026002000230024002791F8DE
:1018600003C00CF00F0591F803C00CF0100CBCF194
:10187000000F03D091F802C04CEA050591F800C0B2
:10188000BCF1000F31D0146800202BE04FF0010CA8
:101890000CFA00F3B1F800C00CEA03069E4220D116
:1018A00083004FF00F0C0CFA03F7BC4305FA03FC5E
:1018B0004CEA040491F803C0BCF1280F06D14FF0A4
:1018C000010C0CFA00FCC2F814C00AE091F803C045
:1018D000BCF1480F05D14FF0010C0CFA00FCC2F826
:1018E00010C0401C0828D1D31460B1F800C0BCF16E
:1018F000FF0F34DD546800202EE000F1080C4FF09B
:10190000010808FA0CF3B1F800C00CEA03069E4285
:1019100021D183004FF00F0C0CFA03F7BC4305FAFA
:1019200003FC4CEA040491F803C0BCF1280F05D174
:1019300000F1080C08FA0CF8C2F8148091F803C002
:10194000BCF1480F07D100F1080C4FF0010808FA6C
:101950000CF8C2F81080401C0828CED35460BDE8B3
:10196000F0810246002093680B400BB1012000E09B
:10197000002070474161704701617047F8B5064625
:101980000C461546ADF800408DF8035003208DF845
:10199000020069463046FFF759FFF8BD0AB1016100
:1019A00000E04161704770B504460E46082C0EDA1F
:1019B000402101EBC401C8B200F09CF8002504E00E
:1019C000705D00F05BF8681CC5B2082DF8DB70BDD7
:1019D00010B54FF480510748FFF7CEFF032001F008
:1019E00031F84FF480510348FFF7C4FF322001F073
:1019F00029F810BD000C014070B506460C461CB914
:101A000006F18000C5B204E0012C02D106F1C0004D
:101A1000C5B2012001F00BF8284600F06BF8322027
:101A200001F010F870BD000010B5002000F044F87F
:101A30004FF480401049086040100860032000F017
:101A40003BF8FFF7C5FFFFF7C3FFFFF7C1FF022019
:101A500000F032F8FFF7BCFF282000F04BF80C2014
:101A600000F048F8062000F045F8012000F042F8A8
:101A70000A2000F0DCFF10BD140C014010B5044634
:101A80004FF480410548FFF777FF204600F032F819
:101A90004FF480410148FFF76DFF10BD000C01407D
:101AA00010B5044603E02078FFF7E8FF641C2078B7
:101AB0000028F8D110BD000010B5044604F0010262
:101AC00010210B48FFF76AFFC4F3400220210848A9
:101AD000FFF764FFC4F3800240210548FFF75EFF73
:101AE000C4F3C00280210248FFF758FF10BD000078
:101AF0000008014010B504462011FFF7DDFFFFF795
:101B000067FF2046FFF7D8FFFFF762FF10BD00F028
:101B10001F02012191404209920002F1E022C2F825
:101B20000011704700F01F0201219140420992000C
:101B300002F1E022C2F800117047000070B50021E8
:101B400000230F22C47804B3154C246804F4E06425
:101B5000C4F5E064210AC1F10403CA40447804FAE0
:101B600003F184781440214309010E4C0678A155F5
:101B7000047804F01F050124AC4005786D11AD0018
:101B800005F1E025C5F8004109E0047804F01F05DF
:101B90000124AC40044D0678761145F8264070BD0E
:101BA0000CED00E000E400E080E100E070B500250D
:101BB000002424E014224FF400711348FFF7DEFEE6
:101BC0004FF400711048FFF7D5FE022000F03AFFF5
:101BD0000422D1010C48FFF7D1FE082000F032FFAB
:101BE0004FF400710848FFF7BCFE18B10120A04077
:101BF0002843C5B2782000F025FF601CC4B2082C31
:101C0000D8DB284670BD0000000C014010B5012152
:101C1000082000F06BF814224FF400710D48FFF714
:101C2000ADFE4FF400710B48FFF7A4FE4FF4FA70BD
:101C300000F008FF0422D1010648FFF79FFE4FF491
:101C4000FA7000F0FFFE0422D1010248FFF796FE71
:101C500010BD0000000C014070B50446002529E0CD
:101C600014224FF400711548FFF788FE4FF40071FD
:101C70001248FFF77FFE022000F0E4FE04F00100AE
:101C800028B14FF400710D48FFF776FE04E04FF4E1
:101C900000710A48FFF76EFE64103C2000F0D2FE8F
:101CA0000422D1010548FFF769FE022000F0CAFEB8
:101CB000681CC5B2082DD3DB70BD0000000C0140CC
:101CC000014908627047000000000E4229B1064A2F
:101CD000D2690243044BDA6104E0034AD2698243C9
:101CE000014BDA61704700000010024029B1064A3A
:101CF00092690243044B9A6104E0034A9269824369
:101D0000014B9A61704700000010024001490860D1
:101D1000704700004004424230B5002100220024F8
:101D200000232D4D6D6805F00C0121B1042905D06B
:101D3000082923D105E0294D056022E0274D0560E3
:101D40001FE0254D6D6805F47012234D6D6805F494
:101D50008034022505EB92421CB9214D55430560A4
:101D60000BE01D4D6D6805F400351DB11C4D55434C
:101D7000056002E0194D5543056002E0174D05600E
:101D800000BF00BF144D6D6805F0F0010909154D45
:101D90006B5C0568DD4045600F4D6D6805F4E061E2
:101DA000090A104D6B5C4568DD4085600A4D6D6821
:101DB00005F46051C90A0B4D6B5C4568DD40C56098
:101DC000054D6D6805F44041890B074D6B5CC56896
:101DD000B5FBF3F5056130BD0010024000127A003A
:101DE00000093D00190000202900002010B501461F
:101DF0000022002300204A11012A02D1094C236845
:101E000006E0022A02D1074C236A01E0054C636A0E
:101E100001F01F02012494401C400CB1012000E09D
:101E2000002010BD0010024000210B4A11700A4A28
:101E3000203A82F82010012802D0042808D103E0BB
:101E40000121054A117004E00521034A117000E0E8
:101E500000BF00BF70470000201002400149086029
:101E6000704700003C0442420249096A0143014AAA
:101E70001162704700100240024909888143014AFB
:101E8000118070470428004070B506460C46154680
:101E900000210846FFF7B0FD09A0FFF701FE30461C
:101EA000FFF7FEFD3A20FFF7E9FD2046FFF7F8FDBA
:101EB0003A20FFF7E3FD2846FFF7F2FD70BD000072
:101EC00054696D653A2000000348008840F0100016
:101ED000014908807047000004280040034800883A
:101EE0004FF6EF7108400149088070470428004010
:101EF00000B58BB0684600F01DFC094906980872D1
:101F0000059888800498401C88710398C8710298CD
:101F10000870019848700098887000200BB000BDD0
:101F200030000020002103480188001F008841EA9A
:101F3000004070471C28004001460020064A1288D5
:101F40000A40D0B2044A121F12880A4012B108B1E6
:101F5000012000E0002070470428004010B5012057
:101F6000FFF7EAFF28B10520FFF786FF01200249AD
:101F7000086000F0EBF910BD0000002029B1064A0E
:101F800012880243044B1A8004E0034A12888243F9
:101F9000014B1A80704700000028004010B5002453
:101FA00001214FF0C050FFF791FE0120FFF788FE9E
:101FB0000420FFF771FB45F25001884239D0FFF74A
:101FC00063FB0120FFF730FF04E0601CC4B20A206D
:101FD00000F02DFD4120FFF709FF08B9FA2CF4DBD2
:101FE000FA2C01DB012010BD4FF48070FFF73CFF9D
:101FF0000120FFF733FF00F0A9F900F0B1F901214A
:102000000846FFF7BBFF01210220FFF7B7FF00F0F2
:102010009DF9FFF759FF47F6FF7000F071F800F0E7
:1020200095F9FFF75BFF45F250010420FFF742FBF3
:102030000BE000F095F901210846FFF79FFF012111
:102040000220FFF79BFF00F081F900F004F8FFF792
:102050004FFF0020C7E708B503208DF800000020DF
:102060008DF801008DF8020001208DF8030068460C
:10207000FFF764FD29208DF8000000208DF8010095
:1020800001208DF803006846FFF758FD08BD2DE9D3
:10209000F04393B004460D4616461F46DDE91A8903
:1020A0002C2108A8FEF7DDF90D96681E0C900B9404
:1020B0000A97CDF82480CDF8209001214FF0C05030
:1020C000FFF704FE0120FFF7FBFD1C220CA9684668
:1020D000FEF795F908A80FC800F03DFB002013B0EB
:1020E000BDE8F08300B50246FFF7EEFE100C034991
:1020F0000880091D0A80FFF7F1FE00BD1828004086
:1021000000B50246FFF7E0FEC2F303400349088032
:10211000091D0A80FFF7E2FE00BD0000082800400C
:1021200070B59EB006460D461446002E7CDB0A2E86
:102130007ADA002D52DB0A2D50DA002C2CDB0A2C27
:102140002ADA324680A119A8FEF74EF800227EA1B5
:1021500014A8FEF749F819A914A8FEF744F92A466D
:1021600079A10FA8FEF740F8002277A10AA8FEF790
:102170003BF80FA90AA8FEF736F9224672A105A876
:10218000FEF732F8002270A16846FEF72DF805A987
:102190006846FEF728F9D0E032466BA119A8FEF791
:1021A00023F8002268A114A8FEF71EF819A914A8A4
:1021B000FEF719F92A4664A10FA8FEF715F80022C8
:1021C00061A10AA8FEF710F80FA90AA8FEF70BF9FB
:1021D00022465DA16846FEF707F8AEE0002C24DB3E
:1021E0000A2C22DA324658A119A8FDF7FDFF002279
:1021F00055A114A8FDF7F8FF19A914A8FEF7F3F8E4
:10220000224651A105A8FDF7EFFF00224EA1684626
:10221000FDF7EAFF05A96846FEF7E5F82A464AA158
:102220000AA8FDF7E1FF88E018E0324646A119A8A8
:10223000FDF7DAFF002244A114A8FDF7D5FF19A984
:1022400014A8FEF7D0F82A463FA10AA8FDF7CCFF54
:1022500022463DA16846FDF7C7FF6EE0002D40DB3A
:102260000A2D3EDA002C23DB0A2C21DA324636A175
:1022700014A8FDF7B9FF2A4633A10FA8FDF7B4FF54
:10228000002231A10AA8FDF7AFFF0FA90AA8FEF7A7
:10229000AAF822462CA105A8FDF7A6FF00222AA134
:1022A0006846FDF7A1FF05A96846FEF79CF844E0E3
:1022B000324625A114A8FDF797FF2A4622A10FA8B0
:1022C000FDF792FF002220A10AA8FDF78DFF0FA9BC
:1022D0000AA8FEF788F822461BA16846FDF784FF8E
:1022E0002BE0002C1ADB0A2C18DA324616A114A8AF
:1022F000FDF77AFF2A4614A10AA8FDF775FF2246CA
:1023000011A105A8FDF770FF00220FA16846FDF797
:102310006BFF05A96846FEF766F80EE032460AA193
:1023200014A8FDF761FF2A4607A10AA8FDF75CFF84
:10233000224605A16846FDF757FF6A460AA914A878
:10234000FFF7A2FD1EB070BD2564000000BF03486A
:10235000008800F020000028F9D0704704280040D1
:10236000074800884FF6F77108400549088000BF0C
:102370000348008800F008000028F9D070470000EA
:102380000428004010B500F001F810BD0CB5002085
:10239000019000903348006840F480303149086073
:1023A00000BF3048006800F4003000900198401CE5
:1023B0000190009818B90198B0F5A06FF1D12948A3
:1023C000006800F4003010B10120009001E000200E
:1023D00000900098012843D12348006840F0100085
:1023E000214908600846006820F00300086008469C
:1023F000006840F0020008601A48406819494860C7
:102400000846406848600846406840F4806048607C
:102410000846406820F47C1048600846406840F454
:10242000E81048600846006840F08070086000BF0F
:102430000C48006800F000700028F9D00948406896
:1024400020F00300074948600846406840F0020059
:10245000486000BF0348406800F00C000828F9D12C
:102460000CBD000000100240002002404FF0E020B0
:10247000806902490968C0EB0160704704000020D0
:1024800002480068401C01490860704704000020B1
:102490006FF07F404FF0E0214861072008617047EE
:1024A0001CB501210820FFF721FCFFF7F1FF00F028
:1024B0007BF8FFF7B9FA4FF41651084800F006FA16
:1024C000FFF76CFD32203B21002340F2E572CDE99D
:1024D000001004211620FFF7DAFD1CBD0038014072
:1024E00010B5FFF765F9FFF79DF910BD10B513485A
:1024F000006840F001001149086008464068104932
:1025000008400E494860084600680E4908400B49DB
:1025100008600846006820F480200860084640688B
:1025200020F4FE0048604FF41F008860FFF72AFF88
:102530004FF000600449086010BD00000010024028
:102540000000FFF8FFFFF6FE08ED00E010B50121E6
:10255000880700F067F838B10648007808B901200C
:1025600000E00020034908700121880700F04BF8C3
:1025700010BD00001800002010B50121084800F02F
:1025800051F838B10748006808B9012000E0002080
:10259000044908600121024800F035F810BD000030
:1025A00000080040140000200EB501210420FFF7B0
:1025B0008DFB0020ADF8020042F20F70ADF8040070
:1025C0000020ADF806008DF8080040F60F60ADF869
:1025D00000006946094800F03FF80121074800F073
:1025E0000FF801221146054800F02DF81E20FFF7D4
:1025F00099FA0121014800F009F80EBD00080040D9
:10260000CA4302827047CA430282704721B10288DE
:1026100042F00102028004E002884FF6FE731A4085
:102620000280704730B50246002000230024158A3E
:1026300005EA0103958905EA010413B10CB10120F3
:1026400000E0002030BD1AB183890B43838102E092
:1026500083898B4383817047002202881D4B9842F7
:102660000ED01D4B98420BD0B0F1804F08D01B4BC1
:10267000984205D01A4B984202D01A4B984204D186
:102680004FF68F731A404B881A43174B984207D066
:10269000164B984204D04FF6FF431A40CB881A439A
:1026A00002808B8883850B8803850A4B98420BD068
:1026B000094B984208D00E4B984205D00D4B9842DA
:1026C00002D00D4B984201D10B7A038601238382FD
:1026D00070470000002C014000340140000400401D
:1026E00000080040000C00400010004000140040B2
:1026F0000040014000440140004801400FB410B5C3
:102700000798A0F26C70079002A8FDF7F6FE10BCC7
:102710005DF814FB73B5054601A8FDF7C9FE044634
:10272000606900F26C7060612C2221462846FDF73A
:1027300066FE7CBD30B58BB00446FFF7F3FB054663
:1027400029466846FFF7E6FF2C2269462046FDF73A
:1027500056FE0BB030BD0FB410B588B01C220EA9C8
:102760006846FDF74CFE0AA80FC8FFF7C7FF0446EE
:1027700000F004F808B010BC5DF814FB10B5044676
:10278000FFF7E4FD2046FFF7ADFCFFF7DFFD10BDCE
:1027900021B1828942F40052828104E082894DF69F
:1027A000FF731A4082817047F0B50346002400266B
:1027B0000025002040F66A17B94200D100BF184634
:1027C000C1F3421401F01F06012707FA06F5012C98
:1027D00001D10C3004E0022C01D1103000E01430A3
:1027E0001AB107682F43076002E00768AF4307602C
:1027F000F0BD00002DE9F04786B005460E460024E6
:10280000A24600BFA1460027B08900B100BF2F46F5
:102810002C8A4CF6FF700440F08804432C82AC896B
:102820004EF6F3100440B08831890843718908439B
:102830000443AC81AC8A4FF6FF400440B0890443A6
:10284000AC8201A8FFF768FA1F48874202D1DDF881
:1028500010A001E0DDF80CA0A88900F4004040B110
:102860000AEBCA0000EB0A1031684900B0FBF1F82E
:1028700007E00AEBCA0000EB0A1031688900B0FBE0
:10288000F1F86420B8FBF0F004012009642101FB99
:102890001089A88900F4004040B1322000EBC90043
:1028A000B0FBF1F000F00700044308E0322000EB39
:1028B00009106421B0FBF1F000F00F0004432C81FB
:1028C00006B0BDE8F0870000003801407FB505463E
:1028D0000C46464885422BD101218803FFF706FAB2
:1028E0001821092000F00EF904210A2000F00AF94D
:1028F00000940020ADF80C000C20ADF80A00002078
:10290000ADF80800ADF80600ADF8040069462846A9
:10291000FFF770FF012240F225512846FFF744FFE0
:102920002520FFF7F4F801212846FFF731FF5CE08E
:102930002F4885422BD101214804FFF7C7F9182100
:10294000022000F0DFF80421032000F0DBF80094FF
:102950000020ADF80C000C20ADF80A000020ADF806
:102960000800ADF80600ADF8040069462846FFF7F8
:1029700041FF012240F225512846FFF715FF26208E
:10298000FFF7C5F801212846FFF702FF2DE019489F
:1029900085422AD101218804FFF798F918211920CE
:1029A00000F0B0F804211A2000F0ACF800940020E8
:1029B000ADF80C000C20ADF80A000020ADF80800BE
:1029C000ADF80600ADF8040069462846FFF712FF8F
:1029D000012240F225512846FFF7E6FE2720FFF7A7
:1029E00096F801212846FFF7D3FE7FBD003801404D
:1029F0000044004000480040490050EAC12018BF90
:102A000004204A0D18BF40F0010040F2FF72B2EB03
:102A1000515F08BF40F00200012808BF0520704741
:102A200030380A2801D2012070470020704710B5C5
:102A3000044604E04FF47A7000F004F8641E002CA1
:102A4000F8D110BD00B50246FFF710FD02EBC20140
:102A500000EBC10300BFFFF709FD181A0028FADCDC
:102A600000BD00002DE9FE4F00200290FFF7CEF8D8
:102A7000CC20FFF7F1F84420FFF7EEF802E0FFF773
:102A800095F80290029818B90198B0F5FA6FF6DB44
:102A9000FFF7BCF8CC20FFF7DFF8BE20FFF7DCF82B
:102AA000FFF784F88246FFF781F80446A1464FF607
:102AB000FF7000EA092949EA0A09484600F0A8FA25
:102AC000009000F079FA07460022054B00F0C8F8A4
:102AD000054600F093F883465846BDE8FE8F000097
:102AE00000003040FFF7DCFC03A0FEF7D9FF01E057
:102AF000FFF7F6FCFCE70000446F2056616E20549F
:102B00006861690038B505460C4605EB45012F4A5A
:102B100002EB810188680121FFF7E8F805EB450029
:102B20002A4901EB80008088ADF80000042C06D112
:102B300004208DF8030003208DF802003CE0482CAF
:102B400006D148208DF8030003208DF8020033E001
:102B5000282C06D128208DF8030003208DF80200D0
:102B60002AE0102C06D110208DF8030003208DF8E8
:102B7000020021E0142C06D114208DF8030003205C
:102B80008DF8020018E01C2C06D11C208DF80300E3
:102B900003208DF802000FE0182C06D118208DF8C4
:102BA000030003208DF8020006E02CB900208DF808
:102BB000030003208DF8020005EB4501034A52F89B
:102BC00021006946FEF742FE38BD0000D030000803
:102BD00010B500290AD00878002807D005487844A5
:102BE000FEF750F9002801D0002010BD02487844BB
:102BF00010BD0000F2070000EA07000021F00042CB
:102C0000A2F16052B2F5801F01F0004328BFD2F15B
:102C10007F6C0BD95FEA001C43EAC20242EB5070A2
:102C200018BF704728BF20F001007047B2F5801F21
:102C3000BCBF184670474FEA410C1CF5001F02D27A
:102C4000084600F03EBA70B500F062F90000008955
:102C5000FFF7F6BF4FF00040A0F58000704700007E
:102C60002DE9C04130B4DFF8A0C23CEA111418BF0E
:102C70003CEA131400F0EC8081EA03051CEA11140D
:102C800044EAD57418BF1CEA131500F0C780A4EB02
:102C900005044FF0004545EAC12145EAC32341EA56
:102CA000505143EA525304F17F74994204F50034C1
:102CB0004FEAC0204FEAC22208BF904200F09C8039
:102CC0004FEA13650FF24016765D4FEA134506FB97
:102CD00005F7C7F1807706FB07F74FEAD737A7FB61
:102CE00003687642C8F58038A7FB06CE38BFA8F146
:102CF000010807FB08E64FF0000EA6FB028CE6FB7E
:102D000003CEDCF1000CCEF1004E38BFAEF1010E67
:102D1000A6FB0C584FF000074FF00005E6FB0E87AE
:102D2000A1FB08C6A0FB07CE16EB0E0645F1000579
:102D3000E1FB076515F1E04E7EBFA4F580345FEA44
:102D400046066D4116F1800745F100054FEA172749
:102D50004FEA066647EA0567A6F1DE46B6F1805FF0
:102D60004FEA15251FD9384624F0010C05EBC47134
:102D7000BCF1FE6F01EB0C1102D8F0BCBDE8008184
:102D800024425CBF01F5801E9EEAC47F02D4F0BCE1
:102D9000BDE80081244238D4F0BCA1F1C041BDE8B7
:102DA000004100F003B94FEAD22242EA43524FEA0F
:102DB000D323A7FB02864FEAD02040EA415007FB0D
:102DC00003661EEA0E0F4FEAD12105FB026658BFCB
:102DD000A6EB0056B6EB00564FEA520E4EEAC37E03
:102DE00018EB0E0E56EB530EBDD518EB02085E41E4
:102DF0007F1C55F10005B6E74FF480154FF0000732
:102E00004FF000064FF00008ADE7F0BC4FF00000B7
:102E100001F1C04101F00041BDE8008111EA0C1F41
:102E20000CEA131500D00CE013EA0C1F00F025800B
:102E30004FF00000F0BC81EA030101F00041BDE861
:102E40000081F0BCBDE8004181EA030100F0AEB8AA
:102E5000F0BCBDE8004170B500F05AF8097EFC3EB8
:102E600000F007B881EA03014FF0000001F00041D3
:102E7000704781EA030100F099B8F0BCBDE8004159
:102E80004FF0000021497047FFFDFBF9F7F5F4F220
:102E9000F0EEEDEBE9E8E6E4E3E1E0DEDDDBDAD8F5
:102EA000D7D5D4D3D1D0CFCDCCCBCAC8C7C6C5C453
:102EB000C2C1C0BFBEBDBCBBBAB9B8B7B6B5B4B36A
:102EC000B2B1B0AFAEADACABAAA9A8A8A7A6A5A455
:102ED000A3A3A2A1A09F9F9E9D9C9C9B9A99999819
:102EE0009797969595949393929191908F8F8E8EBC
:102EF0008D8C8C8B8B8A8989888887878685858449
:102F000084838382828181800000FF070000F87F34
:102F10000EF1020E2EF0030E5EF8046B364205D45D
:102F2000012A43EB030515F5001F12D8012841EBD8
:102F3000010C1CF5001F0CD80ED14FEAD17C15F501
:102F4000001F0CEB4C0C0CF1020C08BF4CEBD37CBB
:102F500004E04FF0080C01E04FEAD37C0CEB4C0589
:102F600026FA05F606F00706B6F1040C06D20EEBBB
:102F7000860CBDE870404CF0010C6047DFE80CF0B7
:102F8000090B02024FF000414FF00000A1F50021B3
:102F900070BD19461046012851EB010418BFD4F545
:102FA000001484BF002001F0004170BD0808A0F5A6
:102FB00000114FEA3101704743004FEAD30C4FEA4A
:102FC0003C0C43401FBF40070CF1605113F0FE4F13
:102FD00070471CF0006F03D100200CF000417047D7
:102FE0000CF0004343EA507010B540EACC0000F00A
:102FF00022F800BF000000924FEA0001FFF7D6BFA1
:103000004FF000414FF00000A1F500217047000093
:10301000B0FA80F310FA03F2C3F19D030AD0D90588
:1030200001EB1220530638BF704700F1010008BFC2
:1030300020F0010070470EF1020E2EF0030E5EF834
:10304000044B244204D44FEA4102B2F17F4F11D81D
:103050004FEA4003B3F17F4F0CD80ED14FEAD07C3A
:10306000B2F17F4F0CEB4C0C0CF1020C08BF4CEB97
:10307000D17C04E04FF0080C01E04FEAD17C0CEB6E
:103080004C0324FA03F404F00704B4F1040C06D250
:103090000EEB840CBDE810404CF0010C6047DFE8FB
:1030A0000CF0070802024FF00040A0F5800010BDB0
:1030B0000846420018BFD2F1807288BF00F000407D
:1030C00010BDFF2141EAD050C0057047FDF7FFBB9E
:1030D0000008014001000000040000000008014059
:1030E000020000000400000000080140040000008D
:1030F0000400000000080140080000000400000077
:103100000008014010000000040000000008014019
:103110002000000004000000000801404000000002
:1031200004000000000801408000000004000000CE
:1031300000080140000100000400000000080140F8
:10314000000200000400000000080140000400002C
:103150000400000000080140000800000400000016
:1031600000080140001000000400000000080140B9
:1031700000200000040000000008014000400000A2
:10318000040000000008014000800000040000006E
:10319000000C01400100000008000000000C01408C
:1031A0000200000008000000000C014004000000C4
:1031B00008000000000C01400800000008000000AA
:1031C000000C01401000000008000000000C01404D
:1031D0002000000008000000000C0140400000003A
:1031E00008000000000C0140800000000800000002
:1031F000000C01400001000008000000000C01402C
:103200000002000008000000000C01400004000063
:1032100008000000000C0140000800000800000049
:10322000000C01400010000008000000000C0140EC
:103230000020000008000000000C014000400000D9
:1032400008000000000C01400080000008000000A1
:1032500000100140010000001000000000100140BB
:1032600002000000100000000010014004000000F7
:1032700010000000001001400800000010000000D5
:10328000001001401000000010000000001001407C
:10329000200000001000000000100140400000006D
:1032A000100000000010014080000000100000002D
:1032B000001001400001000010000000001001405B
:1032C0000002000010000000001001400004000097
:1032D0001000000000100140000800001000000075
:1032E000001001400010000010000000001001401C
:1032F000002000001000000000100140004000000D
:1033000010000000001001400080000010000000CC
:103310001F1D1F1E1F1E1F1F1E1F1E1F02400000FD
:10332000000000A00000000005400000000000C8F0
:10333000000000000C4000000000409C0000000065
:10334000194000000020BCBE000000003440000016
:10335000BFC91B8E00000004B5400000504BCFD009
:103360006607E2CF010000006C4100003E8251AAD6
:10337000DFEEA73401000000D9420000DCB5A0E276
:103380003A301F97FFFFFFFFB4450000FD25A0C89E
:10339000E9A3C14FFFFFFFFFFF3F000000000080D7
:1033A00000000000FF3F000000000080000000005F
:1033B000EC33000800000020300000002801000865
:1033C0001C34000830000020B00600004401000852
:1033D0001C00000043000000F8FFFFFF0C0000008D
:1033E0000E0000000F0000002E0000000000000092
:1033F00001000000070507000000000000000000B9
:1034000000000000000000000001020304010203AC
:0C3410000406070809020406080000007A
:04000005080000ED02
:00000001FF
