:020000040800F2
:10000000980600208901000891010008930100086A
:100010009501000897010008990100080000000000
:100020000000000000000000000000009B0100082C
:100030009D010008000000009F010008A1010008C8
:10004000A3010008A3010008A3010008A301000800
:10005000A3010008A3010008A3010008A3010008F0
:10006000A3010008A3010008A3010008A3010008E0
:10007000A3010008A3010008A3010008A3010008D0
:10008000A3010008A3010008A3010008A3010008C0
:10009000A3010008A3010008A3010008A3010008B0
:1000A000A3010008A3010008A3010008A3010008A0
:1000B0006D060008A3010008A3010008A3010008C1
:1000C000A3010008A3010008A3010008A301000880
:1000D000A3010008A3010008A3010008A301000870
:1000E000A3010008A3010008A301000800F002F822
:1000F00000F03AF80AA090E8000C82448344AAF188
:100100000107DA4501D100F02FF8AFF2090EBAE885
:100110000F0013F0010F18BFFB1A43F0010318473B
:10012000F006000010070000103A24BF78C878C11C
:10013000FAD8520724BF30C830C144BF04680C60ED
:10014000704700000023002400250026103A28BF35
:1001500078C1FBD8520728BF30C148BF0B60704739
:100160001FB51FBD10B510BD00F031F81146FFF7E7
:10017000F7FF00F00BFB00F04FF803B4FFF7F2FFBE
:1001800003BC00F057F800000948804709480047C1
:10019000FEE7FEE7FEE7FEE7FEE7FEE7FEE7FEE737
:1001A000FEE7FEE704480549054A064B7047000094
:1001B0000D060008ED0000089800002098060020B9
:1001C00098020020980200207047704770477546DB
:1001D00000F02CF8AE4605006946534620F00700B3
:1001E000854618B020B5FFF7DDFFBDE820404FF091
:1001F00000064FF000074FF000084FF0000B21F011
:100200000701AC46ACE8C009ACE8C009ACE8C009DD
:10021000ACE8C0098D46704710B50446AFF30080C6
:100220002046BDE81040FFF7A8BF00000048704717
:100230003400002001491820ABBEFEE72600020072
:1002400070470CB5002101910CE00021009102E003
:100250000099491C00910099B1F5167FF8D90199D0
:10026000491C019101998142EFD30CBD2DE9F04168
:10027000024600250026002000230024002791F8D4
:1002800003C00CF00F0591F803C00CF0100CBCF18A
:10029000000F03D091F802C04CEA050591F800C0A8
:1002A000BCF1000F31D0146800202BE04FF0010C9E
:1002B0000CFA00F3B1F800C00CEA03069E4220D10C
:1002C00083004FF00F0C0CFA03F7BC4305FA03FC54
:1002D0004CEA040491F803C0BCF1280F06D14FF09A
:1002E000010C0CFA00FCC2F814C00AE091F803C03B
:1002F000BCF1480F05D14FF0010C0CFA00FCC2F81C
:1003000010C0401C0828D1D31460B1F800C0BCF163
:10031000FF0F34DD546800202EE000F1080C4FF090
:10032000010808FA0CF3B1F800C00CEA03069E427B
:1003300021D183004FF00F0C0CFA03F7BC4305FAF0
:1003400003FC4CEA040491F803C0BCF1280F05D16A
:1003500000F1080C08FA0CF8C2F8148091F803C0F8
:10036000BCF1480F07D100F1080C4FF0010808FA62
:100370000CF8C2F81080401C0828CED35460BDE8A9
:10038000F0814161704701617047C16070470000B2
:1003900029B1064AD2690243044BDA6104E0034AF8
:1003A000D2698243014BDA617047000000100240BD
:1003B00029B1064A92690243044B9A6104E0034A58
:1003C00092698243014B9A6170470000001002401D
:1003D00008B501210C20FFF7EBFF10208DF803007A
:1003E00003208DF802007F20ADF800006946044824
:1003F000FFF73CFFFF2002490C31086008BD0000F8
:100400000008014070B5424800683C280DD14148C1
:100410000068401C3F490860084600683C2801D13C
:100420000020086000203A49086000246CE04FF486
:1004300000413948FFF7A5FF354800680A21B0FBA5
:10044000F1F201FB1200354931F8200085B229464E
:100450003348FFF79AFF0A20FFF7F3FE4FF40041FD
:100460002D48FFF790FF4FF480412B48FFF789FF9D
:10047000274800680A21B0FBF1F0284931F8200034
:1004800085B229462648FFF780FF0A20FFF7D9FEEC
:100490004FF480412048FFF776FF4FF400511E488B
:1004A000FFF76FFF1B4800680A21B0FBF1F201FB68
:1004B00012001A4931F8200085B229461848FFF782
:1004C00064FF0A20FFF7BDFE4FF400511248FFF70A
:1004D0005AFF4FF480511048FFF753FF0D48006852
:1004E0000A21B0FBF1F00D4931F8200085B2294610
:1004F0000B48FFF74AFF0A20FFF7A3FE4FF4805195
:100500000548FFF740FF641C322C90DB70BD0000F3
:100510000000002004000020000C01400800002022
:100520000008014008B501210820FFF741FF102015
:100530008DF8030003208DF802004FF47040ADF8F1
:10054000000069460448FFF791FE4FF6FF7002492C
:100550000C31086008BD0000000C014010B500F02F
:1005600001F810BD0CB500200190009025480068EE
:1005700040F480302349086000BF2248006800F43E
:10058000003000900198401C0190009818B9019823
:10059000B0F5A06FF1D11B48006800F4003010B135
:1005A0000120009001E0002000900098012828D14F
:1005B0001548006840F010001349086008460068BC
:1005C00020F0030008600846006808600D48406895
:1005D0000C494860084640684860084640684860E2
:1005E0000846406820F0030048600846406840F034
:1005F0000100486000BF0348406800F00C00042878
:10060000F9D10CBD001002400020024010B5134883
:10061000006840F001001149086008464068104930
:1006200008400E494860084600680E4908400B49DA
:1006300008600846006820F480200860084640688A
:1006400020F4FE0048604FF41F008860FFF786FF2B
:100650004FF000600449086010BD00000010024027
:100660000000FFF8FFFFF6FE08ED00E010B50121E5
:10067000880700F01FF820B104480068401C0349B7
:1006800008600121880700F006F810BD0000002076
:10069000CA4302827047CA430282704721B102886E
:1006A00042F00102028004E002884FF6FE731A4015
:1006B0000280704730B50246002000230024158ACE
:1006C00005EA0103958905EA010413B10CB1012083
:1006D00000E0002030BD1AB183890B43838102E022
:1006E00083898B4383817047002202881D4B984287
:1006F0000ED01D4B98420BD0B0F1804F08D01B4B51
:10070000984205D01A4B984202D01A4B984204D115
:100710004FF68F731A404B881A43174B984207D0F5
:10072000164B984204D04FF6FF431A40CB881A4329
:1007300002808B8883850B8803850A4B98420BD0F7
:10074000094B984208D00E4B984205D00D4B984269
:1007500002D00D4B984201D10B7A0386012383828C
:1007600070470000002C01400034014000040040AC
:1007700000080040000C0040001000400014004041
:10078000004001400044014000480140FFF720FEC6
:10079000FFF7C8FE00F004F801E0FFF733FEFCE7C6
:1007A0000EB501210846FFF7F3FD0020ADF8020069
:1007B00042F20F70ADF8040040F21F30ADF80000B7
:1007C00000208DF8080069464FF08040FFF78CFF4D
:1007D00001218807FFF75CFF012211469007FFF710
:1007E0007AFF1C2000280DDB00BF00BF00F01F02B5
:1007F000012191404209920002F1E022C2F8001169
:1008000000BF00BF00BF01218807FFF747FF0EBDF3
:100810003008000800000020340000002801000813
:100820006408000834000020640600004401000849
:100830000000000000000000C0000000F9000000FF
:10084000A4000000B0000000990000009200000029
:1008500082000000F800000080000000900000000E
:040860000000000094
:04000005080000ED02
:00000001FF
