:020000040800F2
:10000000980600208901000891010008930100086A
:100010009501000897010008990100080000000000
:100020000000000000000000000000009B0100082C
:100030009D010008000000009F010008A1010008C8
:10004000A3010008A3010008A3010008A301000800
:10005000A3010008A3010008A3010008A3010008F0
:10006000A3010008A3010008A3010008A3010008E0
:10007000A3010008A3010008A3010008A3010008D0
:10008000A3010008A3010008A3010008A3010008C0
:10009000A3010008A3010008A3010008A3010008B0
:1000A000A3010008A3010008A3010008A3010008A0
:1000B00055060008A3010008A3010008A3010008D9
:1000C000A3010008A3010008A3010008A301000880
:1000D000A3010008A3010008A3010008A301000870
:1000E000A3010008A3010008A301000800F002F822
:1000F00000F03AF80AA090E8000C82448344AAF188
:100100000107DA4501D100F02FF8AFF2090EBAE885
:100110000F0013F0010F18BFFB1A43F0010318473B
:10012000D8060000F8060000103A24BF78C878C14D
:10013000FAD8520724BF30C830C144BF04680C60ED
:10014000704700000023002400250026103A28BF35
:1001500078C1FBD8520728BF30C148BF0B60704739
:100160001FB51FBD10B510BD00F031F81146FFF7E7
:10017000F7FF00F0FFFA00F04FF803B4FFF7F2FFCB
:1001800003BC00F057F800000948804709480047C1
:10019000FEE7FEE7FEE7FEE7FEE7FEE7FEE7FEE737
:1001A000FEE7FEE704480549054A064B7047000094
:1001B000F5050008ED0000089800002098060020D2
:1001C00098020020980200207047704770477546DB
:1001D00000F02CF8AE4605006946534620F00700B3
:1001E000854618B020B5FFF7DDFFBDE820404FF091
:1001F00000064FF000074FF000084FF0000B21F011
:100200000701AC46ACE8C009ACE8C009ACE8C009DD
:10021000ACE8C0098D46704710B50446AFF30080C6
:100220002046BDE81040FFF7A8BF00000048704717
:100230003800002001491820ABBEFEE7260002006E
:1002400070470CB5002101910CE00021009102E003
:100250000099491C00910099B1F5167FF8D90199D0
:10026000491C019101998142EFD30CBD2DE9F04168
:10027000024600250026002000230024002791F8D4
:1002800003C00CF00F0591F803C00CF0100CBCF18A
:10029000000F03D091F802C04CEA050591F800C0A8
:1002A000BCF1000F31D0146800202BE04FF0010C9E
:1002B0000CFA00F3B1F800C00CEA03069E4220D10C
:1002C00083004FF00F0C0CFA03F7BC4305FA03FC54
:1002D0004CEA040491F803C0BCF1280F06D14FF09A
:1002E000010C0CFA00FCC2F814C00AE091F803C03B
:1002F000BCF1480F05D14FF0010C0CFA00FCC2F81C
:1003000010C0401C0828D1D31460B1F800C0BCF163
:10031000FF0F34DD546800202EE000F1080C4FF090
:10032000010808FA0CF3B1F800C00CEA03069E427B
:1003300021D183004FF00F0C0CFA03F7BC4305FAF0
:1003400003FC4CEA040491F803C0BCF1280F05D16A
:1003500000F1080C08FA0CF8C2F8148091F803C0F8
:10036000BCF1480F07D100F1080C4FF0010808FA62
:100370000CF8C2F81080401C0828CED35460BDE8A9
:10038000F0814161704701617047C16070470000B2
:1003900029B1064AD2690243044BDA6104E0034AF8
:1003A000D2698243014BDA617047000000100240BD
:1003B00029B1064A92690243044B9A6104E0034A58
:1003C00092698243014B9A6170470000001002401D
:1003D00008B501210420FFF7EBFF10208DF8030082
:1003E00003208DF802007F20ADF800006946044824
:1003F000FFF73CFFFF210248FFF7C7FF08BD0000E1
:100400000008014010B53F4800683C280DD13E4827
:100410000068401C3C490860084600683C2801D13F
:10042000002008600020374908604FF40041374839
:10043000FFF7A7FF334800680A21B0FBF1F201FB88
:100440001200334931F8200084B221463148FFF7C9
:100450009CFF0120FFF7F5FE4FF400412B48FFF70A
:1004600092FF4FF480412948FFF78BFF2548006831
:100470000A21B0FBF1F0264931F8200084B2214670
:100480002448FFF782FF0120FFF7DBFE4FF4804195
:100490001E48FFF778FF4FF400511C48FFF771FF2B
:1004A000194800680A21B0FBF1F201FB120018495B
:1004B00031F8200084B221461648FFF766FF01207C
:1004C000FFF7BFFE4FF400511048FFF75CFF4FF4F9
:1004D00080510E48FFF755FF0B4800680A21B0FB1A
:1004E000F1F00B4931F8200084B221460948FFF7AA
:1004F0004CFF0120FFF7A5FE4FF480510348FFF7A2
:1005000042FF10BD0000002004000020000C01404C
:10051000080000200008014008B501210820FFF76D
:1005200047FF10208DF8030003208DF802004FF4E0
:100530007040ADF8000069460148FFF797FE08BD1E
:10054000000C014010B500F001F810BD0CB5002002
:10055000019000902548006840F4803023490860ED
:1005600000BF2248006800F4003000900198401C51
:100570000190009818B90198B0F5A06FF1D11B480F
:10058000006800F4003010B10120009001E000206C
:1005900000900098012828D11548006840F010000C
:1005A000134908600846006820F003000860084608
:1005B000006808600D4840680C494860084640687B
:1005C00048600846406848600846406820F00300DC
:1005D00048600846406840F00100486000BF03489A
:1005E000406800F00C000428F9D10CBD0010024056
:1005F0000020024010B51348006840F00100114986
:10060000086008464068104908400E49486008469E
:1006100000680E4908400B4908600846006820F44D
:10062000802008600846406820F4FE0048604FF4CF
:100630001F008860FFF786FF4FF0006004490860E4
:1006400010BD0000001002400000FFF8FFFFF6FEA2
:1006500008ED00E010B50121880700F01FF820B177
:1006600004480068401C034908600121880700F025
:1006700006F810BD00000020CA4302827047CA433A
:100680000282704721B1028842F00102028004E038
:1006900002884FF6FE731A400280704730B502465A
:1006A000002000230024158A05EA0103958905EA44
:1006B000010413B10CB1012000E0002030BD1AB1DB
:1006C00083890B43838102E083898B438381704755
:1006D000002202881D4B98420ED01D4B98420BD031
:1006E000B0F1804F08D01B4B984205D01A4B98426E
:1006F00002D01A4B984204D14FF68F731A404B88A0
:100700001A43174B984207D0164B984204D04FF625
:10071000FF431A40CB881A4302808B8883850B885D
:1007200003850A4B98420BD0094B984208D00E4BD8
:10073000984205D00D4B984202D00D4B984201D102
:100740000B7A03860123838270470000002C01404E
:10075000003401400004004000080040000C00404C
:1007600000100040001400400040014000440140DF
:1007700000480140FFF72CFEFFF7CEFE00F004F822
:1007800001E0FFF73FFEFCE70EB501210846FFF749
:10079000FFFD0020ADF8020042F20F70ADF804003A
:1007A00040F21F30ADF8000000208DF808006946C7
:1007B0004FF08040FFF78CFF01218807FFF75CFFB7
:1007C000012211469007FFF77AFF1C2000280DDB5D
:1007D00000BF00BF00F01F020121914042099200BA
:1007E00002F1E022C2F8001100BF00BF00BF0121EA
:1007F0008807FFF747FF0EBD18080008000000201B
:1008000038000000280100085008000838000020C7
:100810006006000044010008000000000000000025
:10082000C0000000F9000000A4000000B0000000BB
:10083000990000009200000082000000F800000013
:100840008000000090000000000000000000010196
:04000005080000ED02
:00000001FF
