:020000040800F2
:100000009006002091010008990100089B0100085A
:100010009D0100089F010008A101000800000000E8
:10002000000000000000000000000000A301000824
:10003000A501000800000000A7010008A9010008B0
:10004000AB010008AB010008AB010008AB010008E0
:10005000AB010008AB010008AB010008AB010008D0
:10006000AB010008AB010008AB010008AB010008C0
:10007000AB010008AB010008AB010008AB010008B0
:10008000AB010008AB010008AB010008AB010008A0
:10009000AB010008AB010008AB010008AB01000890
:1000A000AB010008AB010008AB010008AB01000880
:1000B000AB010008AB010008AB010008AB01000870
:1000C000AB010008AB010008AB010008AB01000860
:1000D000AB010008AB010008AB010008AB01000850
:1000E000AB010008AB010008AB01000800F002F80A
:1000F00000F03FF80AA090E8000C82448344AAF183
:100100000107DA4501D100F034F8AFF2090EBAE880
:100110000F0013F0010F18BFFB1A43F0010318473B
:10012000E00F000000100000103A24BF78C878C12A
:10013000FAD8520724BF30C830C144BF04680C60ED
:10014000704700000023002400250026103A28BF35
:1001500078C1FBD8520728BF30C148BF0B60704739
:10016000642900F07580002070471FB51FBD10B5D1
:1001700010BD00F033F91146FFF7F7FF00F020FF44
:1001800000F051F903B4FFF7F2FF03BC00F058F997
:100190000948804709480047FEE7FEE7FEE7FEE71B
:1001A000FEE7FEE7FEE7FEE7FEE7FEE70448054957
:1001B000054A064B70470000750D0008ED00000869
:1001C0009000002090060020900200209002002065
:1001D0000FB4044910B503AA029800F0D1F810BC7E
:1001E0005DF814FB180000202DE9F0410E4604468E
:1001F000002020622046E168884730B3252805D0DA
:10020000D4E901219047206A401CF2E7E1682046CA
:1002100000278847050018D0A5F14100192802D809
:1002200020354FF400673246294620462760FFF705
:1002300097FF40B1012804D0F61D26F007060836C6
:10024000D8E7361DD6E72846DAE7206ABDE8F08110
:100250002DE9F0410646002410687529314616A59F
:1002600010D0AFF30080002802DA404213A507E067
:1002700031688A0701D512A502E0490704D511A506
:10028000012401E0AFF3008000210A2206F12407D7
:1002900009E0B0FBF2FCB0FBF2F302FB1C003030D3
:1002A00078541846491C0028F3D123462A46304684
:1002B000BDE8F04100F00BB8000000002D00000088
:1002C0002B000000200000007047704770472DE9A8
:1002D000F0470D4699469246044600F1240801680D
:1002E000880604D5E06921F01001216000E00120BA
:1002F000A84201DD471B00E00027A1697A1902EB43
:100300000900081AA0612078C00602D42046AFF385
:100310000080002608E0D4E901211AF80600904781
:10032000206A401C761C20624E45F4DB2078C00613
:100330000AD52046AFF3008006E0D4E90121302041
:100340009047206A401C2062381EA7F10107F4DCA8
:1003500007E0D4E9012118F805009047206A401C05
:100360002062281EA5F10105F3DC2046AFF30080D2
:100370002078000602D50220BDE8F0870120FBE7C7
:10038000074B70B50D467B4400F011F80446284633
:1003900000F020F810B14FF0FF3070BD204670BD66
:1003A000270C000001694A1C02610878704700B5FB
:1003B0008FB0CDE901310021059105497944CDE99E
:1003C000031011466846FFF70FFF0FB000BD000095
:1003D000E5FFFFFF007B00F080007047754600F0EE
:1003E0002BF8AE4605006946534620F007008546C7
:1003F00018B020B5FFF7DAFEBDE820404FF0000648
:100400004FF000074FF000084FF0000B21F00701FC
:10041000AC46ACE8C009ACE8C009ACE8C009ACE83F
:10042000C0098D46704710B50446AFF300802046E2
:10043000BDE81040FFF7A6BE00487047300000201E
:1004400001491820ABBEFEE72600020070470146B6
:100450000A0901F00F0302EB820003EB4000C0B277
:10046000704710B501460A2091FBF0F0C3B2F020AE
:1004700000EA03130A2091FBF0F400FB1410C2B24F
:1004800002F00F0243EA020010BD0EB5012108463A
:1004900000F062FB0020ADF802004FF6FF70ADF8EF
:1004A00004000120ADF8000000208DF80800694626
:1004B0004FF0804000F0A0FC0EBD000010B50221FE
:1004C0000B4800F03BF8044604F0400038B104F05B
:1004D0001F010C460846FFF7BAFF044606E004F089
:1004E0003F010C460846FFF7B2FF0446204610BD08
:1004F0000054004010B50121064800F01FF80446E2
:1005000004F07F010C460846FFF7A1FF0446204691
:1005100010BD00000054004010B50021064800F056
:100520000DF8044604F07F010C460846FFF78FFFE4
:100530000446204610BD00000054004070B504463B
:100540000D4600260121204600F0DFF900BF2249B8
:10055000204600F0B9F90028F9D00022D021204629
:1005600000F066FA00BF1D49204600F0ADF90028F2
:10057000F9D02946204600F064FA00BF1749891CCB
:10058000204600F0A1F90028F8D00121204600F013
:10059000BCF900BF1049204600F096F90028F9D0B8
:1005A0000122D021204600F043FA00BF0A493F3122
:1005B000204600F089F90028F8D0204600F034FAEF
:1005C00006460121064800F0ACF90021044800F07D
:1005D0006FF9304670BD0000010003008200070083
:1005E000005400407CB504462078FFF73AFF8DF8B0
:1005F00000006078FFF735FF8DF80100A078FFF765
:1006000030FF8DF80200E078FFF72BFF8DF8030034
:100610002079FFF726FF8DF804006079FFF721FFAE
:100620008DF80500A079FFF71CFF8DF80600012169
:10063000204800F06AF900BF1F491E4800F044F945
:100640000028F9D00022D0211A4800F0F1F900BFAB
:100650001A49184800F038F90028F9D00021154847
:1006600000F0EFF900BF1549891C124800F02CF981
:100670000028F8D000250EE01DF805100D4800F008
:10068000E0F900BF0D49891C0A4800F01DF9002857
:10069000F8D0681CC5B2072DEEDB00BF0749891CE6
:1006A000044800F011F90028F8D00121014800F0B9
:1006B00038F97CBD005400400100030082000700AF
:1006C00010B5FFF7E2FE0121880700F083FB00214F
:1006D0004FF0804000F08DFB00BF4FF0804000F0F5
:1006E00085FB48F6A0418842F7DB00214FF08040AF
:1006F00000F070FB10BD10B5044601E0FFF7E0FF0D
:10070000201EA4F10104F9D110BD2DE9F0410246EB
:1007100000250026002000230024002791F803C0B4
:100720000CF00F0591F803C00CF0100CBCF1000F99
:1007300003D091F802C04CEA050591F800C0BCF165
:10074000000F31D0146800202BE04FF0010C0CFAA0
:1007500000F3B1F800C00CEA03069E4220D18300EA
:100760004FF00F0C0CFA03F7BC4305FA03FC4CEAFC
:10077000040491F803C0BCF1280F06D14FF0010C1E
:100780000CFA00FCC2F814C00AE091F803C0BCF1F6
:10079000480F05D14FF0010C0CFA00FCC2F810C054
:1007A000401C0828D1D31460B1F800C0BCF1FF0F81
:1007B00034DD546800202EE000F1080C4FF00108F1
:1007C00008FA0CF3B1F800C00CEA03069E4221D1EE
:1007D00083004FF00F0C0CFA03F7BC4305FA03FC3F
:1007E0004CEA040491F803C0BCF1280F05D100F1D4
:1007F000080C08FA0CF8C2F8148091F803C0BCF198
:10080000480F07D100F1080C4FF0010808FA0CF866
:10081000C2F81080401C0828CED35460BDE8F08197
:10082000F0B50A46002300240021002500F0004610
:10083000B6F1004F02D11D4EF16901E01B4E716807
:10084000C0F3034583B200F44016B6F5401F08D14B
:1008500021F07061154E766826F07066134F7E6049
:1008600012E000F48016B6F5801F06D1032606FAC2
:1008700005F4A14341F0706106E0460D360103FA2C
:1008800006F6B14341F0706122B1460D360103FA1C
:1008900006F6314300F00046B6F1004F02D1034E98
:1008A000F16101E0014E7160F0BD00000000014007
:1008B00021B1028842F48062028004E002884FF68F
:1008C000FF331A400280704770B5024600240025AD
:1008D00000230020958A138B1B0445EA030626F0AB
:1008E0007F4404EA01068E4201D1012000E000208D
:1008F00070BD21B1028842F00102028004E002884A
:100900004FF6FE731A400280704721B1028842F40C
:100910008072028004E002884FF6FF631A40028072
:10092000704721B1028842F40072028004E002881C
:100930004FF6FF531A400280704700002DE9F04344
:1009400085B004460D460026B1460427DFF8CC806A
:10095000A6884FF6C0700640684600F02DF9DDF815
:1009600008802F48B8FBF0F01FFA80F946EA090624
:10097000A68020884FF6FE71084020800026294975
:10098000286888420CD828684000B8FBF0F087B28D
:10099000042F00DA04273E4309F10100208427E0F8
:1009A000E8884BF6FF71884206D1286800EB4000CA
:1009B000B8FBF0F087B209E0286800EBC00101EB5A
:1009C0000010B8FBF0F087B247F48047C7F30B0084
:1009D00008B947F0010747F4004006434FF496700A
:1009E00009FB00F04FF47A7190FBF1F0401C208479
:1009F000A683208840F00100208026884FF6F5303D
:100A00000640A8886989084306432680A889298961
:100A10000843208105B0BDE8F083000000127A0091
:100A200040420F00A08601000146088AC0B270470C
:100A300012B141F0010102E04FF6FE73194001824C
:100A400070470182704700007FB504460E46154688
:100A50000121084600F0A0F8284884421FD1012156
:100A6000480500F079F8304600F04CF801214805BF
:100A700000F082F800214FF4001000F07DF800959E
:100A80002014ADF80C000020ADF80400ADF808000B
:100A9000ADF80A004BF6FF70ADF8060021E01848EB
:100AA00084421ED10121880500F056F8304600F03E
:100AB00029F80121880500F05FF800214FF480003B
:100AC00000F05AF800952014ADF80C000020ADF8A5
:100AD0000400ADF80800ADF80A004BF6FF70ADF861
:100AE000060000212046FFF704FF69462046FFF775
:100AF00025FF01212046FFF7FCFE7FBD005400408A
:100B00000058004010B504460121082000F044F8C8
:100B1000012C03D1C0200E4908800FE0022C08D11F
:100B20004FF440700A49088001210220FFF778FE47
:100B300004E0032C02D1A002054908801C200449CE
:100B4000C870032088700348FFF7DFFD10BD000068
:100B500014000020000C014029B1064AD26902436A
:100B6000044BDA6104E0034AD2698243014BDA6143
:100B7000704700000010024029B1064A1269024382
:100B8000044B1A6104E0034A12698243014B1A6163
:100B9000704700000010024029B1064A92690243E2
:100BA000044B9A6104E0034A92698243014B9A61C3
:100BB000704700000010024030B5002100220024E0
:100BC00000232D4D6D6805F00C0121B1042905D0DD
:100BD000082923D105E0294D056022E0274D056055
:100BE0001FE0254D6D6805F47012234D6D6805F406
:100BF0008034022505EB92421CB9214D5543056016
:100C00000BE01D4D6D6805F400351DB11C4D5543BD
:100C1000056002E0194D5543056002E0174D05607F
:100C200000BF00BF144D6D6805F0F0010909154DB6
:100C30006B5C0568DD4045600F4D6D6805F4E06153
:100C4000090A104D6B5C4568DD4085600A4D6D6892
:100C500005F46051C90A0B4D6B5C4568DD40C56009
:100C6000054D6D6805F44041890B074D6B5CC56807
:100C7000B5FBF3F5056130BD0010024000127A00AB
:100C800000093D001C0000202C00002010B500F0E1
:100C900001F810BD0CB500200190009033480068A9
:100CA00040F480303149086000BF3048006800F4EB
:100CB000003000900198401C0190009818B90198EC
:100CC000B0F5A06FF1D12948006800F4003010B1F0
:100CD0000120009001E0002000900098012843D1FD
:100CE0002348006840F01000214908600846006869
:100CF00020F0030008600846006840F00200086029
:100D00001A484068194948600846406848600846E3
:100D1000406840F4806048600846406820F47C10D9
:100D200048600846406840F4E8104860084600689B
:100D300040F08070086000BF0C48006800F0007050
:100D40000028F9D00948406820F0030007494860AE
:100D50000846406840F00200486000BF0348406811
:100D600000F00C000828F9D10CBD00000010024072
:100D70000020024010B51348006840F001001149FE
:100D8000086008464068104908400E494860084617
:100D900000680E4908400B4908600846006820F4C6
:100DA000802008600846406820F4FE0048604FF448
:100DB0001F008860FFF76AFF4FF000600449086079
:100DC00010BD0000001002400000FFF8FFFFF6FE1B
:100DD00008ED00E021B1028842F00102028004E047
:100DE00002884FF6FE731A40028070470146888CD5
:100DF0007047818470470000002202881D4B984292
:100E00000ED01D4B98420BD0B0F1804F08D01B4B39
:100E1000984205D01A4B984202D01A4B984204D1FE
:100E20004FF68F731A404B881A43174B984207D0DE
:100E3000164B984204D04FF6FF431A40CB881A4312
:100E400002808B8883850B8803850A4B98420BD0E0
:100E5000094B984208D00E4B984205D00D4B984252
:100E600002D00D4B984201D10B7A03860123838275
:100E700070470000002C0140003401400004004095
:100E800000080040000C004000100040001400402A
:100E900000400140004401400048014021B18289E6
:100EA00042F40052828104E082894DF6FF731A40B9
:100EB0008281704702460020B1F5007F00D100BF5B
:100EC00013880B400BB1012000E0002070470000A8
:100ED0002DE9F04786B005460E460024A24600BF25
:100EE000A1460027B08900B100BF2F462C8A4CF6DE
:100EF000FF700440F08804432C82AC894EF6F31056
:100F00000440B08831890843718908430443AC81A7
:100F1000AC8A4FF6FF400440B0890443AC8201A87C
:100F2000FFF74AFE1F48874202D1DDF810A001E01A
:100F3000DDF80CA0A88900F4004040B10AEBCA001B
:100F400000EB0A1031684900B0FBF1F807E00AEB4A
:100F5000CA0000EB0A1031688900B0FBF1F8642088
:100F6000B8FBF0F004012009642101FB1089A88975
:100F700000F4004040B1322000EBC900B0FBF1F0BA
:100F800000F00700044308E0322000EB0910642160
:100F9000B0FBF1F000F00F0004432C8106B0BDE877
:100FA000F087000000380140C1F3080282807047DA
:100FB00070B504460D46E0B200F092F8204670BDD0
:100FC00000F04AF8184A01211848FFF73DFD282093
:100FD000174908703A20487005208870C8701C2096
:100FE000087106204871112088710846FFF7FAFA47
:100FF00018E0FFF791FA0F490880FFF77BFA0E49D6
:101000000880FFF75BFA0D4908800A4803880A4800
:101010000288084601880AA0FFF7DAF840F2DE30BD
:10102000FFF769FBE5E70000A086010000540040DF
:10103000060000200E0000201000002012000020FA
:1010400074686F69206769616E3A2025643A256487
:101050003A25640A0000000000B585B00121042093
:10106000FFF79AFD01218803FFF796FD4FF400700A
:10107000ADF8100018208DF8130003208DF8120031
:1010800004A91548FFF741FB4FF48060ADF810004C
:1010900004208DF8130003208DF8120004A90E48D7
:1010A000FFF733FB4FF4165000900020ADF80C0012
:1010B0000C20ADF80A000020ADF80800ADF80600DD
:1010C000ADF8040069460548FFF702FF0121034817
:1010D000FFF7E4FE05B000BD000801400038014004
:1010E00010B5044621460548FFF75EFF00BF80218A
:1010F0000248FFF7DFFE0028F9D010BD003801409C
:101100002011000800000020300000002801000825
:101110005011000830000020600600004401000863
:1011200001020304050000000000000000000000B0
:1011300000000000000000000000000000000000AF
:101140000102030401020304060708090204060859
:04000005080000ED02
:00000001FF
