:020000040800F2
:10000000600600206D0100084B0300084303000850
:100010004703000827020008A106000800000000AE
:100020000000000000000000000000009103000834
:100030002B020008000000004D0300087D040008AA
:100040008701000887010008870100088701000870
:100050008701000887010008870100088701000860
:100060008701000887010008870100088701000850
:100070008701000887010008870100088701000840
:100080008701000887010008870100088701000830
:100090008701000887010008870100088701000820
:1000A0008701000887010008870100088701000810
:1000B0008701000887010008870100088701000800
:1000C00087010008870100088701000887010008F0
:1000D00087010008870100088701000887010008E0
:1000E00087010008870100088701000800F002F876
:1000F00000F02CF80AA090E8000C82448344AAF196
:100100000107DA4501D100F021F8AFF2090EBAE893
:100110000F0013F0010F18BFFB1A43F0010318473B
:100120009C080000AC0800000023002400250026E5
:10013000103A28BF78C1FBD8520728BF30C148BF4A
:100140000B6070471FB51FBD10B510BD00F031F832
:100150001146FFF7F7FF00F0A5FA00F04FF803B4DF
:10016000FFF7F2FF03BC00F057F800000948804792
:1001700009480047FEE7FEE7FEE7FEE7FEE7FEE789
:10018000FEE7FEE7FEE7FEE704480549054A064BA1
:100190007047000081040008ED00000860000020A6
:1001A0006006002060020020600200207047704757
:1001B0007047754600F02CF8AE4605006946534678
:1001C00020F00700854618B020B5FFF7DDFFBDE839
:1001D00020404FF000064FF000074FF000084FF0AE
:1001E000000B21F00701AC46ACE8C009ACE8C0093F
:1001F000ACE8C009ACE8C0098D46704710B50446AC
:10020000AFF300802046BDE81040FFF7A8BF000014
:10021000004870470000002001491820ABBEFEE7EF
:1002200026000200704700BFFEE770472DE9F0414D
:10023000024600250026002000230024002791F814
:1002400003C00CF00F0591F803C00CF0100CBCF1CA
:10025000000F03D091F802C04CEA050591F800C0E8
:10026000BCF1000F31D0146800202BE04FF0010CDE
:100270000CFA00F3B1F800C00CEA03069E4220D14C
:1002800083004FF00F0C0CFA03F7BC4305FA03FC94
:100290004CEA040491F803C0BCF1280F06D14FF0DA
:1002A000010C0CFA00FCC2F814C00AE091F803C07B
:1002B000BCF1480F05D14FF0010C0CFA00FCC2F85C
:1002C00010C0401C0828D1D31460B1F800C0BCF1A4
:1002D000FF0F34DD546800202EE000F1080C4FF0D1
:1002E000010808FA0CF3B1F800C00CEA03069E42BC
:1002F00021D183004FF00F0C0CFA03F7BC4305FA31
:1003000003FC4CEA040491F803C0BCF1280F05D1AA
:1003100000F1080C08FA0CF8C2F8148091F803C038
:10032000BCF1480F07D100F1080C4FF0010808FAA2
:100330000CF8C2F81080401C0828CED35460BDE8E9
:10034000F08100BFFEE700BFFEE770477047000086
:1003500029B1064AD2690243044BDA6104E0034A38
:10036000D2698243014BDA617047000000100240FD
:1003700029B1064A92690243044B9A6104E0034A98
:1003800092698243014B9A6170470000001002405D
:10039000704710B500F002F810BD00000CB5002049
:1003A000019000903348006840F480303149086083
:1003B00000BF3048006800F4003000900198401CF5
:1003C0000190009818B90198B0F5A06FF1D12948B3
:1003D000006800F4003010B10120009001E000201E
:1003E00000900098012843D12348006840F0100095
:1003F000214908600846006820F0030008600846AC
:10040000006840F0020008601A48406819494860D6
:100410000846406848600846406840F4806048608C
:100420000846406820F47C1048600846406840F464
:10043000E81048600846006840F08070086000BF1F
:100440000C48006800F000700028F9D009484068A6
:1004500020F00300074948600846406840F0020069
:10046000486000BF0348406800F00C000828F9D13C
:100470000CBD000000100240002002407047000048
:1004800010B51348006840F00100114908600846A3
:100490004068104908400E494860084600680E4907
:1004A00008400B4908600846006820F48020086076
:1004B0000846406820F4FE0048604FF41F00886042
:1004C000FFF767FF4FF000600449086010BD0000AF
:1004D000001002400000FFF8FFFFF6FE08ED00E00C
:1004E00000B587B01821192000F0E2F8012104209E
:1004F000FFF72EFF0020ADF8120042F20F70ADF8AA
:10050000140041F61F40ADF8100004A90E4800F099
:1005100075F86020ADF800000020ADF8080001205B
:10052000ADF8020041F28830ADF806006946064891
:1005300000F018F80821044800F052F801210248A0
:1005400000F004F807B000BD0008004021B10288A7
:1005500042F00102028004E002884FF6FE731A4066
:100560000280704770B5002200230024058C4EF6EF
:10057000FF7635400584038C8488828B48F6FF75AE
:100580002A404FF6FF452A400D884FF6FF7606EACF
:1005900005252A434DF6FF752B400D8906EA0535E2
:1005A0002B434D8806EA05352B430B4DA84202D05C
:1005B0000A4DA84208D14BF6FF752C408D894FF6A5
:1005C000FF7606EA85152C4384808283CD88A0F8C7
:1005D0004050038470BD0000002C014000340140F5
:1005E0000A460021818B4FF2FF7319404FF6FF73CB
:1005F00003EA022319438183704700000022028826
:100600001D4B98420ED01D4B98420BD0B0F1804F3D
:1006100008D01B4B984205D01A4B984202D01A4B77
:10062000984204D14FF68F731A404B881A43174BE8
:10063000984207D0164B984204D04FF6FF431A4019
:10064000CB881A4302808B8883850B8803850A4BED
:1006500098420BD0094B984208D00E4B984205D0D7
:100660000D4B984202D00D4B984201D10B7A038674
:100670000123838270470000002C014000340140B8
:100680000004004000080040000C00400010004042
:100690000014004000400140004401400048014077
:1006A00000BFFEE700BFFFF71BFF00BFFEE7000033
:1006B00038B505460C4605EB45012F4A02EB810192
:1006C00088680121FFF754FE05EB45002A4901EB3C
:1006D00080008088ADF80000042C06D104208DF83D
:1006E000030003208DF802003CE0482C06D148208E
:1006F0008DF8030003208DF8020033E0282C06D18A
:1007000028208DF8030003208DF802002AE0102C29
:1007100006D110208DF8030003208DF8020021E09F
:10072000142C06D114208DF8030003208DF802004C
:1007300018E01C2C06D11C208DF8030003208DF836
:1007400002000FE0182C06D118208DF803000320BA
:100750008DF8020006E02CB900208DF8030003207C
:100760008DF8020005EB4501034A52F82100694665
:10077000FFF75CFD38BD00007C0700080008014061
:100780000100000004000000000801400200000019
:100790000400000000080140040000000400000004
:1007A00000080140080000000400000000080140AB
:1007B00010000000040000000008014020000000BC
:1007C0000400000000080140400000000400000098
:1007D0000008014080000000040000000008014003
:1007E00000010000040000000008014000020000B9
:1007F00004000000000801400004000004000000A4
:10080000000801400008000004000000000801404A
:10081000001000000400000000080140002000005B
:100820000400000000080140004000000400000037
:10083000000801400080000004000000000C01409E
:100840000100000008000000000C01400200000050
:1008500008000000000C0140040000000800000037
:10086000000C01400800000008000000000C0140DE
:100870001000000008000000000C014020000000F3
:1008800008000000000C01404000000008000000CB
:10089000000C01408000000008000000000C014036
:1008A0000001000008000000000C014000020000F0
:1008B00008000000000C01400004000008000000D7
:1008C000000C01400008000008000000000C01407E
:1008D0000010000008000000000C01400020000093
:1008E00008000000000C014000400000080000006B
:1008F000000C0140008000000800000000100140D2
:100900000100000010000000001001400200000083
:100910001000000000100140040000001000000062
:10092000001001400800000010000000001001400D
:100930001000000010000000001001402000000026
:1009400010000000001001404000000010000000F6
:100950000010014080000000100000000010014065
:100960000001000010000000001001400002000023
:100970001000000000100140000400001000000002
:1009800000100140000800001000000000100140AD
:1009900000100000100000000010014000200000C6
:1009A0001000000000100140004000001000000096
:1009B000001001400080000010000000CC09000879
:0C09C00000000020600600002801000874
:04000005080000ED02
:00000001FF
