:020000040800F2
:100000005008002099010008AD0A00080707000801
:10001000A90A00086B050008771800080000000016
:10002000000000000000000000000000950F000824
:10003000A505000800000000550D0008811000080B
:10004000B3010008B3010008B3010008B3010008C0
:10005000B3010008B3010008B3010008B3010008B0
:10006000B3010008B3010008B3010008B3010008A0
:10007000B3010008B3010008B3010008B301000890
:10008000B3010008B3010008B3010008B301000880
:10009000B3010008B3010008B3010008B301000870
:1000A000B3010008B3010008B3010008B301000860
:1000B000B3010008B3010008B3010008B301000850
:1000C000B3010008B3010008B3010008B301000840
:1000D000B30100082D140008911400080115000850
:1000E000B3010008B3010008B301000800F002F8F2
:1000F00000F042F80AA090E8000C82448344AAF180
:100100000107DA4501D100F037F8AFF2090EBAE87D
:100110000F0013F0010F18BFFB1A43F0010318473B
:100120002C1B00004C1B0000103A24BF78C878C17B
:10013000FAD8520724BF30C830C144BF04680C60ED
:10014000704700000023002400250026103A28BF35
:1001500078C1FBD8520728BF30C148BF0B60704739
:10016000782900F0B780732900F0AB810020704738
:100170001FB51FBD10B510BD00F0BEF91146FFF749
:10018000F7FF01F0A7FB00F0DCF903B4FFF7F2FF83
:1001900003BC00F0E3F90000094880470948004724
:1001A000FEE7FEE7FEE7FEE7FEE7FEE7FEE7FEE727
:1001B000FEE7FEE704480549054A064B7047000084
:1001C00085100008ED0000085002002050080020B3
:1001D00050040020500400200FB4044910B503AAB5
:1001E000029800F073F910BC5DF814FB3000002099
:1001F0000FB41CB5074B06AA7B44694600900598CE
:1002000000F035F90020694600F044F91CBC5DF8A7
:1002100014FB0000990200002DE9F0410E4604464F
:10022000002020622046E168884730B3252805D0A9
:10023000D4E901219047206A401CF2E7E16820469A
:1002400000278847050018D0A5F14100192802D8D9
:1002500020354FF400673246294620462760FFF7D5
:100260007FFF40B1012804D0F61D26F007060836AE
:10027000D8E7361DD6E72846DAE7206ABDE8F081E0
:1002800070B50C460546012A05D02878800600D5B1
:10029000EA69002302E0012305E05B1C934202D2DD
:1002A000E05C0028F9D1A869E618C01AA861286A9C
:1002B000184428622846AFF3008004E0D5E9012104
:1002C00014F8010B9047B442F8D32846AFF30080EE
:1002D00070BD000070B504460D4621461068AFF3AE
:1002E00000802188090502D50F4A7A4402E00E4AAF
:1002F0007A440E32002104F1240305E000F00F06D9
:100300000009965D5E54491C0028F7D1207800232F
:10031000000704D5702D02D009B102231132204606
:10032000BDE8704000F045B8361900004FF0013CC0
:1003300050F8042B51F8043B9A4221D1A2EB0C0354
:10034000934313EACC1317D150F8042B51F8043B14
:100350009A4215D1A2EB0C03934313EACC130BD1B1
:1003600050F8042B51F8043B9A4209D1A2EB0C033C
:10037000934313EACC13DBD04FF00000704700BF6B
:10038000D01A01BAB1FA81F101F0180122FA01F094
:10039000CB40C1F12001DBB2C0B2C01A2CFA01F38C
:1003A000D11A914311EAC311E6D1704770477047E3
:1003B00070472DE9F0470D4699469246044600F1F4
:1003C00024080168880604D5E06921F01001216045
:1003D00000E00120A84201DD471B00E00027A169E1
:1003E0007A1902EB0900081AA0612078C00602D42D
:1003F0002046AFF30080002608E0D4E901211AF876
:1004000006009047206A401C761C20624E45F4DBB3
:100410002078C0060AD52046AFF3008006E0D4E974
:10042000012130209047206A401C2062381EA7F12D
:100430000107F4DC07E0D4E9012118F80500904732
:10044000206A401C2062281EA5F10105F3DC20462D
:10045000AFF300802078000602D50220BDE8F087C7
:100460000120FBE701694A1C02610878704700B56A
:100470008FB0CDE901310021059105497944CDE9DD
:10048000031011466846FFF7C7FE0FB000BD00001D
:10049000E5FFFFFF0A6802F8010B0A60704710B51C
:1004A000436913B1AFF3008001E0FFF7E9FE0120DB
:1004B00010BD127800F124010A7000224A70012256
:1004C000EDE711684FF0FF32E9E70000074B70B528
:1004D0000D467B44FFF7CBFF0446284600F008F8A2
:1004E00010B14FF0FF3070BD204670BDE713000023
:1004F000007B00F080007047754600F02BF8AE4698
:1005000005006946534620F00700854618B020B51F
:10051000FFF750FEBDE820404FF000064FF0000707
:100520004FF000084FF0000B21F00701AC46ACE89B
:10053000C009ACE8C009ACE8C009ACE8C0098D4608
:10054000704710B50446AFF300802046BDE8104068
:10055000FFF71BBE00487047EC010020014918203E
:10056000ABBEFEE726000200704700BFFEE70000BA
:100570000EB50121042000F0EFFB0020ADF80200D1
:100580004FF6FF70ADF804000220ADF80000002027
:100590008DF808006946024800F0F0FE0EBD00002C
:1005A000000800407047000010B5FFF7E1FF01218F
:1005B000094800F097FD0021074800F0DDFE00BF6C
:1005C000054800F0AAFD48F6A0418842F8DB00216A
:1005D000014800F087FD10BD0008004010B504463A
:1005E00001E0FFF7E1FF201EA4F10104F9D110BDE5
:1005F0002DE9F041024600250026002000230024BA
:10060000002791F803C00CF00F0591F803C00CF01F
:10061000100CBCF1000F03D091F802C04CEA0505A4
:1006200091F800C0BCF1000F31D0146800202BE01D
:100630004FF0010C0CFA00F3B1F800C00CEA03060D
:100640009E4220D183004FF00F0C0CFA03F7BC43FD
:1006500005FA03FC4CEA040491F803C0BCF1280F2E
:1006600006D14FF0010C0CFA00FCC2F814C00AE0ED
:1006700091F803C0BCF1480F05D14FF0010C0CFA02
:1006800000FCC2F810C0401C0828D1D31460B1F897
:1006900000C0BCF1FF0F34DD546800202EE000F1F3
:1006A000080C4FF0010808FA0CF3B1F800C00CEA8E
:1006B00003069E4221D183004FF00F0C0CFA03F782
:1006C000BC4305FA03FC4CEA040491F803C0BCF1F6
:1006D000280F05D100F1080C08FA0CF8C2F81480B4
:1006E00091F803C0BCF1480F07D100F1080C4FF09E
:1006F000010808FA0CF8C2F81080401C0828CED374
:100700005460BDE8F08100BFFEE710B5142000F092
:10071000C3F8044604F0030018B90321142000F0C4
:100720000DF910BD2DE9FC410446002700210D20E4
:1007300000F0A6F9932020702020607001A82346C5
:100740000222214600900C2000F005F906465EB911
:10075000002503E0605D4740681CC5B2042DF9DB4D
:10076000605DB84200D002263046BDE8FC812DE92C
:10077000F0410746884615460421052000F039F867
:1007800080210A2000F0DAF8002405E0395D092014
:1007900000F076F9601CC4B24445F7DB0321012068
:1007A00000F06EF9FF2400BF052000F075F8064642
:1007B000601EC4B21CB106F004000028F4D0222050
:1007C00000F06AF82870212000F066F86870BDE833
:1007D000F08170B504462146262000F074F80546E5
:1007E0001DB92046FFF79EFF054600F00FF828468A
:1007F00070BD70B505460C46284600F04DF820EA5D
:1008000004063146284600F03BF970BD0EB5502075
:100810008DF8040000208DF805000DF1060202217C
:1008200001A8FFF7A4FF02A801AB042201A90090D0
:100830000C2000F090F80EBD10B51021154800F006
:100840004DFB10211C2001F067F801211C2001F054
:1008500015F800F051F88D212A2000F011F93E2101
:100860002B2000F00DF91E212D2000F009F90021A8
:100870002C2000F005F97021262000F001F940211C
:10088000152000F0FDF83D21112000F0F9F8FFF7E8
:100890003CFF10BD0038004070B5044600211C200C
:1008A00000F0ECFF7E2101EA440141F0800000F0FD
:1008B00029F8002000F026F8054601211C2000F050
:1008C000DDFF284670BD7CB506460C4607210D208D
:1008D00000F0D6F8267001A8234601222146009098
:1008E0000C2000F038F805461DB9BDF804001028AA
:1008F00000D0022528467CBD10B50F21012000F054
:10090000BFF810BD10B5044600BF02210A4800F030
:10091000B9FA0028F9D02146074800F0BFFA00BF15
:100920000121054800F0AEFA0028F9D0024800F095
:10093000B2FAC0B210BD00000038004070B50546E4
:100940000C462846FFF7A8FF40EA04063146284631
:1009500000F096F870BD2DE9FE4F06468846914698
:100960009A46DDF830B002200290002001900090FD
:100970000C2E06D00E2E09D11220019010200090CE
:1009800005E0772001903020009000E000BF00BF1C
:10099000019840F08001022000F072F880210420CC
:1009A000FFF727FF80210A20FFF7C8FF0021012061
:1009B00000F066F8002506E018F80510092000F0A0
:1009C0005FF8681C85B24D45F6DB3146012000F02A
:1009D00057F80C2E03D180210D20FFF7AFFF4FF405
:1009E000FA6500BF0420FFF757FF0446681E85B272
:1009F00035B104F0010018B9009820400028F1D06A
:100A000080210D20FFF7F5FE002D36D00620FFF7E0
:100A100043FF00F01B0070BB0020029001982040B3
:100A200000F0010008B1012002900C2E25D10A200F
:100A3000FFF732FF04460C20FFF72EFF00F00707F8
:100A40002FB1601E07EBC000ABF8000002E0E00031
:100A5000ABF8000004B90124102C00DD102400259F
:100A600006E00920FFF718FF0AF80500681C85B2A8
:100A7000A542F6DB01E0022002900298BDE8FE8F5D
:100A800070B504460D4600211C2000F0F7FE7E21C3
:100A900001EA4400FFF736FF2846FFF733FF012144
:100AA0001C2000F0EBFE70BD00BFFEE7704700F0B9
:100AB0001F02012191404209920002F1E022C2F896
:100AC000001170470EB52048FFF783FE002839D18A
:100AD0001D4800791C49C9781B4A9278CDE900214C
:100AE000029019484378027818A11C48FFF780FB50
:100AF0001A491BA0FFF770FB1B491848FFF716FCAB
:100B000000BB40F2B6301949088040F6FC00184995
:100B100008800A20FFF762FD40F6FC004FF080419C
:100B2000A1F8400040F2B6301149088040F6B830D4
:100B3000FFF754FD40F2B6300C49088040F6FC0047
:100B40000B4908800EBD00001C000020307825787D
:100B500025782578257825780000000040000020C1
:100B600049443A2025730A0021000020400000403B
:100B7000340400402DE9F04104460F4615461E4658
:100B80001C48844203D10121C01400F0F5F8B4F1EF
:100B9000804F03D10121084600F0DEF81648844258
:100BA00003D10121022000F0D7F81448844203D178
:100BB0000121042000F0D0F83946204600F048F822
:100BC000681E0F498880701E088000204880C880F9
:100BD0000872204600F0D2FB3946204600F012F899
:100BE0000121204600F08AFA0121204600F07AFA1D
:100BF000BDE8F081002C01400004004000080040E6
:100C0000B400002070B505460C4660200F490880EE
:100C100000200881012048801CB9284600F080FA95
:100C200013E0012C04D10949284600F0C5FA0CE074
:100C3000022C04D10549284600F010FB05E0032CE6
:100C400003D10249284600F059FB70BDA4000020E2
:100C500070B505460C463C4885421AD124B9182186
:100C6000082000F059FE6DE0012C04D11821092064
:100C700000F052FE66E0022C04D118210A2000F098
:100C80004BFE5FE0032C5DD118210B2000F044FEE9
:100C900058E0B5F1804F1AD124B91821002000F096
:100CA0003BFE4FE0012C04D11821012000F034FE5E
:100CB00048E0022C04D11821022000F02DFE41E072
:100CC000032C3FD11821032000F026FE3AE01F48F4
:100CD00085421AD124B91821062000F01DFE31E00A
:100CE000012C04D11821072000F016FE2AE0022C66
:100CF00004D11821102000F00FFE23E0032C21D195
:100D00001821112000F008FE1CE01148854219D17D
:100D100024B91821162000F0FFFD13E0012C04D1A6
:100D20001821172000F0F8FD0CE0022C04D1182146
:100D3000084600F0F1FD05E0032C03D1182119202D
:100D400000F0EAFD70BD0000002C014000040040EE
:100D5000000800407047000029B1064AD2690243EA
:100D6000044BDA6104E0034AD2698243014BDA6141
:100D7000704700000010024029B1064A9269024300
:100D8000044B9A6104E0034A92698243014B9A61E1
:100D9000704700000010024030B5002100220024FE
:100DA00000232D4D6D6805F00C0121B1042905D0FB
:100DB000082923D105E0294D056022E0274D056073
:100DC0001FE0254D6D6805F47012234D6D6805F424
:100DD0008034022505EB92421CB9214D5543056034
:100DE0000BE01D4D6D6805F400351DB11C4D5543DC
:100DF000056002E0194D5543056002E0174D05609E
:100E000000BF00BF144D6D6805F0F0010909154DD4
:100E10006B5C0568DD4045600F4D6D6805F4E06171
:100E2000090A104D6B5C4568DD4085600A4D6D68B0
:100E300005F46051C90A0B4D6B5C4568DD40C56027
:100E4000054D6D6805F44041890B074D6B5CC56825
:100E5000B5FBF3F5056130BD0010024000127A00C9
:100E600000093D00000000201000002021B1028890
:100E700042F04002028004E002884FF6BF731A403D
:100E8000028070470246002013890B400BB10120FD
:100E900000E00020704701468889704781817047D3
:100EA00010B50022028802F441520B884C8823437B
:100EB0008C882343CC8823430C8923434C892343C8
:100EC0008C892343CC8923431A430280838B4FF2BE
:100ED000FF74234083830B8A038210BD30B585B035
:100EE00004460D4601210846FFF746FF2748844285
:100EF00010D1012141F20400FFF73EFF1821052027
:100F000000F00AFD0421062000F006FD182107204C
:100F100000F002FD1E48844213D101210820FFF792
:100F20002BFF01218803FFF717FF18211D2000F078
:100F3000F3FC04211E2000F0EFFC18211F2000F01C
:100F4000EBFC0020ADF800004FF48270ADF8020019
:100F50000020ADF80400ADF80600ADF808004FF42D
:100F60000070ADF80A00ADF80C500020ADF80E008E
:100F70000720ADF8100069462046FFF791FF0121D8
:100F80002046FFF773FF05B030BD00000030014080
:100F900000380040704710B500F002F810BD0000A6
:100FA0000CB50020019000903348006840F4803078
:100FB0003149086000BF3048006800F400300090FC
:100FC0000198401C0190009818B90198B0F5A06FE5
:100FD000F1D12948006800F4003010B101200090E0
:100FE00001E0002000900098012843D123480068C8
:100FF00040F01000214908600846006820F0030016
:1010000008600846006840F0020008601A4840681E
:10101000194948600846406848600846406840F4FE
:10102000806048600846406820F47C1048600846AC
:10103000406840F4E81048600846006840F080705E
:10104000086000BF0C48006800F000700028F9D06C
:101050000948406820F00300074948600846406896
:1010600040F00200486000BF0348406800F00C00F8
:101070000828F9D10CBD00000010024000200240F9
:101080007047000010B51348006840F00100114996
:10109000086008464068104908400E494860084604
:1010A00000680E4908400B4908600846006820F4B3
:1010B000802008600846406820F4FE0048604FF435
:1010C0001F008860FFF767FF4FF000600449086069
:1010D00010BD0000001002400000FFF8FFFFF6FE08
:1010E00008ED00E021B1028842F00102028004E034
:1010F00002884FF6FE731A400280704731B1B0F893
:10110000442042F40042A0F8442005E0B0F8442016
:10111000C2F30E02A0F8442070470146888C704745
:1011200070B5002400220023058C4FF6FE76354072
:101130000584028C8388048B4FF68F752C40B51E76
:101140002C400D882C43751E2A400D892A434D885A
:101150002A43144DA8420BD0134DA84208D0134D7A
:10116000A84205D0124DA84202D0124DA84213D178
:101170004FF6F7752A404D892A434FF6FB752A40F2
:101180008D882A434FF6FF652B404FF6FF552B40C5
:101190008D892B43CD892B4383800483CD8885861D
:1011A000028470BD002C0140003401400040014029
:1011B000004401400048014070B500240022002393
:1011C000058C4FF6EF7635400584028C8388048BBE
:1011D00048F6FF752C404FF6FF452C400D884FF622
:1011E000FF7606EA05252C434FF6DF752A400D8968
:1011F00006EA05152A434D8806EA05152A43154DCA
:10120000A84202D0144DA8421DD14FF67F752A4046
:101210004D894FF6FF7606EA05152A434FF6BF754E
:101220002A408D8806EA05152A434FF6FF352B40E4
:101230004FF2FF752B408D8906EA85052B43CD893A
:1012400006EA85052B4383800483CD8805870284C5
:1012500070BD0000002C01400034014070B5002436
:1012600000220023058C4FF6FF6635400584028C72
:101270008388848B4FF68F752C404FF6FC752C407D
:101280000D882C434FF6FF552A400D894FF6FF7607
:1012900006EA05252A434D8806EA05252A43154D09
:1012A000A84202D0144DA8421DD14FF2FF752A402A
:1012B0004D894FF6FF7606EA05252A434FF6FF359E
:1012C0002A408D8806EA05252A434EF6FF752B40F5
:1012D0004DF6FF752B408D8906EA05152B43CD8908
:1012E00006EA05152B4383808483CD888587028495
:1012F00070BD0000002C01400034014070B5002298
:1013000000230024058C4EF6FF7635400584038CBF
:101310008488828B48F6FF752A404FF6FF452A40A5
:101320000D884FF6FF7606EA05252A434DF6FF7530
:101330002B400D8906EA05352B434D8806EA053515
:101340002B430B4DA84202D00A4DA84208D14BF6C0
:10135000FF752C408D894FF6FF7606EA85152C43E4
:1013600084808283CD88A0F84050038470BD000043
:10137000002C014000340140818470470022028823
:101380001D4B98420ED01D4B98420BD0B0F1804FB0
:1013900008D01B4B984205D01A4B984202D01A4BEA
:1013A000984204D14FF68F731A404B881A43174B5B
:1013B000984207D0164B984204D04FF6FF431A408C
:1013C000CB881A4302808B8883850B8803850A4B60
:1013D00098420BD0094B984208D00E4B984205D04A
:1013E0000D4B984202D00D4B984201D10B7A0386E7
:1013F0000123838270470000002C0140003401402B
:101400000004004000080040000C004000100040B4
:1014100000140040004001400044014000480140E9
:1014200010B50446204600F077F910BD10B540F223
:101430002551124800F0B5F8F0B11048FFF7F0FF61
:101440000F4908700846007823280AD101200D4969
:10145000086000200C490D4A126888540B49086046
:101460000AE0074800780849084A12688854074883
:101470000068401C0549086010BD000000380140AC
:101480003400002038000020BE0000203C00002076
:1014900010B540F22551154800F083F828B31348E1
:1014A000FFF7BEFF12490870084600780D280AD1E0
:1014B00001201049086000200F49104A1268885422
:1014C0000E49086011E00A4800780B490B4A12687F
:1014D00088540846094A1268815C044800F0BCF947
:1014E00006480068401C0549086010BD00440040E3
:1014F0003400002038000020BE0000203C00002006
:1015000010B540F22551154800F04BF828B31348A8
:10151000FFF786FF12490870084600780D280AD1A7
:1015200001201049086000200F49104A12688854B1
:101530000E49086011E00A4800780B490B4A12680E
:1015400088540846094A1268815C044800F084F90E
:1015500006480068401C0549086010BD004800406E
:101560003400002038000020BE0000203C00002095
:1015700021B1828942F40052828104E082894DF6D1
:10158000FF731A408281704702460020B1F5007F48
:1015900000D100BF13880B400BB1012000E00020F8
:1015A000704770B50246002400230025002040F655
:1015B0006A16B14200D100BFC1F3421501F01F030A
:1015C000012606FA03F3012D02D19689334006E085
:1015D000022D02D1168A334001E0968A33400C1264
:1015E000012606FA04F41688344013B10CB1012028
:1015F00000E0002070BDF0B5034600240026002561
:10160000002040F66A17B94200D100BF1846C1F366
:10161000421401F01F06012707FA06F5012C01D13B
:101620000C3004E0022C01D1103000E014301AB16B
:1016300007682F43076002E00768AF430760F0BD0B
:101640002DE9F04786B005460E460024A24600BFAD
:10165000A1460027B08900B100BF2F462C8A4CF666
:10166000FF700440F08804432C82AC894EF6F310DE
:101670000440B08831890843718908430443AC8130
:10168000AC8A4FF6FF400440B0890443AC8201A805
:10169000FFF782FB1F48874202D1DDF810A001E06E
:1016A000DDF80CA0A88900F4004040B10AEBCA00A4
:1016B00000EB0A1031684900B0FBF1F807E00AEBD3
:1016C000CA0000EB0A1031688900B0FBF1F8642011
:1016D000B8FBF0F004012009642101FB1089A889FE
:1016E00000F4004040B1322000EBC900B0FBF1F043
:1016F00000F00700044308E0322000EB09106421E9
:10170000B0FBF1F000F00F0004432C8106B0BDE8FF
:10171000F08700000038014001468888C0F30800C7
:101720007047C1F308028280704700007FB505460C
:101730000C46464885422BD101218803FFF71CFB4C
:101740001821092000F0E8F804210A2000F0E4F84C
:1017500000940020ADF80C000C20ADF80A00002029
:10176000ADF80800ADF80600ADF80400694628465B
:10177000FFF766FF012240F225512846FFF73BFFA5
:101780002520FFF794F901212846FFF7F1FE5CE0E0
:101790002F4885422BD101214804FFF7DDFA18219B
:1017A000022000F0B9F80421032000F0B5F80094FD
:1017B0000020ADF80C000C20ADF80A000020ADF8B8
:1017C0000800ADF80600ADF8040069462846FFF7AA
:1017D00037FF012240F225512846FFF70CFF262053
:1017E000FFF765F901212846FFF7C2FE2DE01948F1
:1017F00085422AD101218804FFF7AEFA1821192069
:1018000000F08AF804211A2000F086F800940020E5
:10181000ADF80C000C20ADF80A000020ADF808006F
:10182000ADF80600ADF8040069462846FFF708FF4A
:10183000012240F225512846FFF7DDFE2720FFF761
:1018400036F901212846FFF793FE7FBD003801409D
:10185000004400400048004070B504460D4629464B
:101860002046FFF75EFF00BF80212046FFF78CFE79
:101870000028F9D070BD00BFFEE7000010B50129B7
:101880000CD100EB40020C4B03EB8202928800EB80
:101890004003094C54F823301A610BE000EB40027E
:1018A000054B03EB8202928800EB4003024C54F894
:1018B00023305A6110BD0000E419000870B50446D9
:1018C0000D46E1B20248FFF7C7FF204670BD000099
:1018D000003801404FF416510D48FFF727FFFEF77F
:1018E000ABFF482344F6206203215006FFF742F97C
:1018F000482344F6206200210648FFF73BF91021F7
:101900002D2000F009F801E0FFF7DCF8FCE700000B
:10191000003801400004004038B505460C4605EB90
:1019200045012F4A02EB810188680121FFF724FA63
:1019300005EB45002A4901EB80008088ADF80000E6
:10194000042C06D104208DF8030003208DF802003A
:101950003CE0482C06D148208DF8030003208DF888
:10196000020033E0282C06D128208DF80300032044
:101970008DF802002AE0102C06D110208DF803000B
:1019800003208DF8020021E0142C06D114208DF8DC
:10199000030003208DF8020018E01C2C06D11C2047
:1019A0008DF8030003208DF802000FE0182C06D1FB
:1019B00018208DF8030003208DF8020006E02CB9F2
:1019C00000208DF8030003208DF8020005EB45018F
:1019D000034A52F821006946FEF70AFE38BD0000AE
:1019E000E4190008000801400100000004000000A4
:1019F000000801400200000004000000000801404F
:101A0000040000000400000000080140080000007D
:101A10000400000000080140100000000400000065
:101A20000008014020000000040000000008014000
:101A30004000000004000000000801408000000099
:101A40000400000000080140000100000400000044
:101A500000080140000200000400000000080140EE
:101A6000000400000400000000080140000800001D
:101A70000400000000080140001000000400000005
:101A800000080140002000000400000000080140A0
:101A90000040000004000000000801400080000039
:101AA00004000000000C01400100000008000000DC
:101AB000000C01400200000008000000000C014082
:101AC0000400000008000000000C014008000000B5
:101AD00008000000000C0140100000000800000099
:101AE000000C01402000000008000000000C014034
:101AF0004000000008000000000C014080000000D1
:101B000008000000000C0140000100000800000077
:101B1000000C01400002000008000000000C014021
:101B20000004000008000000000C01400008000054
:101B300008000000000C0140001000000800000038
:101B4000000C01400020000008000000000C0140D3
:101B50000040000008000000000C01400080000070
:101B6000080000000010014001000000100000000B
:101B700000100140020000001000000000100140B1
:101B800004000000100000000010014008000000E8
:101B900010000000001001401000000010000000C4
:101BA0000010014020000000100000000010014063
:101BB0004000000010000000001001408000000004
:101BC00010000000001001400001000010000000A3
:101BD0000010014000020000100000000010014051
:101BE0000004000010000000001001400008000088
:101BF0001000000000100140001000001000000064
:101C00000010014000200000100000000010014002
:101C100000400000100000000010014000800000A3
:101C20001000000030313233343536373839414214
:101C3000434445464030580030313233343536372E
:101C40003839616263646566403078006C1C000856
:101C5000000000204000000028010008AC1C000823
:101C600040000020100800004401000800000000AF
:101C7000010203040102030406070809020406081E
:101C80000000000000000000000000000030783478
:101C9000343837643934613530000000000000000A
:0C1CA00000000000000000000000000038
:04000005080000ED02
:00000001FF
