:020000040800F2
:10000000C80600208901000891010008930100083A
:100010009501000897010008990100080000000000
:100020000000000000000000000000009B0100082C
:100030009D010008000000009F010008A1010008C8
:10004000A3010008A3010008A3010008A301000800
:10005000A3010008A3010008A3010008A3010008F0
:10006000A3010008A3010008A3010008A3010008E0
:10007000A3010008A3010008A3010008A3010008D0
:10008000A3010008A3010008A3010008A3010008C0
:10009000A3010008A3010008A3010008A3010008B0
:1000A000A3010008A3010008A3010008A3010008A0
:1000B000E1090008A3010008A3010008A30100084A
:1000C000A3010008A3010008A3010008A301000880
:1000D000A3010008A3010008A3010008A301000870
:1000E000A3010008A3010008A301000800F002F822
:1000F00000F03AF80AA090E8000C82448344AAF188
:100100000107DA4501D100F02FF8AFF2090EBAE885
:100110000F0013F0010F18BFFB1A43F0010318473B
:100120003C0C00005C0C0000103A24BF78C878C179
:10013000FAD8520724BF30C830C144BF04680C60ED
:10014000704700000023002400250026103A28BF35
:1001500078C1FBD8520728BF30C148BF0B60704739
:100160001FB51FBD10B510BD00F06CF81146FFF7AC
:10017000F7FF00F0ADFD00F09EF803B4FFF7F2FFCB
:1001800003BC00F0A5F80000094880470948004773
:10019000FEE7FEE7FEE7FEE7FEE7FEE7FEE7FEE737
:1001A000FEE7FEE704480549054A064B7047000094
:1001B00081090008ED000008C8000020C8060020E2
:1001C000C8020020C80200200FB4044910B503AAD9
:1001D000029800F009F810BC5DF814FB4C000020F8
:1001E0007047704770470000074B70B50D467B4461
:1001F00000F011F80446284600F020F810B14FF046
:10020000FF3070BD204670BDC70A000001694A1C5E
:1002100002610878704700B58FB0CDE90131002147
:10022000059105497944CDE903101146684600F06F
:100230002EF80FB000BD0000E5FFFFFF007B00F0CF
:1002400080007047754600F03FF8AE4605006946ED
:10025000534620F00700854618B020B5FFF7A2FFEF
:10026000BDE820404FF000064FF000074FF00008B7
:100270004FF0000B21F00701AC46ACE8C009ACE838
:10028000C009ACE8C009ACE8C0098D4670472DE94B
:10029000F04106460024D6E90170F56880463046F4
:1002A00003E04146B847641C3046A8470028F8D10F
:1002B0002046BDE8F08110B50446AFF3008020462B
:1002C000BDE81040FFF759BF0048704764000020A8
:1002D00001491820ABBEFEE726000200704700006F
:1002E00008B50121042000F0B1F901210A4800F00D
:1002F00041F948208DF8030003208DF802004FF4E7
:100300001840ADF800006946044800F0A8F8FF2145
:10031000024800F084F908BD0002300000080140E6
:1003200010B512480068124908604FF400411148A6
:1003300000F068F90D4908600D480068012814D1E3
:100340000846006888B90CA0FFF73EFF00200C4962
:1003500008600C49086000220121880700F075FB45
:1003600000214FF0804000F053FB10BD44000020FE
:1003700048000020000801407273740A0000000069
:10038000000000200400002010B50F4800680F494D
:1003900008604FF400610E4800F034F90A49086023
:1003A0000A48006801280ED10846006858B909A01B
:1003B000FFF70AFF01221146900700F046FB0121DA
:1003C000880700F025FB10BD3C0000204000002005
:1003D0000008014073746172740A000010B510487F
:1003E0000068104908604FF480510F4800F00AF986
:1003F0000B4908600B48006801280FD108460068C7
:1004000060B90AA0FFF7E0FE00220121880700F092
:100410001CFB00214FF0804000F0FAFA10BD0000F4
:1004200034000020380000200008014073746F7011
:100430000A0000000CB5002101910CE000210091A0
:1004400002E00099491C00910099B1F5167FF8D996
:100450000199491C019101998142EFD30CBD2DE90D
:10046000F04102460025002600200023002400273A
:1004700091F803C00CF00F0591F803C00CF0100CBC
:10048000BCF1000F03D091F802C04CEA050591F8C9
:1004900000C0BCF1000F31D0146800202BE04FF0F9
:1004A000010C0CFA00F3B1F800C00CEA03069E42FE
:1004B00020D183004FF00F0C0CFA03F7BC4305FA70
:1004C00003FC4CEA040491F803C0BCF1280F06D1E8
:1004D0004FF0010C0CFA00FCC2F814C00AE091F8CD
:1004E00003C0BCF1480F05D14FF0010C0CFA00FC21
:1004F000C2F810C0401C0828D1D31460B1F800C065
:10050000BCF1FF0F34DD546800202EE000F1080C30
:100510004FF0010808FA0CF3B1F800C00CEA03062A
:100520009E4221D183004FF00F0C0CFA03F7BC431D
:1005300005FA03FC4CEA040491F803C0BCF1280F4F
:1005400005D100F1080C08FA0CF8C2F8148091F8F3
:1005500003C0BCF1480F07D100F1080C4FF00108AF
:1005600008FA0CF8C2F81080401C0828CED354605A
:10057000BDE8F081F0B50A460023002400210025E3
:1005800000F00046B6F1004F02D11D4EF16901E0C6
:100590001B4E7168C0F3034583B200F44016B6F5F4
:1005A000401F08D121F07061154E766826F0706604
:1005B000134F7E6012E000F48016B6F5801F06D15E
:1005C000032606FA05F4A14341F0706106E0460DEA
:1005D000360103FA06F6B14341F0706122B1460DCF
:1005E000360103FA06F6314300F00046B6F1004F3B
:1005F00002D1034EF16101E0014E7160F0BD0000D7
:10060000000001400246002093680B400BB101201E
:1006100000E0002070474161704701617047C16090
:1006200070470AB1016100E04161704729B1064A93
:10063000D2690243044BDA6104E0034AD26982437F
:10064000014BDA61704700000010024029B1064AF0
:1006500092690243044B9A6104E0034A926982431F
:10066000014B9A61704700000010024030B5002134
:100670000022002400232D4D6D6805F00C0121B1EE
:10068000042905D0082923D105E0294D056022E081
:10069000274D05601FE0254D6D6805F47012234D50
:1006A0006D6805F48034022505EB92421CB9214D9A
:1006B000554305600BE01D4D6D6805F400351DB117
:1006C0001C4D5543056002E0194D5543056002E09D
:1006D000174D056000BF00BF144D6D6805F0F001B7
:1006E0000909154D6B5C0568DD4045600F4D6D686F
:1006F00005F4E061090A104D6B5C4568DD408560DA
:100700000A4D6D6805F46051C90A0B4D6B5C456874
:10071000DD40C560054D6D6805F44041890B074D0E
:100720006B5CC568B5FBF3F5056130BD0010024098
:1007300000127A0000093D005000002060000020F7
:1007400008B501210420FFF781FF10208DF8030078
:1007500003208DF80200FF20ADF800006946044830
:10076000FFF77DFEFF2002490C31086008BD000044
:100770000008014010B5FFF731FEFFF705FEFFF757
:10078000CFFD4348006864280FD142480068401CF0
:1007900040490860084600683C2803D100200860F2
:1007A0003B49086000203A4908604FF400413A484C
:1007B000FFF731FF364800680A21B0FBF1F201FB78
:1007C0001200364931F8200084B221463448FFF740
:1007D00026FF0120FFF72EFE4FF400412E48FFF7C1
:1007E0001CFF4FF480412C48FFF715FF2848006894
:1007F0000A21B0FBF1F0294931F8200084B22146EA
:100800002748FFF70CFF0120FFF714FE4FF480414B
:100810002148FFF702FF4FF400511F48FFF7FBFE8E
:100820001C4800680A21B0FBF1F201FB12001B49D1
:1008300031F8200084B221461948FFF7F0FE00226B
:1008400080211748FFF7EDFE0120FFF7F3FD4FF47D
:1008500000511148FFF7E1FE4FF480510E48FFF7B9
:10086000DAFE0C4800680A21B0FBF1F00B4931F8C0
:10087000200084B221460A48FFF7D1FE0120FFF78D
:10088000D9FD4FF480510448FFF7C7FE10BD0000AA
:100890000000002004000020000C0140080000209F
:1008A0000008014008B501210820FFF7CFFE102005
:1008B0008DF8030003208DF802004FF47040ADF86E
:1008C000000069460148FFF7CAFD08BD000C014061
:1008D00010B500F001F810BD0CB50020019000909B
:1008E0002548006840F480302349086000BF224852
:1008F000006800F4003000900198401C01900098BE
:1009000018B90198B0F5A06FF1D11B48006800F448
:10091000003010B10120009001E00020009000980C
:10092000012828D11548006840F0100013490860DC
:100930000846006820F00300086008460068086068
:100940000D4840680C4948600846406848600846C1
:10095000406848600846406820F003004860084648
:10096000406840F00100486000BF0348406800F064
:100970000C000428F9D10CBD0010024000200240F8
:1009800010B51348006840F001001149086008469E
:100990004068104908400E494860084600680E4902
:1009A00008400B4908600846006820F48020086071
:1009B0000846406820F4FE0048604FF41F0088603D
:1009C000FFF786FF4FF000600449086010BD00008B
:1009D000001002400000FFF8FFFFF6FE08ED00E007
:1009E00010B50121880700F01FF820B10448006805
:1009F000401C034908600121880700F006F810BD7B
:100A000000000020CA4302827047CA430282704736
:100A100021B1028842F00102028004E002884FF610
:100A2000FE731A400280704730B502460020002352
:100A30000024158A05EA0103958905EA010413B12A
:100A40000CB1012000E0002030BD1AB183890B43B6
:100A5000838102E083898B4383817047002202886F
:100A60001D4B98420ED01D4B98420BD0B0F1804FD9
:100A700008D01B4B984205D01A4B984202D01A4B13
:100A8000984204D14FF68F731A404B881A43174B84
:100A9000984207D0164B984204D04FF6FF431A40B5
:100AA000CB881A4302808B8883850B8803850A4B89
:100AB00098420BD0094B984208D00E4B984205D073
:100AC0000D4B984202D00D4B984201D10B7A038610
:100AD0000123838270470000002C01400034014054
:100AE0000004004000080040000C004000100040DE
:100AF0000014004000400140004401400048014013
:100B000070B504460D462946204600F08DF800BF1A
:100B10008021204600F00FF80028F9D070BD21B1E7
:100B2000828942F40052828104E082894DF6FF738B
:100B30001A408281704702460020B1F5007F00D143
:100B400000BF13880B400BB1012000E0002070476C
:100B50002DE9F04786B005460E460024A24600BFA8
:100B6000A1460027B08900B100BF2F462C8A4CF661
:100B7000FF700440F08804432C82AC894EF6F310D9
:100B80000440B08831890843718908430443AC812B
:100B9000AC8A4FF6FF400440B0890443AC8201A800
:100BA000FFF764FD1F48874202D1DDF810A001E085
:100BB000DDF80CA0A88900F4004040B10AEBCA009F
:100BC00000EB0A1031684900B0FBF1F807E00AEBCE
:100BD000CA0000EB0A1031688900B0FBF1F864200C
:100BE000B8FBF0F004012009642101FB1089A889F9
:100BF00000F4004040B1322000EBC900B0FBF1F03E
:100C000000F00700044308E0322000EB09106421E3
:100C1000B0FBF1F000F00F0004432C8106B0BDE8FA
:100C2000F087000000380140C1F30802828070475D
:100C300000B585B001218803FFF708FD01210420DC
:100C4000FFF704FD18208DF813004FF40070ADF885
:100C5000100003208DF8120004A91548FFF7FFFBD0
:100C600004208DF813000002ADF8100003208DF869
:100C7000120004A90E48FFF7F2FB4FF41650009043
:100C80000020ADF80C000C20ADF80A000020ADF8F3
:100C90000800ADF80600ADF8040069460548FFF706
:100CA00057FF01210348FFF73AFF05B000BD0000E0
:100CB000000801400038014070B504460D46E1B21D
:100CC0000248FFF71DFF204670BD000000380140BC
:100CD000FFF736FDFFF7E6FDFFF702FBFFF7A8FF82
:100CE00000F00EF8002201218807FFF7AEFE002178
:100CF0004FF08040FFF78CFE01E0FFF73BFDFCE783
:100D00000EB501210846FFF791FC0020ADF8020066
:100D100040F2E730ADF804004F20ADF800000020AD
:100D20008DF8080069464FF08040FFF797FE0121DB
:100D30008807FFF767FE1C2000280DDB00BF00BFFF
:100D400000F01F02012191404209920002F1E022CD
:100D5000C2F8001100BF00BF00BF0EBD7C0D00082F
:100D6000000000206400000028010008E00D0008D9
:100D70006400002064060000440100080000000038
:100D800000000000C0000000F9000000A400000006
:100D9000B0000000990000009200000082000000F6
:100DA000F80000008000000090000000000000003B
:100DB000010000000100000001000000010000002F
:100DC0000100000001000000000000000000000021
:100DD00001020304010203040607080902040608CD
:04000005080000ED02
:00000001FF
