:020000040800F2
:10000000F8070020890100081D1500089109000863
:10001000191500089D030008A32C0008000000002B
:10002000000000000000000000000000731600083F
:10003000A1030008000000009F010008A1010008C2
:10004000A3010008A3010008A3010008A301000800
:10005000A3010008A3010008A3010008A3010008F0
:10006000A3010008A3010008A3010008A3010008E0
:10007000A3010008A3010008A3010008A3010008D0
:10008000A3010008A3010008A3010008A3010008C0
:10009000A3010008A3010008A3010008A3010008B0
:1000A000A3010008A3010008A3010008A3010008A0
:1000B000A3010008A3010008A3010008A301000890
:1000C000A3010008A3010008A3010008A301000880
:1000D000A3010008C12A0008252B0008952B000861
:1000E000A3010008A3010008A301000800F002F822
:1000F00000F03AF80AA090E8000C82448344AAF188
:100100000107DA4501D100F02FF8AFF2090EBAE885
:100110000F0013F0010F18BFFB1A43F0010318473B
:10012000704F0000904F0000103A24BF78C878C18B
:10013000FAD8520724BF30C830C144BF04680C60ED
:10014000704700000023002400250026103A28BF35
:1001500078C1FBD8520728BF30C148BF0B60704739
:100160001FB51FBD10B510BD00F064F81146FFF7B4
:10017000F7FF02F083FE00F082F803B4FFF7F2FF0E
:1001800003BC00F085F80000094880470948004793
:10019000FEE7FEE7FEE7FEE7FEE7FEE7FEE7FEE737
:1001A000FEE7FEE704480549054A064B7047000094
:1001B00091180008ED000008F8010020F807002061
:1001C000F8030020F803002010B5431C02E010F8EB
:1001D000011B71B18107FAD14FF0013202C88C1AAC
:1001E0008C4314EAC211F9D0C01A0A0603D0C01E0B
:1001F00010BDC01A10BD0A0401D0801E10BD090236
:10020000FCD0401E10BD70477047704710B500F01D
:1002100009F8006810BD10B5044600F003F804604A
:1002200010BD00000048704794010020004870474E
:10023000940100207546FFF7F9FFAE4605006946B8
:10024000534620F00700854618B020B5FFF7AAFFF7
:10025000BDE820404FF000064FF000074FF00008C7
:100260004FF0000B21F00701AC46ACE8C009ACE848
:10027000C009ACE8C009ACE8C0098D46704710B5AC
:100280000446AFF300802046BDE81040FFF775BF7D
:1002900001491820ABBEFEE72600020070472DE999
:1002A000F04107460C460026002509E036023919C0
:1002B000491B491E88B200F008F80644681CC5B204
:1002C000A542F3DB3046BDE8F08170B50446002658
:1002D00000F01CFC2546E11704EB11610912A02275
:1002E00002EB4101C8B200F0DDFB00F05BFCE1175E
:1002F00004EB11610912A4EB0121C8B200F0D2FB9A
:1003000000F050FC00F002FCA12000F0CBFB00F05C
:1003100049FC002000F08EFB064600F01DFC304634
:1003200070BD2DE9F04105460E461746002409E050
:10033000E20026FA02F2D1B22A1990B200F006F8D1
:10034000601CC4B2BC42F3DBBDE8F08170B504466A
:100350000E4600F0DBFB2546E11704EB11610912A4
:10036000A02202EB4101C8B200F09CFB00F01AFC95
:10037000E11704EB11610912A4EB0121C8B200F0EE
:1003800091FB00F00FFC304600F08CFB00F00AFC03
:1003900000F0E2FB0A2002F0E7FC70BD00BFFEE7C0
:1003A000704700003EB504464FF6FF7000F0A0FC19
:1003B0001F2000901F48028814230021084600F0E7
:1003C0002DFD1F2000901B48438802884088143868
:1003D00081B2002000F022FD4FF6FF701649088020
:1003E000012010211F234FF6FF72CDE9004102903A
:1003F0000221002000F0ACFA012010210FA2CDE96B
:10040000002102900B484088123881B21F234FF61A
:10041000FF72002000F09CFA4FF6FF700090054834
:100420004088143883B2034802881421002000F069
:10043000F5FC3EBD580000200000002050544954F7
:10044000204C41422041492D50484F544F4E494382
:10045000530000002DE9F04102460025002600204F
:1004600000230024002791F803C00CF00F0591F839
:1004700003C00CF0100CBCF1000F03D091F802C0C7
:100480004CEA050591F800C0BCF1000F31D01468AA
:1004900000202BE04FF0010C0CFA00F3B1F800C083
:1004A0000CEA03069E4220D183004FF00F0C0CFA99
:1004B00003F7BC4305FA03FC4CEA040491F803C0BB
:1004C000BCF1280F06D14FF0010C0CFA00FCC2F869
:1004D00014C00AE091F803C0BCF1480F05D14FF0F9
:1004E000010C0CFA00FCC2F810C0401C0828D1D343
:1004F0001460B1F800C0BCF1FF0F34DD5468002077
:100500002EE000F1080C4FF0010808FA0CF3B1F8E6
:1005100000C00CEA03069E4221D183004FF00F0C6D
:100520000CFA03F7BC4305FA03FC4CEA040491F807
:1005300003C0BCF1280F05D100F1080C08FA0CF833
:10054000C2F8148091F803C0BCF1480F07D100F144
:10055000080C4FF0010808FA0CF8C2F81080401C93
:100560000828CED35460BDE8F0810000F0B50A46FB
:10057000002300240021002500F00046B6F1004FC2
:1005800002D11D4EF16901E01B4E7168C0F30345B5
:1005900083B200F44016B6F5401F08D121F0706117
:1005A000154E766826F07066134F7E6012E000F4F8
:1005B0008016B6F5801F06D1032606FA05F4A1437E
:1005C00041F0706106E0460D360103FA06F6B143CC
:1005D00041F0706122B1460D360103FA06F631434F
:1005E00000F00046B6F1004F02D1034EF16101E088
:1005F000014E7160F0BD0000000001400246002085
:1006000093680B400BB1012000E000207047000010
:100610002DE9FC5F0546884691469A46DDF830B0E4
:1006200000953E20019000245FE004EB0410374960
:1006300011F810009BF80010884253D104EB04100D
:10064000324901EB400040789BF80110884249D1C3
:1006500008F10F0083B205F10F0082B2414628462F
:1006600000F070FD00263BE0002734E00D9890B9C3
:1006700004EB0410254901EB4000801C805D8021C3
:100680003941084018B1484600F02AFF21E05046A1
:1006900000F026FF1DE01E48A0F8009004EB0410B7
:1006A0001A4901EB4000801C805D802139410840DF
:1006B00018B14146284600F0A3FB681C85B200989B
:1006C000281A102805D1009D08F101001FFA80F8B2
:1006D00003E0781CC7B2082FC8DB00BF701CC6B28D
:1006E000202EC1DB00BF601C84B2019884429CDBD9
:1006F00008484088401E83B206480088401E82B2E7
:100700000021084600F01EFDBDE8FC9FCA4300081A
:1007100000000020580000202DE9FC5F05468846B7
:1007200091469A46DDF830B00095072001900024EC
:1007300067E004EB840000EB44103A4911F8100024
:100740009BF80010884259D104EB840000EB441060
:10075000344901EB400040789BF8011088424DD1AC
:1007600008F1170083B205F1170082B2414628460E
:1007700000F0E8FC00263FE0002738E00D98A0B923
:1007800004EB840000EB4410264901EB4000801C80
:10079000805D80213941084018B1484600F0A0FE34
:1007A00023E0504600F09CFE1FE01F48A0F8009098
:1007B00004EB840000EB44101A4901EB4000801C5C
:1007C000805D80213941084018B14146284600F03B
:1007D00017FB681C85B20098281A182805D1009DBF
:1007E00008F101001FFA80F803E0781CC7B2082F57
:1007F000C4DB00BF701CC6B2482EBDDB00BF601C4E
:1008000084B20198844294DB08484088401E83B239
:1008100006480088401E82B20021084600F092FC83
:10082000BDE8FC9F064C0008000000205800002096
:100830002DE9FC5F0546884691469A46DDF830B0C2
:1008400000950420019000245FE004EB84103749F8
:1008500011F810009BF80010884253D104EB84106B
:10086000324901EB400040789BF80110884249D1A1
:1008700008F11F0083B205F11F0082B241462846ED
:1008800000F060FC00263BE0002734E00D9890B9B2
:1008900004EB8410254901EB4000801C805D802121
:1008A0003941084018B1484600F01AFE21E0504690
:1008B00000F016FE1DE01E48A0F8009004EB841026
:1008C0001A4901EB4000801C805D802139410840BD
:1008D00018B14146284600F093FA681C85B200988A
:1008E000281A202805D1009D08F101001FFA80F880
:1008F00003E0781CC7B2082FC8DB00BF701CC6B26B
:10090000802EC1DB00BF601C84B2019884429CDB56
:1009100008484088401E83B206480088401E82B2C4
:100920000021084600F00EFCBDE8FC9F0C4E0008BC
:10093000000000205800002070B505460E46144601
:100940003146284600F0F4FBA0B200F0C9FD70BDAE
:100950002DE9FE4F0E4617469846DDE90D9A0C9C90
:100960002046FFF731FC85B208490988A1EBC50094
:1009700000EBD071C1F34F0B43463A46314658461F
:100980008DE8100600F0EAFEBDE8FE8F580000205A
:1009900000BFFEE710B500200F4908600F4840680F
:1009A00020F470400D4948600846406840F44050CB
:1009B000486000200A49C1F8AC01022002F0F2F9B7
:1009C000012005490860022002F0ECF900200449EA
:1009D000C1F8B00110BD0000B0012242001001407A
:1009E0000000224210B500200F4908600F484068FF
:1009F00020F470400D4948600846406840F440507B
:100A0000486001200A49C1F8AC01022002F0CAF98D
:100A1000012005490860022002F0C4F900200449C1
:100A2000C1F8B00110BD0000B00122420010014029
:100A30000000224270B5054600241748406820F4A3
:100A40007040154948600846406840F400404860DE
:100A5000002616E0002011490860022002F0A2F9E9
:100A600001200F49C1F8B0016006040E0B4884381C
:100A7000006808B1601CC4B2012002F093F9701C38
:100A8000C6B2082EE6DB15B9FFF7ACFF01E0FFF7B1
:100A900081FF204670BD000000100140B0012242DD
:100AA0000000224270B504461548406820F47040AA
:100AB000134948600846406840F4405048600020B0
:100AC00010490860002517E0E0090E49091F086079
:100AD0006006040E022002F065F901200A49C1F8FF
:100AE000B001022002F05EF90020064908600220F1
:100AF00002F058F9681CC5B2082DE5DB70BD000096
:100B000000100140B00122420000224210B50F48FF
:100B1000406820F470400D4948600846406840F441
:100B20004050486001200A4908600A49C1F8B001F4
:100B3000042002F037F9002005490860042002F083
:100B400031F900200349C1F8B00110BD0010014087
:100B5000AC0122420000224210B50F48406820F448
:100B600070400D4948600846406840F44050486075
:100B700000200A4908600A49C1F8AC01042002F0CB
:100B800011F90120054908600549C1F8AC010420AC
:100B900002F008F910BD000000100140B00122422F
:100BA0000000224210B500241448406820F4704030
:100BB000124948600846406840F4004048600120FF
:100BC0000F49086002F0EEF801200E49C1F8B001AB
:100BD00002F0E8F807E0601CC4B2FA2C03DDFFF76E
:100BE000BBFF012010BD0648803800680028F2D104
:100BF0000349091D086000BFF4E700000010014030
:100C0000AC012242000022422DE9FE4304460D467B
:100C100016461F46DDE90A8910E00122102314F868
:100C2000010BCDE9013200904B463A463146284649
:100C300000F0B4FA082000FB0850C5B22078002864
:100C4000EBD1BDE8FE83000010B5012000F006FCEA
:100C500001A0FFF7A7FB10BD444F2056414E205482
:100C60004841490008B50121042000F069FC012138
:100C70000648FFF77BFC0720ADF8000048208DF800
:100C8000030069460248FFF7E5FB08BD000230009B
:100C90000008014010B501211448FFF7AFFC50B126
:100CA00002211248FFF7AAFC28B104210F48FFF7E0
:100CB000A5FC012818D10A2002F056F801210B48A2
:100CC000FFF79CFC08B9012010BD02210748FFF77F
:100CD00095FC08B90220F7E704210448FFF78EFCD1
:100CE000012801D10320EFE70020EDE700080140D3
:100CF00070B5064614484088401E83B212480088EA
:100D0000401E82B20021084600F01CFA4FF4007029
:100D10000E4908604010091F086000240AE0002501
:100D200003E0304600F0DCFB6D1C07480088A84259
:100D3000F7D8641C04484088A042F0D84FF40070F3
:100D40000249091F086070BD58000020140C0140C2
:100D50002DE9FF4F85B081468A460020049003901C
:100D60000798A0EB09050898A0EB0A06CDF80890B3
:100D7000CDF804A0002D01DD012705E00DB9002705
:100D800002E04FF0FF376D42002E02DD4FF0010808
:100D900006E016B94FF0000802E04FF0FF38764247
:100DA000B54201DD2C4600E034464FF0000B21E057
:100DB000019A91B2029A90B200F022F80498284465
:100DC00004900398304403900498A04205DD0498F1
:100DD000001B04900298384402900398A04205DD5D
:100DE0000398001B03900198404401900BF101000F
:100DF0001FFA80FB601C8345DADD09B0BDE8F08F87
:100E000070B504460D462946204600F091F9024887
:100E1000008800F065FB70BD000000202DE9F84F50
:100E200004460D4616461F46DDF828A0301B401C20
:100E30001FFA80FB781B401C80B200903B46324674
:100E40002946204600F07EF94FF0000810E04FF0F0
:100E5000000907E01FFA8AF000F042FB09F10100E7
:100E60001FFA80F9D945F5DB08F101001FFA80F877
:100E700000988045EBDB07484088401E83B2054858
:100E80000088401E82B20021084600F05BF9BDE8F0
:100E9000F88F00005800002008B50121082000F05C
:100EA0004FFB4FF4B850ADF8000003208DF802005E
:100EB00010208DF8030069460148FFF7CBFA08BD02
:100EC000000C014010B500F04BFBFFF7E5FF00F010
:100ED0001BF9CF2000F09AFA002000F07FFAD92009
:100EE00000F07CFA302000F079FAED2000F08EFA64
:100EF000642000F073FA032000F070FA122000F072
:100F00006DFA812000F06AFAE82000F07FFA85206F
:100F100000F064FA102000F061FA7A2000F05EFA26
:100F2000CB2000F073FA392000F058FA2C2000F0A2
:100F300055FA002000F052FA342000F04FFA022057
:100F400000F04CFAF72000F061FA202000F046FA99
:100F5000EA2000F05BFA002000F040FA002000F0E8
:100F60003DFAC02000F052FA1B2000F037FAC120F1
:100F700000F04CFA122000F031FAC52000F046FAD9
:100F8000262000F02BFA262000F028FAC72000F0D7
:100F90003DFAB02000F022FA362000F037FA08209F
:100FA00000F01CFA3A2000F031FA552000F016FA51
:100FB000B12000F02BFA002000F010FA1A2000F007
:100FC0000DFAB62000F022FA0A2000F007FAA2205B
:100FD00000F004FAF22000F019FA002000F0FEF907
:100FE000262000F013FA012000F0F8F9E02000F0CC
:100FF0000DFA1F2000F0F2F9242000F0EFF9242070
:1010000000F0ECF90D2000F0E9F9122000F0E6F90B
:10101000092000F0E3F9522000F0E0F9B72000F0D9
:10102000DDF93F2000F0DAF90C2000F0D7F91520A7
:1010300000F0D4F9062000F0D1F90E2000F0CEF92E
:10104000082000F0CBF9002000F0C8F9E12000F002
:10105000DDF9002000F0C2F91B2000F0BFF91B20D1
:1010600000F0BCF9022000F0B9F90E2000F0B6F94A
:10107000062000F0B3F92E2000F0B0F9482000F06F
:10108000ADF93F2000F0AAF9032000F0A7F90A20EB
:1010900000F0A4F9092000F0A1F9312000F09EF938
:1010A000372000F09BF91F2000F098F92B2000F06A
:1010B000ADF9002000F092F9002000F08FF9012036
:1010C00000F08CF93F2000F089F92A2000F09EF909
:1010D000002000F083F9002000F080F9002000F0EB
:1010E0007DF9EF2000F07AF9112000F08FF97820D7
:1010F00001F03AFE292000F089F9012000F0AEF954
:10110000FFF7A2FD10BD000010B54FF48050074955
:101110000860642001F028FE4FF480500349091F45
:101120000860322001F020FE10BD0000140C0140C8
:1011300070B504460D462B4622462946204600F04F
:1011400001F870BD2DE9F04104460D4616461F46D4
:101150001149887A00F05AF9201200F03FF9E0B204
:1011600000F03CF9301200F039F9F0B200F036F935
:101170000949087B00F04AF9281200F02FF9E8B27B
:1011800000F02CF9381200F029F9F8B200F026F935
:1011900000F052F9BDE8F081580000202DE9FF4F22
:1011A00083B081468A469346DDE910644048008852
:1011B0000290A6F12000C6B204EBD47009EB6000E7
:1011C000401E82B20AEB0400401E83B251464846DC
:1011D0000194FFF7B7FF129850BB002525E00C2CB7
:1011E00007D106EB4600334901EB800010F805807B
:1011F00004E0314800EB061010F8058000270DE0F0
:1012000008F0010018B1584600F06AF902E00698AB
:1012100000F066F94FEA6808781CC7B204EBD47195
:10122000B7EB610FECDB681CC5B2A542D7DB2DE044
:10123000002529E00C2C07D106EB46001D4901EBE7
:10124000800010F8058004E01B4800EB061010F841
:101250000580002711E01648A0F800B008F0010052
:1012600038B10AEB050291B209EB070290B2FFF721
:10127000C7FD4FEA6808781CC7B204EBD471B7EB1E
:10128000610FE8DB681CC5B2A542D3DB08490298B0
:1012900008800A484088401E83B208480088401EE3
:1012A00082B200210846FFF74DFF07B0BDE8F08F7E
:1012B0000000002066390008DA3D000858000020D0
:1012C0002DE9FF4F83B0074691461E46109C4FF014
:1012D000000A002543E0701B401EC1B20A2001F045
:1012E000FFFDB9FBF0F00A21B0FBF1F201FB12089F
:1012F000BAF1000F1BD1701EA84218DDB8F1000F23
:1013000013D100202021A346CDE90014029004EB64
:10131000DB71491001FB057188B213490B88134931
:101320000A880499FFF73AFF17E04FF0010A0021FD
:1013300008F13000C0B2A346CDE90141009004EBB2
:10134000DB71491001FB057188B207490B88074919
:101350000A880499FFF722FF00BF681CC5B2B54296
:10136000B9DB07B0BDE8F08F0200002000000020CC
:101370002DE9FE4306460F4615461C46DDF828803B
:101380001DE013480088401EB04204DB104840882E
:10139000401EB84201DABDE8FE8320788DE82101C5
:1013A0000C4803880C48028839463046FFF7F6FEA1
:1013B000284605EBD07106EB61018EB2641C2078E3
:1013C0007E2802DC20782028DBDA00BFE3E700007B
:1013D00058000020020000200000002010B5044644
:1013E0004FF40070074908604010091F086021464B
:1013F000054800F02DF94FF400700249091F0860FC
:1014000010BD0000140C01400038004010B5044627
:101410004FF40070064908604010086021460548F6
:1014200000F016F94FF400700149091F086010BD63
:10143000140C01400038004010B50249087AFFF74B
:10144000E5FF10BD5800002070B505460C46284643
:10145000FFF7DCFFE0B2FFF7C1FF70BD10B5044637
:101460002A201E4948812B2088812C20088134B1F4
:10147000012C0FD0022C18D0032C2CD120E0F0200E
:10148000164908804FF4A070488008213620FFF7E5
:10149000DBFF21E04FF4A07010490880F020488065
:1014A00068213620FFF7D0FF16E0F0200B490880B6
:1014B0004FF4A0704880C8213620FFF7C5FF0BE02D
:1014C0004FF4A07005490880F0204880A8213620FC
:1014D000FFF7BAFF00E000BF00BF10BD58000020BA
:1014E00010B504464FF40070094908604010091F08
:1014F00008602112074800F0ABF8E1B2054800F09F
:10150000A7F84FF400700249091F086010BD0000E1
:10151000140C01400038004000BFFEE77047000097
:1015200029B1064AD2690243044BDA6104E0034A56
:10153000D2698243014BDA6170470000001002401B
:1015400029B1064A92690243044B9A6104E0034AB6
:1015500092698243014B9A6170470000001002407B
:1015600000B587B001210920FFF7EAFF4FF42040C2
:10157000ADF8040003208DF8060018208DF8070050
:1015800001A91C48FEF766FF4FF48040ADF8040047
:1015900048208DF8070003208DF8060001A91548A2
:1015A000FEF758FF01218803FFF7BAFF0020ADF8CE
:1015B00008004FF48270ADF80A000020ADF80C006E
:1015C000ADF80E00ADF810004FF40070ADF8120049
:1015D0000020ADF81400ADF816000720ADF8180093
:1015E00002A9054800F016F80121034800F006F8AA
:1015F00007B000BD000C01400038004021B1028856
:1016000042F04002028004E002884FF6BF731A40A5
:101610000280704710B50022028802F441520B8804
:101620004C8823438C882343CC8823430C89234351
:101630004C8923438C892343CC8923431A4302805A
:10164000838B4FF2FF74234083830B8A038210BD88
:10165000024600BF108900F002000028FAD09181F4
:1016600000BF108900F001000028FAD09089C0B2B4
:101670007047704710B500F001F810BD0CB50020A0
:10168000019000903348006840F480303149086090
:1016900000BF3048006800F4003000900198401C02
:1016A0000190009818B90198B0F5A06FF1D12948C0
:1016B000006800F4003010B10120009001E000202B
:1016C00000900098012843D12348006840F01000A2
:1016D000214908600846006820F0030008600846B9
:1016E000006840F0020008601A48406819494860E4
:1016F0000846406848600846406840F4806048609A
:101700000846406820F47C1048600846406840F471
:10171000E81048600846006840F08070086000BF2C
:101720000C48006800F000700028F9D009484068B3
:1017300020F00300074948600846406840F0020076
:10174000486000BF0348406800F00C000828F9D149
:101750000CBD000000100240002002402DE9FF4FA8
:1017600083B0064688469146DDE91147109DB24692
:101770004FF0000B71E0BBF1000F40D104EBD471CE
:10178000384A1288A2EB6101B14204DB354949882D
:10179000091B414502DA07B0BDE8F08F28788028A0
:1017A00002DD4FF0010B58E028780D2806D108EB38
:1017B00004001FFA80F856466D1C1EE0102C0DDD4B
:1017C000102128788DE883004A4641463046069B22
:1017D000FFF7E4FC06F1080086B20EE028788DE8F9
:1017E00091004A4641463046069BFFF7D7FC20460B
:1017F00004EBD07106EB61018EB26D1C2DE019482F
:101800000088001BB04204DB16484088001B40459E
:1018100000DAC0E74FF0000B202C08D1CDE90057CB
:101820004A4641463046069BFFF702F812E0182C64
:1018300008D1CDE900574A4641463046069BFEF79F
:101840006BFF07E0CDE900574A4641463046069B0C
:10185000FEF7DEFEAD1C301986B2287800288AD14A
:1018600000BF98E758000020042808D14FF0E0217D
:10187000096941F004014FF0E022116107E04FF0E7
:10188000E021096921F004014FF0E0221161704765
:1018900010B51348006840F001001149086008467F
:1018A0004068104908400E494860084600680E49E3
:1018B00008400B4908600846006820F48020086052
:1018C0000846406820F4FE0048604FF41F0088601E
:1018D000FFF7D0FE4FF000600449086010BD000023
:1018E000001002400000FFF8FFFFF6FE08ED00E0E8
:1018F0002DE9F84F04460D4617461E46DDE90CABB0
:10190000DDE90A894FF4784049490880012049A35C
:1019100010228C2100902820FFF72AFD012046A3E9
:1019200010228C2100907820FFF722FD012043A394
:101930001022A02100902820FFF71AFD012040A3CB
:101940001022A02100907820FFF712FD01203DA376
:101950001022B42100902820FFF70AFD01203AA3AD
:101960001022B42100907820FFF702FD012037A358
:101970001022C82100902820FFF7FAFC012034A390
:101980001022C82100907820FFF7F2FC012031A33B
:101990001022DC2100902820FFF7EAFC102004230D
:1019A00022468C2100904020FFF78AFC102004235F
:1019B0002A468C2100909020FFF782FC10200423FF
:1019C0003A46A02100904020FFF77AFC1020042323
:1019D0003246A02100909020FFF772FC10200423D3
:1019E0004246B42100904020FFF76AFC10200423F7
:1019F0004A46B42100909020FFF762FC1020042397
:101A00005246C82100904020FFF75AFC10200423C2
:101A10005A46C82100909020FFF752FC1020032363
:101A20000090DC2160200E9AFFF74AFCBDE8F88F99
:101A30000000002078313A0079313A0078323A00DB
:101A400079323A0078333A0079333A0078343A0000
:101A500079343A006661632069733A0000B595B045
:101A6000002010900A9010901F20FA4908804FF62D
:101A7000FF70F9490880FFF73BF94FF47840F549CA
:101A800008804FF6FF70FFF733F90020F149088016
:101A90000120F2A31022282100900A20FFF768FC01
:101AA0000120F5A31022382100900A20FFF760FCE6
:101AB0000120F8A31022482100900A20FFF758FCCB
:101AC0000120FBA31022582100900A20FFF750FCB0
:101AD0000120FEA31022682100900A20FFF748FC95
:101AE0004FF478421421084600F04AFC0020FB49DC
:101AF0000875886142E2F948406809900120099917
:101B00008847F648007D00F0C00040287AD10020C8
:101B10000A90F248007D20F04000F0490875084620
:101B2000018A11AA109822F82010EC48418A1098D6
:101B300002EB800041801098401CC0B210901098B9
:101B4000012806D0022815D0032829D0042810D156
:101B500041E04FF6FF721421084600F011FCE04806
:101B60000088143880B24FF478421421099000F0B4
:101B700007FCA9E3DA480088143880B24FF6FF72F8
:101B80001421099000F0FCFBD5484088143880B23D
:101B90004FF4784201460990142000F0F1FB93E3E2
:101BA000CF484088143880B24FF6FF720146099042
:101BB000142000F0E5FBCA484088143880B2099030
:101BC000C7480088143880B24FF4784208900999C9
:101BD00000F0D6FB78E3BDF84400BDF84810401A89
:101BE0000990002801DB099801E0099840420D9016
:101BF000BDF8461011A8C088081A0990002802DB19
:101C0000099802E061E3099840420C900D98404326
:101C10000D900C9840430C90DDE90C1008440590A1
:101C200001F0E9F9CDE9060101F065F9CDE9080116
:101C300001F0B4F980B20F90BDF84C00BDF850101F
:101C4000401A0990002801DB099801E009984042F8
:101C50000D9011A84189C089081A0990002801DB5C
:101C6000099801E0099840420C900D9840430D906E
:101C70000C9840430C90DDE90C100844059001F0ED
:101C8000BAF9CDE9060101F036F9CDE9080101F014
:101C900085F980B20E900E9801F010FD09900F9812
:101CA00001F00CFD0890099901F0F2FB0B900B98E4
:101CB00001F060FB4FF066328A4BCDE9080101F07C
:101CC000ADF90DD30B9801F055FB874A874BCDE951
:101CD000080101F033FA03D30F9808B10E98E8BB5E
:101CE000002010907E484088143880B209907C48CB
:101CF0000088143880B24FF6FF720890099900F0FE
:101D00003FFB4FF478421421084600F039FB784934
:101D10000B9801F0E7FC089001F098FC80B211A943
:101D20000990C989BDF8502011AB5B89CDE901321A
:101D3000CDE90310BDF84C00009011A8C0880890B0
:101D4000BDF848000790BDF846000690BDF8440075
:101D5000059006A90EC9FFF7CBFDEEE2FFE7BDF83F
:101D60004400BDF84C10401A0990002801DB099886
:101D700001E0099840420D90BDF8461011A8408935
:101D8000081A0990002801DB099801E009984042EF
:101D90000C900D9840430D900C9840430C90DDE959
:101DA0000C100844059001F026F9CDE9060101F078
:101DB000A2F8CDE9080101F0F1F880B20F90BDF86A
:101DC0004800BDF85010401A0990002801DB09981E
:101DD00001E0099840420D9011A8C188C089081AF5
:101DE0000990002801DB099801E0099840420C9015
:101DF0000D9840430D900C9840430C90DDE90C1079
:101E00000844059001F0F7F8CDE9060101F073F8F8
:101E1000CDE9080101F0C2F880B20E900E9801F0F1
:101E20004DFC09900F9801F049FC0890099901F0C8
:101E30002FFB0B900B9801F09DFA4FF06632294B67
:101E4000CDE9080101F0EAF85AD30B9801F092FAB3
:101E5000254A4FE00000002002000020506C656120
:101E600073652075736520746865207374796C756B
:101E70007320636C69636B007468652063726F73B1
:101E800073206F6E207468652073637265656E2EB3
:101E9000000000005468652063726F7373207769D7
:101EA0006C6C20616C77617973206D6F76650000D2
:101EB000756E74696C207468652073637265656EF5
:101EC0002061646A7573746D656E74006973206354
:101ED0006F6D706C657465642E0000000800002052
:101EE000580000206666EE3FCDCCCCCCCCCCF03F89
:101EF0000000C842FC4BCDE9080101F01FF93ED2B9
:101F000000201090F9484088143880B20990F748B2
:101F10000088143880B24FF6FF720890099900F0DB
:101F20002FFA4FF478421421084600F029FAF049BC
:101F30000B9801F0D7FB089001F088FB80B20146B6
:101F4000099011A8C089BDF8502011AB5B89CDE97B
:101F50000132CDE90301BDF84C00009011A8C08802
:101F60000890BDF848000790BDF846000690BDF8FF
:101F70004400059006A90EC9FFF7BAFCDDE1BDF8E3
:101F80004800BDF84C10401A0990002801DB099860
:101F900001E0099840420D9011A8C1884089081AB3
:101FA0000990002801DB099801E0099840420C9053
:101FB0000D9840430D900C9840430C90DDE90C10B7
:101FC0000844059001F017F8CDE9060100F093FFF1
:101FD000CDE9080100F0E2FF80B20F90BDF84400A7
:101FE000BDF85010401A0990002801DB099801E063
:101FF000099840420D90BDF8461011A8C089081AF2
:102000000990002801DB099801E0099840420C90F2
:102010000D9840430D900C9840430C90DDE90C1056
:102020000844059000F0E7FFCDE9060100F063FFEA
:10203000CDE9080100F0B2FF80B20E900E9801F0D9
:102040003DFB09900F9801F039FB0890099901F0C8
:102050001FFA0B900B9801F08DF94FF06632A54BEB
:10206000CDE9080100F0DAFF09D30B9801F082F9FD
:10207000A14A9D4BCDE9080101F060F83ED2002055
:1020800010909A484088143880B209909748008888
:10209000143880B24FF6FF720890099900F070F979
:1020A0004FF478421421084600F06AF990490B98E1
:1020B00001F018FB089001F0C9FA80B202460990BD
:1020C00011A8C189BDF8500011AB5B89CDE9013081
:1020D000CDE90312BDF84C00009011A8C08808900B
:1020E000BDF848000790BDF846000690BDF84400D2
:1020F000059006A90EC9FFF7FBFB1EE1BDF84800DD
:10210000BDF84410401A079001F0C0FA09907748D2
:1021100000882838079001F0B9FA0890099901F071
:10212000B7F976498861BDF84800BDF84410084405
:10213000049001F0ABFA0590704880690146049064
:10214000059801F0CFFA079068480088059001F0E3
:10215000B5FA0690079901F091FB4FF08041089085
:1021600001F096F9099001F055FA00B2634908842C
:1021700011A84089BDF84610401A079001F086FA70
:1021800009905A4840882838079001F07FFA089053
:10219000099901F07DF95949C86111A84089BDF834
:1021A00046100844049001F071FA05905348C06944
:1021B00001460490059801F095FA07904B48408835
:1021C000059001F07BFA0690079901F057FB4FF05C
:1021D0008041089001F05CF9099001F01BFA00B20F
:1021E0004649488408468069079001F013FA089030
:1021F000002801DB089801E00898404202280DDC25
:102200003E48C069079001F005FA0990002801DBFB
:10221000099801E00998404202283ADD0020109018
:1022200032484088143880B2099030480088143809
:1022300080B24FF6FF720890099900F0A1F84FF4B0
:1022400078421421084600F09BF801202CA31022AC
:102250001A2100902820FFF78BF8284890F82400D6
:1022600008B9012000E00020244981F82400084634
:1022700090F8240030B1902026490870D0202649DB
:10228000087005E0D020234908709020224908708A
:1022900053E01F20214908804FF6FF70FEF728FD0C
:1022A00001201FA310226E2100902320FFF760F869
:1022B0004FF47A7000F058FD00F01AFA4FF6FF70F4
:1022C000FEF716FD15B000BD00BF0A2000F04CFD62
:1022D0000A98401C80B20A900A98B0F57A7F2BDDEC
:1022E00000F08AF82BE00000CCCCF03F5800002032
:1022F0000000C8426666EE3FCDCCCCCC0800002082
:102300005450204E65656420726561646A7573740B
:1023100021000000300000203100002000000020DB
:10232000546F7563682053637265656E2041646AFB
:10233000757374204F4B210000BFFFF7DCBB00BF5B
:1023400000BFBFE770B504460D4616460B48068031
:1023500029462046FEF754FD611C88B22946FEF747
:102360004FFD681C81B22046FEF74AFD6A1C91B2FF
:10237000621C90B2FEF744FD70BD0000000000201A
:10238000F8B504460D4616461A48068004F10D01BC
:102390008AB2193988B22B462946FEF7D9FC05F1D5
:1023A0000D0083B2193881B222462046FEF7D0FCD8
:1023B0006A1C91B2621C90B2FEF722FD6A1C91B2B7
:1023C000621E90B2FEF71CFD6A1E91B2621C90B2B2
:1023D000FEF716FD6A1E91B2621E90B2FEF710FD66
:1023E000002006230090034802882946204600F07A
:1023F000F7FCF8BD0000002070B53520FDF765FF43
:1024000004460A2C42D104212820FDF748FF044647
:10241000204601F03BF905461D4901F039F81D49F8
:10242000886104212C20FDF73AFF0446204601F084
:102430002DF90546164901F02BF81649C86102210D
:102440003020FDF72CFF00B212490884022132200F
:10245000FDF725FF00B20F4948843420FDF735FF12
:102460000C4981F82400084690F8240030B19020EF
:1024700009490870D0200949087005E0D0200649B4
:102480000870902005490870012070BD0020FCE70D
:1024900020BCBE4C0800002030000020310000208D
:1024A00008B501210D20FFF74BF8A020ADF8000082
:1024B00010208DF8030003208DF8020069460E48B5
:1024C000FDF7C8FF0220ADF8000010208DF80300D2
:1024D00003208DF8020069460848FDF7BBFF502035
:1024E000ADF8000048208DF8030069460248FDF76A
:1024F000B1FF012008BD000000080140000C0140B0
:1025000070B506460025002400201D4908601D49BD
:10251000C1F89C011A4910390860304600F0A2F950
:10252000062000F03FFC00201649C1F8940101206C
:1025300000F038FC01201249086000201149C1F860
:10254000940100BF12E04FF6FF7000EA440400203F
:102550000B49086001200B49C1F8940108487C38F8
:10256000006808B1601C84B2681CC5B2102DEADB9B
:1025700024110120024910390860204670BD000076
:1025800094012242000022422DE9FE4380460027AA
:10259000002406E04046FFF7B3FF2DF81400601C4E
:1025A00084B2052CF6DB002416E0601C85B20FE037
:1025B0003DF814003DF81510884207DD3DF8146021
:1025C0003DF815002DF814002DF81560681C85B233
:1025D000052DEDDB601C84B2042CE6DB0027012412
:1025E00005E03DF81400384487B2601C84B2042C26
:1025F000F7DB032097FBF0F086B23046BDE8FE83A0
:102600002DE9F04104460D4607480078FFF7BCFF6E
:10261000064606480078FFF7B7FF074626802F805A
:102620000120BDE8F08100003000002031000020D2
:102630007FB504460D4602A903A8FFF7E1FF064651
:1026400016B9002004B070BD694601A8FFF7D8FF95
:1026500006460EB90020F5E7BDF80400BDF80C10E1
:10266000884206DCBDF80C10BDF80400323081420F
:102670000CDBBDF80C00BDF80410884236DCBDF858
:102680000410BDF80C00323081422FDABDF8000092
:10269000BDF80810884206DCBDF80810BDF800003F
:1026A000323081420CDBBDF80800BDF800108842D2
:1026B0001CDCBDF80010BDF808003230814215DA8C
:1026C000BDF80C10BDF80420881800EBD071C1F3E0
:1026D0004F012180BDF80810BDF80020881800EBDC
:1026E000D071C1F34F0129800120ABE70020A9E799
:1026F00070B51B4988691B4900F0F4FF054600F0DE
:1027000089FF0446042221462820FDF70AFE1449C9
:10271000C869144900F0E6FF054600F07BFF044657
:10272000042221462C20FDF7FCFD0D48B0F92010B5
:1027300002223020FDF7F5FD0948B0F922100222EF
:102740003220FDF7EEFD064890F824103420FDF706
:10275000FDFD0A2421463520FDF7F8FD70BD00007F
:102760000800002020BCBE4C2DE9F04104463B4847
:102770000068002853D124B13949881EFFF758FF5B
:102780003CE03749881EFFF753FFB8B3344912398C
:10279000B1F9200000F07AFF074631491239088A62
:1027A00000F08CFF80462E4812388169404600F0C8
:1027B00099FF0646394600F009FE054600F046FF3F
:1027C000274912390882B1F9220000F05FFF07465D
:1027D00023491239488A00F071FF80462048123898
:1027E000C169404600F07EFF0646394600F0EEFD26
:1027F000054600F02BFF1A49123948821848123852
:10280000007D00F0800010BBC0201549123908750A
:102810000846008A88810846408AC88117E0104827
:102820001238007D00F0800040B10D481238007D64
:1028300020F080000A491239087508E00020084994
:1028400012398881C8814FF6FF7008824882044897
:102850001238007D00F08000BDE8F08110012242B6
:102860001A000020002100BF15E000F080021AB11C
:1028700001220A4B1A6002E00022084B1A6042064D
:10288000100E0022054B083B1A600122044BC3F8CE
:1028900094214A1CD1B20829E7DB70479C012242EF
:1028A0000000224208B5002500260027FFF7F8FDAA
:1028B000FEF7D8F970A0FDF775FD0120764900906C
:1028C0000988183988B275A310220021FEF750FD3F
:1028D0004FF47840724908806F49009009881E398A
:1028E0008AB26D490988343988B212230221FEF771
:1028F00095FABFE0FEF7CEF904466A484168002029
:1029000088476848007D00F08000002879D065483D
:10291000008A61490988884276DA6248408A5E49BD
:102920004988884270DA5F48018A5B480088183815
:10293000814222DD5B48408A10281EDA4EA0FDF756
:1029400031FD0120544900900988183988B253A3F9
:1029500010220021FEF70CFD5148078000884E49E7
:10296000009009881E398AB24B490988343988B2E7
:1029700012230221FEF752FA46E04A48018A4648ED
:1029800000883C38814234DD4648018A424800884C
:102990001E3881422DDA4348408A142829DA05205E
:1029A00096FBF0F100FB11603F4931F810803A4985
:1029B000CDF8008009881E398AB237490988343930
:1029C00088B212230221FEF729FA3046711C8EB21A
:1029D000052190FBF1F201FB1200334931F81000A0
:1029E0002F490880084607880A2000F0BDF90BE04F
:1029F00007E02C4A518A108A294A1288FFF7A2FC64
:102A000002E00A2000F0B0F9012C26D14FF6FF7049
:102A1000FEF76EF9FFF722F8FFF76AFE16A0FDF742
:102A2000C1FC01201C4900900988183988B21BA3F9
:102A300010220021FEF79CFC194807801B480088E3
:102A40001549009009881E398AB21349098834391A
:102A500088B212230221FEF7E1F9681C85B21E2D0F
:102A600008D100251248006808B9012000E00020C4
:102A70000F4908603EE70000B2E2CAD4393A546F09
:102A800075636828B0B44B455930D0A3D7BC292012
:102A90002020202020000000580000205253540025
:102AA0000000002008000020380000200200002064
:102AB000A001214210B50446204600F0DAF810BD0E
:102AC00010B540F22551124800F0A9F8F0B11048B5
:102AD000FFF7F0FF0F4908700846007823280AD155
:102AE00001200D49086000200C490D4A12688854E5
:102AF0000B4908600AE0074800780849084A12684C
:102B0000885407480068401C0549086010BD000053
:102B1000003801404C0000205000002066000020DA
:102B20005400002010B540F22551154800F077F808
:102B300028B31348FFF7BEFF124908700846007813
:102B40000D280AD101201049086000200F49104AC1
:102B5000126888540E49086011E00A4800780B4951
:102B60000B4A126888540846094A1268815C044876
:102B700000F088F806480068401C0549086010BD50
:102B8000004400404C00002050000020660000205F
:102B90005400002010B540F22551154800F03FF8D0
:102BA00028B31348FFF786FF1249087008460078DB
:102BB0000D280AD101201049086000200F49104A51
:102BC000126888540E49086011E00A4800780B49E1
:102BD0000B4A126888540846094A1268815C044806
:102BE00000F050F806480068401C0549086010BD18
:102BF000004800404C0000205000002066000020EB
:102C00005400002002460020B1F5007F00D100BF33
:102C100013880B400BB1012000E00020704770B515
:102C20000246002400230025002040F66A16B14227
:102C300000D100BFC1F3421501F01F03012606FABF
:102C400003F3012D02D19689334006E0022D02D113
:102C5000168A334001E0968A33400C12012606FAA8
:102C600004F41688344013B10CB1012000E00020B8
:102C700070BD01468888C0F308007047C1F30802A0
:102C80008280704770B504460D4629462046FFF7FE
:102C9000F5FF00BF80212046FFF7B4FF0028F9D0E0
:102CA00070BD00BFFEE72DE9F04104460D46164613
:102CB0001F46DDF81880EA1991B2A21990B2424677
:102CC000FDF73AFEEA1991B2A21B90B24246FDF717
:102CD00033FEEA1B91B2A21990B24246FDF72CFED8
:102CE000EA1B91B2A21B90B24246FDF725FEAA193B
:102CF00091B2E21990B24246FDF71EFEAA1991B2B6
:102D0000E21B90B24246FDF717FEAA1B91B2E219F0
:102D100090B24246FDF710FEAA1B91B2E21B90B2A0
:102D20004246FDF709FEBDE8F081000010B50446FB
:102D30006FF00400FEF798FDE11704EB5171C1F349
:102D4000C701074A11701046007800EB4001C1EB43
:102D5000C0104FF6FF7101EAC0000249088010BDA3
:102D6000420000204400002001460D4A12884A43D8
:102D70004FF0E0235A6100229A6101221A6100BFDC
:102D80004FF0E022106900F001021AB100F4803225
:102D9000002AF5D000224FF0E0231A619A617047B3
:102DA0004400002001460D4A12784A434FF0E023C8
:102DB0005A6100229A6101221A6100BF4FF0E0229D
:102DC000106900F001021AB100F48032002AF5D037
:102DD00000224FF0E0231A619A6170474200002000
:102DE0002DE9FF4F81B0824617469846DDF838B08E
:102DF000002445464FEA4800C0F10306BBF1000F2E
:102E00001FD01BE0A14608E04B46224600975046E3
:102E10000299FFF748FF09F10109A945F4DD002EE9
:102E200004DA042000FB0460861D06E0601B042118
:102E300001FB006000F10A066D1E641CAC42E1DD7E
:102E400018E015E02B462246009750460299FFF7FE
:102E50002AFF002E04DA042000FB0460861D06E031
:102E6000601B042101FB006000F10A066D1E641C5A
:102E7000AC42E7DD05B0BDE8F08F00001CB5FEF701
:102E800007FD4820FFF752FFFEF71CF800F05AF844
:102E90004FF6FF70022100230A22CDE900101146EF
:102EA00008A0FDF7B1FE4FF6FF70022100231E229D
:102EB000CDE900100A2106A0FDF7A6FE01E0FFF70C
:102EC000F1FCFCE7546F75636873637265656E00AF
:102ED000546F75636820746F20647261770000001E
:102EE00010B50246012000E050430B1EA1F1010481
:102EF000E1B2F9D110BD2DE9F04106460F4600F0D0
:102F000053F9041E0D4618BF0120284320F000404D
:102F1000C0F17F6000F1E040C00F0ED0301C18BF40
:102F20000120384320F00040C0F17F6000F1E04014
:102F3000C00F04BF0120FDF76EF920462946BDE809
:102F4000F081000008B501210420FEF7F9FA4820BD
:102F5000ADF800008DF8030069460848FDF77AFADD
:102F6000B020ADF8000010208DF8030003208DF88C
:102F7000020069460248FDF76DFA08BD00080140ED
:102F800000180140491058BFC1F140415B1058BFC3
:102F9000C3F140438B42EFF3008070474FEA115377
:102FA000A3F58063D3F11E03A8BFD3F1200C08DB87
:102FB0004FF0004242EAC12252EA505232FA03F084
:102FC000704709420BD4102BC4BF0020704703F593
:102FD000787CBCF1FF3F05D04FF0FF3070474FF0D9
:102FE0000000704770B500F055F800BF499224808A
:102FF00000207047F0E7B0FA80F310FA03F10AD02E
:10300000C3F11D0303F580634FEA41504FEA0352B9
:1030100002EBD12170474FF00000704751EA030CDA
:1030200017D41CF5801F58BFBCF5801F00F1068027
:10303000994218BF704708BF9042704707D711F5F3
:10304000801F58BF13F5801F19D4994270478942D9
:1030500070471CF5801F08D5BCF5801FF7D58B4243
:1030600018BF704708BF824270474FF4001C1CEB2A
:10307000410F38BF1CEB430F01D28B42704770B534
:1030800000F008F8922449004FF000514FF08053AF
:10309000FFF778BF0EF1020E2EF0030E5EF8046B00
:1030A000364205D4012A43EB030515F5001F12D85B
:1030B000012841EB010C1CF5001F0CD80ED14FEA82
:1030C000D17C15F5001F0CEB4C0C0CF1020C08BF69
:1030D0004CEBD37C04E04FF0080C01E04FEAD37CCA
:1030E0000CEB4C0526FA05F606F00706B6F1040CC3
:1030F00006D20EEB860CBDE870404CF0010C604728
:10310000DFE80CF0090B02024FF000414FF0000025
:10311000A1F5002170BD19461046012851EB0104AC
:1031200018BFD4F5001484BF002001F0004170BD29
:103130000808A0F500114FEA3101704753EA010C6D
:1031400017D41CF5801F58BFBCF5801F00F1068006
:103150008B4218BF704708BF8242704707D713F5EC
:10316000801F58BF11F5801F19D48B4270479B42B6
:1031700070471CF5801F08D5BCF5801FF7D5994214
:1031800018BF704708BF904270474FF4001C1CEBFB
:10319000430F38BF1CEB410F01D2994270470FB467
:1031A0000CBC03BCFFF76BBF2DE9F04101F5801C9F
:1031B000BCF5001FC0F2C3804FEA115C21EA0C513C
:1031C0000CF1FD0C41F480115FEA5C0C0CF5C07C45
:1031D00001D3400049413DA4890241EA9051870250
:1031E0008E0E0A0CA45D04FB04F602FB06F6C6F183
:1031F0004046A4FB0662F60D46EA422606FB06F4AC
:10320000A4FB01235242C3F1404338BF5B1EA6FB1F
:1032100002420024E6FB0324D20B42EA4446A6FB0A
:103220000623A1FB02E2A3FB07E4A4184FF000026F
:1032300052F10002E3FB01426442C2F1404E38BF4A
:10324000AEF1010EA6FB04234FF00002E6FB0E32A6
:10325000A2FB03464FF00004B61954F10004E2FB50
:103260000264A1FB06E6A4FB07E816EB08064FF094
:10327000000858F10008E4FB01687642C8F14058A4
:1032800038BFA8F10108A2FB06E4A3FB08E52D194D
:103290004FF0000454F10004E2FB0854A1FB05E6E2
:1032A000A7FB04E818EB06084FF0000656F10006ED
:1032B000E1FB048618F1200556F10006A809A8F1E3
:1032C0001B08B10908F03F08B8F10A0F40EA866010
:1032D0001CD901EB0C51BDE8F08100BFFCF5EEE814
:1032E000E2DDD8D3CFCBC7C3C0BDB9B6B4B1AEACA5
:1032F000A9A7A5A3A19F9D9B9A9896959392908F1D
:103300008D8C8B898887868584838281A0FB006869
:1033100000FB01F208EB4208B8EB872807D5341808
:1033200058EB0104D5D5401C51F10001D1E7341A06
:1033300078EB0104CDD4401E71F10001C9E75FEACA
:103340004C0C5FEA9C5C0DD105D34FF0000001F0FE
:103350000041BDE8F081BDE8F04170B5FFF79AFE8D
:103360006DDBFFBEBDE8F0414FF000000049704743
:103370000000F87F43004FEAD30C4FEA3C0C434077
:103380001FBF40070CF1605113F0FE4F70471CF057
:10339000006F03D100200CF0004170470CF0004397
:1033A00043EA507010B540EACC0000F01CFA00BFB0
:1033B000000000924FEA0001FFF7BABE4FF0004153
:1033C0004FF00000A1F500217047000090EA010FC6
:1033D00048BF81F0004100F15882421A3CBF801A78
:1033E00089184FEAD0524FF07F4C1CEA410FA2EBF4
:1033F000D15318BF9CEA026F00F03B804FF0004CA5
:103400004CEA00204CEA012121FA03FC10EB0C0CE1
:103410001ED202F1FF325FEA1C2040EBC25038BFDF
:1034200070471CF07F0F4FEA400C18BFBCF17F4F74
:1034300038BF7047C3F12003994008BF20F0010056
:10344000BCF17F4F38BF7047A0F1C04000F011BA07
:103450004FEA3C00000A40EBC25028BF1CF0FF0FAF
:103460004FEA400CE6D018BFBCF17F4F38BF704721
:10347000EAE79CEA026F05D010EA5C0F08BF00F093
:103480000040704710B500F0AEF900BF64FBBE3ECF
:103490004FF47F0C1CEAD0121EBF1CEAD11392EA33
:1034A0000C0F93EA0C0F00F0858090EA010F48BFE3
:1034B00042F4807240F4000C41F400002CF07F4193
:1034C00020F07F4000B58142A2EB03020FF2081CFE
:1034D000ACEB504EC0F100009EF800E04FEA4E0EFB
:1034E00000FB0EFC38BF49004FEA2C1C02F5FA0223
:1034F0000CFB0EF34FEACE1E4FEA112C4FEAC1210E
:103500000EEB635E42EB22420EFB0CFC4FEA1C53B7
:1035100000FB03114FEA112C4FEA01310EFB0CFCAA
:103520004FEADC4C00FB0C11C14228BF09184CEBE0
:1035300003335DF804EB10EB410143EBC250B2F5ED
:103540007C0F38BF704729D512F0F00F1CBF00F177
:10355000C04000F0004070470081828384858687E8
:1035600088898B8C8D8E8F919293959697999A9C42
:103570009D9FA0A2A3A5A7A8AAACAEB0B2B3B5B7B1
:10358000B9BCBEC0C2C5C7C9CCCED1D4D7D9DCDF87
:10359000E2E6E9ECF0F3F7FAFE0000004FEA400C37
:1035A0000CF1807CBCF17E4F28BF7047B0F1C04069
:1035B00000F05FB990EA010F0CEAD11348BF42F462
:1035C0008072624538BF634507D213F47F0F16D06F
:1035D00080EA010000F00040704710B500F003F9E8
:1035E000097EFC3E00F005B880EA010000F00040D2
:1035F000704780EA010000F0004000F03AB912F490
:103600007F0F04BF0248704780EA010000F031B923
:103610000000C07F41000B0ED3F19E0208D950F488
:1036200000034FEA032323FA02F048BF40427047E9
:1036300010B500F0D8F800BF4992248000207047F0
:103640006FF0004282EA200070470000C10DD1F106
:103650009E0206DB4FEA002343F0004323FA02F008
:103660007047004207D54FEA4001B1F1FE4F02D248
:103670004FF00000704710B500F0B5F84992248073
:10368000002070476FEA20007047000010F00041F2
:1036900048BF4042B0FA80F310FA03F2C3F19D0331
:1036A0000BD051EAC35101EB1220530638BF7047CB
:1036B00000F1010008BF20F001007047B0FA80F36C
:1036C00010FA03F2C3F19D030AD0D90501EB1220D1
:1036D000530638BF704700F1010008BF20F0010019
:1036E000704700004FF47F0C1CEAD0121EBF1CEA8A
:1036F000D11392EA0C0F93EA0C0F00F0478090EA86
:10370000010F48BF42F480724FF0004C4CEA002099
:103710004CEA012102EB0302A0FB0113A2F5000217
:10372000002918BF43F001035B0028BF4FEA3303B1
:1037300042EB22425FEA132C4CEBC2502EBFBCEB93
:10374000436FB2F57C0F70474FEA036CBCF1004F3A
:1037500008BF20F00100B2F57C0F38BF70470BD5D1
:1037600082F0FF0212F5803FC8BF704700F1C040F1
:10377000D8BF00F00040704700F5000C5FEA4C0C29
:1037800048BF7047B0F1C04000F073B890EA010F35
:103790000CEAD11348BF42F48072624538BF6345DA
:1037A00004D280EA010000F00040704710B500F03C
:1037B0001AF800BF8900013E00F007B800F009B810
:1037C0005FEA410C5FEA1C6C08D080EA010000F05F
:1037D00050B85FEA400C5FEA1C6CF6D14FF0004035
:1037E000A0F5800070470EF1020E2EF0030E5EF879
:1037F000044B244204D44FEA4102B2F17F4F11D866
:103800004FEA4003B3F17F4F0CD80ED14FEAD07C82
:10381000B2F17F4F0CEB4C0C0CF1020C08BF4CEBDF
:10382000D17C04E04FF0080C01E04FEAD17C0CEBB6
:103830004C0324FA03F404F00704B4F1040C06D298
:103840000EEB840CBDE810404CF0010C6047DFE843
:103850000CF0070802024FF00040A0F5800010BDF8
:103860000846420018BFD2F1807288BF00F00040C5
:1038700010BDFF2141EAD050C005704790EA010F0A
:1038800048BF81F000413FF5A8AD421A04D882F04C
:103890000042A0EB020011444FEAD0524FF07F4C9F
:1038A0001CEA410FA2EBD15318BF9CEA026F4AD029
:1038B0004FF0004C4CEA00204CEA012121FA03FCB5
:1038C000B0EB0C0C0FD412F0FE0F36D05FEA4C00B8
:1038D0001DD5001240EBC25038BF70471CF03F0F9F
:1038E00018BF70470BE0A2F101025FEA1C2040EB19
:1038F000C25038BF70471CF07F0F18BF7047C3F12C
:103900002003994014BF401E20F00100704780083A
:103910004FEA122308BF7047B0FA80FCA2EB0C02FA
:10392000CCF1280C60FA0CF093EA122F04BF00EBE4
:10393000C25070474FEAC3707047130A5FEADC1049
:1039400008BF7047F6E79CEA026F04D010EA5C0FEC
:1039500008BF0020704710B5FFF745FF40DFF63E77
:1039600081F00040704700000000000000000000EF
:103970000000000004040404040400040000001417
:103980000A0A0000000000000000000014143F14A8
:103990000A3F0A0A000000041E1505060C14150F44
:1039A0000400000012150D0A142C2A120000000059
:1039B000040A0A1E15150936000000020201000063
:1039C0000000000000000020100808080808081087
:1039D000200000020408080808080804020000008B
:1039E0000004150E0E150400000000000404041F5E
:1039F00004040400000000000000000000000002B9
:103A0000020100000000001F000000000000000094
:103A10000000000000000002000000100808080478
:103A200004020202010000000E1111111111110E09
:103A300000000000040604040404040E000000005A
:103A40000E1111080402011F000000000E11100CDD
:103A50001010110E00000000080C0A0A091E0818B8
:103A6000000000001F01010F1010110E00000000E7
:103A70000E09010F1111110E000000001F090804AA
:103A800004040404000000000E11110E1111110EA7
:103A9000000000000E1111111E10120E0000000097
:103AA000000004000000000400000000000000040A
:103AB0000000000404000020100804020408102084
:103AC0000000000000001F00001F000000000002B6
:103AD0000408102010080402000000000E11110854
:103AE00004040004000000000E111915151D011E2C
:103AF0000000000004040C0A0A1E1233000000003B
:103B00000F12120E1212120F000000001E110101FE
:103B10000101110E000000000F1212121212120FFA
:103B2000000000001F120A0E0A02121F000000000F
:103B30001F120A0E0A020207000000001C120101F7
:103B40003911120C000000003312121E121212332F
:103B5000000000001F0404040404041F000000000F
:103B60003E080808080808090700000037120A067E
:103B70000A0A123700000000070202020202223F76
:103B8000000000001B1B1B1B151515150000000075
:103B90003B1216161A1A1217000000000E1111110E
:103BA0001111110E000000000F12120E0202020786
:103BB000000000000E1111111117190E180000005D
:103BC0000F12120E0A121237000000001E11010619
:103BD0000810110F000000001F1504040404040E57
:103BE00000000000331212121212120C000000002A
:103BF0003312120A0A0C0404000000001515150EF9
:103C00000A0A0A0A000000001B0A0A04040A0A1B26
:103C1000000000001B0A0A040404040E0000000057
:103C20001F0908040402121F0000001C04040404FD
:103C3000040404041C000002020204040808081022
:103C40000000000E08080808080808080E00000414
:103C50000A0000000000000000000000000000005A
:103C600000000000003F0004000000000000000011
:103C7000000000000000000C121C123C00000000BC
:103C80000302020E1212120E000000000000001CBF
:103C90001202021C000000001810101C1212123C2C
:103CA000000000000000000C121E021C00000000BA
:103CB0003804041E0404041E000000000000003C40
:103CC000120C021E221C00000302020E12121237F6
:103CD00000000000040000060404040E00000000C0
:103CE0000800000C08080808080700000302023A50
:103CF0000A0E123700000000070404040404041F25
:103D0000000000000000000F151515150000000050
:103D10000000000F12121237000000000000000C1B
:103D20001212120C000000000000000F1212120EFE
:103D3000020700000000001C1212121C10380000C4
:103D40000000001B06020207000000000000001E29
:103D5000020C101E000000000004040E04040418ED
:103D6000000000000000001B1212123C00000000C6
:103D700000000037120A0C040000000000000015CB
:103D8000150E0A0A000000000000001B0A040A1BAE
:103D90000000000000000037120A0C0404030000B9
:103DA0000000001E0804041E000000180808080493
:103DB000080808081800080808080808080808087B
:103DC000080800060404040804040404060002258C
:103DD00018000000000000000000000000000000CB
:103DE00000000000000000000000000000080808BB
:103DF0000808080800001818000000486C24120089
:103E00000000000000000000000000000024242446
:103E10007F1212127F12121200000000081C2A2AC0
:103E20000A0C1828282A2A1C080800000022251538
:103E300015152A585454542200000000000C121288
:103E4000120A76252911916E00000006060403006F
:103E500000000000000000000000004020101008DA
:103E60000808080808101020400000020408081084
:103E700010101010100808040200000000000808CC
:103E80006B1C1C6B08080000000000000000080804
:103E900008087F0808080800000000000000000073
:103EA00000000000000006060403000000000000FF
:103EB0000000FE0000000000000000000000000004
:103EC00000000000000006060000000080404020C6
:103ED0002010100808040402020000000018244208
:103EE00042424242424224180000000000080E08EC
:103EF000080808080808083E00000000003C42428C
:103F0000422020100804427E00000000003C424293
:103F1000201820404042221C0000000000203028D1
:103F2000242422227E20207800000000007E02024D
:103F3000021A26404042221C0000000000382402E1
:103F4000021A26424242241800000000007E22226B
:103F5000101008080808080800000000003C424251
:103F6000422418244242423C00000000001824422F
:103F7000424264584040241C000000000000000041
:103F800018180000000018180000000000000000D1
:103F90000008000000000008080400000040201095
:103FA0000804020408102040000000000000000087
:103FB0007F0000007F0000000000000000020408F5
:103FC000102040201008040200000000003C424283
:103FD000464020101000181800000000001C225A53
:103FE000555555552D42221C0000000000080818A8
:103FF0001414243C224242E700000000001F222249
:10400000221E22424242221F00000000007C424247
:10401000010101010142221C00000000001F224298
:10402000424242424242221F00000000003F421230
:10403000121E12120242423F00000000003F4212D4
:10404000121E12120202020700000000003C22228F
:10405000010101712122221C0000000000E7424200
:1040600042427E42424242E700000000003E080811
:10407000080808080808083E00000000007C10102E
:104080001010101010101010110F000000772212E5
:104090000A0E0A1212222277000000000007020214
:1040A000020202020202427F000000000077363660
:1040B00036362A2A2A2A2A6B0000000000E34646E8
:1040C0004A4A52525262624700000000001C2241DC
:1040D000414141414141221C00000000003F424259
:1040E00042423E020202020700000000001C224180
:1040F000414141414D53321C60000000003F4242AB
:10410000423E1212222242C700000000007C4242BE
:10411000020418204042423E00000000007F49088F
:10412000080808080808081C0000000000E74242D0
:10413000424242424242423C0000000000E742420A
:10414000222424141418080800000000006B4949B8
:1041500049495555362222220000000000E742243A
:1041600024181818242442E70000000000772222B7
:10417000141408080808081C00000000007E212014
:10418000101008040442423F0000007808080808A4
:10419000080808080808080878000000020204045B
:1041A00008080810102020204040001E1010101099
:1041B00010101010101010101E00003844000000E5
:1041C00000000000000000000000000000000000EF
:1041D000000000000000000000FF000608000000D2
:1041E00000000000000000000000000000000000CF
:1041F000003C4278444242FC0000000000030202FE
:10420000021A26424242261A000000000000000066
:1042100000384402020244380000000000604040C0
:1042200040784442424264D8000000000000000090
:10423000003C427E0202423C0000000000F0880880
:10424000087E08080808083E000000000000000082
:10425000007C22221C023C42423C0000000302027D
:10426000023A4642424242E700000000000C0C00C5
:10427000000E08080808083E00000000003030006A
:104280000038202020202020221E000000030202EF
:104290000272120A1612227700000000000E0808AF
:1042A000080808080808083E000000000000000098
:1042B000007F9292929292B70000000000000000EE
:1042C000003B4642424242E700000000000000007E
:1042D000003C42424242423C00000000000000001C
:1042E000001B26424242221E02070000000000007E
:1042F000007844424242447840E000000000000060
:1043000000774C040404041F0000000000000000BB
:10431000007C42023C40423E0000000000000008D9
:10432000083E0808080808300000000000000000EF
:1043300000634242424262DC0000000000000000D4
:1043400000E74224241408080000000000000000D8
:1043500000EB4949555522220000000000000000F2
:10436000007624181818246E0000000000000000D9
:1043700000E7422424141808080700000000000089
:10438000007E22100808447E000000C0202020206B
:104390002010202020202020C0001010101010100D
:1043A0001010101010101010101000060808080847
:1043B000081008080808080806000C32C2000000AF
:1043C00000000000000000000000C9EE000027FC13
:1043D000140414A4811042084040104017FC2040EF
:1043E000E0E0215022482C4620400040DBDA110456
:1043F0001124112411241124FD2411241124112429
:10440000112411241D24E124422402040404CAD0EE
:104410000200010000007FFC0100010001003FF8E4
:10442000210821082108210821282110010001006C
:10443000C8AB00000000018002400430180860068C
:104440001FF90100010001003FF801000100010017
:104450007FFEB6AF0000000000203E20007C00225E
:1044600000227F22102210221222122222422342F4
:104470003D82009CB5E70000010001001FF0610CC7
:10448000410441047FFC4104410441047FFC0100DC
:104490000102010201FCD7D3000000003FF8001028
:1044A00000600080010000807FFE0040004000208E
:1044B0000020002018400780BCBC102010201020D5
:1044C00013FEFC201020102015FC18843088D048E2
:1044D00010501020105051882606CAF50100012006
:1044E000011001107FFC03800540054009201110D8
:1044F000210841048102010001000100D3D0020023
:104500000200FFFE040004000FF0081018102FF046
:10451000481088100FF00810081008500820CFDE4F
:1045200000007BF84A08520853F8620852084BF81A
:104530004A444A486A3052204210428843064200A8
:10454000B9AB00800480048008400840102020108F
:104550004208820604000440082010203FF010109A
:104560000000CBBE00003FF8000800087FE800080C
:1045700000081F8810881088108810881F881088ED
:1045800000280010BBB600800080FC8004FC0504FD
:1045900049082A401440104028A024A0451081104A
:1045A000020804040802D3AD00002080133C12244A
:1045B00002240224F2241224122412B413281220FA
:1045C0001020282047FE0000C4FA0900090011FC51
:1045D0003204544899501148124414441140108038
:1045E00002005104511290120FF0B4BF00000020DD
:1045F000102013FE202026244A247A241224222468
:1046000023FC7C20002204227822003CC9AB00005D
:10461000000004000FF0102020207FFC2084208464
:10462000208420843FF82000200220021FFECCEED0
:1046300000000000204023FE204079FC220423FCDF
:10464000220423FC220423FC3A0465FA01980204A4
:10465000B3E40000010001007FFE02200410040802
:1046600008043FFC04420440044004420842104253
:10467000607EBED800000000207E3E8048804880DA
:1046800048FE48827F8208820C8214FA12842280BB
:10469000218040FED0CE000000007F84220822301E
:1046A00022C0220222047FC8223022C22202220417
:1046B000220822304040BBAD000000007FFE000019
:1046C0000FF011101110111051125FF2511251120E
:1046D00051124FF240027FFCD4B2000000007FFE76
:1046E00047E24812481247E24FF25012501251125C
:1046F000511242924472580A3FFCCDBC00000000A7
:104700003FFE440247F24C225362408243625E1AEB
:1047100041824062430240C240223FFCC6AC0000DE
:1047200000402040204020403FFE2000200020008C
:104730003FE0201020102010201040104010CFD457
:10474000000000003FFC200420043FFC2004200463
:104750001FF824441448144814480C5004407FFEA9
:10476000CABE000000003FFC0000000000007FFE09
:10477000008008900888108810842084208240825D
:104780000780B2CB0000002008207FFE00200078C8
:104790003F881108089009207FFE018003400D30FA
:1047A000310C4002B5A500000010081004203FF8AD
:1047B000210421043FFC210421043FF801007FFE75
:1047C000010001000100D6D000000100010001003D
:1047D0003FFC2104210421042104210421043FFC85
:1047E0000100010001000100D3A200000000082028
:1047F0007FFE0820092001003FF821082108210838
:104800001FF4014002200C10700ECEC40000010005
:10481000010000803F7C08100810041004200220D2
:1048200002400180018002601C18E006D7DB000016
:104830000000102011FE2202220249FC5800300024
:1048400013FE2528792401240D24722202A2BACF56
:1048500000000000018002400430180860061FF8C4
:1048600000001FF8200420042004200420041FF866
:10487000C1C10000010001007FFE00003FF82008D8
:104880003FF83FF8400647C248240820082210227B
:10489000603EB6C80000000000803FFE44105FFC90
:1048A0004410441043F040005FF84408423041C0D7
:1048B0004360BC1EB2E20000000067C21452055201
:1048C0000552C552255205520552155217522282E1
:1048D00022424442483ECAD4000000002014101472
:1048E00017FE00120010601013F01090109010903E
:1048F000149214EA1F0A0006B3CC0000000019FE4F
:104900007202120212027DFC18001BFE342050209D
:1049100053FE10201020102013FED0F200000000E3
:1049200000803FFE400047FC4208413040C05FFE2F
:10493000404240424044404840404440B5F70000B7
:10494000000023FE122202FA0222E22212FE12725A
:10495000128A128A128A16BA1A421202040EB9E296
:1049600000000100010411080908091009207FFE58
:104970000440044004400440084208421042607C65
:10498000B0E60000000048FE4900490049007EFEF4
:1049900041824144794445284528451045284644EC
:1049A0000382C8A800001000100013FC7D0411044D
:1049B0001904188434885048505010201050108822
:1049C00013041402CBF9000000003F7C204020407B
:1049D0003E40227E2244224422443E84208420847D
:1049E000408441044204C6C100003FF8200820086A
:1049F0003FF8241022202FF8222022203FFC2220E2
:104A00004220442084200820C4BB04407FFC044092
:104A10001FF010101FF010101FF00400FFFE111007
:104A20003FF8D116115011200100D0FD20801080D8
:104A300010FE0100FE0021FC20243C2424A024A020
:104A400024BC24A024A04560553E8A00D7AA20207B
:104A500020202020FDFC4020504093FEFC40108090
:104A600011FC1C04F0885050102010101010BFAA28
:104A700000007FFC08200820082008200820FFFEF6
:104A80000820082008200820102010202020402086
:104A9000D4B4000027FE1420144085FC450445FCD6
:104AA000150415FC2524E42024A829242A2230A05A
:104AB0000040D2BA0080204017FE11208120423CE5
:104AC0004244166412942348E248223022202250A5
:104AD00022880306BEA70FE0082008200FE0082068
:104AE00008200FE000007EFC428442847EFC428469
:104AF00042847EFC4284CDF800007FFC40044004E8
:104B0000421452944A54442444244A544A545294D9
:104B10006104400440144008D5BE1020082008203D
:104B20007E20003E04204420442025FC2904290442
:104B30000F04F104410401FC0104B0B41040102042
:104B4000102013FEFA02144410401BFE3088D08857
:104B5000110810D01020105050882304BCFC2010E5
:104B600020103B7C211441FE7A14A27C2710F97C92
:104B7000251025FE22102A10350028FE0000D0A3A3
:104B800010401020102011FEFC00108831043A0261
:104B900054885088905010501020105010881306E0
:104BA000D7BC01404120212023FE022016201BFCFF
:104BB0001220222023FCE2202220222023FE220099
:104BC0000200B4A520202020782049FC91247D24D7
:104BD000552455247DFC552454207C28542457FE0C
:104BE00045028C00C3FE1110111017FC1110FC00BF
:104BF00013F8120817F81A0833F8D04017FC10A061
:104C0000111052082406C9EE000000000000100038
:104C1000000800080C7FFC04401001C8A0021860C6
:104C200042301832231812C30014030004030C048A
:104C30007FF0080F80080B4078136018332018634A
:104C40001818831C19030818030000030000000053
:104C5000DBDA00000000000004100C04180C041043
:104C60008C04108C04108C04108C04D08C3F108C9D
:104C700004108C04108C04108C04108C04108C0410
:104C8000108C05F08C0E208C78208C20408C0080BD
:104C90008C01000C02000C000000CAD000000000D3
:104CA000000000300000180000180800001C1FFF62
:104CB000E000180000182007FFF004182004182056
:104CC00004182004182004182004182004182004B4
:104CD00018200418200418E00418400018000018D8
:104CE00000000000D6D0000000000000000000001E
:104CF00000000018000018000018000018003FFF16
:104D0000FE3018063018063018063018063018061F
:104D10003FFFFE30180600180000180000180000C1
:104D20001800001800000000000000000000CEC4C1
:104D3000000000000000000000003800001C00001F
:104D40000600FFFFFF06003006003003006003008E
:104D5000600180C000C18000E300003600001C003C
:104D600000770003C1E01E003C6000070000000067
:104D70000000000000000000B2E20000000000009F
:104D800000000000000040000321FF33398333118D
:104D90008333019B33C19B33719B33199B33019B3D
:104DA00033019B33119B3319B333303033306C03F1
:104DB00030C6036383032E01BE0000000000000024
:104DC0000000CAD400000000000000000000000045
:104DD0004000D83000CE1800C21C00C001FFFF0008
:104DE00000C0F800C01800C019FFC01818401818FB
:104DF000601918601B18611E18311C1FB139F01999
:104E000010000F000000000000000000D7D60000D6
:104E1000000000060000000300000000C0000001C8
:104E2000C0C0000107C00001FF00021FFE0007F024
:104E30001C0007C070000F00E0000E03F0001C0F04
:104E4000F0003C0F70003C00E0001800C0000000C3
:104E5000C0000000C0000000600000002000000052
:104E600037000001FF00007FF80007F830001F80C6
:104E700030000080300000C030000060600000188A
:104E8000E000000FC0000006000000000000CCE5BC
:104E90000000000000000000000000C0000000E072
:104EA000002001B800703FF80061FFC000C303009C
:104EB00001C60600038C060003080C0006080C005F
:104EC0000E18183F1E101BF31F903F0700803C1C5C
:104ED0000190707C019060FE01A0C3F801A00FD882
:104EE00003A00818036000180340001803C000184E
:104EF00003800018030000180000001800000010D4
:104F00000000003000000030000000000000000041
:104F1000B2E20000000000000000000000000000FD
:104F20000000020C1008071FF80403BFF00201BCC8
:104F3000300303EC3003015C600300D8600300D849
:104F400060038098620361B8430771B14306313250
:104F500043063376C3063A64C7063EECC0063E7885
:104F6000C0063C3040067C70000678E060067BFF9F
:104F7000F006F7C00006E40000064000000600004E
:104F800000060000007C00008FF000007C000000A4
:104F90000000CAD400000000000000000000000073
:104FA00000003F0000007F8000000180000000C082
:104FB000000000C0000000CE038000CFFFC000DD75
:104FC00041800FFE0007FFFC000C00F000180FC02E
:104FD0003E19FF40F311BC6083307FE003B1FE2037
:104FE000033380200370003003600010036000185A
:104FF00007C0000C07C00004078000020100000386
:10500000000000010000000000000000000000009F
:1050100000000000506C6561736520757365207435
:105020006865207374796C757320636C69636B2099
:105030007468652063726F7373206F6E2074686587
:105040002073637265656E2E5468652063726F739A
:10505000732077696C6C20616C77617973206D6F58
:10506000766520756E74696C207468652073637250
:1050700065656E2061646A7573746D656E74206910
:105080007320636F6D706C657465642E00000000A2
:10509000B05000080000002058000000280100085F
:1050A0000851000858000020A00700004401000833
:1050B0000000FFFF00000000A1240008692700088D
:1050C0005D1A000800000000000000000000000061
:1050D00000000000000000000000000000000000D0
:1050E000D09000001450000800F8E0071F00E0FF17
:1050F0001FF8000000000000000000000000000099
:085100000000000000000000A7
:04000005080000ED02
:00000001FF
